:100F70006D313042006D313242006D313442006DCE
:100F8000313642006D323042006D323442006D33F2
:100F90003242006D343842006D3634420053202511
:100FA000732025730D00662025730D007420222503
:100FB00073222025752025750D007A0D00464646C2
:100FC0004646460030303030303000534A535500EA
:100FD0000000000000000000000000000000000011
:100FE0000000000000000000000000000000000001
:100FF00000000000000000000000000000000000F1
:1010000000000000000000000000000000000000E0
:1010100000000000000000000000000000000000D0
:1010200000000000000000000000000000000000C0
:1010300000000000000000000000000000000000B0
:1010400000000000000000000000000000000000A0
:101050000000000000000000000000000000000090
:101060000000000000000000000000000000000080
:101070000000000000000000000000000000000070
:101080000000000000000000000000000000000060
:101090000000000000000000000000000000000050
:1010A0000000000000000000000000000000000040
:1010B0000000000000000000000000000000000030
:1010C0000000000000000000000000000000000020
:1013D900C10BC109C10CC110C10D5203010F700F1E
:0F13E900750F7A0F7F0F840F890F8E0F930F9858
:1013F900AF84E4900360F0A3F075840F758A838F3E
:01140900845E
:01140A0022BF
:10135F00AF8475840F75E12F75E20175E3C475A431
:10136F00017580FF7590FF75A0FF75B0FF75C8FF01
:0B137F0075D8FF75E8FF75F8FF8F843C
:01138A002240
:04140B0075A892220C
:10138B00AF84E4F584F5C875C90875CAF375CBFF4E
:10139B0085CBCD85CACC75C804F5847598507591ED
:0613AB000575A8908F8477
:0113B1002219
:03002300020D8645
:0D0D8600C0E0C0F0C083C082C0D075D010A6
:100D930090031BE584F0E4FBFAA3120CD0000000DF
:100DA30000758400209803020ECCC298900000E5E1
:100DB30099F0900313E0FEA3E0FFC3EE9401400318
:100DC300020E8B900000E0FD640D601D74012FF591
:100DD3008274013EF583EDF0900314E004F0700695
:100DE300900313E004F0020ECC900101E0FF647B5A
:100DF3007026A3E06463701AA3E0B46D15A3E0B496
:100E03007010A3E0B4650BA3E0B47D06D20BD20946
:100E13008043C20BC209803DEF64287034FAFBD3D0
:100E2300900314E09B900313E09A401F74012BF589
:100E33008274013AF583E0FF74012BF58274003A62
:100E4300F583EFF00BBB00010A80D4C20CD21080F3
:100E530004D20CC2107A007B00D3900314E09B9061
:100E63000313E09A401374012BF58274013AF5835E
:100E7300E4F00BBB00010A80E0900317E4F0A3F059
:100E8300900313F0A3F08041900313E0FEA3E0FF6F
:100E9300900317E0FCA3E0FDC39FEC9E501C74017C
:100EA3002DF58274013CF583E4F0900318E004F01F
:100EB3007006900317E004F080CE900317E4F0A3CC
:100EC300F0900313F0A3F0C210209903020F5FC246
:100ED30099300F03020F5D900319E0FEA3E0240194
:100EE300F58274023EF583E0F59990031AE004F06D
:100EF3007006900319E004F020991390031C120C60
:100F03009BE47B607A09F9F8D3120C8A50EAE47FF8
:100F1300607E09FDFC90031CE0F8A3E0F9A3E0FA6E
:100F2300A3E0FBC3120C8A4002D29990031C120C5B
:100F3300D000000000C3900319E094014004E4F0E2
:100F4300A3F0900315E0FEA3E0FF900319E0B516AC
:100F53000BA3E0B51706D20F8002D20A90031BE061
:020F6300F58413
:0B0F6500D0D0D082D083D0F0D0E0329A
:0612EF007B017A03796E19
:1012F50090046EE584F0120C5B604E200F14900391
:1013050015E0FEA3E0FF900319E06E7003A3E06F04
:10131500602E120C5BFF900315E475F001120C743E
:10132500FC740125F0F58274023CF583EFF0C3905F
:101335000315E094014004E4F0A3F0300F02C20F5E
:10134500740129F9E43AFA80AD300A07C20AE4F5D6
:0913550084D29990046EE0F58445
:01135E00226C
:0B10D000900360EBF0A3EAF0A3E9F04E
:1010DB00786E7C037D017BFF7A0F79D07E017F00D8
:1010EB00120C35E4FFFE0FBF00010EBE27F8BF1038
:1010FB00F590047174FFF0A3740FF0A3749DF0903E
:10110B000360E0F9A3E0FAA3E0900474C9F0A3EA4A
:10111B00F0A3E9F0900363E0F9A3E0FAA3E09004F5
:10112B0077C9F0A3EAF0A3E9F07B017A03796E1299
:10113B0008651212EF90047174FFF0A3740FF0A303
:10114B0074A6F0900366E025E02401F582E43403F5
:10115B00F583E0FEA3E0AA06F990047474FFF0A3F4
:10116B00EAF0A3E9F07A03796E1208651212EF9098
:10117B00047174FFF0A3740FF0A374ACF0900367C9
:10118B00E0F9A3E0FAA3E0900474C9F0A3EAF0A39A
:10119B00E9F090036AE0FFA3E0900477CFF0A3EFB0
:1011AB00F090036CE0FFA3E0900479CFF0A3EFF095
:1011BB007A03796E1208657B017A03796E0212F558
:1011CB00E4FDFC1213F912135F12140B12138BD2E2
:1011DB000AE4900315F0A3F0900319F0A3F0D20FDB
:1011EB0090047174FFF0A3740FF0A374BAF07B0139
:1011FB007A0379201208657B017A0379201212F5A4
:10120B00E4FCFD0DBD00010CBC27F8BD10F59003EF
:10121B006374FFF0A3740FF0A374C4F0A37402F013
:10122B00A374FFF0A3740FF0A374CBF0A3E4F0A3AB
:10123B007464F0A3E4F0A37464F07BFF7A0F79BDC0
:10124B001210D0E4FCFDC3ED9410EC648094A75015
:08125B008F0DBD00010C80EEB7
:0300000002126386
:0C126300787FE4F6D8FD7581220212AA03
:100B6500E709F608DFFA8046E709F208DFFA803E72
:100B750088828C83E709F0A3DFFA8032E309F6085F
:100B8500DFFA8078E309F208DFFA807088828C83C7
:100B9500E309F0A3DFFA806489828A83E0A3F6087B
:100BA500DFFA805889828A83E0A3F208DFFA804C55
:100BB50080D280FA80C680D4806980F2803380102C
:100BC50080A680EA809A80A880DA80E280CA803395
:100BD50089828A83ECFAE493A3C8C582C8CCC5830D
:100BE500CCF0A3C8C582C8CCC583CCDFE9DEE780DD
:100BF5000D89828A83E493A3F608DFF9ECFAA9F05C
:100C0500EDFB2289828A83ECFAE0A3C8C582C8CCB1
:100C1500C583CCF0A3C8C582C8CCC583CCDFEADECA
:100C2500E880DB89828A83E493A3F208DFF980CC2C
:100C350088F0EF60010E4E60C388F0ED2402B40425
:100C45000050B9F582EB2402B4040050AF232345CC
:060C55008223900BB57331
:100C5B00BB010689828A83E0225002E722BBFE0297
:090C6B00E32289828A83E49322CA
:100C7400A3F8E0C5F025F0F0E58215827002158333
:060C8400E0C838F0E82290
:100C8A00EB9FF5F0EA9E42F0E99D42F0E89C45F0C0
:010C9A002237
:100C9B007401FF3395E0FEFDFCA3A3A3E0CF2FF07F
:100CAB00E582158270021583E0CE3EF0E582158257
:100CBB0070021583E0CD3DF0E5821582700215833D
:050CCB00E0CC3CF0222A
:100CD000A8828583F0D083D082120CE7120CE71231
:100CE0000CE7120CE7E473E493A3C583C5F0C58356
:100CF000C8C582C8F0A3C583C5F0C583C8C582C86E
:010D000022D0
:10080000E5082471F582E43404F583E005082290BC
:10081000046E300703900471E475F001120D40027C
:100820000C5B2000E97F2ED2008018EF540F24903B
:10083000D43440D4FF30040BEF24BFB41A0050036B
:100840002461FFE50960021509050CE50C7002053D
:100850000B30070E90046EE475F001120D40EF02AC
:100860000D2E0213B27403D2078003E4C207F50809
:1008700090046E120D57E4F509F50BF50CE50960CF
:10088000077F2012084380F5750AFFC201C200C22B
:1008900002C203C205C206C20812080FFF700D3063
:1008A00007057F00120854AF0CAE0B22B4255FC2BF
:1008B000D5C20412080FFF24D0B40A00501A75F0F4
:1008C0000A780930D50508B6FF0106C6A426F62029
:1008D000D5047002D20380D924CFB41A00EF50049B
:1008E000C2E5D204020A55D20180C6D20080C0D22D
:1008F0000280BCD2D580BAD20580B47F20120843D2
:100900002002077401B5090040F1120800FF120827
:100910004302087DD208D2068095120800FB120817
:1009200000FA120800F94A4B700679267A0B7BFF11
:1009300020022EE509602A7E008E82758300120D4A
:100940000160060EEE650A70F0C2D5EBC0E0EAC0A9
:10095000E0E9C0E0EE120A9CD0E0F9D0E0FAD0E085
:10096000FB120C5BFF60AAEBC0E0EAC0E0E9C0E06C
:10097000120843D0E02401F9D0E03400FAD0E0FBC3
:10098000E50A0460DCD50AD980877BFF7A0A79986A
:10099000D202809C791080027908C206C2088008C1
:1009A000D2D5790A8004790AC2D5E50A047002F525
:1009B0000AE4FAFDFEFF120800FC7B082001131276
:1009C0000800FD7B1030000A120800FE120800FF2C
:1009D0007B20EC3382D592D55013C3E43000069FC0
:1009E000FFE49EFEE42001039DFDE49CFCE4CBF8C3
:1009F000C201EC700CCFCECDCCE824F8F870F380B7
:100A000017C3EF33FFEE33FEED33FDEC33FCEB3376
:100A1000FB994002FB0FD8E9EB300105F8D0E0C4A8
:100A200048B201C0E00AEC4D4E4F78207B0070C206
:100A3000EAB50A0040BCC0E0120A9ED0F0D0E02027
:100A40000104C4C0E0C4B201C0F012082CD0F0D53B
:100A5000F0EB02087D120D60091A5309945808EB57
:100A60004C08E74209984F09A04409A049090043EE
:080A700009A655098A46098A0E
:100A780045098A470B465008EF2D08F32E09162B17
:100A880008F7230914200B2F2A08AF480000090E85
:100A98003F3F3F00790AA2D5200314300509B91059
:100AA800020404B9080104A2D5200602500104205A
:100AB80002689202B509005034C0E07F2030031963
:100AC8007F30A20272067205500F120AF5C202C2E6
:100AD80006C205C2087F30800F300503E9C0E01266
:100AE8000843300503D0E0F9D0E0B509CC3005174C
:100AF8007F30B9100C1208437F583004077F788084
:100B080003B908031208433002057F2D0208437F0A
:100B1800202008F87F2B2006F322920280CF286E2F
:100B2800756C6C2900D2011208003001F8C20178F6
:100B38000930D50108F60208AF2D5043495812086C
:100B4800002403B405004001E4900B4193120834DB
:0D0B5800743A120834D2037509040209949E
:10126F000211CBE493A3F8E493A34003F68001F2B9
:10127F0008DFF48029E493A3F85407240CC8C33380
:10128F00C4540F4420C8834004F456800146F6DF4F
:10129F00E4800B01020408102040809013D9E47EF3
:1012AF00019360BCA3FF543F30E509541FFEE49344
:1012BF00A360010ECF54C025E060A840B8E493A30B
:1012CF00FAE493A3F8E493A3C8C582C8CAC583CA36
:1012DF00F0A3C8C582C8CAC583CADFE9DEE780BEEE
:0113F80000F4
:100D0100BB010CE58229F582E5833AF583E02250A7
:100D110006E92582F8E622BBFE06E92582F8E222F1
:0D0D2100E58229F582E5833AF583E493220B
:100D2E00BB010689828A83F0225002F722BBFE01A4
:020D3E00F3229E
:100D4000F8E0FBA3A3E0F925F0F0E582158270023C
:070D50001583E0FA38F022E0
:090D5700EBF0A3EAF0A3E9F0229D
:100D6000D083D082F8E4937012740193700DA3A322
:100D700093F8740193F5828883E473740293686036
:060D8000EFA3A3A380DF36
:1013B200EFB40A07740D1213BD740A309811A8997C
:1013C200B8130CC2983098FDA899C298B811F6309B
:0713D20099FDC299F5992273
:00000001FF
