:10122C006D313042006D313242006D313442006D0F
:10123C00313642006D323042006D323442006D3333
:10124C003242006D3438006D363400532025732043
:10125C0025730D00662025730D0074202225732242
:10126C002025752025750D0078692025752025759C
:10127C002025750D006D2025750D007A0D00303080
:10128C003030303000464646464646007365742181
:10129C0000636667210073652100252D3362754359
:1012AC0000252D3362754600000000000000000090
:1012BC000000000000000000000000000000000022
:1012CC000000000000000000000000000000000012
:1012DC000000000000000000000000000000000002
:1012EC0000000000000000000000000000000000F2
:1012FC0000000000000000000000000000000000E2
:10130C0000000000000000000000000000000000D1
:10131C0000000000000000000000000000000000C1
:10132C0000000000000000000000000000000000B1
:10003E00C103C101C104C109C10652080F122C121D
:10004E00311236123B12401245124A124F1253C150
:0B005E00004200040000420006000009
:10002600AF84E4900DA8F0A3F075840F758A838FD2
:02003600842222
:1017EF00AF8475840F75E12F75E20175E3C475A49D
:1017FF000175A50175A7CA759C0F759D04E4F59E2B
:10180F00759F807580FF7590FF75A0FF75B0FF7590
:10181F00C8FF75D8FF75E8FF75F8FFC2FF8F8422E8
:0D18FA0075A89243E70143E74043E60A2248
:10182F00AF84E4F584F5C875C90875CAF375CBFFA5
:10183F0085CBCD85CACC75C804F584759850759144
:07184F000575A8908F8422AB
:07006A0075FFDE75FFAD22FA
:03002300020E9B2F
:100E9B00C0E0C0F0C083C082C0D075D010900D5997
:100EAB00E584F0E4FBFAA3120DDC0000000075846E
:100EBB0000209803021015C298900009E599F09054
:100ECB000D4DE0FEA3E0FFC3EE94024003020FD9E9
:100EDB00900009E0FD640D6019740F2FF582740208
:100EEB003EF583EDF0900D4DE475F001120D5E02B1
:100EFB00101590020FE0FF647B7027A3E064637012
:100F0B001BA3E0B46D16A3E0B47011A3E0B4650CA1
:100F1B00A3E0B47D07D203D201020FA6C203C20124
:100F2B008079EF64787034FAFBD3900D4EE09B9090
:100F3B000D4DE09A401F740F2BF58274023AF58326
:100F4B00E0FF740B2BF58274003AF583EFF00BBBCB
:100F5B0000010A80D4C204D209804090020FE064E1
:100F6B00287034FAFBD3900D4EE09B900D4DE09A18
:100F7B00401F740F2BF58274023AF583E0FF740B5C
:100F8B002BF58274003AF583EFF00BBB00010A805E
:100F9B00D4C204D2098004D204C2097A007B00D3E4
:100FAB00900D4EE09B900D4DE09A4013740F2BF576
:100FBB008274023AF583E4F00BBB00010A80E090E7
:100FCB000D51E4F0A3F0900D4DF0A3F0803C900D8B
:100FDB004DE0FEA3E0FF900D51E0FCA3E0FDC39FAD
:100FEB00EC9E5017740F2DF58274023CF583E4F0E0
:100FFB00900D5175F001120D5E80D3900D51E4F000
:10100B00A3F0900D4DF0A3F0C209209903021099A3
:10101B00C299200877900D53E0FEA3E0240FF582D0
:10102B0074043EF583E0F599900D53E475F00112CD
:10103B000D5E209913900D5A120DA7E47B487A266A
:10104B00F9F8D3120D8A50EAE47F487E26FDFC9016
:10105B000D5A120D9BC3120D8A4002D299900D5A54
:10106B00120DDC00000000C3900D53E0940440040B
:10107B00E4F0A3F0900D4FE0FEA3E0FF900D53E0E2
:10108B00B5160BA3E0B51706D2088002D202900D5D
:0F109B0059E0F584D0D0D082D083D0F0D0E032AD
:10169700900E36E584F0120CF0604E200814900D81
:1016A7004FE0FEA3E0FF900D53E06E7003A3E06FE1
:1016B700602E120CF0FF900D4FE475F001120D74BF
:1016C700FC740F25F0F58274043CF583EFF0C390AA
:1016D7000D4FE094044004E4F0A3F0300802C20880
:1016E700740129F9E43AFA80AD300207C202E4F541
:0A16F70084D299900E36E0F58422AB
:10141C00900E5E120E167BFF7A127957900E3912CF
:10142C000E16900E5E120E0D900E3C120E16900EB5
:10143C0061120E0D900E3F120E167B017A0E796C16
:10144C001208FA7B017A0E796C1216977BFF7A12CE
:10145C007960900E39120E16900E64E025E0240F80
:10146C00F582E43408F583E0FEA3E0AA06F9900EB9
:10147C003C120E167B017A0E796C1208FA7B017AFB
:10148C000E796C1216977BFF7A127966900E3912D0
:10149C000E16900E65120E0D900E3C120E16900E3E
:1014AC0068E0FFA3E0900E3FCFF0A3EFF0900E6A40
:1014BC00E0FFA3E0900E41CFF0A3EFF07B017A0E9A
:0F14CC00796C1208FA7B017A0E796C121697224E
:1017A500900EECECF0A3EDF0AD03AC027BFF7A12EA
:1017B5007974900E39120E16900E3CEEF0A3EFF0F0
:1017C500900EECE0FFA3E0900E3ECFF0A3EFF0AF5C
:1017D50005A3ECF0A3EFF07B017A0E79EE1208FA7F
:0A17E5007B017A0E79EE12169722AE
:061907007E0012185622BA
:101856007BFF7A127981900E39120E16900E3CEEAD
:10186600F0A3EFF07B017A0F796E1208FA7B017A0A
:071876000F796E1216972294
:1010AA00E4900FEEF0A3F090000AE06402706CA3E3
:1010BA00E064287031A3E024CE6012146017240281
:1010CA0060030211F97F021219070211F97F031254
:1010DA0019070211F97F041219070211F90211F90D
:1010EA000211F90211F9E4900FEEF0A3F0900FEE5D
:1010FA00E0FEA3E0FF240BF58274003EF583E07066
:10110A00030211F9740B2FF58274003EF583E4F0A3
:10111A00900FEE75F001120D5E80D290000AE06425
:10112A00037069A3E064287031A3E024CE6012142E
:10113A006017240260030211F97F021219070211D3
:10114A00F97F031219070211F97F04121907021114
:10115A00F90211F90211F90211F9E4900FEEF0A364
:10116A00F0900FEEE0FEA3E0FF240BF58274003E40
:10117A00F583E0607A740B2FF58274003EF583E400
:10118A00F0900FEE75F001120D5E80D590000AE026
:10119A006404705BA3E0B42824A3E024CE600E1498
:1011AA006012240270497F0212190780427F0312DB
:1011BA001907803B7F0412190780348032E4900FAC
:1011CA00EEF0A3F0900FEEE0FEA3E0FF240BF58211
:1011DA0074003EF583E06017740B2FF58274003EAD
:1011EA00F583E4F0900FEE75F001120D5E80D5E400
:1011FA00900FEEF0A3F0900FEEE0FEA3E0FF240BB9
:10120A00F58274003EF583E06017740B2FF5827443
:10121A00003EF583E4F0900FEE75F001120D5E804A
:02122A00D522CB
:10157700900DAA120DDC00000000900DAEE584F07E
:10158700E4F58420866C900DAA120DA77BA07A86BD
:1015970079017800D3120D8A4058C287E4900DA8CC
:1015A700F0A3F0900DA8E475F001120D5E900DA860
:1015B700E07003A3E0F470EBD287208714900DAAA4
:1015C700120DA77BA07A8679017800D3120D8A5075
:1015D700E9E4900DA8F0A3F0C3900DA9E0940A9058
:1015E7000DA8E064809480509AE475F001120D5EB6
:1015F70080E675C00775CF9143C040900DAEE0F50A
:0416070084C2002277
:1018C500AF84758401E4F5C8F5C975CBE275CA7AAC
:0B18D50085CBCD85CACCD2CA8F8422FF
:0300730002000385
:10000300C0D075D000C007AF8475840053C0BF4310
:0F001300C0408F84C2CFC2008F84D007D0D032BC
:1018E00074AD2FF582E43408F583EDF0EFFD7C0054
:0A18F0007B017A007F2012175822B6
:1018A400900DA8EFF0FD7C007B017A007F201214DC
:1018B400DB900DA8E0242EF582E43408F583E0FFE4
:0118C4002201
:1014DB00900DA9EFF0A3ECF0A3EDF0A3EAF0A3EBD2
:1014EB00F0A3E584F0E4F58420C7FD2000FA900D0D
:1014FB00AEE0F584900DA9E0FF245C6004248470B9
:10150B000E900DAAE0FCA3E0FDE4FBFA121758E4E1
:10151B00F58420C7FD2000FA900DA9E0900822F079
:10152B00900DAAE0FFA3E0900828CFF0A3EFF09076
:10153B000DACE0FFA3E0900D57CFF0A3EFF0D2007E
:10154B00D20AD2C520C7FD2000FA900DAEE0F5847B
:10155B00900DA9E0245C600D2484700F900825E0A9
:0C156B00700980F82290082CE060FA2241
:10175800A907E4900DAFF0A3F0A3F0A3E584F0E4AB
:10176800F58420C7FD2000FA900822E9F0AF059023
:101778000828ECF0A3EFF0E924556004248B7016D8
:10178800AF0390020BEAF0A3EFF0D200C20AD2C571
:0D17980090082DE060FA900DB2E0F584227B
:03003B0002052B90
:10052B00C0E0C0F0C083C082C0D075D010C20BE554
:10053B00C1131313541F120E1F0569010569020520
:10054B008E0305B704062F0506830608650706E923
:10055B000806FF0907650A08090B000008699008DF
:10056B0022E0F5C253C2FEA20AE43342C2C2C590D6
:10057B000002E4F0A3F0900000F0A3F0900008F06C
:10058B0002086B900822E06420600302086B90085D
:10059B0028E0FEA3E0FF64AB4E7007D2C4C200029A
:1005AB00086B8FC290082DE4F002086B900822E0D4
:1005BB00FF64206004EFB4B030C3900005E0940AF0
:1005CB00900004E09400500CE475F001120D5ED223
:1005DB00C502086B900004E4F0A3F090082D04F022
:1005EB00D2C4C200D20B02086B900822E064A46054
:1005FB000302086BC3900007E0940A900006E09496
:10060B0000500CE475F001120D5ED2C502086B9020
:10061B000006E4F0A3F090082404F0D2C4C200D288
:10062B000B02086B900822E06420600302086B90B9
:10063B00020BE0FEA3E0FF900000E0FCA3E0FDC393
:10064B009FEC9E5026900829E02DFF900828E03C57
:10065B00FE74AD2FF58274083EF583E0F5C2900071
:10066B0000E475F001120D5E02086BD2C4C200905B
:10067B00082D7401F002086B900822E0FFB4202BC8
:10068B00C3900005E0940A900004E09400500CE441
:10069B0075F001120D5ED2C502086B900004E4F0F8
:1006AB00A3F0D2C4C200D20B02086BEF64A46003A8
:1006BB0002086BC3900007E0940A900006E09400D8
:1006CB00500CE475F001120D5ED2C502086B900060
:1006DB0006E4F0A3F0D2C4C200D20B02086B900D5B
:1006EB0057E07004A3E064017005C2C202086BD22C
:1006FB00C202086B900822E0FFB4202BC3900005C8
:10070B00E0940A900004E09400500CE475F00112A0
:10071B000D5ED2C502086B900004E4F0A3F0D2C4C6
:10072B00C200D20B02086BEF64A4600302086BC318
:10073B00900007E0940A900006E09400500CE475DA
:10074B00F001120D5ED2C502086B900006E4F0A317
:10075B00F0D2C4C200D20B02086B900822E0F964FD
:10076B0020704E900D57E0FEA3E0FF900002E0FCDE
:10077B00A3E0FDC39FEC9E502D900829E02DFF9028
:10078B000828E03CFE742E2FF58274083EF583E5B5
:10079B00C2F0D2C2900002E475F001120D5E900817
:1007AB0025E4F002086BC2C29008257401F0020820
:1007BB006BE964A4600302086B900D57E0FEA3E0A5
:1007CB00FF900002E0FCA3E0FDC39FEC9E5025AF21
:1007DB00C2742C2DF58274093CF583EFF09008233D
:1007EB00F0D2C2900002E475F001120D5E90082C5D
:1007FB00E4F0806CC2C290082C7401F08062900807
:10080B0022E0FFB4202F900002E0FCA3E0FD900853
:10081B0029E02DFD900828E03CFC742E2DF5827408
:10082B00083CF583E5C2F0D2C4C200D2C2900825C1
:10083B007401F0802BEFB4A427900002E0FEA3E03C
:10084B00242CF58274093EF583E5C2F0D2C4C200B4
:10085B00D2C290082C7401F08006D20B8002D20B0E
:10086B00300B1A53C0BF43C040C2C5C2C4C2C2C2C0
:10087B0000C20B90082D7401F0900825F0C2C3D074
:0A088B00D0D082D083D0F0D0E0324C
:10133C00900DA8120E1678B67C0D7D017BFF7A12EB
:10134C0079B47E007F80120CCAE4FFFE0FBF00014F
:10135C000EBE27F8BF10F57BFF7A127957900E3925
:10136C00120E16900DA8120E0D900E3C120E169029
:10137C000DAB120E0D900E3F120E167B017A0D79ED
:10138C00B61208FA7B017A0D79B61216977BFF7AA2
:10139C00127960900E39120E16900DAEE025E024F5
:1013AC000FF582E43408F583E0FEA3E0AA06F99079
:1013BC000E3C120E167B017A0D79B61208FA7B01DF
:1013CC007A0D79B61216977BFF7A127966900E39E0
:1013DC00120E16900DAF120E0D900E3C120E1690B2
:1013EC000DB2E0FFA3E0900E3FCFF0A3EFF0900D15
:1013FC00B4E0FFA3E0900E41CFF0A3EFF07B017AB5
:10140C000D79B61208FA7B017A0D79B6121697226D
:10170100900DA8EEF0A3EFF078AA7C0D7D017BFF90
:101711007A1379347E007F08120CCAE4FFFE0FBFF2
:1017210000010EBE27F8BF10F57BFF7A1279819078
:101731000E39120E16900DA8E0FFA3E0900E3CCFDB
:10174100F0A3EFF07B017A0D79AA1208FA7B017AF6
:071751000D79AA1216972280
:10007600E4900D5EF0A3F0A3F0A3F0A3F0A3F0A329
:10008600F0A3F0A3F0A304F012006A1200261217E0
:10009600EF1218FA12182F1215771218C5D202E4A9
:1000A600900D4FF0A3F0900D53F0A3F0D2087BFF14
:1000B6007A127987900E39120E167B017A0D7968BD
:1000C6001208FA7B017A0D79681216977F047E0072
:1000D60012170190020DE0FEA3E0FFEE600302039B
:1000E6002DEF24FD70030202721470030201B7247F
:1000F60002600302032D900D66E07002A3E06038F3
:10010600E4900D66F0A3F07BFF7A127991900DAB27
:10011600120E16900DAE7408F07A127998A3120E8C
:1001260016900DB2E4F0A374F0F0A3E4F0A3746E9D
:10013600F07A12798A12133C90000CE0FFB4311E5B
:10014600A3E0B43319A3E0B4311490020DE4F0A394
:100156007402F0900D66E4F0A304F00200D9EFB447
:10016600311F90000DE0B43218A3E0B438139002AA
:100176000DE4F0A304F0900D66E4F0A304F0020091
:10018600D990000CE0643160030200D9A3E0643327
:1001960060030200D9A3E0643260030200D9900232
:1001A6000DF0A37403F0900D66E4F0A304F00200D2
:1001B600D9900D66E07002A3E06038E4900D66F019
:1001C600A3F07BFF7A127991900DAB120E16900D6B
:1001D600AE7408F07A12799DA3120E16900DB2E451
:1001E600F0A374F0F0A3E4F0A3746EF07A12798AA7
:1001F60012133C90000CE0FFB4311EA3E0B4331997
:10020600A3E0B4311490020DE4F0A37402F0900D53
:1002160066E4F0A304F00200D9EFB4311F90000D9C
:10022600E0B43218A3E0B4381390020DE4F0A3044E
:10023600F0900D66E4F0A304F00200D990000CE003
:10024600643160030200D9A3E0643360030200D97D
:10025600A3E0643260030200D990020DF0A3740398
:10026600F0900D66E4F0A304F00200D9900D66E06C
:100276007002A3E06038E4900D66F0A3F07BFF7A8D
:10028600127991900DAB120E16900DAE7408F07A9D
:100296001279A2A3120E16900DB2E4F0A374F0F038
:1002A600A3E4F0A3746EF07A12798A12133C9000DC
:1002B6000CE0FFB4311EA3E0B43319A3E0B431144B
:1002C60090020DE4F0A37402F0900D66E4F0A3042E
:1002D600F00200D9EFB4311F90000DE0B43218A33C
:1002E600E0B4381390020DE4F0A304F0900D66E438
:1002F600F0A304F00200D990000CE0643160030220
:1003060000D9A3E0643360030200D9A3E06432603D
:10031600030200D990020DF0A37403F0900D66E479
:10032600F0A304F00200D97F361218A4900B2CEF2C
:10033600F0900D66E07002A3E06059E4900D66F05F
:10034600A3F07BFF7A1279A6900E39120E16900B47
:100356002CE0900E3CF07B017A0D79681208FA7B4E
:10036600FF7A127991900DAB120E16900DAE7408AD
:10037600F07B017A0D7968A3120E16900DB2E4F0A7
:10038600A374F0F0A3E4F0A3746EF07BFF7A127905
:100396008A12133C200913900B2CE0FF900D62E0AB
:1003A6007003A3E06F70030200D9900B2CE0FFFDF1
:1003B600900D62E4F0A3EDF090000CE064317065FE
:1003C600A3E06432705FA3E064397059900D64F065
:1003D600A304F07BFF7A1279A6900E39120E1690BE
:1003E6000E3CEFF07B017A0D79681208FA7BFF7AF2
:1003F600127991900DAB120E16900DAE7408F07B2B
:10040600017A0D7968A3120E16900DB2E4F0A3746A
:10041600F0F0A3E4F0A3746EF07BFF7A12798A12EF
:10042600133C0200D990000CE06431707BA3E064B9
:10043600337075A3E06430706F900D64F0A3F09094
:100446000B2CE075F009A4FFAEF07C007D05120DC3
:1004560009EF2420FFF07BFF7A1279AD900E391256
:100466000E16900E3CEFF07B017A0D79681208FAB1
:100476007BFF7A127991900DAB120E16900DAE7429
:1004860008F07B017A0D7968A3120E16900DB2E47E
:10049600F0A374F0F0A3E4F0A3746EF07BFF7A127D
:1004A600798A12133C0200D990000CE0FFB4311E89
:1004B600A3E0B43319A3E0B4311490020DE4F0A321
:1004C6007402F0900D66E4F0A304F00200D9EFB4D4
:1004D600311F90000DE0B43218A3E0B43813900237
:1004E6000DE4F0A304F0900D66E4F0A304F002001E
:1004F600D990000CE0643160030200D9A3E06433B4
:1005060060030200D9A3E0643260030200D99002BE
:100516000DF0A37403F0900D66E4F0A304F002005E
:05052600D90200D922FA
:0300000002160BDA
:0C160B00787FE4F6D8FD758122021652AB
:100BFA00E709F608DFFA8046E709F208DFFA803EDD
:100C0A0088828C83E709F0A3DFFA8032E309F608C9
:100C1A00DFFA8078E309F208DFFA807088828C8331
:100C2A00E309F0A3DFFA806489828A83E0A3F608E5
:100C3A00DFFA805889828A83E0A3F208DFFA804CBF
:100C4A0080D280FA80C680D4806980F28033801096
:100C5A0080A680EA809A80A880DA80E280CA8033FF
:100C6A0089828A83ECFAE493A3C8C582C8CCC58377
:100C7A00CCF0A3C8C582C8CCC583CCDFE9DEE78047
:100C8A000D89828A83E493A3F608DFF9ECFAA9F0C6
:100C9A00EDFB2289828A83ECFAE0A3C8C582C8CC1C
:100CAA00C583CCF0A3C8C582C8CCC583CCDFEADE35
:100CBA00E880DB89828A83E493A3F208DFF980CC97
:100CCA0088F0EF60010E4E60C388F0ED2402B40490
:100CDA000050B9F582EB2402B4040050AF23234537
:060CEA008223900C4A7306
:100CF000BB010689828A83E0225002E722BBFE0202
:090D0000E32289828A83E4932234
:100D0900BC000BBE0029EF8DF084FFADF022E4CCCE
:100D1900F875F008EF2FFFEE33FEEC33FCEE9DEC97
:100D2900984005FCEE9DFE0FD5F0E9E4CEFD22EDDD
:100D3900F8F5F0EE8420D21CFEADF075F008EF2F27
:100D4900FFED33FD4007985006D5F0F222C398FD18
:050D59000FD5F0EA22B5
:100D5E00C5F0F8A3E028F0C5F0F8E5821582700220
:060D6E001583E038F022BD
:100D7400A3F8E0C5F025F0F0E58215827002158332
:060D8400E0C838F0E8228F
:100D8A00EB9FF5F0EA9E42F0E99D42F0E89C45F0BF
:010D9A002236
:0C0D9B00E0F8A3E0F9A3E0FAA3E0FB22DB
:100DA7007401FF3395E0FEFDFCA3A3A3E0CF2FF072
:100DB700E582158270021583E0CE3EF0E58215824A
:100DC70070021583E0CD3DF0E58215827002158330
:050DD700E0CC3CF0221D
:100DDC00A8828583F0D083D082120DF3120DF3120A
:100DEC000DF3120DF3E473E493A3C583C5F0C5832F
:100DFC00C8C582C8F0A3C583C5F0C583C8C582C861
:010E0C0022C3
:090E0D00E0FBA3E0FAA3E0F922E6
:090E1600EBF0A3EAF0A3E9F022DD
:100E1F00D083D082F8E4937012740193700DA3A362
:100E2F0093F8740193F5828883E473740293686076
:060E3F00EFA3A3A380DF76
:10089500E5082439F582E4340EF583E00508229055
:1008A5000E36301303900E39E475F001120E8402F2
:1008B5000CF0200CE97F2ED20C8018EF540F2490F9
:1008C500D43440D4FF30100BEF24BFB41A005003CA
:1008D5002461FFE50960021509050CE50C700205A8
:1008E5000B30130E900E36E475F001120E84EF02F4
:1008F5000E7202187D7403D2138003E4C213F50847
:10090500900E36120E16E4F509F50BF50CE50960A7
:10091500077F201208D880F5750AFFC20DC20CC2E8
:100925000EC20FC211C212C2141208A4FF700D30FC
:1009350013057F001208E9AF0CAE0B22B4255FC288
:10094500D5C2101208A4FF24D0B40A00501A75F0BD
:100955000A780930D50508B6FF0106C6A426F62093
:10096500D5047002D20F80D924CFB41A00EF5004F9
:10097500C2E5D210020AEAD20D80C6D20C80C0D2DE
:100985000E80BCD2D580BAD21180B47F201208D88F
:10099500200E077401B5090040F1120895FF1208F1
:1009A500D8020912D214D2128095120895FB1208AA
:1009B50095FA120895F94A4B700679BB7A0B7BFFBD
:1009C500200E2EE509602A7E008E82758300120EA8
:1009D5004560060EEE650A70F0C2D5EBC0E0EAC0D0
:1009E500E0E9C0E0EE120B31D0E0F9D0E0FAD0E05A
:1009F500FB120CF0FF60AAEBC0E0EAC0E0E9C0E042
:100A05001208D8D0E02401F9D0E03400FAD0E0FB98
:100A1500E50A0460DCD50AD980877BFF7A0B792D3E
:100A2500D20E809C791080027908C212C214800807
:100A3500D2D5790A8004790AC2D5E50A047002F58F
:100A45000AE4FAFDFEFF120895FC7B08200D13123F
:100A55000895FD7B10300C0A120895FE120895FFCB
:100A65007B20EC3382D592D55013C3E4300C069F1E
:100A7500FFE49EFEE4200D039DFDE49CFCE4CBF821
:100A8500C20DEC700CCFCECDCCE824F8F870F38015
:100A950017C3EF33FFEE33FEED33FDEC33FCEB33E1
:100AA500FB994002FB0FD8E9EB300D05F8D0E0C407
:100AB50048B20DC0E00AEC4D4E4F78207B0070C265
:100AC500EAB50A0040BCC0E0120B33D0F0D0E020FC
:100AD5000D04C4C0E0C4B20DC0F01208C1D0F0D5F9
:100AE500F0EB020912120E1F09AF530A29580980AB
:100AF5004C097C420A2D4F0A35440A35490995436C
:080B05000A3B550A1F460A1FB6
:100B0D00450A1F470BDB5009842D09882E09AB2B95
:100B1D00098C2309A9200BC42A094448000009A304
:100B2D003F3F3F00790AA2D5200F14301109B910AB
:100B3D00020404B9080104A2D520120250010420B8
:100B4D000E68920EB509005034C0E07F20300F19A9
:100B5D007F30A20E72127211500F120B8AC20EC28A
:100B6D0012C211C2147F30800F301103E9C0E012A0
:100B7D0008D8301103D0E0F9D0E0B509CC30111709
:100B8D007F30B9100C1208D87F583010077F78804D
:100B9D0003B908031208D8300E057F2D0208D87F3F
:100BAD00202014F87F2B2012F322920E80CF286E76
:100BBD00756C6C2900D20D120895300DF8C20D78A8
:100BCD000930D50108F60209442D50434958120841
:100BDD00952403B405004001E4900BD6931208C987
:0D0BED00743A1208C9D20F750904020A29D2
:10161700020076E493A3F8E493A34003F68001F273
:1016270008DFF48029E493A3F85407240CC8C333D4
:10163700C4540F4420C8834004F456800146F6DFA3
:10164700E4800B010204081020408090003EE47EF5
:10165700019360BCA3FF543F30E509541FFEE49398
:10166700A360010ECF54C025E060A840B8E493A35F
:10167700FAE493A3F8E493A3C8C582C8CAC583CA8A
:10168700F0A3C8C582C8CAC583CADFE9DEE780BE42
:010069000096
:100E4500BB010CE58229F582E5833AF583E0225062
:100E550006E92582F8E622BBFE06E92582F8E222AC
:0D0E6500E58229F582E5833AF583E49322C6
:100E7200BB010689828A83F0225002F722BBFE015F
:020E8200F32259
:100E8400F8E0FBA3A3E0F925F0F0E58215827002F7
:070E94001583E0FA38F0229B
:10187D00EFB40A07740D121888740A309811A899DC
:10188D00B8130CC2983098FDA899C298B811F630CB
:07189D0099FDC299F59922A3
:00000001FF
