:1010A3003134353700534554205345434F4E445351
:1010B30000534554204D494E555445530053455410
:1010C30020484F5552530053455420414D2F504D06
:1010D30000534554204441544500534554204D4F3B
:1010E3004E5448005345542059454152006D313008
:1010F30042006D313242006D313442006D3136426F
:10110300006D323042006D323442006D33324200A2
:101113006D3438006D3634004E4F4E0053554E003B
:101123004D4F4E0054554500574544005448550013
:1011330046524900534154004A414E00464542003D
:101143004D415200415052004D4159004A554E0005
:101153004A554C0041554700534550004F435400F6
:101163004E4F560044454300534554204441544593
:1011730020414E442054494D45202020202020006A
:1011830057524954494E4720444154412E2E2E2054
:101193005741495421202000444154412053554391
:1011A3004345535346554C4C5920534156454400EF
:1011B3004552524F52202020202020202020202042
:1011C3002020202020202000532025732025730D6C
:1011D30000662025730D00742022257322202575B7
:1011E3002025750D00786920257520257520257526
:1011F3000D006D2025750D002573200046464646DB
:1012030046460030303030303000256275202020D3
:1012130000323025303262750025634D20200053A3
:101223004554204D4F4E54482000534554204441CB
:101233005445202000534554205945415220200055
:1012430053455420484F5552202000534554204DB8
:10125300494E5554450053455420414D2F504D2080
:1012630000505245535320444F4E45002D2D2D2DF4
:101273000025732025303262752C20323025303220
:1012830062750030304646303000253262753A25AB
:10129300303262753A25303262752025634D200065
:1012A3002573002020202000310032003300340059
:1012B3003500360037003800390030002A0023009B
:1012C3007A0D0063666721007376632100252D3351
:1012D30062754300252D3362754600424144000088
:1012E30000000000000000000000000000000000FB
:1012F30000000000000000000000000000000000EB
:1013030000000000000000000000000000000000DA
:1013130000000000000000000000000000000000CA
:1013230000000000000000000000000000000000BA
:1013330000000000000000000000000000000000AA
:10134300000000000000000000000000000000009A
:10135300000000000000000000000000000000008A
:071363000000000000000083
:1027A400420DA1000041096E0043085CFF10A34ED6
:1027B4000D9110A810B410C010CA10D410DD10E789
:1027C400C106C104C107C10FC10A52083310F01079
:1027D400F510FA10FF11041109110E11131117C18C
:1027E40002410014004102310041085B0050001610
:1027F400111B111F11231127112B112F1133113705
:102804005A0DB3111B113B113F11431147114B11C9
:102814004F11531157115B115F116311674809641C
:10282400116B1183119B11B3420004000042000696
:102834000000420008000041000B0041000C004170
:10284400000D0041000E0041000F00410010004245
:042854000228000155
:102DA700AF84E4900E29F0A3F075840F758A838FA2
:012DB7008497
:012DB80022F8
:102C9E00AF8475840F75E12F75E20175E3C475A4D9
:102CAE000175A50175A7CA759C0F759D04E4F59E67
:102CBE00759F807580FF7590FF75A0FF75B0FF75CD
:0F2CCE00C8FF75D8FF75E8FF75F8FFC2FF8F8448
:012CDD0022D4
:0D2DF70075A89243E70143E74043E60A2236
:102CDE00AF84E4F584F5C875C90875CAF375CBFFE2
:102CEE0085CBCD85CACC75C804F584759850759181
:062CFE000575A8908F840B
:012D040022AC
:072E040075FFDE75FFAD2232
:03002300021AC0FE
:0D1AC000C0E0C0F0C083C082C0D075D0105F
:101ACD00900DDAE584F0E4FBFAA312153C0000005A
:101ADD0000758400209803021C3CC298900011E50B
:101AED0099F0900DA3E0FEA3E0FFC3EE9402400336
:101AFD00021BFB900011E0FD640D601D74332FF58A
:101B0D008274023EF583EDF0900DA4E004F07006B2
:101B1D00900DA3E004F0021C3C900233E0FF647BC7
:101B2D007026A3E06463701AA3E0B46D15A3E0B44E
:101B3D007010A3E0B4650BA3E0B47D06D206D20409
:101B4D008079C206C2048073EF6478702EFAFBD3DD
:101B5D00900DA4E09B900DA3E09A405574332BF5A6
:101B6D008274023AF583E0FF74262BF58274003AF5
:101B7D00F583EFF00BBB00010A80D4900233E064D3
:101B8D00287034FAFBD3900DA4E09B900DA3E09A3E
:101B9D00401F74332BF58274023AF583E0FF7426EF
:101BAD002BF58274003AF583EFF00BBB00010A8030
:101BBD00D4C207D20F8004D207C20F7A007B00D3A4
:101BCD00900DA4E09B900DA3E09A401374332BF578
:101BDD008274023AF583E4F00BBB00010A80E090B9
:101BED000DA9E4F0A3F0900DA3F0A3F08041900DAA
:101BFD00A3E0FEA3E0FF900DA9E0FCA3E0FDC39FD1
:101C0D00EC9E501C74332DF58274023CF583E4F088
:101C1D00900DAAE004F070D6900DA9E004F080CEEE
:101C2D00900DA9E4F0A3F0900DA3F0A3F0C20F2046
:101C3D009903021CCFC299300C03021CCD900DAC40
:101C4D00E0FEA3E02433F58274043EF583E0F599BC
:101C5D00900DADE004F07006900DACE004F020990D
:101C6D0013900DDB121507E47B487A26F9F8D31291
:101C7D0014F650EAE47F487E26FDFC900DDBE0F87B
:101C8D00A3E0F9A3E0FAA3E0FBC31214F64002D2DD
:101C9D0099900DDB12153C00000000C3900DACE0D7
:101CAD0094044004E4F0A3F0900DA7E0FEA3E0FF40
:101CBD00900DACE0B5160BA3E0B51706D20C800263
:081CCD00D205900DDAE0F58468
:0B1CD500D0D0D082D083D0F0D0E0321D
:062ABB007B017A0E79F7A1
:102AC100900EC1E584F0121460604E200C14900D3C
:102AD100A7E0FEA3E0FF900DACE06E7003A3E06FF2
:102AE100602E121460FF900DA7E475F0011214E03E
:102AF100FC743325F0F58274043CF583EFF0C39048
:102B01000DA7E094044004E4F0A3F0300C02C20CE1
:102B1100740129F9E43AFA80AD300507C205E4F5FC
:092B210084D299900EC1E0F58404
:012B2A002288
:10251000A3F0A37401F0A3E4F0A3F07493A3F07B01
:05252000FF7A1179FFB4
:0B252500900EE9EBF0A3EAF0A3E9F050
:10253000900EC474FFF0A37411F0A374CBF0900E4E
:10254000E9E0F9A3E0FAA3E0900EC7C9F0A3EAF02E
:10255000A3E9F0900EECE0F9A3E0FAA3E0900ECA34
:10256000C9F0A3EAF0A3E9F07B017A0E79F7120D26
:10257000A3122ABB900EC474FFF0A37411F0A374CD
:10258000D4F0900EEFE025E02433F582E43408F532
:1025900083E0FEA3E0AA06F9900EC774FFF0A3EA59
:1025A000F0A3E9F07A0E79F7120DA3122ABB900E70
:1025B000C474FFF0A37411F0A374DAF0900EF0E08D
:1025C000F9A3E0FAA3E0900EC7C9F0A3EAF0A3E9EB
:1025D000F0900EF3E0FFA3E0900ECACFF0A3EFF06F
:1025E000900EF5E0FFA3E0900ECCCFF0A3EFF07AD1
:0F25F0000E79F7120DA37B017A0E79F7022AC13B
:0C2C5500900F77ECF0A3EDF0AD03AC02A3
:102C6100900EC474FFF0A37411F0A374E8F0A3EE06
:102C7100F0A3EFF0900F77E0FFA3E0900EC9CFF043
:102C8100A3EFF0AF05A3ECF0A3EFF07B017A0F798E
:0D2C910079120DA37B017A0F7979022AC117
:052E0B007E00022D2CE9
:102D2C00900EC474FFF0A37411F0A374F5F0A3EE2D
:102D3C00F0A3EFF07B017A0F79F9120DA37B017AE6
:062D4C000F79F9022AC113
:10218400E49011C8F0A3F0900015E06402705B9035
:102194000026E064287019A3E024CE600D14600DBD
:1021A400240260030222B002226A02226E02227218
:1021B400E49011C8F0A3F09011C8E0FEA3E0FF245E
:1021C40026F58274003EF583E070030222B0742683
:1021D4002FF58274003EF583E4F09011C9E004F019
:1021E40070D59011C8E004F080CD900015E0640330
:1021F4007058900026E064287016A3E024CE600C8A
:1022040014600B240260030222B0805A805C805E5A
:10221400E49011C8F0A3F09011C8E0FEA3E0FF24FD
:1022240026F58274003EF583E070030222B0742622
:102234002FF58274003EF583E4F09011C9E004F0B8
:1022440070D59011C8E004F080CD900015E06404CE
:10225400705A900026E0B4281CA3E024CE600B142E
:10226400600C240270467F0280067F0380027F0494
:10227400122E0B8037E49011C8F0A3F09011C8E03F
:10228400FEA3E0FF2426F58274003EF583E0601C83
:1022940074262FF58274003EF583E4F09011C9E0B2
:1022A40004F070D89011C8E004F080D0E49011C814
:1022B400F0A3F09011C8E0FEA3E0FF2426F5827499
:1022C400003EF583E0601C74262FF58274003EF511
:1022D40083E4F09011C9E004F070D89011C8E004D0
:0322E400F080D0B7
:0122E70022D4
:1026EE00900E2B12153C00000000900E2FE584F08A
:1026FE00E4F584208675900E2B1215077BA07A8642
:10270E0079017800D31214F64061C287E4900E2945
:10271E00F0A3F0900E2AE004F07006900E29E0046B
:10272E00F0900E29E07003A3E0F470E7D2872087C3
:10273E0014900E2B1215077BA07A8679017800D3A0
:10274E001214F650E9E4900E29F0A3F0C3900E2A6D
:10275E00E0940A900E29E0648094805096A3E004E1
:10276E00F070E9900E29E004F080E175C00775CF96
:10277E009143C040900E2FE0F584C202E4900859B8
:10278E00F090084CF090084BF0900857F0900D9F89
:05279E00F090096CF051
:0127A3002213
:102D7300AF84758401E4F5C8F5C975CBE275CA7AE9
:0A2D830085CBCD85CACCD2CA8F845F
:012D8D002223
:0300730002000385
:07000300C0D075D000C0075A
:10000A00AF8475840053C0BF43C0408F84C2CFC23F
:03001A00028F84CE
:05001D00D007D0D03235
:102D8E0074E12FF582E43408F583EDF0EFFD7C005D
:092D9E007B017A007F20022B96D4
:102D5200900E29EFF0FD7C007B017A007F20122982
:102D620008900E29E02461F582E43408F583E0FF3F
:012D7200223E
:0F2DCA00AE05EFFD7C00EEFB7A007FD0022B966A
:0F2DD900AE05EFFD7C00EEFB7A007FD0022908EB
:10290800900E2BEFF0A3ECF0A3EDF0A3EAF0A3EB0D
:01291800F0CE
:10291900A3E584F0E4F58420C7FD2002FA900E3087
:10292900E0F584900E2BE0FF245C600824D4600459
:1029390024B0700E900E2CE0FCA3E0FDE4FBFA122B
:102949002B96E4F58420C7FD2002FA900E2BE09027
:102959000847F0900E2CE0FFA3E0900852CFF0A3B7
:10296900EFF0900E2EE0FFA3E0900DB0CFF0A3EFB3
:10297900F0D202D210D2C520C7FD2002FA900E3043
:10298900E0F584900E2BE0245C601824D4600C24BC
:10299900B0701690084CE0701080F890096CE070E7
:0929A9000880F8900857E060FA7C
:0129B2002202
:022B9600A9078D
:102B9800E4900E31F0A3F0A3F0A3E584F0E4F5840B
:102BA80020C7FD2002FA900847E9F0AF05900852C7
:102BB800ECF0A3EFF0E92455600824DB601A24B098
:102BC800702C900226EAF0A3EBF0D202C210D2C514
:102BD800900859E0701880F8AF03900226EAF0A335
:102BE800EFF0D202C210D2C5900D9FE060FA900EAD
:042BF80034E0F5844C
:012BFC0022B6
:03003B000200764A
:0D007600C0E0C0F0C083C082C0D075D010C3
:10008300C214E5C1131313541F14B40B004003022D
:1000930005399000A375F003A4C58325F0C58373C8
:1000A3000200C40200C40200E90201260201C302E5
:1000B30002680205350202FA0203100203A70204D2
:1000C300A6900847E0F5C253C2FEA210E43342C231
:1000D300C2C5900002E4F0A3F0900000F0A3F090FA
:1000E300000AF002053B900847E0FFB4201E900889
:1000F30052E0FCA3E0FD64AB4C7007D2C4C2020221
:10010300053B8DC2900859E4F002053BEF64D060D3
:100113000302053B900852A3E0F5C2900D9FE4F063
:1001230002053B900847E0FFB4202CC3900005E094
:10013300940A900004E094005011A3E004F07006C8
:10014300900004E004F0D2C502053B900004E4F003
:10015300A3F09008598065EFB4D02CC3900007E05A
:10016300940A900006E094005011A3E004F0700696
:10017300900006E004F0D2C502053B900006E4F0CF
:10018300A3F0900D9F8035900847E064A4600302BC
:10019300053BC3900009E0940A900008E0940050E6
:1001A30011A3E004F07006900008E004F0D2C50249
:1001B300053B900008E4F0A3F090084B0402039D74
:1001C300900847E0F96420704A900226E0FEA3E01D
:1001D300FF900000E0FCA3E0FDC39FEC9E502A903B
:1001E3000853E02DFF900852E03CFE74E12FF582A6
:1001F30074083EF583E0F5C2900001E004F0705806
:10020300900000E004F002053BD2C4C202900859FA
:10021300020530E964D0600302053B900226E0FE4C
:10022300A3E0FF900000E0FCA3E0FDC39FEC9E5021
:100233002A900853E02DFF900852E03CFE74E12F12
:10024300F58274083EF583E0F5C2900001E004F006
:100253007006900000E004F002053BD2C4C2029095
:100263000D9F020530900847E0FFB42029C390009A
:1002730005E0940A900004E094005011A3E004F018
:100283007006900004E004F0D2C502053B90000420
:10029300E4F0A302039DEFB4D029C3900007E094D8
:1002A3000A900006E094005011A3E004F070069059
:1002B3000006E004F0D2C502053B900006E4F0A37B
:1002C30002039D900847E064A4600302053BC390CA
:1002D3000009E0940A900008E094005011A3E004A0
:1002E300F07006900008E004F0D2C502053B9000D0
:1002F30008E4F0A302039D900DB0E07004A3E06452
:10030300017005C2C202053BD2C202053B900847F9
:10031300E0FFB42028C3900005E0940A900004E0B5
:1003230094005011A3E004F07006900004E004F080
:10033300D2C502053B900004E4F0A3805DEFB4D086
:1003430028C3900007E0940A900006E0940050113F
:10035300A3E004F07006900006E004F0D2C50205A5
:100363003B900006E4F0A38031900847E064A4606A
:100373000302053BC3900009E0940A900008E0944F
:10038300005011A3E004F07006900008E004F0D2DE
:10039300C502053B900008E4F0A3F0D2C4C202D228
:1003A3001402053B900847E0F96420704F900DB0AC
:1003B300E0FEA3E0FF900002E0FCA3E0FDC39FEC9E
:1003C3009E5031900853E02DFF900852E03CFE749C
:1003D300612FF58274083EF583E5C2F0D2C2900026
:1003E30003E004F07006900002E004F090084CE48F
:1003F300F002053BC2C290084C020530E964D0709C
:1004030052900DB0E0FEA3E0FF900002E0FCA3E0F9
:10041300FDC39FEC9E5031900853E02DFF9008528E
:10042300E03CFE74612FF58274083EF583E5C2F06B
:1004330090096CE4F0D2C2900003E004F0700690DF
:100443000002E004F002053B90096C7401F0C2C2A3
:1004530002053BE964A4600302053B900DB0E0FE96
:10046300A3E0FF900002E0FCA3E0FDC39FEC9E50DD
:100473002AAFC2746F2DF58274093CF583EFF090B7
:100483000849F0D2C2900003E004F0700690000225
:10049300E004F0900857E4F002053BC2C29008570D
:1004A300020530900847E0FFB4202C900002E0FCE6
:1004B300A3E0FD900853E02DFD900852E03CFC744E
:1004C300612DF58274083CF583E5C2F0D2C4C20203
:1004D300D2C290084C8056EFB4D02F900002E0FEB9
:1004E300A3E0FF900853E02FFF900852E03EFE7414
:1004F300612FF58274083EF583E5C2F090096C74B0
:1005030001F0D2C4C202D2C2802E900847E0B4A444
:1005130027900002E0FEA3E0246FF58274093EF504
:1005230083E5C2F0D2C4C202D2C29008577401F06C
:100533008006D2148002D21430142A53C0BF43C0A1
:1005430040C2C5C2C4C2C2C202C2149008597401D7
:10055300F090084CF0900D9FF090096CF090084BD0
:07056300F0900857F0C2C33D
:0B056A00D0D0D082D083D0F0D0E0329F
:102DB9009008EF7404F0A37430F07D027F0E022DA9
:012DC900CA3F
:102A3F00900DCDE0FF1200269008E1EFF090022CF0
:102A4F00E0FF1200269008E2EFF090085FE0FF121F
:102A5F0000269008E4EFF090084AE0FF120026905D
:102A6F0008E5EFF090084DE0FF1200269008E6EF22
:102A7F00F0900856E0FF1200269008E7EFF090085C
:102A8F0058E0FF120026EF4440FF90022FE0FEB403
:102A9F005006EF4460FF8008EEB44104EF545FFF2F
:0C2AAF009008E3EFF07D07E4FF022DCA61
:101CE000E4900E29F0A3F07D07FF122DD990086132
:101CF000E0FF122DE8900DCDEFF0900862E0FF12AA
:101D00002DE890022CEFF0900863E0FF30E617908A
:101D1000085A7401F0EF90022F30E5057450F080FE
:101D20000A7441F08005E490085AF0EF541FFF1246
:101D30002DE8900858EFF0BF0C1090022FE0B4414E
:101D400003E48016900858E0801090022FE090087D
:101D500058B45005E0240C8001E0900845F090084C
:101D600064E0FF122DE890085FEFF0900865E0FF57
:101D7000122DE890084AEFF0900866E0FF122DE877
:101D800090084DEFF0900867E0FF122DE89008569C
:101D9000EFF090000BE0FF90084DE0B507189000C1
:101DA0000CE0FF90084AE0B5070C90000DE0FF90B2
:101DB0000856E06F6002D20390000EE0FF900858D2
:101DC000E0FEB5071890000FE0FF90022CE0B50789
:101DD0000C900010E0FF900DCDE06F6002D21390E8
:101DE000022FE0FBB4501FEE240CFFE433FE7C0016
:101DF0007D3C12147990022CE02FFFEC3E900E29CE
:101E0000F0A3EFF08028EBB44124900858E0B40C24
:101E100002E4F0900858E075F03CA4FF90022CE03A
:101E20007C002FFEEC35F0900E29F0A3CEF0900E42
:101E300029E0FAA3E0FB7C007D3CFFAE0212148B8C
:101E4000900231EDF07C007D3CAF03AE0212148BAA
:101E500090085BEFF090084AE090000CF090084D7D
:101E6000E090000BF0900856E090000DF0900858BC
:101E7000E090000EF090022CE090000FF0900DCD5D
:051E8000E0900010F0ED
:011E8500223A
:10200D00900851E07043900DA0E004F0D212E0D39F
:10201D00940C40037401F0900EC474FFF0A374117E
:10202D00F0A374FBF0900DA0E025E024B3F582E45D
:10203D00340DF583E0FEA3E0AA06F9900EC774FFF8
:10204D00F0A3EAF0A3E902214D900851E06401707C
:10205D0029900D90E004F0D211E0D3941F40037449
:10206D0001F0900EC474FFF0A37412F0A3740DF080
:10207D00900D90E0900EC702214D900851E0640242
:10208D007029900DA6E004F0D200E0D394634003D4
:10209D007463F0900EC474FFF0A37412F0A3741463
:1020AD00F0900DA6E0900EC702214D900851E0640E
:1020BD00037028900DABE004F0D201E0D3940C40F6
:1020CD00037401F0900EC474FFF0A37412F0A374A6
:1020DD000DF0900DABE0900EC78065900851E06457
:1020ED000470279008E0E004F0D20DE0D3943B405B
:1020FD0002E4F0900EC474FFF0A37412F0A3740DFB
:10210D00F09008E0E0900EC78036900851E064052D
:10211D007064900960E0FFB450057441F0800AEFDF
:10212D00B441069009607450F0D20E900EC474FF45
:10213D00F0A37412F0A3741CF0900960E0900EC728
:10214D00F07B017A1079BF120DA3900EEC74FFF0A5
:10215D00A37412F0A37406F0A37403F0A37401F03A
:10216D00A37410F0A374BFF0A37401F0A3E4F0A363
:06217D00F074D712251DCD
:012183002239
:101E8600900851E07043900DA0E014F0D212E0C328
:101E960094015003740CF0900EC474FFF0A37411F7
:101EA600F0A374FBF0900DA0E025E024B3F582E4E6
:101EB600340DF583E0FEA3E0AA06F9900EC774FF81
:101EC600F0A3EAF0A3E9021FD5900851E06401707F
:101ED60029900D90E014F0D211E0C39401500374E0
:101EE6001FF0900EC474FFF0A37412F0A3740DF0EB
:101EF600900D90E0900EC7021FD5900851E0640245
:101F0600702D900DA6E0D394004005E014F08005F6
:101F1600E4900DA6F0D200900EC474FFF0A37412E4
:101F2600F0A37414F0900DA6E0900EC7021FD59092
:101F36000851E06403702D900DABE0D3940040058A
:101F4600E014F08006900DAB740CF0D201900EC434
:101F560074FFF0A37412F0A3740DF0900DABE09033
:101F66000EC7806B900851E06404702D9008E0E085
:101F7600D394004005E014F080069008E0743BF02E
:101F8600D20D900EC474FFF0A37412F0A3740DF07A
:101F96009008E0E0900EC78036900851E064057026
:101FA60065900960E0FFB450057441F0800AEFB413
:101FB60041069009607450F0D20E900EC474FFF082
:101FC600A37412F0A3741CF0900960E0900EC7F0A1
:101FD6007B017A1079FF120DA3900EEC74FFF0A32B
:101FE6007412F0A37406F0A37403F0A37401F0A3B3
:101FF6007410F0A374FFF0A37401F0A3E4F0A3F04F
:06200600A374D712251E91
:01200C0022B1
:10189C00900851E004F0E07003021A37900851E010
:1018AC0064017035D211900EEC74FFF0A37412F039
:1018BC00A37406F0A37403F0A374FFF0A37412F0E6
:1018CC00742D122510900EC474FFF0A37412F0A3A3
:1018DC00740DF0900D900219DA900851E0640270CA
:1018EC0035D200900EEC74FFF0A37412F0A37406C2
:1018FC00F0A37403F0A374FFF0A37412F074381205
:10190C002510900EC474FFF0A37412F0A37414F09D
:10191C00900DA60219DA900851E064037036D201DA
:10192C00900EEC74FFF0A37412F0A37406F0A37481
:10193C0003F0A374FFF0A37412F0A37443122511E7
:10194C00900EC474FFF0A37412F0A3740DF0900DFC
:10195C00AB0219DA900851E064047037D20DD20E44
:10196C00900EEC74FFF0A37412F0A37406F0A37441
:10197C0003F0A374FFF0A37412F0A3744E1225119C
:10198C00900EC474FFF0A37412F0A3740DF09008C1
:10199C00E0803B900851E06405703AD20E900EEC5A
:1019AC0074FFF0A37412F0A37406F0A37403F0A3F5
:1019BC0074FFF0A37412F0A37459122511900EC485
:1019CC0074FFF0A37412F0A3741CF0900960E09003
:1019DC000EC7021A88900851E064067042D20E902D
:1019EC000EEC74FFF0A37412F0A37406F0A374034E
:1019FC00F0A374FFF0A37412F0A374641225119079
:101A0C000EEC74FFF0A37412F0A37406F0A374032D
:101A1C00F0A374FFF0A37412F0A3746F021AAF90CA
:101A2C000851E064076003021ABFF0D212900EEC6A
:101A3C0074FFF0A37412F0A37406F0A37403F0A364
:101A4C0074FFF0A37412F0A37422122511900EC42B
:101A5C0074FFF0A37411F0A374FBF0900DA0E025BB
:101A6C00E024B3F582E4340DF583E0FEA3E0AA068E
:101A7C00F9900EC774FFF0A3EAF0A3E9F07B017AAA
:101A8C0011793F120DA3900EEC74FFF0A37412F0B9
:101A9C00A37406F0A37403F0A37401F0A37411F003
:101AAC00A3743FF0A37401F0A3E4F0A3F0A374D7E4
:031ABC0012251ED2
:011ABF002204
:10285900301216900DA0E0FF1200269008E6EFF066
:102869007D017F05122DCAC212301116900D90E01C
:10287900FF1200269008E5EFF07D017F04122DCAB2
:10288900C211300016900DA6E0FF1200269008E74D
:10289900EFF07D017F06122DCAC200200103300E20
:1028A9003D900DABE0FF120026300E24900960E048
:1028B900FE90022FF0EF4440FFEEB45006EF446063
:1028C900FF800B900960E0B44104EF545FFFC20E32
:1028D9009008E3EFF07D017F02122DCAC201300D8D
:1028E900169008E0E0FF1200269008E2EFF07D0163
:0F28F9007F01122DCAC20DE4900851F0021CE0BD
:10003E00E4900DCDF090022CF0900858F090022F25
:10004E007450F090085F7401F090084AF090084DDB
:10005E00F0E4900856F0900230F090085A04F00246
:02006E002A3F27
:10002600EF75F00A84C454F0FEEF75F00A84E5F02B
:020036004EFF7B
:0100380022A5
:0E2DE800EFC4540F75F00AA4FEEF540F2EFF37
:012DF60022BA
:1025FF00121CE0900EC474FFF0A37412F0A3747455
:10260F00F090084DE025E024B3F582E4340DF58316
:10261F00E0FEA3E0AA06F9900EC774FFF0A3EAF05C
:10262F00A3E9F090084AE0900ECAF0900856E090A7
:10263F000ECBF07B017A11797F120DA3900EEC7403
:10264F00FFF0A37412F0A37406F0A37402F0A314A6
:10265F00F0A37411F0A3747FF0A3E4F0A37416F049
:10266F00A37401F0A37406F07BFF7A12798612250A
:10267F0025C203900EC474FFF0A37412F0A3748DDF
:10268F00F0900858E0900EC7F090022CE0900EC822
:10269F00F0900DCDE0900EC9F090022FE0900ECA91
:1026AF00F07B017A11797F120DA3900EEC74FFF07D
:1026BF00A37412F0A37406F0A37402F0A314F0A392
:1026CF007411F0A3747FF0A3E4F0A37416F0A37455
:0F26DF0001F0A3741AF07BFF7A12798602252589
:1022E800A3F0A3E4F0A374F0F0A3E4F0746EA3F0F9
:0622F8007BFF7A1279065B
:0B22FE00900E33EBF0A3EAF0A3E9F030
:1023090078417C0E7D017BFF7A1279E27E007F8025
:1023190012143AE4FFFE0FBF00010EBE27F8BF10EA
:10232900F5900EC474FFF0A37411F0A374CBF09070
:102339000E33E0F9A3E0FAA3E0900EC7C9F0A3EACF
:10234900F0A3E9F0900E36E0F9A3E0FAA3E0900ECD
:10235900CAC9F0A3EAF0A3E9F07B017A0E79411228
:102369000DA37B017A0E7941122AC1900EC474FF24
:10237900F0A37411F0A374D4F0900E39E025E02491
:1023890033F582E43408F583E0FEA3E0AA06F99068
:102399000EC774FFF0A3EAF0A3E9F07A0E794112AF
:1023A9000DA37B017A0E7941122AC1900EC474FFE4
:1023B900F0A37411F0A374DAF0900E3AE0F9A3E0F7
:1023C900FAA3E0900EC7C9F0A3EAF0A3E9F0900ED2
:1023D9003DE0FFA3E0900ECACFF0A3EFF0900E3FCF
:1023E900E0FFA3E0900ECCCFF0A3EFF07A0E794195
:0C23F900120DA37B017A0E7941022AC16B
:082BFD00900E29EEF0A3EFF0A9
:102C0500782B7C0E7D017BFF7A1379627E007F082D
:102C150012143AE4FFFE0FBF00010EBE27F8BF10E5
:102C2500F5900EC474FFF0A37411F0A374F5F09041
:102C35000E29E0FFA3E0900EC7CFF0A3EFF07B01D4
:102C45007A0E792B120DA37B017A0E792B022AC1FC
:08160800901079EEF0A3EFF061
:10161000E4A3F0A3F0A3F0A3F0900EC474FFF0A332
:101620007412F0A374A3F0A374FFF0A37412F0A3D8
:1016300074A6F07B017A10797F120DA3900E367498
:10164000FFF0A37411F0A374FFF0A37408F0A37467
:1016500001F0A37410F0A3747FF0A3E4F0A374F07E
:10166000F0A3E4F074281222F6901079E07002A33F
:10167000E0700490096EF0900027E0B4311AA3E006
:10168000B43415A3E0B431109011C274FFF0A37408
:1016900012F0A374AB0217FC900027E0B4311AA338
:1016A000E0B43415A3E0B432109011C274FFF0A37B
:1016B0007412F0A374AD0217FC900027E0B4311A45
:1016C000A3E0B43415A3E0B433109011C274FFF05A
:1016D000A37412F0A374AF0217FC900027E0B4319A
:1016E0001AA3E0B43415A3E0B434109011C274FF0F
:1016F000F0A37412F0A374B10217FC900027E0B4B9
:10170000311AA3E0B43415A3E0B435109011C274BB
:10171000FFF0A37412F0A374B30217FC900027E04B
:10172000B4311AA3E0B43415A3E0B436109011C25A
:1017300074FFF0A37412F0A374B50217FC90002795
:10174000E0B4311AA3E0B43415A3E0B4371090111B
:10175000C274FFF0A37412F0A374B70217FC9000D8
:1017600027E0B43119A3E0B43414A3E0B4380F90E7
:1017700011C274FFF0A37412F0A374B9807E9000BC
:1017800027E0B43119A3E0B43414A3E0B4390F90C6
:1017900011C274FFF0A37412F0A374BB805E9000BA
:1017A00027E0B43119A3E0B43414A3E0B4300F90AF
:1017B00011C274FFF0A37412F0A374BD803E9000B8
:1017C00027E0B43119A3E0B43514A3E0B4300F908E
:1017D00011C274FFF0A37412F0A374BF801E9000B6
:1017E00027E0B43129A3E0B43524A3E0B4311F903D
:1017F00011C274FFF0A37412F0A374C1F07B017ADC
:1018000009796E122B2B90107BE4F0A304F090105A
:101810007BE07002A3E0604DE490107FF090107DBB
:10182000F0A3F0901079E0FEA3E0FFD390107EE0EB
:101830009FEE6480F890107DE064809850279011AE
:10184000C274FFF0A37412F0A374BFF07B017A108E
:10185000797F122B2B90107EE004F070C690107DE3
:10186000E004F080BE900E3674FFF0A37411F0A374
:1018700074FFF0A37406F0A37401F0A37410F0A336
:10188000747FF0A3E4F0A374F0F0A3E4F0A3745029
:0B1890001222F790107BE0FEA3E0FFA7
:01189B00222A
:0B240500900E29EFF0A3EDF0A3EBF028
:10241000900EC474FFF0A37412F0A37474F0900EC5
:102420002EE025E024B3F582E4340DF583E0FEA32D
:10243000E0AA06F9900EC774FFF0A3EAF0A3E9F052
:10244000900E2DE0900ECAF0900E2FE0900ECBF083
:10245000900E30E0FBA3E0FAA3E0F9120DA3900E7A
:102460003674FFF0A37411F0A374FFF0A37408F0A6
:10247000900E30E0F9A3E0FAA3E0900E3AC9F0A381
:10248000EAF0A3E9F0A3E4F0A374F0F0A3E4F0A36E
:1024900074641222F7900EC474FFF0A37412F0A3B8
:1024A000748DF0900E2BE0900EC7F0900E2AE09005
:1024B0000EC8F0900E29E0900EC9F0900E2CE0901E
:1024C0000ECAF0900E30E0FBA3E0FAA3E0F9120D83
:1024D000A3900E3674FFF0A37411F0A374FFF0A361
:1024E0007408F0900E30E0F9A3E0FAA3E0900E3A01
:1024F000C9F0A3EAF0A3E9F0A37401F0A37490F08B
:10250000A3E4F0A37464F07BFF7A1279060222FE42
:10057500121CE0900DCDE0900860F090022CE09008
:10058500096DF0900858E0900013F090022FE0906C
:100595000B8FF090084AE0900DA5F090084DE09083
:1005A5000DCEF0900856E0900012F0E4900963F04B
:1005B500900962F0900963E06003020963900E36CA
:1005C50074FFF0A37411F0A374FFF0A37408F09006
:1005D5000962E025E02491F582E4340DF583E0FE1F
:1005E500A3E0AA06F9900E3A74FFF0A3EAF0A3E996
:1005F500F0A37401F0A37490F0A3E4F0A374641263
:1006050022F7900962E0705A900027E0643170216A
:10061500A3E06435701BA3E064387015900860E0B2
:10062500B43B05E4F002088F900860E004F002088E
:100635008F900027E0643160030208C1A3E06435B0
:1006450060030208C1A3E0643760030208C1900893
:1006550060E07005743BF08006900860E014F002DD
:10066500088F900962E064017059900027E06431B9
:100675007020A3E06435701AA3E064387014900903
:100685006DE0B43B04E4F0800690096DE004F002EF
:10069500088F900027E0643160030208C1A3E0647D
:1006A5003560030208C1A3E0643760030208C19006
:1006B500096DE07005743BF0800690096DE014F05B
:1006C50002088F900962E06402705A900027E06486
:1006D500317021A3E06435701BA3E0643870159078
:1006E5000013E0B40C057401F08006900013E004DB
:1006F500F002088F900027E0643160030208C1A36F
:10070500E0643560030208C1A3E0643760030208B2
:10071500C1900013E07005740CF08006900013E0A2
:1007250014F002088F900962E06403705B90002763
:10073500E064317021A3E06435701BA3E064387078
:1007450015900B8FE0B450057441F08006900B8F27
:100755007450F002088F900027E0643160030208AE
:10076500C1A3E0643560030208C1A3E064376003F8
:100775000208C1900B8FE0B450057441F0800690DB
:100785000B8F7450F002088F900962E06404705B6F
:10079500900027E064317021A3E06435701BA3E06D
:1007A50064387015900DA5E0B41F057401F080063E
:1007B500900DA5E004F002088F900027E0643160F9
:1007C500030208C1A3E0643560030208C1A3E06425
:1007D5003760030208C1900DA5E0B40105741FF050
:1007E5008006900DA5E014F002088F900962E06480
:1007F500057059900027E064317020A3E0643570DE
:100805001AA3E064387014900DCEE0B40C057401A1
:10081500F08006900DCEE004F0806F900027E06434
:100825003160030208C1A3E0643560030208C1A377
:10083500E0643760030208C1900DCEE0B401057491
:100845000CF08006900DCEE014F0803E900962E039
:1008550064067068900027E064317014A3E0643585
:10086500700EA3E064387008900012E004F0801A5E
:10087500900027E064317044A3E06435703EA3E046
:1008850064377038900012E014F0900860E0FF9033
:10089500096DE0FD900013E0FB900B8FE0900E2CAE
:1008A500F0900DA5E0900E2DF0900DCEE0900E2E5F
:1008B500F0900012E0900E2FF0122405900027E032
:1008C500FFB4311BA3E0B43516A3E0B4341190098D
:1008D50062E070057406F08006900962E014F0EF9E
:1008E500B4311D900028E0B43516A3E0B43511905D
:1008F5000962E0B40604E4F08006900962E004F0C1
:10090500900027E0643160030205B9A3E064356017
:10091500030205B9A3E0643760030205B9900860D6
:10092500E0900DCDF090096DE090022CF090001351
:10093500E0900858F0900B8FE090022FF0900DA5F5
:10094500E090084AF0900DCEE090084DF09000122E
:10095500E0900856F09009637401F00205B9022A87
:010965003F52
:10096600E4900DDFF0A3F0A3F0A3F0A3F0A3F0A3AF
:10097600F0A3F0A3F0A304F0122E04122DA7122C5C
:100986009E122DF7122CDE1226EE122D73D205E4DE
:10099600900DA7F0A3F0900DACF0A3F0D20C900E42
:1009A600C474FFF0A37412F0A374C3F07B017A0D34
:1009B60079E9120DA37B017A0D79E9122AC17F0329
:1009C6007E00122BFD900026E0FF900DD0E4F0A3F0
:1009D600EFF0900027E0FF900DD2E4F0A3EFF09047
:1009E6000028E0FF900DD4E4F0A3EFF0900029E09A
:1009F600FF900DD6E4F0A3EFF0E4A3F0A3F0900E81
:100A06003674FFF0A37411F0A374FFF0A37408F01A
:100A1600A37401F0A3740DF0A374D0F0E4A3F0A3C3
:100A2600F0A3F01222F6900228E0FEA3E0FFEE60AB
:100A360003020B9AEF24FD7003020B1B1460602463
:100A4600026003020B9A900DE7E07002A3E06007D4
:100A5600E4900DE7F0A3F0900027E0FFB4310DA37A
:100A6600E0B43308A3E0B43103020CE1EFB4310F74
:100A7600900028E0B43208A3E0B43803020CFB90DF
:100A86000027E0643160030209CBA3E0643360030E
:100A96000209CBA3E0643260030209CB020B9090FB
:100AA6000DE7E07002A3E06026E4900DE7F0A3F006
:100AB600900E3674FFF0A37411F0A374FFF0A374C4
:100AC60008F0A374FFF0A37412F074C61222E89023
:100AD6000027E0FFB4310DA3E0B43308A3E0B4313E
:100AE60003020CE1EFB4310F900028E0B43208A302
:100AF600E0B43803020CFB900027E0B43111A3E008
:100B0600B4330CA3E0B43207900228E4020B93122C
:100B160005750209CB900DE7E07002A3E06026E4BC
:100B2600900DE7F0A3F0900E3674FFF0A37411F069
:100B3600A374FFF0A37408F0A374FFF0A37412F07B
:100B460074CB1222E8900027E0FFB4310DA3E0B485
:100B56003308A3E0B43103020CE1EFB4310F900087
:100B660028E0B43208A3E0B43803020CFB90002757
:100B7600E0643160030209CBA3E064336003020939
:100B8600CBA3E0643260030209CB900228F0A37481
:100B960003020D027F36122D5290022BEFF0900DBC
:100BA600E7E07002A3E06046E4900DE7F0A3F09062
:100BB6000EC474FFF0A37412F0A374D0F090022B4D
:100BC600E0900EC7F07B017A0D79E9120DA3900E25
:100BD6003674FFF0A37411F0A374FFF0A37408F049
:100BE600A37401F0A3740DF0A374E91222E9200F97
:100BF6001390022BE0FF900DE3E07003A3E06F700B
:100C060003020CCF90022BE0FFFD900DE3E4F0A36E
:100C1600EDF0900027E064317022A3E06432701C8E
:100C2600A3E064397016900DE5F0A304F0900EC4AD
:100C360074FFF0A37412F0A374D0803E900027E0F6
:100C460064317062A3E06433705CA3E06430705674
:100C5600900DE5F0A3F090022BE075F009A4FFAE2D
:100C6600F07C007D0512148BEF2420FFF0900EC45B
:100C760074FFF0A37412F0A374D7F0A3EFF07B0116
:100C86007A0D79E9120DA3900E3674FFF0A3741154
:100C9600F0A374FFF0A37408F0A37401F0A3740D1D
:100CA600F0A374E9801D900E3674FFF0A37411F062
:100CB600A374FFF0A37408F0A374FFF0A37412F0FA
:100CC600A374DE1222E90209CB900027E0FFB431BB
:100CD60014A3E0B4330FA3E0B4310A900228E4F081
:100CE600A374028017EFB4311F900028E0B43218C5
:100CF600A3E0B43813900228E4F0A304F0900DE7C3
:100D0600E4F0A304F00209CB900027E0643160030D
:100D16000209CBA3E0643360030209CBA3E064328B
:100D260060030209CB900228F0A37403F0900DE74C
:080D3600E4F0A304F00209CB74
:030000000229B31F
:0C29B300787FE4F6D8FD7581230229FA34
:10136A00E709F608DFFA8046E709F208DFFA803E65
:10137A0088828C83E709F0A3DFFA8032E309F60852
:10138A00DFFA8078E309F208DFFA807088828C83BA
:10139A00E309F0A3DFFA806489828A83E0A3F6086E
:1013AA00DFFA805889828A83E0A3F208DFFA804C48
:1013BA0080D280FA80C680D4806980F2803380101F
:1013CA0080A680EA809A80A880DA80E280CA803388
:1013DA0089828A83ECFAE493A3C8C582C8CCC58300
:1013EA00CCF0A3C8C582C8CCC583CCDFE9DEE780D0
:1013FA000D89828A83E493A3F608DFF9ECFAA9F04F
:10140A00EDFB2289828A83ECFAE0A3C8C582C8CCA4
:10141A00C583CCF0A3C8C582C8CCC583CCDFEADEBD
:10142A00E880DB89828A83E493A3F208DFF980CC1F
:10143A0088F0EF60010E4E60C388F0ED2402B40418
:10144A000050B9F582EB2402B4040050AF232345BF
:06145A0082239013BA7317
:10146000BB010689828A83E0225002E722BBFE028A
:09147000E32289828A83E49322BD
:10147900EF8DF0A4A8F0CF8CF0A428CE8DF0A42E87
:02148900FE2241
:10148B00BC000BBE0029EF8DF084FFADF022E4CC45
:10149B00F875F008EF2FFFEE33FEEC33FCEE9DEC0E
:1014AB00984005FCEE9DFE0FD5F0E9E4CEFD22ED54
:1014BB00F8F5F0EE8420D21CFEADF075F008EF2F9E
:1014CB00FFED33FD4007985006D5F0F222C398FD8F
:0514DB000FD5F0EA222C
:1014E000A3F8E0C5F025F0F0E582158270021583BF
:0614F000E0C838F0E8221C
:1014F600EB9FF5F0EA9E42F0E99D42F0E89C45F04C
:0115060022C2
:101507007401FF3395E0FEFDFCA3A3A3E0CF2FF00A
:10151700E582158270021583E0CE3EF0E5821582E2
:1015270070021583E0CD3DF0E582158270021583C8
:05153700E0CC3CF022B5
:10153C00A8828583F0D083D08212155312155312D2
:10154C001553121553E473E493A3C583C5F0C583F7
:10155C00C8C582C8F0A3C583C5F0C583C8C582C8F9
:01156C00225C
:100D3E00E50824C4F582E4340EF583E0050822901C
:100D4E000EC1301C03900EC4E475F0011215C202E0
:100D5E0014602015E97F2ED2158018EF540F2490C1
:100D6E00D43440D4FF30190BEF24BFB41A00500313
:100D7E002461FFE50960021509050CE50C700205FA
:100D8E000B301C0E900EC1E475F0011215C2EF026D
:100D9E00159A022D057403D21C8003E4C21CF508BB
:100DAE00900EC11215D9E4F509F50BF50CE50960A5
:100DBE00077F20120D8180F5750AFFC216C215C27B
:100DCE0017C218C21AC21BC21D120D4DFF700D3074
:100DDE001C057F00120D92AF0CAE0B22B4255FC224
:100DEE00D5C219120D4DFF24D0B40A00501A75F059
:100DFE000A780930D50508B6FF0106C6A426F620E6
:100E0E00D5047002D21880D924CFB41A00EF500442
:100E1E00C2E5D219020F93D21680C6D21580C0D267
:100E2E001780BCD2D580BAD21A80B47F20120D8121
:100E3E002017077401B5090040F1120D3EFF120D87
:100E4E0081020DBBD21DD21B8095120D3EFB120DE1
:100E5E003EFA120D3EF94A4B700679647A107BFF0A
:100E6E0020172EE509602A7E008E827583001215EA
:100E7E006D60060EEE650A70F0C2D5EBC0E0EAC0FA
:100E8E00E0E9C0E0EE120FDAD0E0F9D0E0FAD0E0FF
:100E9E00FB121460FF60AAEBC0E0EAC0E0E9C0E01C
:100EAE00120D81D0E02401F9D0E03400FAD0E0FB3D
:100EBE00E50A0460DCD50AD980877BFF7A0F79D6E4
:100ECE00D217809C791080027908C21BC21D80083F
:100EDE00D2D5790A8004790AC2D5E50A047002F5E2
:100EEE000AE4FAFDFEFF120D3EFC7B0820161312DB
:100EFE000D3EFD7B1030150A120D3EFE120D3EFF0B
:100F0E007B20EC3382D592D55013C3E43015069F67
:100F1E00FFE49EFEE42016039DFDE49CFCE4CBF86A
:100F2E00C216EC700CCFCECDCCE824F8F870F3805E
:100F3E0017C3EF33FFEE33FEED33FDEC33FCEB3333
:100F4E00FB994002FB0FD8E9EB301605F8D0E0C450
:100F5E0048B216C0E00AEC4D4E4F78207B0070C2AE
:100F6E00EAB50A0040BCC0E0120FDCD0F0D0E020A1
:100F7E001604C4C0E0C4B216C0F0120D6AD0F0D58B
:100F8E00F0EB020DBB1215E20E58530ED2580E297D
:100F9E004C0E25420ED64F0EDE440EDE490E3E435B
:080FAE000EE4550EC8460EC802
:100FB600450EC8471084500E2D2D0E312E0E542B83
:100FC6000E35230E5220106D2A0DED4800000E4CF2
:100FD6003F3F3F00790AA2D5201814301A09B910EC
:100FE600020404B9080104A2D5201B025001042002
:100FF60017689217B509005034C0E07F20301819E1
:101006007F30A217721B721A500F121033C217C20A
:101016001BC21AC21D7F30800F301A03E9C0E012CE
:101026000D81301A03D0E0F9D0E0B509CC301A179B
:101036007F30B9100C120D817F583019077F7880E8
:1010460003B90803120D813017057F2D020D817F2C
:1010560020201DF87F2B201BF322921780CF286EAD
:10106600756C6C2900D216120D3E3016F8C2167831
:101076000930D50108F6020DED2D50434958120DE1
:101086003E2403B405004001E490107F93120D72D4
:0D109600743A120D72D218750904020ED2C0
:102B2B009011BFEBF0A3EAF0A3E9F09011C5EBF025
:102B3B00A3EAF0A3E9F09011BFE0FBA3E475F00169
:102B4B001214E0A9F0FA12146070EB9011C074FF2C
:102B5B00F5F01215AC9011C2E0FBA3E475F0011275
:102B6B0014E0A9F0FA121460FF9011BFE0FBA3E48C
:102B7B0075F0011214E0A9F0FAEF12159A70D690C5
:0B2B8B0011C5E0FBA3E0FAA3E0F92273
:1029BF00020966E493A3F8E493A34003F68001F2BF
:1029CF0008DFF48029E493A3F85407240CC8C33319
:1029DF00C4540F4420C8834004F456800146F6DFE8
:1029EF00E4800B01020408102040809027A4E47EAD
:1029FF00019360BCA3FF543F30E509541FFEE493DD
:102A0F00A360010ECF54C025E060A840B8E493A3A3
:102A1F00FAE493A3F8E493A3C8C582C8CAC583CACE
:102A2F00F0A3C8C582C8CAC583CADFE9DEE780BE86
:01285800007F
:10156D00BB010CE58229F582E5833AF583E0225033
:10157D0006E92582F8E622BBFE06E92582F8E2227D
:0D158D00E58229F582E5833AF583E4932297
:10159A00BB010689828A83F0225002F722BBFE0130
:0215AA00F3222A
:1015AC00C5F0F8A3E028F0C5F0F8E58215827002CA
:0615BC001583E038F02267
:1015C200F8E0FBA3A3E0F925F0F0E58215827002B2
:0715D2001583E0FA38F02256
:0915D900EBF0A3EAF0A3E9F02213
:1015E200D083D082F8E4937012740193700DA3A398
:1015F20093F8740193F5828883E4737402936860AC
:06160200EFA3A3A380DFAB
:102D0500EFB40A07740D122D10740A309811A899A2
:102D1500B8130CC2983098FDA899C298B811F6302E
:072D250099FDC299F5992206
:00000001FF
