:100F81003134353700534554205345434F4E445374
:100F910000534554204D494E555445530053455433
:100FA10020484F5552530053455420414D2F504D29
:100FB10000534554204441544500534554204D4F5E
:100FC1004E5448005345542059454152006D31302B
:100FD10042006D313242006D313442006D31364292
:100FE100006D323042006D323442006D33324200C6
:100FF1006D3438006D3634004E4F4E0053554E005F
:101001004D4F4E0054554500574544005448550036
:1010110046524900534154004A414E004645420060
:101021004D415200415052004D4159004A554E0028
:101031004A554C0041554700534550004F43540019
:101041004E4F5600444543005345542044415445B6
:1010510020414E442054494D45202020202020008D
:1010610057524954494E4720444154412E2E2E2077
:1010710057414954212020004441544120535543B4
:101081004345535346554C4C592053415645440012
:101091004552524F52202020202020202020202065
:1010A1002020202020202000532025732025730D8F
:1010B10000662025730D00742022257322202575DA
:1010C1002025750D00786920257520257520257549
:1010D1000D006D2025750D002573202530326275B8
:1010E1002C203230253032627500303046463030A7
:1010F1000030303030303000253262753A253032E0
:1011010062753A25303262752025634D20007420C6
:1011110022253373222025752025750D0074202288
:1011210025313173222025752025750D00736C2022
:1011310025752025752025752025752025752025E7
:1011410075202575202575203120257520257500F0
:101151007862622025730D0062762025730D00737D
:10116100762025752025750D0072202575202575A1
:101171002025752025752025752030303030303000
:101181000D00257300202020202000310032003383
:101191000034003500360037003800390030002AAD
:1011A1000023007A0D00464646464646004D6169D9
:1011B1006E74656E616E6365004552524F52004315
:1011C1006F6E666967004272696768746E657373F2
:1011D1003A2000257500566F6C756D653A20002523
:1011E1002D336275430054656D706572617475725B
:1011F1006500252D336275460000000000000000E7
:1012010000000000000000000000000000000000DD
:1012110000000000000000000000000000000000CD
:1012210000000000000000000000000000000000BD
:1012310000000000000000000000000000000000AD
:10312900420DA3000041096E0043085CFF0F814E68
:103139000D930F860F920F9E0FA80FB20FBB0FC5ED
:10314900C113C106C104C107C10FC10A5208330F17
:10315900CE0FD30FD80FDD0FE20FE70FEC0FF10FF2
:10316900F5C102410014004102310041085B0050E1
:1031790000160FF90FFD100110051009100D10119F
:1031890010155A0DB50FF91019101D102110251021
:1031990029102D103110351039103D1041104548B6
:1031A900096410491061107910914200040000422D
:1031B90000060000420008000041000B0041000C1D
:1031C9000041000D0041000E0041000F00410010B8
:0B31D900004202280001420D9100009E
:1038FF00AF84E4900E43F0A3F075840F758A838F25
:01390F008433
:013910002294
:1037CF00AF8475840F75E12F75E20175E3C475A49D
:1037DF000175A50175A7CA759C0F759D04E4F59E2B
:1037EF00759F807580FF7590FF75A0FF75B0FF7591
:0F37FF00C8FF75D8FF75E8FF75F8FFC2FF8F840C
:01380E002297
:0D395E0075A89243E70143E74043E60A22C3
:10380F00AF84E4F584F5C875C90875CAF375CBFFA5
:10381F0085CBCD85CACC75C804F584759850759144
:06382F000575A8908F84CE
:013835002270
:07396B0075FFDE75FFAD22C0
:0300230002212F88
:0D212F00C0E0C0F0C083C082C0D075D010E9
:10213C00900DD2E584F0E4FBFAA3121B63000000BF
:10214C00007584002098030222F3C298900011E5D8
:10215C0099F0900DA5E0FEA3E0FFC3EE94024003BE
:10216C000222B2900011E0FD640D601D74332FF556
:10217C008274023EF583EDF0900DA6E004F070063B
:10218C00900DA5E004F00222F3900233E0FF647B93
:10219C007028A3E06463701BA3E0B46D16A3E0B4D5
:1021AC007011A3E0B4650CA3E0B47D07D206D20491
:1021BC0002227FC206C20402227FEF64787030FADA
:1021CC00FBD3900DA6E09B900DA5E09A401F7433B5
:1021DC002BF58274023AF583E0FF74262BF582749A
:1021EC00003AF583EFF00BBB00010A80D4807A90A3
:1021FC000233E0F9646C703EFAFBD3900DA6E09BC1
:10220C00900DA5E09A401F74332BF58274023AF5B9
:10221C0083E0FF74262BF58274003AF583EFF00B04
:10222C00BB00010A80D474262BF58274003AF58326
:10223C00E4F0D213803DE964287034FAFBD3900D9E
:10224C00A6E09B900DA5E09A401F74332BF5827489
:10225C00023AF583E0FF74262BF58274003AF5837D
:10226C00EFF00BBB00010A80D4C207D20F8004D25E
:10227C0007C20F7A007B00D3900DA6E09B900DA5B2
:10228C00E09A401374332BF58274023AF583E4F030
:10229C000BBB00010A80E0900DABE4F0A3F0900DB5
:1022AC00A5F0A3F08041900DA5E0FEA3E0FF900DFA
:1022BC00ABE0FCA3E0FDC39FEC9E501C74332DF5EA
:1022CC008274023CF583E4F0900DACE004F070D61F
:1022DC00900DABE004F080CE900DABE4F0A3F09049
:1022EC000DA5F0A3F0C20F209903022386C29930EA
:1022FC000C03022384900DAEE0FEA3E02433F582A0
:10230C0074043EF583E0F599900DAFE004F070068F
:10231C00900DAEE004F0209913900DD3121B2EE417
:10232C007B487A26F9F8D3121B1D50EAE47F487ECD
:10233C0026FDFC900DD3E0F8A3E0F9A3E0FAA3E0AE
:10234C00FBC3121B1D4002D299900DD3121B6300CC
:10235C00000000C3900DAEE094044004E4F0A3F040
:10236C00900DA9E0FEA3E0FF900DAEE0B5160BA317
:10237C00E0B51706D20C8002D205900DD2E0F584A0
:0B238C00D0D0D082D083D0F0D0E0325F
:0634E0007B017A0E7997D2
:1034E600900F17E584F0121A87604E200C14900D89
:1034F600A9E0FEA3E0FF900DAEE06E7003A3E06FBF
:10350600602E121A87FF900DA9E475F001121B07B1
:10351600FC743325F0F58274043CF583EFF0C39018
:103526000DA9E094044004E4F0A3F0300C02C20CB0
:10353600740129F9E43AFA80AD300507C205E4F5CD
:0935460084D299900F17E0F5847E
:01354F002259
:102A4100900E8C74FFF0A37410F0A374F2F0A374D1
:102A510002F0900E43E0F9A3E0FAA3E0900E90C9D2
:102A6100F0A3EAF0A3E9F0A37401F0A3746DF0A35D
:0C2A7100E4F074FAA3F07BFF7A1079EB1C
:0B2A7D00900E89EBF0A3EAF0A3E9F053
:102A880078977C0E7D017BFF7A1179FA7E007F8032
:102A9800121A61900F1A74FFF0A37410F0A374A9AE
:102AA800F0900E89E0F9A3E0FAA3E0900F1DC9F0B9
:102AB800A3EAF0A3E9F0900E8CE0F9A3E0FAA3E012
:102AC800900F20C9F0A3EAF0A3E9F07B017A0E7910
:102AD80097121E2F1234E0900F1A74FFF0A374108F
:102AE800F0A374B2F0900E8FE025E02433F582E471
:102AF8003408F583E0FEA3E0AA06F9900F1D74FFE1
:102B0800F0A3EAF0A3E9F07A0E7997121E2F123497
:102B1800E0900F1A74FFF0A37410F0A374B8F0904B
:102B28000E90E0F9A3E0FAA3E0900F1DC9F0A3EA24
:102B3800F0A3E9F0900E93E0FFA3E0900F20CFF010
:102B4800A3EFF0900E95E0FFA3E0900F22CFF0A343
:102B5800EFF07A0E7997121E2F7B017A0E79970281
:022B680034E651
:0C378600900F3FECF0A3EDF0AD03AC029F
:10379200900F1A74FFF0A37410F0A374C6F0A3EE96
:1037A200F0A3EFF0900F3FE0FFA3E0900F1FCFF0E8
:1037B200A3EFF0AF05A3ECF0A3EFF07B017A0F7952
:0D37C20041121E2F7B017A0F79410234E67F
:053972007E0002385D3B
:10385D00900F1A74FFF0A37410F0A374D3F0A3EEBD
:10386D00F0A3EFF07B017A0F79C1121E2F7B017A45
:06387D000F79C10234E6E0
:1027A400E49010D0F0A3F0900015E06402705B9008
:1027B4000026E064287019A3E024CE600D14600D97
:1027C400240260030228D002288A02288E0228925A
:1027D400E49010D0F0A3F09010D0E0FEA3E0FF242A
:1027E40026F58274003EF583E070030228D0742637
:1027F4002FF58274003EF583E4F09010D1E004F0EC
:1028040070D59010D0E004F080CD900015E0640302
:102814007058900026E064287016A3E024CE600C63
:1028240014600B240260030228D0805A805C805E0E
:10283400E49010D0F0A3F09010D0E0FEA3E0FF24C9
:1028440026F58274003EF583E070030228D07426D6
:102854002FF58274003EF583E4F09010D1E004F08B
:1028640070D59010D0E004F080CD900015E06404A1
:10287400705A900026E0B4281CA3E024CE600B1408
:10288400600C240270467F0280067F0380027F046E
:102894001239728037E49010D0F0A3F09010D0E099
:1028A400FEA3E0FF2426F58274003EF583E0601C5D
:1028B40074262FF58274003EF583E4F09010D1E085
:1028C40004F070D89010D0E004F080D0E49010D0E0
:1028D400F0A3F09010D0E0FEA3E0FF2426F582746C
:1028E400003EF583E0601C74262FF58274003EF5EB
:1028F40083E4F09010D1E004F070D89010D0E0049C
:03290400F080D090
:0129070022AD
:1031E500900E45121B6300000000900E49E584F027
:1031F500E4F584208675900E45121B2E7BA07A86F9
:1032050079017800D3121B1D4061C287E4900E43FB
:10321500F0A3F0900E44E004F07006900E43E00435
:10322500F0900E43E07003A3E0F470E7D2872087A7
:1032350014900E45121B2E7BA07A8679017800D357
:10324500121B1D50E9E4900E43F0A3F0C3900E4409
:10325500E0940A900E43E0648094805096A3E004C5
:10326500F070E9900E43E004F080E175C00775CF7A
:103275009143C040900E49E0F584C202E49008599C
:10328500F090084CF090084BF0900857F0900DA185
:05329500F090096CF04F
:01329A002211
:1038A400AF84758401E4F5C8F5C975CBE275CA7AAD
:0A38B40085CBCD85CACCD2CA8F8423
:0138BE0022E7
:0300730002000385
:07000300C0D075D000C0075A
:10000A00AF8475840053C0BF43C0408F84C2CFC23F
:03001A00028F84CE
:05001D00D007D0D03235
:1038BF0074E12FF582E43408F583EDF0EFFD7C0021
:0938CF007B017A007F200235BB69
:10388300900E43EFF0FD7C007B017A007F20123223
:103893009B900E43E02461F582E43408F583E0FF56
:0138A3002202
:0F392200AE05EFFD7C00EEFB7A007FD00235BBD7
:0F393100AE05EFFD7C00EEFB7A007FD002329BEB
:10329B00900E4AEFF0A3ECF0A3EDF0A3EAF0A3EB52
:0132AB00F032
:1032AC00A3E584F0E4F58420C7FD2002FA900E4FCC
:1032BC00E0F584900E4AE0FF245C600824D460049E
:1032CC0024B0700E900E4BE0FCA3E0FDE4FBFA1270
:1032DC0035BBE4F58420C7FD2002FA900E4AE0903D
:1032EC000847F0900E4BE0FFA3E0900852CFF0A3FC
:1032FC00EFF0900E4DE0FFA3E0900DB2CFF0A3EFF6
:10330C00F0D202D210D2C520C7FD2002FA900E4F87
:10331C00E0F584900E4AE0245C601824D4600C2400
:10332C00B0701690084CE0701080F890096CE0704A
:09333C000880F8900857E060FADF
:013345002265
:0235BB00A9075E
:1035BD00E4900E50F0A3F0A3F0A3E584F0E4F584BD
:1035CD0020C7FD2002FA900847E9F0AF0590085298
:1035DD00ECF0A3EFF0E92455600824DB601A24B069
:1035ED00702C900226EAF0A3EBF0D202C210D2C5E5
:1035FD00900859E0701880F8AF03900226EAF0A306
:10360D00EFF0D202C210D2C5900DA1E060FA900E7B
:04361D0053E0F584FD
:013621002286
:03003B0002148C20
:0D148C00C0E0C0F0C083C082C0D075D01099
:10149900C215E5C1131313541F14B40B0040030202
:1014A90019559014B975F003A4C58325F0C5837344
:1014B9000214DA0214DA0214FF02153C0215DF02E3
:1014C900168402195102171602172C0217C30218A3
:1014D900C2900847E0F5C253C2FEA210E43342C2EB
:1014E900C2C5900002E4F0A3F0900000F0A3F090D0
:1014F900000AF0021957900847E0FFB4201E90082F
:1015090052E0FCA3E0FD64AB4C7007D2C4C20202F6
:1015190019578DC2900859E4F0021957EF64D06049
:1015290003021957900852A3E0F5C2900DA1E4F007
:10153900021957900847E0FF64206004EFB4B02C0B
:10154900C3900005E0940A900004E094005011A3B0
:10155900E004F07006900004E004F0D2C5021957C7
:10156900900004E4F0A3F09008598066900847E0E1
:10157900FFB4D02CC3900007E0940A900006E094D1
:10158900005011A3E004F07006900006E004F0D2C8
:10159900C5021957900006E4F0A3F0900DA180321E
:1015A900EF64A46003021957C3900009E0940A90FC
:1015B9000008E094005011A3E004F07006900008C0
:1015C900E004F0D2C5021957900008E4F0A3F090A6
:1015D900084B040217B9900847E0F96420704A9053
:1015E9000226E0FEA3E0FF900000E0FCA3E0FDC3BB
:1015F9009FEC9E502A900853E02DFF900852E03C42
:10160900FE74E12FF58274083EF583E0F5C290007F
:1016190001E004F07058900000E004F0021957D27C
:10162900C4C20290085902194CE964D06003021936
:1016390057900226E0FEA3E0FF900000E0FCA3E043
:10164900FDC39FEC9E502A900853E02DFF9008524D
:10165900E03CFE74E12FF58274083EF583E0F5C2A3
:10166900900001E004F07006900000E004F0021917
:1016790057D2C4C202900DA102194C900847E0FF4D
:10168900B42029C3900005E0940A900004E0940076
:101699005011A3E004F07006900004E004F0D2C5F4
:1016A900021957900004E4F0A30217B9EFB4D02946
:1016B900C3900007E0940A900006E094005011A33B
:1016C900E004F07006900006E004F0D2C502195754
:1016D900900006E4F0A30217B9900847E064A460FB
:1016E90003021957C3900009E0940A900008E09496
:1016F900005011A3E004F07006900008E004F0D255
:10170900C5021957900008E4F0A30217B9900DB269
:10171900E07004A3E064017005C2C2021957D2C285
:10172900021957900847E0FFB42028C3900005E04C
:10173900940A900004E094005011A3E004F07006AC
:10174900900004E004F0D2C5021957900004E4F0B7
:10175900A3805DEFB4D028C3900007E0940A9000FD
:1017690006E094005011A3E004F07006900006E032
:1017790004F0D2C5021957900006E4F0A380319015
:101789000847E064A46003021957C3900009E09474
:101799000A900008E094005011A3E004F07006904C
:1017A9000008E004F0D2C5021957900008E4F0A33C
:1017B900F0D2C4C202D215021957900847E0F96461
:1017C90020704F900DB2E0FEA3E0FF900002E0FC14
:1017D900A3E0FDC39FEC9E5031900853E02DFF908C
:1017E9000852E03CFE74612FF58274083EF583E5EA
:1017F900C2F0D2C2900003E004F07006900002E04B
:1018090004F090084CE4F0021957C2C290084C0247
:10181900194CE964D07052900DB2E0FEA3E0FF903C
:101829000002E0FCA3E0FDC39FEC9E5031900853F9
:10183900E02DFF900852E03CFE74612FF582740898
:101849003EF583E5C2F090096CE4F0D2C290000342
:10185900E004F07006900002E004F00219579009C4
:101869006C7401F0C2C2021957E964A46003021939
:1018790057900DB2E0FEA3E0FF900002E0FCA3E068
:10188900FDC39FEC9E502AAFC2746F2DF582740977
:101899003CF583EFF0900849F0D2C2900003E004D0
:1018A900F07006900002E004F0900857E4F0021985
:1018B90057C2C290085702194C900847E0FFB4205C
:1018C9002C900002E0FCA3E0FD900853E02DFD9070
:1018D9000852E03CFC74612DF58274083CF583E5FF
:1018E900C2F0D2C4C202D2C290084C8056EFB4D022
:1018F9002F900002E0FEA3E0FF900853E02FFF9035
:101909000852E03EFE74612FF58274083EF583E5C6
:10191900C2F090096C7401F0D2C4C202D2C2802E06
:10192900900847E0B4A427900002E0FEA3E0246FEA
:10193900F58274093EF583E5C2F0D2C4C202D2C26F
:101949009008577401F08006D2158002D21530151F
:101959002A53C0BF43C040C2C5C2C4C2C2C202C228
:10196900159008597401F090084CF0900DA1F09071
:0D197900096CF090084BF0900857F0C2C3C5
:0B198600D0D0D082D083D0F0D0E0326F
:103911009008EF7404F0A37430F07D027F0E023939
:013921002283
:10346400900DCFE0FF1238EC9008E1EFF090022CC1
:10347400E0FF1238EC9008E2EFF090085FE0FF12F2
:1034840038EC9008E4EFF090084AE0FF1238EC9032
:1034940008E5EFF090084DE0FF1238EC9008E6EFF5
:1034A400F0900856E0FF1238EC9008E7EFF090082F
:1034B40058E0FF1238ECEF4440FF90022FE0FEB4D6
:1034C4005006EF4460FF8008EEB44104EF545FFF00
:0C34D4009008E3EFF07D07E4FF023922CE
:1025FE00E4900E48F0A3F07D07FF12393190086188
:10260E00E0FF123940900DCFEFF0900862E0FF121C
:10261E00394090022CEFF0900863E0FF30E61790FF
:10262E00085A7401F0EF90022F30E5057450F080D7
:10263E000A7441F08005E490085AF0EF541FFF121F
:10264E003940900858EFF0BF0C1090022FE0B441C3
:10265E0003E48016900858E0801090022FE0900856
:10266E0058B45005E0240C8001E0900845F0900825
:10267E0064E0FF12394090085FEFF0900865E0FFCC
:10268E0012394090084AEFF0900866E0FF12394088
:10269E0090084DEFF0900867E0FF12394090085611
:1026AE00EFF090000BE0FF90084DE0B5071890009A
:1026BE000CE0FF90084AE0B5070C90000DE0FF908B
:1026CE000856E06F6002D20390000EE0FF900858AB
:1026DE00E0FEB5071890000FE0FF90022CE0B50762
:1026EE000C900010E0FF900DCFE06F6002D21490BE
:1026FE00022FE0FBB4501FEE240CFFE433FE7C00EF
:10270E007D3C121AA090022CE02FFFEC3E900E485A
:10271E00F0A3EFF08028EBB44124900858E0B40CFD
:10272E0002E4F0900858E075F03CA4FF90022CE013
:10273E007C002FFEEC35F0900E48F0A3CEF0900EFC
:10274E0048E0FAA3E0FB7C007D3CFFAE02121AB219
:10275E00900231EDF07C007D3CAF03AE02121AB256
:10276E0090085BEFF090084AE090000CF090084D56
:10277E00E090000BF0900856E090000DF090085895
:10278E00E090000EF090022CE090000FF0900DCF34
:05279E00E0900010F0C6
:0127A3002213
:10003E00E4900DCFF090022CF0900858F090022F23
:10004E007450F090085F7401F090084AF090084DDB
:10005E00F0E4900856F0900230F090085A04F00246
:02006E003464F8
:1038EC00EF75F00A84C454F0FEEF75F00A84E5F02D
:0238FC004EFF7D
:0138FE0022A7
:0E394000EFC4540F75F00AA4FEEF540F2EFFD3
:01394E002256
:102E91001225FE900F1A74FFF0A37410F0A374D9D9
:102EA100F090084DE025E024B5F582E4340DF5837A
:102EB100E0FEA3E0AA06F9900F1D74FFF0A3EAF06B
:102EC100A3E9F090084AE0900F20F0900856E090B6
:102ED1000F21F07B017A107986121E2F900E8C74CF
:102EE100FFF0A37410F0A374F2F0A37402F0A31422
:102EF100F0A37410F0A37486F0A3E4F0A37416F0A9
:102F0100A37401F07406122A75C203900F1A74FF9C
:102F1100F0A37410F0A374F9F0900858E0900F1D1D
:102F2100F090022CE0900F1EF0900DCFE0900F1F5B
:102F3100F090022FE0900F20F07B017A1079861239
:102F41001E2F900E8C74FFF0A37410F0A374F2F096
:102F5100A37402F0A314F0A37410F0A37486F0A379
:102F6100E4F0A37416F0A37401F0A3741AF07BFFCC
:072F71007A1079EB022A7DC2
:10290800900E4B74FFF0A37411F0A374A7F0A37496
:1029180006F0A37401F0A3740DF0A374E1F0A3E42E
:10292800F0A374F0F0A3E4F0746EA3F07BFF7A10C8
:0229380079F232
:0B293A00900E48EBF0A3EAF0A3E9F0D8
:1029450078567C0E7D017BFF7A12797A7E007F8036
:10295500121A61E4FFFE0FBF00010EBE27F8BF107B
:10296500F5900F1A74FFF0A37410F0A374A9F090FA
:102975000E48E0F9A3E0FAA3E0900F1DC9F0A3EA21
:10298500F0A3E9F0900E4BE0F9A3E0FAA3E0900F75
:1029950020C9F0A3EAF0A3E9F07B017A0E7956127B
:1029A5001E2F7B017A0E79561234E6900F1A74FFAA
:1029B500F0A37410F0A374B2F0900E4EE025E0245D
:1029C50033F582E43408F583E0FEA3E0AA06F99026
:1029D5000F1D74FFF0A3EAF0A3E9F07A0E79561201
:1029E5001E2F7B017A0E79561234E6900F1A74FF6A
:1029F500F0A37410F0A374B8F0900E4FE0F9A3E0C3
:102A0500FAA3E0900F1DC9F0A3EAF0A3E9F0900E38
:102A150052E0FFA3E0900F20CFF0A3EFF0900E540B
:102A2500E0FFA3E0900F22CFF0A3EFF07A0E7956E6
:0C2A3500121E2F7B017A0E79560234E647
:0F2B6A00A3F0A3E4F0A374E1F07BFF7A1079F2FB
:0B2B7900900E43EBF0A3EAF0A3E9F09C
:102B840078517C0E7D017BFF7A1279FA7E007F807A
:102B9400121A61E4FFFE0FBF00010EBE27F8BF103A
:102BA400F5900F1A74FFF0A37410F0A374A9F090B9
:102BB4000E43E0F9A3E0FAA3E0900F1DC9F0A3EAE5
:102BC400F0A3E9F0900E46E0F9A3E0FAA3E0900F39
:102BD40020C9F0A3EAF0A3E9F07B017A0E7951123F
:102BE4001E2F7B017A0E79511234E6900F1A74FF6E
:102BF400F0A37410F0A374B2F0900E49E025E02421
:102C040033F582E43408F583E0FEA3E0AA06F990E4
:102C14000F1D74FFF0A3EAF0A3E9F07A0E795112C4
:102C24001E2F7B017A0E79511234E6900F1A74FF2D
:102C3400F0A37411F0A3740FF0900E4AE0F9A3E02E
:102C4400FAA3E0900F1DC9F0A3EAF0A3E9F0900EF7
:102C54004DE0FFA3E0900F20CFF0A3EFF0900E4FD4
:102C6400E0FFA3E0900F22CFF0A3EFF07A0E7951AA
:0C2C7400121E2F7B017A0E79510234E60B
:0B2D8A00900E48EBF0A3EAF0A3E9F084
:102D950078567C0E7D017BFF7A13797A7E007F80E1
:102DA500121A61E4FFFE0FBF00010EBE27F8BF1027
:102DB500F5900F1A74FFF0A37410F0A374A9F090A6
:102DC5000E48E0F9A3E0FAA3E0900F1DC9F0A3EACD
:102DD500F0A3E9F0900E4BE0F9A3E0FAA3E0900F21
:102DE50020C9F0A3EAF0A3E9F07B017A0E79561227
:102DF5001E2F7B017A0E79561234E6900F1A74FF56
:102E0500F0A37410F0A374B2F0900E4EE025E02408
:102E150033F582E43408F583E0FEA3E0AA06F990D1
:102E25000F1D74FFF0A3EAF0A3E9F07A0E795612AC
:102E35001E2F7B017A0E79561234E6900F1A74FF15
:102E4500F0A37411F0A3741EF0900E4FE0F9A3E007
:102E5500FAA3E0900F1DC9F0A3EAF0A3E9F0900EE4
:102E650052E0FFA3E0900F20CFF0A3EFF0900E54B7
:102E7500E0FFA3E0900F22CFF0A3EFF07A0E795692
:0C2E8500121E2F7B017A0E79560234E6F3
:08368800900E43EEF0A3EFF0F9
:1036900078457C0E7D017BFF7A1379FA7E007F08E6
:1036A000121A61E4FFFE0FBF00010EBE27F8BF1023
:1036B000F5900F1A74FFF0A37410F0A374D3F09078
:1036C0000E43E0FFA3E0900F1DCFF0A3EFF07B01CE
:1036D0007A0E7945121E2F7B017A0E79450234E667
:10305300901041EEF0A3EFF0A3ECF0A3EDF0A3EAA0
:04306300F0A3EBF0FB
:1030670078547C107D017BFF7A1479027E007F32D1
:10307700121A61900F1A74FFF0A37411F0A3742E43
:10308700F0901041E0FFA3E0900F1DCFF0A3EFF009
:10309700901043E0FFA3E0900F1FCFF0A3EFF09055
:1030A7001045E0FFA3E0900F21CFF0A3EFF09010C1
:1030B70047E0FFA3E0900F23CFF0A3EFF090104974
:1030C700E0FFA3E0900F25CFF0A3EFF090104BE0C7
:1030D700FFA3E0900F27CFF0A3EFF090104DE09003
:1030E7000F29F090104EE0FFA3E0900F2ACFF0A336
:1030F700EFF0901050E0FFA3E0900F2CCFF0A3EF7C
:10310700F0901052E0FFA3E0900F2ECFF0A3EFF066
:103117007B017A107954121E2F7B017A10795402A1
:0231270034E68C
:0B36E000900E43EBF0A3EAF0A3E9F02A
:1036EB0078467C0E7D017BFF7A1479347E007F0A4D
:1036FB00121A61900F1A74FFF0A37411F0A3745196
:10370B00F0900E43E0F9A3E0FAA3E0900F1DC9F08F
:10371B00A3EAF0A3E9F07B017A0E7946121E2F7B08
:08372B00017A0E79460234E632
:0B373300900E43EBF0A3EAF0A3E9F0D6
:10373E0078467C0E7D017BFF7A14793E7E007F0AEF
:10374E00121A61900F1A74FFF0A37411F0A374593A
:10375E00F0900E43E0F9A3E0FAA3E0900F1DC9F03C
:10376E00A3EAF0A3E9F07B017A0E7946121E2F7BB5
:08377E00017A0E79460234E6DF
:07362200E0FCA3E0FD7E00C7
:0E362900900E43EEF0A3EFF0A3ECF0A3EDF053
:1036370078477C0E7D017BFF7A1479487E007F0AEC
:10364700121A61900F1A74FFF0A37411F0A374603B
:10365700F0900E43E0FFA3E0900F1DCFF0A3EFF033
:10366700900E45E0FFA3E0900F1FCFF0A3EFF07B94
:10367700017A0E7947121E2F7B017A0E79470234A1
:01368700E65C
:10334600900E43EEF0A3EFF0A3ECF0A3EDF0A3EAAA
:04335600F0A3EBF005
:10335A00784D7C0E7D017BFF7A1479527E007F3294
:10336A00121A61900F1A74FFF0A37411F0A3746A11
:10337A00F0900E43E0FFA3E0900F1DCFF0A3EFF013
:10338A00900E45E0FFA3E0900F1FCFF0A3EFF0905F
:10339A000E47E0FFA3E0900F21CFF0A3EFF0900ECD
:1033AA0049E0FFA3E0900F23CFF0A3EFF0900E4B7C
:1033BA00E0FFA3E0900F25CFF0A3EFF07B017A0E98
:0E33CA00794D121E2F7B017A0E794D0234E6EA
:08239700900E43EEF0A3EFF0FD
:10239F00E4A3F0A3F0A3F0A3F0900F1A74FFF0A33F
:1023AF007411F0A37483F0A374FFF0A37411F0A35E
:1023BF007486F07B017A0E7949121E2F900E43E03E
:1023CF007002A3E0700490096EF0900027E0B43122
:1023DF001AA3E0B43415A3E0B43110900E8C74FF3F
:1023EF00F0A37411F0A3748C02255E900027E0B463
:1023FF00311AA3E0B43415A3E0B43210900E8C74EC
:10240F00FFF0A37411F0A3748E02255E900027E0F5
:10241F00B4311AA3E0B43415A3E0B43310900E8C8A
:10242F0074FFF0A37411F0A3749002255E9000273F
:10243F00E0B4311AA3E0B43415A3E0B43410900E15
:10244F008C74FFF0A37411F0A3749202255E9000B8
:10245F0027E0B4311AA3E0B43415A3E0B4351090DB
:10246F000E8C74FFF0A37411F0A3749402255E9088
:10247F000027E0B4311AA3E0B43415A3E0B436104A
:10248F00900E8C74FFF0A37411F0A3749602255E66
:10249F00900027E0B4311AA3E0B43415A3E0B437A9
:1024AF0010900E8C74FFF0A37411F0A37498022592
:1024BF005E900027E0B43119A3E0B43414A3E0B464
:1024CF00380F900E8C74FFF0A37411F0A3749A80E0
:1024DF007E900027E0B43119A3E0B43414A3E0B424
:1024EF00390F900E8C74FFF0A37411F0A3749C80BD
:1024FF005E900027E0B43119A3E0B43414A3E0B424
:10250F00300F900E8C74FFF0A37411F0A3749E80A3
:10251F003E900027E0B43119A3E0B43514A3E0B422
:10252F00300F900E8C74FFF0A37411F0A374A08081
:10253F001E900027E0B43129A3E0B43524A3E0B402
:10254F00311F900E8C74FFF0A37411F0A374A2F0DE
:10255F007B017A09796E123550900E45E4F0A30491
:10256F00F0900E45E07002A3E0604DE4900E49F04C
:10257F00900E47F0A3F0900E43E0FEA3E0FFD39040
:10258F000E48E09FEE6480F8900E47E0648098500C
:10259F0027900E8C74FFF0A37411F0A374A0F07B3E
:1025AF00017A0E7949123550900E48E004F070C64A
:1025BF00900E47E004F080BE900E8C74FFF0A37471
:1025CF0010F0A374F2F0A37402F0A314F0A3740E2E
:1025DF00F0A37449F0A37401F0A37427F0A3E4F0FF
:0E25EF00A37469122A76900E45E0FEA3E0FF69
:0125FD0022BB
:0B2C80009010C6EFF0A3EDF0A3EBF006
:102C8B00900F1A74FFF0A37410F0A374D9F0901086
:102C9B00CBE025E024B5F582E4340DF583E0FEA30B
:102CAB00E0AA06F9900F1D74FFF0A3EAF0A3E9F078
:102CBB009010CAE0900F20F09010CCE0900F21F014
:102CCB009010CDE0FBA3E0FAA3E0F9121E2F900EBB
:102CDB008C74FFF0A37410F0A374F2F0A37402F0E1
:102CEB009010CDE0F9A3E0FAA3E0900E90C9F0A309
:102CFB00EAF0A3E9F0A3E4F0A37437F0A3E4F0A3A4
:102D0B0074BE122A76900F1A74FFF0A37410F0A3FE
:102D1B0074F9F09010C8E0900F1DF09010C7E09080
:102D2B000F1EF09010C6E0900F1FF09010C9E090AE
:102D3B000F20F09010CDE0FBA3E0FAA3E0F9121EF8
:102D4B002F900E8C74FFF0A37410F0A374F2F0A309
:102D5B007402F09010CDE0F9A3E0FAA3E0900E908E
:102D6B00C9F0A3EAF0A3E9F0A3E4F0A37437F0A34E
:0F2D7B00E4F0A374F0F07BFF7A1079EB022A7D6D
:10091900900E46E4F0A37404F01225FE900DCFE08A
:10092900900860F090022CE090096DF0900858E072
:10093900900013F090022FE0900B8FF090084AE09E
:10094900900DA7F090084DE0900DD0F0900856E07A
:10095900900012F0E4900963F090096204F09009A4
:1009690063E06003020F78900E4B74FFF0A37410DC
:10097900F0A374F2F0A37402F0900962E025E02478
:1009890093F582E4340DF583E0FEA3E0AA06F9901D
:100999000E4F74FFF0A3EAF0A3E9F0A37401F0A3EA
:1009A9007472F0A3E4F0A374B4F07BFF7A1079EBCE
:1009B900122D8A900962E0C39404900F1A74FF50B3
:1009C9002AF0A37410F0A374F9F0900013E0900FCB
:1009D9001DF090096DE0900F1EF0900860E0900FF7
:1009E9001FF0900B8FE0900F20803AF0A37410F065
:1009F900A374D9F0900DD0E025E024B5F582E43454
:100A09000DF583E0FEA3E0AA06F9900F1D74FFF02F
:100A1900A3EAF0A3E9F0900DA7E0900F20F0900071
:100A290012E0900F21F0900E43E0FBA3E0FAA3E05F
:100A3900F9121E2F122A41300FFD900962E0704C05
:100A4900900027E0FFB4311FA3E0B4351AA3E0B446
:100A59003815900860E0B43B05E4F0020B7F90087C
:100A690060E004F0020B7FEFB4311E900028E0B47F
:100A79003517A3E0B43712900860E07006743BF0B4
:100A8900020B7F900860E014F0020B7F900962E08E
:100A990064017049900027E0FFB4311DA3E0B4352B
:100AA90018A3E0B4381390096DE0B43B04E4F08076
:100AB9002990096DE004F08021EFB4311D900028E0
:100AC900E0B43516A3E0B4371190096DE0700574F0
:100AD9003BF0800690096DE014F0020B7F900962EB
:100AE900E06402704A900027E0FFB4311EA3E0B42D
:100AF9003519A3E0B43814900013E0B40C0574015F
:100B0900F0802A900013E004F08022EFB4311E90A7
:100B19000028E0B43517A3E0B43712900013E0B40D
:100B29000105740CF08006900013E014F0804790E2
:100B39000962E06403706F900027E0FFB43115A3E8
:100B4900E0B43510A3E0B4380B900B8FE0B4500239
:100B59008019801CEFB4311E900028E0B43517A32A
:100B6900E0B43712900B8FE0B450057441F0800661
:100B7900900B8F7450F0900F1A74FFF0A37410F05B
:100B8900A374F9F0900013E0900F1DF090096DE047
:100B9900900F1EF0900860E0900F1FF0900B8FE00F
:100BA900900F20020D60900962E064046003020C5A
:100BB90052900027E0FFB43120A3E0B4351BA3E035
:100BC900B43816900DA7E0B41F067401F0020D7237
:100BD900900DA7E004F0020D72EF64316003020D7D
:100BE90072900028E064356003020D72A3E0643757
:100BF9006003020D72900DA7E0B40105741FF08027
:100C090006900DA7E014F0900F1A74FFF0A374106A
:100C1900F0A374D9F0900DD0E025E024B5F582E475
:100C2900340DF583E0FEA3E0AA06F9900F1D74FFC9
:100C3900F0A3EAF0A3E9F0900DA7E0900F20F0905F
:100C49000012E0900F21020D60900962E0640560D6
:100C590003020CE6900027E0FFB4311EA3E0B4358F
:100C690019A3E0B43814900DD0E0B40C057401F068
:100C7900802A900DD0E004F08022EFB4311E90005C
:100C890028E0B43517A3E0B43712900DD0E0B401D1
:100C990005740CF08006900DD0E014F0900F1A74D2
:100CA900FFF0A37410F0A374D9F0900DD0E025E003
:100CB90024B5F582E4340DF583E0FEA3E0AA06F934
:100CC900900F1D74FFF0A3EAF0A3E9F0900DA7E0DF
:100CD900900F20F0900012E0900F21807A90096225
:100CE900E064066003020D72900027E0FFB4311240
:100CF900A3E0B4350DA3E0B43808900012E004F085
:100D09008016EFB43112900028E0B4350BA3E0B49B
:100D19003706900012E014F0900F1A74FFF0A374D4
:100D290010F0A374D9F0900DD0E025E024B5F58238
:100D3900E4340DF583E0FEA3E0AA06F9900F1D74D3
:100D4900FFF0A3EAF0A3E9F0900DA7E0900F20F0DF
:100D5900900012E0900F21F0900E43E0FBA3E0FA1F
:100D6900A3E0F9121E2F122A41900027E0FFB431A7
:100D79001BA3E0B43516A3E0B43411900962E07006
:100D8900057406F08006900962E014F0EFB4311D95
:100D9900900028E0B43516A3E0B43511900962E05B
:100DA900B40604E4F08006900962E004F09000279C
:100DB900E064317055A3E06435704FA3E064367088
:100DC90049900860E0900DCFF090096DE090022CF9
:100DD900F0900013E0900858F0900B8FE090022FEC
:100DE900F0900DA7E090084AF0900DD0E090084DE2
:100DF900F0900012E0900856F09009637401F01227
:100E09003464900E46E4F0A304F0900027E0FFB4A8
:100E19003118A3E0B43313A3E0B4310E900E46E4C5
:100E2900F0A37402F090096314F0EFB43118900044
:100E390028E0B43211A3E0B4380C900E46E4F0A3D4
:100E490004F0900963F0900027E0B43119A3E0B4ED
:100E59003314A3E0B4320F900E46E4F0A37403F008
:100E69009009637401F0900F1A74FFF0A37410F0E5
:100E7900A374F9F0900858E0900F1DF090022CE04F
:100E8900900F1EF0900DCFE0900F1FF090022FE011
:100E9900900F20F0900E43E0FBA3E0FAA3E0F912D3
:100EA9001E2F900E4B74FFF0A37410F0A374F2F090
:100EB900A37402F0900E43E0F9A3E0FAA3E0900EC8
:100EC9004FC9F0A3EAF0A3E9F0A3E4F0A37437F063
:100ED900A3E4F0A374BEF07BFF7A1079EB12293AF0
:100EE900900F1A74FFF0A37410F0A374D9F090084E
:100EF9004DE025E024B5F582E4340DF583E0FEA349
:100F0900E0AA06F9900F1D74FFF0A3EAF0A3E9F037
:100F190090084AE0900F20F0900856E0900F21F0D9
:100F2900900E43E0FBA3E0FAA3E0F9121E2F900E06
:100F39004B74FFF0A37410F0A374F2F0A37402F0E1
:100F4900900E43E0F9A3E0FAA3E0900E4FC9F0A395
:100F5900EAF0A3E9F0A3E4F0A37437F0A3E4F0A363
:100F690074F0F07BFF7A1079EB12293A0209679045
:070F79000E46E0FEA3E0FFBD
:010F8000224E
:10007600E4900DD7F0A3F0A3F0A3F0A3F0A3F0A3B0
:10008600F0A3F0A3F0A304F0E4900E21F0A3F0A3F4
:10009600F0A3F012396B1238FF1237CF12395E1205
:1000A600380F1231E51238A4D205E4900DA9F0A359
:1000B600F0900DAEF0A3F0D20C900F1A74FFF0A3DF
:1000C6007411F0A374A4F07B017A0D79E1121E2F4E
:1000D6007B017A0D79E11234E67F047E00123688C0
:1000E6003006FD900228E0FEA3E0FFEE6003020763
:1000F60074EF24FE60651470030203F114700302AA
:10010600037A146003020774900DDFE07002A3E027
:100116006007E4900DDFF0A3F0900027E0FFB43114
:100126000DA3E0B43308A3E0B431030203A3EFB494
:10013600310F900028E0B43208A3E0B4380302037C
:10014600BE900027E06431709AA3E064337094A3F4
:10015600E06432708E9002280203DD900DDFE070BD
:1001660002A3E06058E4900DDFF0A3F07F01FE12D9
:100176003688E490096EF0900E49F0A37481F0A3DE
:10018600E4F0A304F07B86FA7D617C007FF47E00B8
:10019600123346900E4B74FFF0A37411F0A374A7AC
:1001A600F0A37404F0A374FFF0A37411F0A374AE6B
:1001B600F0E4A3F0A3F0A3F0741E122932900027F6
:1001C600E0FFB4310CA3E0B43307A3E0B4310280FE
:1001D6005BEFB4310F900028E0B43208A3E0B438E6
:1001E600030203BE900027E0B43111A3E0B4330C40
:1001F600A3E0B43207900228E40203DDE4900DA3E5
:10020600F0A3F0C3900DA4E09404900DA3E06480E5
:10021600948040030200E9300FFD900027E0FFB410
:100226003111A3E0B4330CA3E0B43107900228E403
:100236000202FDEFB4310F900028E0B43208A3E0CB
:10024600B438030203BE900027E0B43111A3E0B432
:10025600330CA3E0B43207900228E40203DD9000D9
:1002660027E064316003020304A3E06435600302FF
:100276000304A3E064336003020304786E7C097D03
:100286000190085CE0FBA3E0FAA3E0F9121D12EF6F
:10029600700A900228F0A374040208BB900F1A7427
:1002A600FFF0A37411F0A37483F0A374FFF0A3749A
:1002B60011F0A374BAF07B017A0D79E1121E2F902A
:1002C6000E8C74FFF0A37410F0A374F2F0A3740202
:1002D600F0A314F0A3740DF0A374E1F0A37401F07D
:1002E600A37418F0A3E4F0A37469122A76E4900DBF
:1002F600A3F0A3F0900228F0A374020208DE900097
:1003060027E064317038A3E064357032A3E0B4327C
:010316002DB9
:100317007B017A09796E120026900E25EEF0A3EF85
:10032700F0D39400EE9400403E900E25E0FEA3E04B
:0B033700246DF58274093EF583E4F0AC
:10034200802A900DA3E0FEA3E0FFC39404EE648034
:1003520094804003020209122397EF4E600E900D23
:10036200A4E004F07006900DA3E004F0900228E4EB
:10037200F0A37402F0020209900DDFE07002A3E024
:10038200600DE4900DDFF0A3F07F05FE1236889039
:100392000027E0FFB43115A3E0B43310A3E0B43179
:1003A2000B900228E4F0A374020208BBEFB43116EA
:1003B200900028E0B4320FA3E0B4380A900228E497
:1003C200F0A3040208BB900027E0B43115A3E0B407
:1003D2003310A3E0B4320B900228E4F0A3740302BA
:1003E20008BB120919900228EEF0A3EF0208BB9095
:0C03F2000DDFE07002A3E0700302054D77
:1003FE00E4900DDFF0A3F07F02FE123688900E4BD4
:10040E0074FFF0A37411F0A374A7F0A37404F0A307
:10041E0074FFF0A37411F0A374C0F0E4A3F0A3F082
:10042E00A3F0A3741E122933900E4B74FFF0A37425
:10043E0011F0A374A7F0A37403F0A374FFF0A374D8
:10044E0011F0A374C7F0A3E4F0A37487F0A3E4F053
:10045E00A374E1122933900F1A74FFF0A37411F0F4
:10046E00A374D4F0900E21E0FFA3E0900F1DCFF007
:10047E00A3EFF07B017A0E7925121E2F900E4B748E
:10048E00FFF0A37411F0A374A7F0A37403F0A37488
:10049E0001F0A3740EF0A37425F0A37401F0A374FD
:1004AE001DF0A3E4F0A374E1122933900E4B74FFF8
:1004BE00F0A37411F0A374A7F0A37403F0A374FF58
:1004CE00F0A37411F0A374D7F0A37401F0A37468B1
:1004DE00F0A3E4F0A374E1122933900F1A74FFF025
:1004EE00A37411F0A374D4F0900E23E0FFA3E09058
:1004FE000F1DCFF0A3EFF07B017A0E7925121E2F80
:10050E00900E4B74FFF0A37411F0A374A7F0A374B4
:10051E0003F0A37401F0A3740EF0A37425F0A3747A
:10052E0001F0A374C7F0A3E4F0A374E11229339091
:0F053E000E217FC8123622900E237FC91236225B
:10054D00900027E0FFB43114A3E0B4330FA3E0B45F
:10055D00310A900228E4F0A374028017EFB4311E23
:10056D00900028E0B43217A3E0B43812900228E4CA
:10057D00F0A304F0900DDFE4F0A304F080219000CF
:10058D0027E0B4311AA3E0B43315A3E0B4321090D0
:10059D000228E4F0A37403F0E4900DDFF0A3F02043
:1005AD0013030200E9900027E06432600302069213
:1005BD00A3E064306003020692A3E064306003029E
:0205CD00069294
:1005CF00900E25F0A3F078277C0E7D017BFF7A1427
:1005DF007984FE7F04121A61E4900E25F0A3F09047
:1005EF000E25E0FEA3E0FFC39403EE6480948050D9
:1005FF0049742B2FF58274003EF583E0FF640D6084
:10060F0014900E25E0FCA3E02427F582740E3CF530
:10061F0083EFF08015900E25E0FEA3E02427F582EE
:10062F00740E3EF583740DF08010900E26E004F0EA
:10063F0070AD900E25E004F080A5E4900E2AF07BBB
:10064F00017A0E7927122F78900E21EEF0A3EFF09A
:10065F00900E4674FFF0A37411F0A374A7F0A37467
:10066F0003F0A37401F0A3740EF0A37427F0A37426
:10067F0001F0741D122B6A7B017A0E79271236E076
:10068F0002076F900027E06432600302076FA3E058
:10069F006430600302076FA3E06431600302076FE9
:1006AF00900E25F0A3F078277C0E7D017BFF7A1446
:1006BF007988FE7F04121A61E4900E25F0A3F09062
:1006CF000E25E0FEA3E0FFC39403EE6480948050F8
:1006DF0049742B2FF58274003EF583E0FF640D60A3
:1006EF0014900E25E0FCA3E02427F582740E3CF550
:1006FF0083EFF08015900E25E0FEA3E02427F5820E
:10070F00740E3EF583740DF08010900E26E004F009
:10071F0070AD900E25E004F080A5E4900E2AF07BDA
:10072F00017A0E7927122F78900E23EEF0A3EFF0B7
:10073F00900E4674FFF0A37411F0A374A7F0A37486
:10074F0003F0A37401F0A3740EF0A37427F0A37445
:10075F0001F074C7122B6A7B017A0E792712373397
:10076F00C2130200E97F3612388390022BEFF0900C
:10077F000DDFE07002A3E0607AE4900DDFF0A3F0EC
:10078F00C3900D92E09488900D91E0648094935003
:10079F000EA3E004F070E9900D91E004F080E19079
:1007AF000F1A74FFF0A37411F0A374E0F090022BF2
:1007BF00E0900F1DF07B017A0D79E1121E2F7F0360
:1007CF007E00123688900E4B74FFF0A37411F0A3C5
:1007DF0074A7F0A37404F0A374FFF0A37411F0A333
:1007EF0074E7F0E4A3F0A3F0A3F0A3741E1229336F
:1007FF00122908200F1390022BE0FF900DDBE07001
:10080F0003A3E06F70030200E990022BE0FFFD905D
:10081F000DDBE4F0A3EDF0900027E064317022A32C
:10082F00E06432701CA3E064397016900DDDF0A304
:10083F0004F0900F1A74FFF0A37411F0A374E0800A
:10084F003E900027E064317049A3E064337043A306
:10085F00E06430703D900DDDF0A3F090022BE07559
:10086F00F009A4FFAEF07C007D05121AB2EF242030
:10087F00FFF0900F1A74FFF0A37411F0A374F3F04C
:10088F00A3EFF07B017A0D79E1121E2F12290802D6
:10089F0000E9900027E0FFB4311EA3E0B43319A3A1
:1008AF00E0B43114900228E4F0A37402F0900DDF4D
:1008BF00E4F0A304F00200E9EFB4311E900028E049
:1008CF00B43217A3E0B43812900228E4F0A304F076
:1008DF00E4900DDFF0A3F00200E9900027E064310F
:1008EF0060030200E9A3E0643360030200E9A3E0C0
:1008FF00643260030200E9900228F0A37403F090C1
:0A090F000DDFE4F0A304F00200E99C
:030000000233D8F0
:0C33D800787FE4F6D8FD75812302341FD5
:10199100E709F608DFFA8046E709F208DFFA803E38
:1019A10088828C83E709F0A3DFFA8032E309F60825
:1019B100DFFA8078E309F208DFFA807088828C838D
:1019C100E309F0A3DFFA806489828A83E0A3F60841
:1019D100DFFA805889828A83E0A3F208DFFA804C1B
:1019E10080D280FA80C680D4806980F280338010F2
:1019F10080A680EA809A80A880DA80E280CA80335B
:101A010089828A83ECFAE493A3C8C582C8CCC583D2
:101A1100CCF0A3C8C582C8CCC583CCDFE9DEE780A2
:101A21000D89828A83E493A3F608DFF9ECFAA9F021
:101A3100EDFB2289828A83ECFAE0A3C8C582C8CC77
:101A4100C583CCF0A3C8C582C8CCC583CCDFEADE90
:101A5100E880DB89828A83E493A3F208DFF980CCF2
:101A610088F0EF60010E4E60C388F0ED2402B404EB
:101A71000050B9F582EB2402B4040050AF23234592
:061A810082239019E173BD
:101A8700BB010689828A83E0225002E722BBFE025D
:091A9700E32289828A83E4932290
:101AA000EF8DF0A4A8F0CF8CF0A428CE8DF0A42E5A
:021AB000FE2214
:101AB200BC000BBE0029EF8DF084FFADF022E4CC18
:101AC200F875F008EF2FFFEE33FEEC33FCEE9DECE1
:101AD200984005FCEE9DFE0FD5F0E9E4CEFD22ED27
:101AE200F8F5F0EE8420D21CFEADF075F008EF2F71
:101AF200FFED33FD4007985006D5F0F222C398FD62
:051B02000FD5F0EA22FE
:101B0700A3F8E0C5F025F0F0E58215827002158391
:061B1700E0C838F0E822EE
:101B1D00EB9FF5F0EA9E42F0E99D42F0E89C45F01E
:011B2D002295
:101B2E007401FF3395E0FEFDFCA3A3A3E0CF2FF0DD
:101B3E00E582158270021583E0CE3EF0E5821582B5
:101B4E0070021583E0CD3DF0E5821582700215839B
:051B5E00E0CC3CF02288
:101B6300A8828583F0D083D082121B7A121B7A124B
:101B73001B7A121B7AE473E493A3C583C5F0C58370
:101B8300C8C582C8F0A3C583C5F0C583C8C582C8CC
:011B9300222F
:101DCA00E508241AF582E4340FF583E00508229029
:101DDA000F17301D03900F1AE475F001121D8402CB
:101DEA001A872016E97F2ED2168018EF540F2490F6
:101DFA00D43440D4FF301A0BEF24BFB41A00500376
:101E0A002461FFE50960021509050CE50C7002055D
:101E1A000B301D0E900F17E475F001121D84EF02AE
:101E2A001D5C0238367403D21D8003E4C21DF50816
:101E3A00900F17121D9BE4F509F50BF50CE50960E7
:101E4A00077F20121E0D80F5750AFFC217C216C23F
:101E5A0018C219C21BC21CC21E121DD9FF700D3036
:101E6A001D057F00121E1EAF0CAE0B22B4255FC2E9
:101E7A00D5C21A121DD9FF24D0B40A00501A75F01F
:101E8A000A780930D50508B6FF0106C6A426F62049
:101E9A00D5047002D21980D924CFB41A00EF5004A5
:101EAA00C2E5D21A02201FD21780C6D21680C0D22B
:101EBA001880BCD2D580BAD21B80B47F20121E0DE6
:101ECA002018077401B5090040F1121DCAFF121E3D
:101EDA000D021E47D21ED21C8095121DCAFB121D6E
:101EEA00CAFA121DCAF94A4B700679F07A207BFFAA
:101EFA0020182EE509602A7E008E82758300121D45
:101F0A002F60060EEE650A70F0C2D5EBC0E0EAC09B
:101F1A00E0E9C0E0EE122066D0E0F9D0E0FAD0E0C5
:101F2A00FB121A87FF60AAEBC0E0EAC0E0E9C0E052
:101F3A00121E0DD0E02401F9D0E03400FAD0E0FB03
:101F4A00E50A0460DCD50AD980877BFF7A207962AA
:101F5A00D218809C791080027908C21CC21E80089F
:101F6A00D2D5790A8004790AC2D5E50A047002F545
:101F7A000AE4FAFDFEFF121DCAFC7B0820171312A1
:101F8A001DCAFD7B1030160A121DCAFE121DCAFF99
:101F9A007B20EC3382D592D55013C3E43016069FCA
:101FAA00FFE49EFEE42017039DFDE49CFCE4CBF8CD
:101FBA00C217EC700CCFCECDCCE824F8F870F380C1
:101FCA0017C3EF33FFEE33FEED33FDEC33FCEB3397
:101FDA00FB994002FB0FD8E9EB301705F8D0E0C4B3
:101FEA0048B217C0E00AEC4D4E4F78207B0070C211
:101FFA00EAB50A0040BCC0E0122068D0F0D0E02068
:10200A001704C4C0E0C4B217C0F0121DF6D0F0D550
:10201A00F0EB021E47121DA41EE4531F5E581EB5A4
:10202A004C1EB1421F624F1F6A441F6A491ECA43AF
:08203A001F70551F54461F548E
:10204200451F54472110501EB92D1EBD2E1EE02BD8
:102052001EC1231EDE2020F92A1E794800001ED848
:102062003F3F3F00790AA2D5201914301B09B9104D
:10207200020404B9080104A2D5201C025001042064
:1020820018689218B509005034C0E07F2030191941
:102092007F30A218721C721B500F1220BFC218C2CE
:1020A2001CC21BC21E7F30800F301B03E9C0E0122E
:1020B2001E0D301B03D0E0F9D0E0B509CC301B1760
:1020C2007F30B9100C121E0D7F58301A077F7880AE
:1020D20003B90803121E0D3018057F2D021E0D7F55
:1020E20020201EF87F2B201CF322921880CF286E0E
:1020F200756C6C2900D217121DCA3017F8C21778F6
:102102000930D50108F6021E792D50434958121D97
:10211200CA2403B405004001E490210B93121DFE72
:0D212200743A121DFED219750904021F5EE9
:10355000900E89EBF0A3EAF0A3E9F0900E8FEBF068
:10356000A3EAF0A3E9F0900E89E0FBA3E475F00173
:10357000121B07A9F0FA121A8770EB900E8A74FFDB
:10358000F5F0121D6E900E8CE0FBA3E475F00112B5
:103590001B07A9F0FA121A87FF900E89E0FBA3E43B
:1035A00075F001121B07A9F0FAEF121D5C70D6909E
:0B35B0000E8FE0FBA3E0FAA3E0F9227D
:101B9400E3F5F009E208B5F06D606B80F3E3F5F06E
:101BA40009E608B5F060605E80F387F009E608B5E1
:101BB400F054605280F487F009E208B5F0486046BA
:101BC40080F488828C8387F009E0A3B5F03860360E
:101BD40080F488828C8387F009E493A3B5F02760AE
:101BE4002580F388828C83E3F5F009E0A3B5F01631
:101BF400601480F388828C83E3F5F009E493A3B541
:101C0400F004600280F2021CBF808580E7808E8031
:101C1400D2803C8015806C807E809B80B5808B80D8
:101C2400A1804F8070803A021CCB89828A83ECFAAF
:101C3400E493F5F0A3C8C582C8CCC583CCE493A3D0
:101C4400C8C582C8CCC583CCB5F070606E80E1890C
:101C5400828A83E493F5F0A3E208B5F05E605C80C9
:101C6400F289828A83E0F5F0A3E608B5F04D604B73
:101C740080F389828A83E0F5F0A3E208B5F03C6042
:101C84003A80F389828A83E493F5F0A3E608B5F0F9
:101C94002A602880F2805389828A83ECFAE493F5DF
:101CA400F0A3C8C582C8CCC583CCE0A3C8C582C88C
:101CB400CCC583CCB5F004600280E27FFFB5F002AE
:101CC4000F2240027F012289828A83ECFAE0F5F038
:101CD400A3C8C582C8CCC583CCE0A3C8C582C8CC80
:101CE400C583CCB5F0D560D380E389828A83ECFACE
:101CF400E0F5F0A3C8C582C8CCC583CCE493A3C8DF
:101D0400C582C8CCC583CCB5F0B160AF80E288F0A1
:101D1400ED2402B4040050A3F582EB2402B40400C1
:0B1D240050992323458223901C0D736F
:10002600E4FFFE121A87600C0FEF70010E09E970EB
:05003600F20A80EF2238
:102F7800900E43EBF0A3EAF0A3E9F0900E43E0FBD8
:102F8800A3E0FAA3E0F9121A87FF1238D8500C9080
:102F98000E44E475F001121D6E80E0D216900E43C7
:102FA800E0FBA3E0FAA3E0F9121A87FF642B6004A0
:102FB800EFB42D1D900E43E0FBA3E475F001121B46
:102FC80007A9F0FA121A87642D6003D38001C3920F
:102FD80016E4900E46F0A3F0900E43E0FBA3E0FA4F
:102FE800A3E0F9121A87FF12394F5042900E43E0BE
:102FF800FBA3E0FAA3E0F9121A87FF3395E0FEEF8E
:1030080024D0FBEE34FFFA900E46E0FEA3E0FF7CEE
:10301800007D0A121AA0EF2BFFEE3A900E46F0A39D
:10302800EFF0900E44E475F001121D6E80AA301680
:103038000A900E46E0FEA3E0FF800F900E46E0FEE9
:0B304800A3E0FFC3E49FFFE49EFE2214
:1033E400020076E493A3F8E493A34003F68001F289
:1033F40008DFF48029E493A3F85407240CC8C333EA
:10340400C4540F4420C8834004F456800146F6DFB8
:10341400E4800B0102040810204080903129E47EEE
:10342400019360BCA3FF543F30E509541FFEE493AD
:10343400A360010ECF54C025E060A840B8E493A374
:10344400FAE493A3F8E493A3C8C582C8CAC583CA9F
:10345400F0A3C8C582C8CAC583CADFE9DEE780BE57
:0131E40000EA
:101D2F00BB010CE58229F582E5833AF583E0225069
:101D3F0006E92582F8E622BBFE06E92582F8E222B3
:0D1D4F00E58229F582E5833AF583E49322CD
:101D5C00BB010689828A83F0225002F722BBFE0166
:021D6C00F32260
:101D6E00C5F0F8A3E028F0C5F0F8E5821582700200
:061D7E001583E038F0229D
:101D8400F8E0FBA3A3E0F925F0F0E58215827002E8
:071D94001583E0FA38F0228C
:091D9B00EBF0A3EAF0A3E9F02249
:101DA400D083D082F8E4937012740193700DA3A3CE
:101DB40093F8740193F5828883E4737402936860E2
:061DC400EFA3A3A380DFE2
:10383600EFB40A07740D123841740A309811A8992A
:10384600B8130CC2983098FDA899C298B811F630F2
:0738560099FDC299F59922CA
:0F394F00EFC394304007EF943A50028001C32237
:1038D800EFC394094005EF940E4004EFB42003D3DE
:0438E8008001C32276
:00000001FF
