:1016C6003134353700534554205345434F4E445328
:1016D60000534554204D494E5554455300534554E7
:1016E60020484F5552530053455420414D2F504DDD
:1016F60000534554204441544500534554204D4F12
:101706004E5448005345542059454152006D3130DE
:1017160042006D313242006D313442006D31364245
:10172600006D323042006D323442006D3332420079
:101736006D3438006D3634004E4F4E0053554E0012
:101746004D4F4E00545545005745440054485500EA
:1017560046524900534154004A414E004645420014
:101766004D415200415052004D4159004A554E00DC
:101776004A554C0041554700534550004F435400CD
:101786004E4F56004445430053455420444154456A
:1017960020414E442054494D452020202020200041
:1017A60057524954494E4720444154412E2E2E202B
:1017B6005741495421202000444154412053554368
:1017C6004345535346554C4C5920534156454400C6
:1017D6004552524F52202020202020202020202019
:1017E6002020202020202000532025732025730D43
:1017F60000662025730D007420222573222025758E
:101806002025750D007869202575202575202575FC
:101816000D006D2025750D0025732025303262756B
:101826002C2032302530326275003030464630305A
:101836000030303030303000253262753A25303293
:1018460062753A25303262752025634D200074207A
:101856002225313173222025752025750D00736CE4
:1018660020257520257520257520257520257520B0
:10187600257520257520257520312025752025758F
:1018860020007862622025730D0062762025730D94
:101896000025730020202020200031003200330074
:1018A60034003500360037003800390030002A0091
:1018B60023007A0D004552524F5200252D33627592
:1018C600430046464646464600252D336275460089
:1018D6000000000000000000000000000000000002
:1018E60000000000000000000000000000000000F2
:1018F60000000000000000000000000000000000E2
:1019060000000000000000000000000000000000D1
:1019160000000000000000000000000000000000C1
:1019260000000000000000000000000000000000B1
:1019360000000000000000000000000000000000A1
:101946000000000000000000000000000000000091
:101956000000000000000000000000000000000081
:101966000000000000000000000000000000000071
:101976000000000000000000000000000000000061
:101986000000000000000000000000000000000051
:101996000000000000000000000000000000000041
:1019A6000000000000000000000000000000000031
:1019B6000000000000000000000000000000000021
:1019C6000000000000000000000000000000000011
:1019D6000000000000000000000000000000000001
:1019E60000000000000000000000000000000000F1
:1019F60000000000000000000000000000000000E1
:101A060000000000000000000000000000000000D0
:101A160000000000000000000000000000000000C0
:101A260000000000000000000000000000000000B0
:101A360000000000000000000000000000000000A0
:101A46000000000000000000000000000000000090
:101A56000000000000000000000000000000000080
:101A66000000000000000000000000000000000070
:101A76000000000000000000000000000000000060
:101A86000000000000000000000000000000000050
:101A96000000000000000000000000000000000040
:061AA6000000000000003A
:102C3B00420DA3000041096E0043085CFF16C64E0F
:102C4B000D9316CB16D716E316ED16F71700170ACA
:102C5B00C113C106C104C107C10FC10A5208331702
:102C6B00131718171D17221727172C17311736177D
:102C7B003AC102410014004102310041085B00508F
:102C8B000016173E17421746174A174E175217567C
:102C9B00175A5A0DB5173E175E17621766176A1744
:102CAB006E17721776177A177E17821786178A4850
:102CBB000964178E17A617BE17D6420004000042F0
:102CCB0000060000420008000041000B0041000C10
:102CDB000041000D0041000E0041000F00410010AB
:0B2CEB00004202280001420D91000091
:10330500AF84E4900E27F0A3F075840F758A838F40
:013315008433
:013316002294
:1031E900AF8475840F75E12F75E20175E3C475A489
:1031F9000175A50175A7CA759C0F759D04E4F59E17
:10320900759F807580FF7590FF75A0FF75B0FF757C
:0F321900C8FF75D8FF75E8FF75F8FFC2FF8F84F7
:013228002283
:0D33550075A89243E70143E74043E60A22D2
:10322900AF84E4F584F5C875C90875CAF375CBFF91
:1032390085CBCD85CACC75C804F584759850759130
:063249000575A8908F84BA
:01324F00225C
:0733620075FFDE75FFAD22CF
:030023000220A513
:0D20A500C0E0C0F0C083C082C0D075D01074
:1020B200900DD2E584F0E4FBFAA312145F00000055
:1020C2000075840020980302225DC298900011E5F9
:1020D20099F0900DA5E0FEA3E0FFC3EE9402400349
:1020E20002221C900011E0FD640D601D74332FF577
:1020F2008274023EF583EDF0900DA6E004F07006C6
:10210200900DA5E004F002225D900233E0FF647BB3
:102112007028A3E06463701BA3E0B46D16A3E0B45F
:102122007011A3E0B4650CA3E0B47D07D206D2041B
:102132000221E9C206C2040221E9EF64787030FA92
:10214200FBD3900DA6E09B900DA5E09A401F74333F
:102152002BF58274023AF583E0FF74262BF5827424
:10216200003AF583EFF00BBB00010A80D4806E9039
:102172000233E0F9646C7032FAFBD3900DA6E09B57
:10218200900DA5E09A401F74332BF58274023AF544
:1021920083E0FF74262BF58274003AF583EFF00B8F
:1021A200BB00010A80D4D213803DE964287034FA5E
:1021B200FBD3900DA6E09B900DA5E09A401F7433CF
:1021C2002BF58274023AF583E0FF74262BF58274B4
:1021D200003AF583EFF00BBB00010A80D4C207D2AC
:1021E2000F8004D207C20F7A007B00D3900DA6E0C5
:1021F2009B900DA5E09A401374332BF58274023A3A
:10220200F583E4F00BBB00010A80E0900DABE4F033
:10221200A3F0900DA5F0A3F08041900DA5E0FEA3E0
:10222200E0FF900DABE0FCA3E0FDC39FEC9E501CD1
:1022320074332DF58274023CF583E4F0900DACE02A
:1022420004F070D6900DABE004F080CE900DABE4BC
:10225200F0A3F0900DA5F0A3F0C20F209903022283
:10226200F0C299300C030222EE900DAEE0FEA3E024
:102272002433F58274043EF583E0F599900DAFE0C6
:1022820004F07006900DAEE004F0209913900DD387
:1022920012142AE47B487A26F9F8D312141950EA68
:1022A200E47F487E26FDFC900DD3E0F8A3E0F9A37D
:1022B200E0FAA3E0FBC31214194002D299900DD3A5
:1022C20012145F00000000C3900DAEE094044004BD
:1022D200E4F0A3F0900DA9E0FEA3E0FF900DAEE0C4
:1022E200B5160BA3E0B51706D20C8002D205900DED
:0422F200D2E0F584BD
:0B22F600D0D0D082D083D0F0D0E032F6
:062F60007B017A0E797B73
:102F6600900EFBE584F0121383604E200C14900D36
:102F7600A9E0FEA3E0FF900DAEE06E7003A3E06F44
:102F8600602E121383FF900DA9E475F0011214034D
:102F9600FC743325F0F58274043CF583EFF0C3909E
:102FA6000DA9E094044004E4F0A3F0300C02C20C36
:102FB600740129F9E43AFA80AD300507C205E4F553
:092FC60084D299900EFBE0F58421
:012FCF0022DF
:10274400900E7074FFF0A37418F0A37437F0A374A0
:1027540002F0900E27E0F9A3E0FAA3E0900E74C90A
:10276400F0A3EAF0A3E9F0A37401F0A3746DF0A35D
:0C277400E4F074FAA3F07BFF7A187930CF
:0B278000900E6DEBF0A3EAF0A3E9F06F
:10278B00787B7C0E7D017BFF7A1879D67E007F806B
:10279B0012135D900EFE74FFF0A37417F0A374EE8A
:1027AB00F0900E6DE0F9A3E0FAA3E0900F01C9F0F1
:1027BB00A3EAF0A3E9F0900E70E0F9A3E0FAA3E02E
:1027CB00900F04C9F0A3EAF0A3E9F07B017A0E792C
:1027DB007B121B11122F60900EFE74FFF0A3741767
:1027EB00F0A374F7F0900E73E025E02433F582E448
:1027FB003408F583E0FEA3E0AA06F9900F0174FFFD
:10280B00F0A3EAF0A3E9F07A0E797B121B11122FD9
:10281B0060900EFE74FFF0A37417F0A374FDF0909C
:10282B000E74E0F9A3E0FAA3E0900F01C9F0A3EA5C
:10283B00F0A3E9F0900E77E0FFA3E0900F04CFF048
:10284B00A3EFF0900E79E0FFA3E0900F06CFF0A37B
:10285B00EFF07A0E797B121B117B017A0E797B02DA
:02286B002F66D6
:0C31A000900F23ECF0A3EDF0AD03AC02A7
:1031AC00900EFE74FFF0A37418F0A3740BF0A3EE52
:1031BC00F0A3EFF0900F23E0FFA3E0900F03CFF00C
:1031CC00A3EFF0AF05A3ECF0A3EFF07B017A0F793E
:0D31DC0025121B117B017A0F7925022F6649
:053369007E0002327736
:10327700900EFE74FFF0A37418F0A37418F0A3EE79
:10328700F0A3EFF07B017A0F79A5121B117B017A6E
:063297000F79A5022F666D
:1024A700E490106FF0A3F0900015E06402705B9069
:1024B7000026E064287019A3E024CE600D14600D97
:1024C700240260030225D302258D0225910225955A
:1024D700E490106FF0A3F090106FE0FEA3E0FF24EC
:1024E70026F58274003EF583E070030225D3742637
:1024F7002FF58274003EF583E4F0901070E004F04D
:1025070070D590106FE004F080CD900015E0640363
:102517007058900026E064287016A3E024CE600C63
:1025270014600B240260030225D3805A805C805E0E
:10253700E490106FF0A3F090106FE0FEA3E0FF248B
:1025470026F58274003EF583E070030225D37426D6
:102557002FF58274003EF583E4F0901070E004F0EC
:1025670070D590106FE004F080CD900015E0640402
:10257700705A900026E0B4281CA3E024CE600B1408
:10258700600C240270467F0280067F0380027F046E
:102597001233698037E490106FF0A3F090106FE06A
:1025A700FEA3E0FF2426F58274003EF583E0601C5D
:1025B70074262FF58274003EF583E4F0901070E0E6
:1025C70004F070D890106FE004F080D0E490106FA2
:1025D700F0A3F090106FE0FEA3E0FF2426F58274CD
:1025E700003EF583E0601C74262FF58274003EF5EB
:1025F70083E4F0901070E004F070D890106FE0045E
:03260700F080D090
:01260A0022AD
:102CF700900E2912145F00000000900E2DE584F05D
:102D0700E4F584208675900E2912142A7BA07A8612
:102D170079017800D31214194061C287E4900E2715
:102D2700F0A3F0900E28E004F07006900E27E00460
:102D3700F0900E27E07003A3E0F470E7D2872087B6
:102D470014900E2912142A7BA07A8679017800D371
:102D570012141950E9E4900E27F0A3F0C3900E283F
:102D6700E0940A900E27E0648094805096A3E004D4
:102D7700F070E9900E27E004F080E175C00775CF89
:102D87009143C040900E2DE0F584C202E4900859AB
:102D9700F090084CF090084BF0900857F0900DA178
:052DA700F090096CF042
:012DAC002204
:1032BE00AF84758401E4F5C8F5C975CBE275CA7A99
:0A32CE0085CBCD85CACCD2CA8F840F
:0132D80022D3
:0300730002000385
:07000300C0D075D000C0075A
:10000A00AF8475840053C0BF43C0408F84C2CFC23F
:03001A00028F84CE
:05001D00D007D0D03235
:1032D90074E12FF582E43408F583EDF0EFFD7C000D
:0932E9007B017A007F2002303BDA
:10329D00900E27EFF0FD7C007B017A007F20122D30
:1032AD00AD900E27E02461F582E43408F583E0FF4C
:0132BD0022EE
:0F332800AE05EFFD7C00EEFB7A007FD002303B5C
:0F333700AE05EFFD7C00EEFB7A007FD0022DADDE
:102DAD00900E2EEFF0A3ECF0A3EDF0A3EAF0A3EB61
:012DBD00F025
:102DBE00A3E584F0E4F58420C7FD2002FA900E33DB
:102DCE00E0F584900E2EE0FF245C600824D46004AD
:102DDE0024B0700E900E2FE0FCA3E0FDE4FBFA127F
:102DEE00303BE4F58420C7FD2002FA900E2EE090D1
:102DFE000847F0900E2FE0FFA3E0900852CFF0A30B
:102E0E00EFF0900E31E0FFA3E0900DB2CFF0A3EF04
:102E1E00F0D202D210D2C520C7FD2002FA900E3396
:102E2E00E0F584900E2EE0245C601824D4600C240F
:102E3E00B0701690084CE0701080F890096CE0703D
:092E4E000880F8900857E060FAD2
:012E57002258
:02303B00A907E3
:10303D00E4900E34F0A3F0A3F0A3E584F0E4F5845E
:10304D0020C7FD2002FA900847E9F0AF059008521D
:10305D00ECF0A3EFF0E92455600824DB601A24B0EE
:10306D00702C900226EAF0A3EBF0D202C210D2C56A
:10307D00900859E0701880F8AF03900226EAF0A38B
:10308D00EFF0D202C210D2C5900DA1E060FA900E01
:04309D0037E0F5849F
:0130A100220C
:03003B00020D882B
:0D0D8800C0E0C0F0C083C082C0D075D010A4
:100D9500C215E5C1131313541F14B40B004003020D
:100DA5001251900DB575F003A4C58325F0C5837365
:100DB500020DD6020DD6020DFB020E38020EDB0225
:100DC5000F8002124D0210120210280210BF0211EC
:100DD500BE900847E0F5C253C2FEA210E43342C2FA
:100DE500C2C5900002E4F0A3F0900000F0A3F090DB
:100DF500000AF0021253900847E0FFB4201E900845
:100E050052E0FCA3E0FD64AB4C7007D2C4C2020201
:100E150012538DC2900859E4F0021253EF64D0606A
:100E250003021253900852A3E0F5C2900DA1E4F01D
:100E3500021253900847E0FF64206004EFB4B02C21
:100E4500C3900005E0940A900004E094005011A3BB
:100E5500E004F07006900004E004F0D2C5021253DD
:100E6500900004E4F0A3F09008598066900847E0EC
:100E7500FFB4D02CC3900007E0940A900006E094DC
:100E8500005011A3E004F07006900006E004F0D2D3
:100E9500C5021253900006E4F0A3F0900DA1803234
:100EA500EF64A46003021253C3900009E0940A9012
:100EB5000008E094005011A3E004F07006900008CB
:100EC500E004F0D2C5021253900008E4F0A3F090BC
:100ED500084B040210B5900847E0F96420704A9069
:100EE5000226E0FEA3E0FF900000E0FCA3E0FDC3C6
:100EF5009FEC9E502A900853E02DFF900852E03C4D
:100F0500FE74E12FF58274083EF583E0F5C290008A
:100F150001E004F07058900000E004F0021253D292
:100F2500C4C202900859021248E964D06003021253
:100F350053900226E0FEA3E0FF900000E0FCA3E052
:100F4500FDC39FEC9E502A900853E02DFF90085258
:100F5500E03CFE74E12FF58274083EF583E0F5C2AE
:100F6500900001E004F07006900000E004F0021229
:100F750053D2C4C202900DA1021248900847E0FF67
:100F8500B42029C3900005E0940A900004E0940081
:100F95005011A3E004F07006900004E004F0D2C5FF
:100FA500021253900004E4F0A30210B5EFB4D02967
:100FB500C3900007E0940A900006E094005011A346
:100FC500E004F07006900006E004F0D2C50212536A
:100FD500900006E4F0A30210B5900847E064A46011
:100FE50003021253C3900009E0940A900008E094AC
:100FF500005011A3E004F07006900008E004F0D260
:10100500C5021253900008E4F0A30210B5900DB28A
:10101500E07004A3E064017005C2C2021253D2C29B
:10102500021253900847E0FFB42028C3900005E062
:10103500940A900004E094005011A3E004F07006B7
:10104500900004E004F0D2C5021253900004E4F0CD
:10105500A3805DEFB4D028C3900007E0940A900008
:1010650006E094005011A3E004F07006900006E03D
:1010750004F0D2C5021253900006E4F0A38031902B
:101085000847E064A46003021253C3900009E0948A
:101095000A900008E094005011A3E004F070069057
:1010A5000008E004F0D2C5021253900008E4F0A352
:1010B500F0D2C4C202D215021253900847E0F96477
:1010C50020704F900DB2E0FEA3E0FF900002E0FC1F
:1010D500A3E0FDC39FEC9E5031900853E02DFF9097
:1010E5000852E03CFE74612FF58274083EF583E5F5
:1010F500C2F0D2C2900003E004F07006900002E056
:1011050004F090084CE4F0021253C2C290084C025D
:101115001248E964D07052900DB2E0FEA3E0FF9052
:101125000002E0FCA3E0FDC39FEC9E503190085304
:10113500E02DFF900852E03CFE74612FF5827408A3
:101145003EF583E5C2F090096CE4F0D2C29000034D
:10115500E004F07006900002E004F00212539009DA
:101165006C7401F0C2C2021253E964A46003021256
:1011750053900DB2E0FEA3E0FF900002E0FCA3E077
:10118500FDC39FEC9E502AAFC2746F2DF582740982
:101195003CF583EFF0900849F0D2C2900003E004DB
:1011A500F07006900002E004F0900857E4F0021297
:1011B50053C2C2900857021248900847E0FFB42076
:1011C5002C900002E0FCA3E0FD900853E02DFD907B
:1011D5000852E03CFC74612DF58274083CF583E50A
:1011E500C2F0D2C4C202D2C290084C8056EFB4D02D
:1011F5002F900002E0FEA3E0FF900853E02FFF9040
:101205000852E03EFE74612FF58274083EF583E5D1
:10121500C2F090096C7401F0D2C4C202D2C2802E11
:10122500900847E0B4A427900002E0FEA3E0246FF5
:10123500F58274093EF583E5C2F0D2C4C202D2C27A
:101245009008577401F08006D2158002D21530152A
:101255002A53C0BF43C040C2C5C2C4C2C2C202C233
:10126500159008597401F090084CF0900DA1F0907C
:0D127500096CF090084BF0900857F0C2C3D0
:0B128200D0D0D082D083D0F0D0E0327A
:103317009008EF7404F0A37430F07D027F0E02333F
:01332700287D
:102EE400900DCFE0FF1232F29008E1EFF090022C47
:102EF400E0FF1232F29008E2EFF090085FE0FF1278
:102F040032F29008E4EFF090084AE0FF1232F290B7
:102F140008E5EFF090084DE0FF1232F29008E6EF7A
:102F2400F0900856E0FF1232F29008E7EFF09008B4
:102F340058E0FF1232F2EF4440FF90022FE0FEB45B
:102F44005006EF4460FF8008EEB44104EF545FFF85
:0C2F54009008E3EFF07D07E4FF02332853
:10230100E4900E2CF0A3F07D07FF123337900861A3
:10231100E0FF123346900DCFEFF0900862E0FF121C
:10232100334690022CEFF0900863E0FF30E61790FF
:10233100085A7401F0EF90022F30E5057450F080D7
:102341000A7441F08005E490085AF0EF541FFF121F
:102351003346900858EFF0BF0C1090022FE0B441C3
:1023610003E48016900858E0801090022FE0900856
:1023710058B45005E0240C8001E0900845F0900825
:1023810064E0FF12334690085FEFF0900865E0FFCC
:1023910012334690084AEFF0900866E0FF12334688
:1023A10090084DEFF0900867E0FF12334690085611
:1023B100EFF090000BE0FF90084DE0B5071890009A
:1023C1000CE0FF90084AE0B5070C90000DE0FF908B
:1023D1000856E06F6002D20390000EE0FF900858AB
:1023E100E0FEB5071890000FE0FF90022CE0B50762
:1023F1000C900010E0FF900DCFE06F6002D21490BE
:10240100022FE0FBB4501FEE240CFFE433FE7C00EE
:102411007D3C12139C90022CE02FFFEC3E900E2C81
:10242100F0A3EFF08028EBB44124900858E0B40CFD
:1024310002E4F0900858E075F03CA4FF90022CE013
:102441007C002FFEEC35F0900E2CF0A3CEF0900E18
:102451002CE0FAA3E0FB7C007D3CFFAE021213AE40
:10246100900231EDF07C007D3CAF03AE021213AE61
:1024710090085BEFF090084AE090000CF090084D56
:10248100E090000BF0900856E090000DF090085895
:10249100E090000EF090022CE090000FF0900DCF34
:0524A100E0900010F0C6
:0124A6002213
:10003E00E4900DCFF090022CF0900858F090022F23
:10004E007450F090085F7401F090084AF090084DDB
:10005E00F0E4900856F0900230F090085A04F00246
:02006E002EE47E
:1032F200EF75F00A84C454F0FEEF75F00A84E5F02D
:023302004EFF7C
:0133040022A6
:0E334600EFC4540F75F00AA4FEEF540F2EFFD3
:013354002256
:102A7E00122301900EFE74FFF0A37418F0A3741EBF
:102A8E00F090084DE025E024B5F582E4340DF58391
:102A9E00E0FEA3E0AA06F9900F0174FFF0A3EAF09E
:102AAE00A3E9F090084AE0900F04F0900856E090E9
:102ABE000F05F07B017A107925121B11900E7074A0
:102ACE00FFF0A37418F0A37437F0A37402F0A314EC
:102ADE00F0A37410F0A37425F0A3E4F0A37416F021
:102AEE00A37401F07406122778C203900EFE74FFD1
:102AFE00F0A37418F0A3743EF0900858E0900F0104
:102B0E00F090022CE0900F02F0900DCFE0900F03AA
:102B1E00F090022FE0900F04F07B017A10792512CD
:102B2E001B11900E7074FFF0A37418F0A37437F09D
:102B3E00A37402F0A314F0A37410F0A37425F0A3F1
:102B4E00E4F0A37416F0A37401F0A3741AF07BFFE3
:072B5E007A1879300227808C
:10260B00900E2F74FFF0A37418F0A374C8F0A3748A
:10261B0006F0A37401F0A3740DF0A374E1F0A3E42E
:10262B00F0A374F0F0A3E4F0A3746EF07BFF7A18C0
:02263B007937ED
:0B263D00900E2CEBF0A3EAF0A3E9F0F4
:10264800783A7C0E7D017BFF7A1979567E007F806F
:1026580012135DE4FFFE0FBF00010EBE27F8BF1086
:10266800F5900EFE74FFF0A37417F0A374EEF090CB
:102678000E2CE0F9A3E0FAA3E0900F01C9F0A3EA59
:10268800F0A3E9F0900E2FE0F9A3E0FAA3E0900F91
:1026980004C9F0A3EAF0A3E9F07B017A0E793A12B3
:1026A8001B117B017A0E793A122F66900EFE74FF89
:1026B800F0A37417F0A374F7F0900E32E025E0242D
:1026C80033F582E43408F583E0FEA3E0AA06F99026
:1026D8000F0174FFF0A3EAF0A3E9F07A0E793A1239
:1026E8001B117B017A0E793A122F66900EFE74FF49
:1026F800F0A37417F0A374FDF0900E33E0F9A3E093
:10270800FAA3E0900F01C9F0A3EAF0A3E9F0900E54
:1027180036E0FFA3E0900F04CFF0A3EFF0900E385F
:10272800E0FFA3E0900F06CFF0A3EFF07A0E793A1E
:0C273800121B117B017A0E793A022F6609
:0B297700900E2CEBF0A3EAF0A3E9F0B7
:10298200783A7C0E7D017BFF7A1979D67E007F80B2
:1029920012135DE4FFFE0FBF00010EBE27F8BF1049
:1029A200F5900EFE74FFF0A37417F0A374EEF0908E
:1029B2000E2CE0F9A3E0FAA3E0900F01C9F0A3EA1C
:1029C200F0A3E9F0900E2FE0F9A3E0FAA3E0900F54
:1029D20004C9F0A3EAF0A3E9F07B017A0E793A1276
:1029E2001B117B017A0E793A122F66900EFE74FF4C
:1029F200F0A37417F0A374F7F0900E32E025E024F0
:102A020033F582E43408F583E0FEA3E0AA06F990E8
:102A12000F0174FFF0A3EAF0A3E9F07A0E793A12FB
:102A22001B117B017A0E793A122F66900EFE74FF0B
:102A3200F0A37418F0A37454F0900E33E0F9A3E0FD
:102A4200FAA3E0900F01C9F0A3EAF0A3E9F0900E17
:102A520036E0FFA3E0900F04CFF0A3EFF0900E3822
:102A6200E0FFA3E0900F06CFF0A3EFF07A0E793AE1
:0C2A7200121B117B017A0E793A022F66CC
:0830A200900E27EEF0A3EFF001
:1030AA0078297C0E7D017BFF7A1A79567E007F088B
:1030BA0012135DE4FFFE0FBF00010EBE27F8BF101A
:1030CA00F5900EFE74FFF0A37418F0A37418F09034
:1030DA000E27E0FFA3E0900F01CFF0A3EFF07B01F2
:1030EA007A0E7929121B117B017A0E7929022F6631
:102B6500900E27EEF0A3EFF0A3ECF0A3EDF0A3EAAF
:042B7500F0A3EBF0EE
:102B7900783A7C0E7D017BFF7A1A795E7E007F327E
:102B890012135D900EFE74FFF0A37418F0A3746421
:102B9900F0900E27E0FFA3E0900F01CFF0A3EFF034
:102BA900900E29E0FFA3E0900F03CFF0A3EFF09080
:102BB9000E2BE0FFA3E0900F05CFF0A3EFF0900EEE
:102BC9002DE0FFA3E0900F07CFF0A3EFF0900E2FB9
:102BD900E0FFA3E0900F09CFF0A3EFF0900E31E0F2
:102BE900FFA3E0900F0BCFF0A3EFF0900E33E0902E
:102BF9000F0DF0900E34E0FFA3E0900F0ECFF0A37D
:102C0900EFF0900E36E0FFA3E0900F10CFF0A3EFA6
:102C1900F0900E38E0FFA3E0900F12CFF0A3EFF091
:102C29007B017A0E793A121B117B017A0E793A02ED
:022C39002F6604
:0B30FA00900E27EBF0A3EAF0A3E9F032
:10310500782A7C0E7D017BFF7A1A79907E007F0AF2
:1031150012135D900EFE74FFF0A37418F0A374886B
:10312500F0900E27E0F9A3E0FAA3E0900F01C9F0B3
:10313500A3EAF0A3E9F07B017A0E792A121B117B31
:08314500017A0E792A022F66BF
:0B314D00900E27EBF0A3EAF0A3E9F0DE
:10315800782A7C0E7D017BFF7A1A799A7E007F0A95
:1031680012135D900EFE74FFF0A37418F0A3749010
:10317800F0900E27E0F9A3E0FAA3E0900F01C9F060
:10318800A3EAF0A3E9F07B017A0E792A121B117BDE
:08319800017A0E792A022F666C
:081E1100900E27EEF0A3EFF0A4
:101E1900E4A3F0A3F0A3F0A3F0900EFE74FFF0A3E7
:101E29007418F0A37497F0A374FFF0A37418F0A3C7
:101E3900749AF07B017A0E792D121B11900E707431
:101E4900FFF0A37418F0A37437F0A37402F0A3147D
:101E5900F0A3740EF0A3742DF0A3E4F0A374F0F0D2
:101E6900A3E4F0A37450122779900E27E07002A31F
:101E7900E0700490096EF0900027E0B4311AA3E0F5
:101E8900B43415A3E0B43110900E7074FFF0A3744C
:101E990018F0A374A0022005900027E0B4311AA31A
:101EA900E0B43415A3E0B43210900E7074FFF0A3BF
:101EB9007418F0A374A2022005900027E0B4311A27
:101EC900A3E0B43415A3E0B43310900E7074FFF09E
:101ED900A37418F0A374A4022005900027E0B4317C
:101EE9001AA3E0B43415A3E0B43410900E7074FF53
:101EF900F0A37418F0A374A6022005900027E0B49B
:101F0900311AA3E0B43415A3E0B43510900E7074FF
:101F1900FFF0A37418F0A374A8022005900027E02D
:101F2900B4311AA3E0B43415A3E0B43610900E709E
:101F390074FFF0A37418F0A374AA02200590002777
:101F4900E0B4311AA3E0B43415A3E0B43710900E0D
:101F59007074FFF0A37418F0A374AC02200590000C
:101F690027E0B43119A3E0B43414A3E0B4380F90D6
:101F79000E7074FFF0A37418F0A374AE807E900005
:101F890027E0B43119A3E0B43414A3E0B4390F90B5
:101F99000E7074FFF0A37418F0A374B0805E900003
:101FA90027E0B43119A3E0B43414A3E0B4300F909E
:101FB9000E7074FFF0A37418F0A374B2803E900001
:101FC90027E0B43119A3E0B43514A3E0B4300F907D
:101FD9000E7074FFF0A37418F0A374B4801E9000FF
:101FE90027E0B43129A3E0B43524A3E0B4311F902C
:101FF9000E7074FFF0A37418F0A374B6F07B017A25
:1020090009796E122FD0900E29E4F0A304F0900EF6
:1020190029E07002A3E0604DE4900E2DF0900E2BA4
:10202900F0A3F0900E27E0FEA3E0FFD3900E2CE082
:102039009FEE6480F8900E2BE06480985027900EF4
:102049007074FFF0A37418F0A374B4F07B017A0ED6
:10205900792D122FD0900E2CE004F070C6900E2B23
:10206900E004F080BE900E7074FFF0A37418F0A322
:102079007437F0A37402F0A314F0A3740EF0A374E0
:102089002DF0A37401F0A37418F0A3E4F0A374690C
:0B209900122779900E29E0FEA3E0FF63
:0120A4002219
:0B286D00901065EFF0A3EDF0A3EBF07E
:10287800900EFE74FFF0A37418F0A3741EF090106D
:102888006AE025E024B5F582E4340DF583E0FEA383
:10289800E0AA06F9900F0174FFF0A3EAF0A3E9F0AB
:1028A800901069E0900F04F090106BE0900F05F025
:1028B80090106CE0FBA3E0FAA3E0F9121B11900E54
:1028C8007074FFF0A37418F0A37437F0A37402F0C7
:1028D80090106CE0F9A3E0FAA3E0900E74C9F0A39D
:1028E800EAF0A3E9F0A3E4F0A37437F0A3E4F0A3BB
:1028F80074BE122779900EFE74FFF0A37418F0A32B
:10290800743EF0901067E0900F01F0901066E09030
:102918000F02F0901065E0900F03F0901068E090BF
:102928000F04F090106CE0FBA3E0FAA3E0F9121B8F
:1029380011900E7074FFF0A37418F0A37437F0A30D
:102948007402F090106CE0F9A3E0FAA3E0900E7422
:10295800C9F0A3EAF0A3E9F0A3E4F0A37437F0A365
:0F296800E4F0A374F0F07BFF7A18793002278037
:10072000900E2AE4F0A37404F0122301900DCFE0A0
:10073000900860F090022CE090096DF0900858E06D
:10074000900013F090022FE0900B8FF090084AE099
:10075000900DA7F090084DE0900DD0F0900856E075
:10076000900012F0E4900963F090096204F090099F
:1007700063E06003020D7F900E2F74FFF0A37418E6
:10078000F0A37437F0A37402F0900962E025E0242E
:1007900093F582E4340DF583E0FEA3E0AA06F99018
:1007A0000E3374FFF0A3EAF0A3E9F0A37401F0A301
:1007B0007472F0A3E4F0A374B4F07BFF7A1879307C
:1007C000122977900962E0C39404900EFE74FF50E2
:1007D0002AF0A37418F0A3743EF0900013E0900F79
:1007E00001F090096DE0900F02F0900860E0900F2A
:1007F00003F0900B8FE0900F04803AF0A37418F090
:10080000A3741EF0900DD0E025E024B5F582E43409
:100810000DF583E0FEA3E0AA06F9900F0174FFF046
:10082000A3EAF0A3E9F0900DA7E0900F04F0900088
:1008300012E0900F05F0900E27E0FBA3E0FAA3E092
:10084000F9121B11122744300FFD900962E0704C21
:10085000900027E0FFB4311FA3E0B4351AA3E0B441
:100860003815900860E0B43B05E4F0020986900872
:1008700060E004F0020986EFB4311E900028E0B475
:100880003517A3E0B43712900860E07006743BF0AF
:10089000020986900860E014F0020986900962E07F
:1008A00064017049900027E0FFB4311DA3E0B43526
:1008B00018A3E0B4381390096DE0B43B04E4F08071
:1008C0002990096DE004F08021EFB4311D900028DB
:1008D000E0B43516A3E0B4371190096DE0700574EB
:1008E0003BF0800690096DE014F0020986900962E1
:1008F000E06402704A900027E0FFB4311EA3E0B428
:100900003519A3E0B43814900013E0B40C05740159
:10091000F0802A900013E004F08022EFB4311E90A2
:100920000028E0B43517A3E0B43712900013E0B408
:100930000105740CF08006900013E014F0804790DD
:100940000962E06403706F900027E0FFB43115A3E3
:10095000E0B43510A3E0B4380B900B8FE0B4500234
:100960008019801CEFB4311E900028E0B43517A325
:10097000E0B43712900B8FE0B450057441F080065C
:10098000900B8F7450F0900EFE74FFF0A37418F06B
:10099000A3743EF0900013E0900F01F090096DE019
:1009A000900F02F0900860E0900F03F0900B8FE042
:1009B000900F04020B67900962E064046003020A6E
:1009C00059900027E0FFB43120A3E0B4351BA3E029
:1009D000B43816900DA7E0B41F067401F0020B792D
:1009E000900DA7E004F0020B79EF64316003020B75
:1009F00079900028E064356003020B79A3E0643746
:100A00006003020B79900DA7E0B40105741FF0801C
:100A100006900DA7E014F0900EFE74FFF0A374187A
:100A2000F0A3741EF0900DD0E025E024B5F582E42B
:100A3000340DF583E0FEA3E0AA06F9900F0174FFE0
:100A4000F0A3EAF0A3E9F0900DA7E0900F04F09076
:100A50000012E0900F05020B67900962E0640560E8
:100A600003020AED900027E0FFB4311EA3E0B43585
:100A700019A3E0B43814900DD0E0B40C057401F063
:100A8000802A900DD0E004F08022EFB4311E900057
:100A900028E0B43517A3E0B43712900DD0E0B401CC
:100AA00005740CF08006900DD0E014F0900EFE74EA
:100AB000FFF0A37418F0A3741EF0900DD0E025E0B1
:100AC00024B5F582E4340DF583E0FEA3E0AA06F92F
:100AD000900F0174FFF0A3EAF0A3E9F0900DA7E0F6
:100AE000900F04F0900012E0900F05807A90096258
:100AF000E064066003020B79900027E0FFB4311236
:100B0000A3E0B4350DA3E0B43808900012E004F07F
:100B10008016EFB43112900028E0B4350BA3E0B496
:100B20003706900012E014F0900EFE74FFF0A374EC
:100B300018F0A3741EF0900DD0E025E024B5F582E6
:100B4000E4340DF583E0FEA3E0AA06F9900F0174EA
:100B5000FFF0A3EAF0A3E9F0900DA7E0900F04F0F6
:100B6000900012E0900F05F0900E27E0FBA3E0FA52
:100B7000A3E0F9121B11122744900027E0FFB431C3
:100B80001BA3E0B43516A3E0B43411900962E07001
:100B9000057406F08006900962E014F0EFB4311D90
:100BA000900028E0B43516A3E0B43511900962E056
:100BB000B40604E4F08006900962E004F090002797
:100BC000E064317055A3E06435704FA3E064367083
:100BD00049900860E0900DCFF090096DE090022CF4
:100BE000F0900013E0900858F0900B8FE090022FE7
:100BF000F0900DA7E090084AF0900DD0E090084DDD
:100C0000F0900012E0900856F09009637401F01221
:100C10002EE4900E2AE4F0A304F0900027E0FFB445
:100C20003118A3E0B43313A3E0B4310E900E2AE4DC
:100C3000F0A37402F090096314F0EFB4311890003F
:100C400028E0B43211A3E0B4380C900E2AE4F0A3EB
:100C500004F0900963F0900027E0B43119A3E0B4E8
:100C60003314A3E0B4320F900E2AE4F0A37403F01F
:100C70009009637401F0900EFE74FFF0A37418F0F5
:100C8000A3743EF0900858E0900F01F090022CE021
:100C9000900F02F0900DCFE0900F03F090022FE044
:100CA000900F04F0900E27E0FBA3E0FAA3E0F91206
:100CB0001B11900E2F74FFF0A37418F0A37437F07B
:100CC000A37402F0900E27E0F9A3E0FAA3E0900EDF
:100CD00033C9F0A3EAF0A3E9F0A3E4F0A37437F07A
:100CE000A3E4F0A374BEF07BFF7A18793012263D9E
:100CF000900EFE74FFF0A37418F0A3741EF0900819
:100D00004DE025E024B5F582E4340DF583E0FEA343
:100D1000E0AA06F9900F0174FFF0A3EAF0A3E9F04E
:100D200090084AE0900F04F0900856E0900F05F00C
:100D3000900E27E0FBA3E0FAA3E0F9121B11900E3E
:100D40002F74FFF0A37418F0A37437F0A37402F0AB
:100D5000900E27E0F9A3E0FAA3E0900E33C9F0A3C8
:100D6000EAF0A3E9F0A3E4F0A37437F0A3E4F0A35E
:100D700074F0F07BFF7A18793012263D02076E90EE
:070D80000E2AE0FEA3E0FFD4
:010D87002249
:10007600E4900DD7F0A3F0A3F0A3F0A3F0A3F0A3B0
:10008600F0A3F0A3F0A304F0123362123305123189
:10009600E9123355123229122CF71232BED205E478
:1000A600900DA9F0A3F0900DAEF0A3F0D20C900E37
:1000B600FE74FFF0A37418F0A374B8F07B017A0DF8
:1000C60079E1121B117B017A0D79E1122F667F040B
:1000D6007E001230A23006FD900228E0FEA3E0FF6B
:1000E600EE60030205A6EF24FE60651470030203AA
:1000F600A01470030203291460030205A6900DDF05
:10010600E07002A3E06007E4900DDFF0A3F090003A
:1001160027E0FFB4310DA3E0B43308A3E0B4310304
:10012600020352EFB4310F900028E0B43208A3E086
:10013600B4380302036D900027E06431709AA3E09F
:1001460064337094A3E06432708E90022802038CAC
:10015600900DDFE07002A3E06012E4900DDFF0A3E3
:10016600F07F01FE1230A2E490096EF0900027E0C5
:10017600FFB4310CA3E0B43307A3E0B43102805BD3
:10018600EFB4310F900028E0B43208A3E0B438038E
:1001960002036D900027E0B43111A3E0B4330CA341
:1001A600E0B43207900228E402038CE4900DA3F039
:1001B600A3F0C3900DA4E09404900DA3E064809492
:1001C6008040030200DE300FFD900027E0FFB431CF
:1001D60011A3E0B4330CA3E0B43107900228E40283
:1001E60002ACEFB4310F900028E0B43208A3E0B4BB
:1001F600380302036D900027E0B43111A3E0B43355
:100206000CA3E0B43207900228E402038C90002786
:10021600E0643160030202B3A3E0643560030202C6
:10022600B3A3E0643360030202B3786E7C097D01F8
:1002360090085CE0FBA3E0FAA3E0F912160EEF705B
:100246000A900228F0A374040206C2900EFE74FF00
:10025600F0A37418F0A37497F0A374FFF0A37418B6
:10026600F0A374BBF07B017A0D79E1121B11900E9D
:100276007074FFF0A37418F0A37437F0A37402F03F
:10028600A314F0A3740DF0A374E1F0A37401F0A31A
:100296007418F0A3E4F0A37469122779E4900DA30F
:1002A600F0A3F0900228F0A374020206E59000275E
:1002B600E064317038A3E064357032A3E0B4322DC7
:1002C6007B017A09796E120026900E21EEF0A3EFDB
:1002D600F0D39400EE9400403E900E21E0FEA3E0A1
:0B02E600246DF58274093EF583E4F0FE
:1002F100802A900DA3E0FEA3E0FFC39404EE648086
:10030100948040030201B8121E11EF4E600E900D51
:10031100A4E004F07006900DA3E004F0900228E43C
:10032100F0A37402F00201B8900DDFE07002A3E0C7
:10033100600DE4900DDFF0A3F07F05FE1230A29076
:100341000027E0FFB43115A3E0B43310A3E0B431CA
:100351000B900228E4F0A374020206C2EFB4311636
:10036100900028E0B4320FA3E0B4380A900228E4E8
:10037100F0A3040206C2900027E0B43115A3E0B453
:100381003310A3E0B4320B900228E4F0A37403020B
:1003910006C2120720900228EEF0A3EF0206C290D7
:1003A1000DDFE07002A3E06049E4900DDFF0A3F0FF
:1003B1007F02FE1230A2900E2D7401F0A37413F08F
:1003C100A3E4F0A37408F0A3E4F0A37432F0A374DF
:1003D10001F0E4A3F0A3F0A3F0A374FFF0A3E4F011
:1003E100A304F07B877A007D077C007FC87E001222
:1003F1002B65900027E0FFB43114A3E0B4330FA3C1
:10040100E0B4310A900228E4F0A374028017EFB43B
:10041100311E900028E0B43217A3E0B438129002E4
:1004210028E4F0A304F0900DDFE4F0A304F08021B0
:10043100900027E0B4311AA3E0B43315A3E0B4323D
:1004410010900228E4F0A37403F0E4900DDFF0A310
:10045100F02013030200DE900027E0643260030203
:1004610004FFA3E0643060030204FFA3E064306092
:04047100030204FF7F
:10047500900E21F0A3F078237C0E7D017BFF7A1A84
:1004850079A4FE7F0412135DE4900E21F0A3F09091
:100495000E21E0FEA3E0FFC39404EE648094805037
:1004A50048742B2FF58274003EF583E0FF640D60E0
:1004B50014900E21E0FCA3E02423F582740E3CF594
:1004C50083EFF08014900E21E0FEA3E02423F58253
:1004D500740E3EF583E4F08010900E22E004F07077
:1004E500AE900E21E004F080A6E4900E26F07B018C
:0704F5007A0E79231230FAA0
:1004FC000200DE900027E0643260030200DEA3E01D
:10050C00643060030200DEA3E0643160030200DEAD
:10051C00900E21F0A3F078237C0E7D017BFF7A1ADC
:10052C0079A8FE7F0412135DE4900E21F0A3F090E5
:10053C000E21E0FEA3E0FFC39404EE64809480508F
:10054C0048742B2FF58274003EF583E0FF640D6038
:10055C0014900E21E0FCA3E02423F582740E3CF5EC
:10056C0083EFF08014900E21E0FEA3E02423F582AB
:10057C00740E3EF583E4F08010900E22E004F070CF
:10058C00AE900E21E004F080A6E4900E26F07B01E4
:07059C007A0E792312314DA4
:1005A3000200DE7F3612329D90022BEFF0900DDFBA
:1005B300E07002A3E0604FE4900DDFF0A3F0C3907E
:1005C3000D92E094FA900D91E064809480500EA314
:1005D300E004F070E9900D91E004F080E1900EFEEC
:1005E30074FFF0A37418F0A374C1F090022BE09091
:1005F3000F01F07B017A0D79E1121B1112260B7F9B
:10060300037E001230A2200F1390022BE0FF900D07
:10061300DBE07003A3E06F70030200DE90022BE0C7
:10062300FFFD900DDBE4F0A3EDF0900027E06431D3
:100633007022A3E06432701CA3E064397016900D3D
:10064300DDF0A304F0900EFE74FFF0A37418F0A382
:1006530074C1803E900027E064317049A3E06433A5
:100663007043A3E06430703D900DDDF0A3F0900281
:100673002BE075F009A4FFAEF07C007D051213AEEC
:10068300EF2420FFF0900EFE74FFF0A37418F0A384
:1006930074CFF0A3EFF07B017A0D79E1121B1112F5
:1006A300260B0200DE900027E0FFB4311EA3E0B466
:1006B3003319A3E0B43114900228E4F0A37402F0D8
:1006C300900DDFE4F0A304F00200DEEFB4311E90DE
:1006D3000028E0B43217A3E0B43812900228E4F003
:1006E300A304F0E4900DDFF0A3F00200DE900027F6
:1006F300E0643160030200DEA3E0643360030200C0
:10070300DEA3E0643260030200DE900228F0A374EB
:0D07130003F0900DDFE4F0A304F00200DE1F
:03000000022E5875
:0C2E5800787FE4F6D8FD758123022E9FE0
:10128D00E709F608DFFA8046E709F208DFFA803E43
:10129D0088828C83E709F0A3DFFA8032E309F60830
:1012AD00DFFA8078E309F208DFFA807088828C8398
:1012BD00E309F0A3DFFA806489828A83E0A3F6084C
:1012CD00DFFA805889828A83E0A3F208DFFA804C26
:1012DD0080D280FA80C680D4806980F280338010FD
:1012ED0080A680EA809A80A880DA80E280CA803366
:1012FD0089828A83ECFAE493A3C8C582C8CCC583DE
:10130D00CCF0A3C8C582C8CCC583CCDFE9DEE780AD
:10131D000D89828A83E493A3F608DFF9ECFAA9F02C
:10132D00EDFB2289828A83ECFAE0A3C8C582C8CC82
:10133D00C583CCF0A3C8C582C8CCC583CCDFEADE9B
:10134D00E880DB89828A83E493A3F208DFF980CCFD
:10135D0088F0EF60010E4E60C388F0ED2402B404F6
:10136D000050B9F582EB2402B4040050AF2323459D
:06137D0082239012DD73D3
:10138300BB010689828A83E0225002E722BBFE0268
:09139300E32289828A83E493229B
:10139C00EF8DF0A4A8F0CF8CF0A428CE8DF0A42E65
:0213AC00FE221F
:1013AE00BC000BBE0029EF8DF084FFADF022E4CC23
:1013BE00F875F008EF2FFFEE33FEEC33FCEE9DECEC
:1013CE00984005FCEE9DFE0FD5F0E9E4CEFD22ED32
:1013DE00F8F5F0EE8420D21CFEADF075F008EF2F7C
:1013EE00FFED33FD4007985006D5F0F222C398FD6D
:0513FE000FD5F0EA220A
:10140300A3F8E0C5F025F0F0E5821582700215839C
:06141300E0C838F0E822F9
:10141900EB9FF5F0EA9E42F0E99D42F0E89C45F029
:0114290022A0
:10142A007401FF3395E0FEFDFCA3A3A3E0CF2FF0E8
:10143A00E582158270021583E0CE3EF0E5821582C0
:10144A0070021583E0CD3DF0E582158270021583A6
:05145A00E0CC3CF02293
:10145F00A8828583F0D083D082121476121476126C
:10146F001476121476E473E493A3C583C5F0C58391
:10147F00C8C582C8F0A3C583C5F0C583C8C582C8D7
:01148F00223A
:101AAC00E50824FEF582E4340EF583E00508229067
:101ABC000EFB301D03900EFEE475F0011216800231
:101ACC0013832016E97F2ED2168018EF540F249022
:101ADC00D43440D4FF301A0BEF24BFB41A00500397
:101AEC002461FFE50960021509050CE50C7002057F
:101AFC000B301D0E900EFBE475F001121680EF02F8
:101B0C0016580232507403D21D8003E4C21DF5082E
:101B1C00900EFB121697E4F509F50BF50CE5096030
:101B2C00077F20121AEF80F5750AFFC217C216C282
:101B3C0018C219C21BC21CC21E121ABBFF700D3078
:101B4C001D057F00121B00AF0CAE0B22B4255FC22B
:101B5C00D5C21A121ABBFF24D0B40A00501A75F061
:101B6C000A780930D50508B6FF0106C6A426F6206A
:101B7C00D5047002D21980D924CFB41A00EF5004C6
:101B8C00C2E5D21A021D01D21780C6D21680C0D26D
:101B9C001880BCD2D580BAD21B80B47F20121AEF29
:101BAC002018077401B5090040F1121AACFF121A83
:101BBC00EF021B29D21ED21C8095121AACFB121AF2
:101BCC00ACFA121AACF94A4B700679D27A1D7BFF2B
:101BDC0020182EE509602A7E008E8275830012166D
:101BEC002B60060EEE650A70F0C2D5EBC0E0EAC0C1
:101BFC00E0E9C0E0EE121D48D0E0F9D0E0FAD0E008
:101C0C00FB121383FF60AAEBC0E0EAC0E0E9C0E07E
:101C1C00121AEFD0E02401F9D0E03400FAD0E0FB46
:101C2C00E50A0460DCD50AD980877BFF7A1D7944EC
:101C3C00D218809C791080027908C21CC21E8008C0
:101C4C00D2D5790A8004790AC2D5E50A047002F566
:101C5C000AE4FAFDFEFF121AACFC7B0820171312E3
:101C6C001AACFD7B1030160A121AACFE121AACFF1D
:101C7C007B20EC3382D592D55013C3E43016069FEB
:101C8C00FFE49EFEE42017039DFDE49CFCE4CBF8EE
:101C9C00C217EC700CCFCECDCCE824F8F870F380E2
:101CAC0017C3EF33FFEE33FEED33FDEC33FCEB33B8
:101CBC00FB994002FB0FD8E9EB301705F8D0E0C4D4
:101CCC0048B217C0E00AEC4D4E4F78207B0070C232
:101CDC00EAB50A0040BCC0E0121D4AD0F0D0E020AA
:101CEC001704C4C0E0C4B217C0F0121AD8D0F0D593
:101CFC00F0EB021B291216A01BC6531C40581B9755
:101D0C004C1B93421C444F1C4C441C4C491BAC4375
:081D1C001C52551C36461C3612
:101D2400451C36471DF2501B9B2D1B9F2E1BC22B9F
:101D34001BA3231BC0201DDB2A1B5B4800001BBA0E
:101D44003F3F3F00790AA2D5201914301B09B9106E
:101D5400020404B9080104A2D5201C025001042085
:101D640018689218B509005034C0E07F2030191962
:101D74007F30A218721C721B500F121DA1C218C210
:101D84001CC21BC21E7F30800F301B03E9C0E0124F
:101D94001AEF301B03D0E0F9D0E0B509CC301B17A3
:101DA4007F30B9100C121AEF7F58301A077F7880F1
:101DB40003B90803121AEF3018057F2D021AEF7FBA
:101DC40020201EF87F2B201CF322921880CF286E2F
:101DD400756C6C2900D217121AAC3017F8C2177838
:101DE4000930D50108F6021B5B2D50434958121ADD
:101DF400AC2403B405004001E4901DED93121AE0F5
:0D1E0400743A121AE0D219750904021C404C
:102FD000900E6DEBF0A3EAF0A3E9F0900E73EBF026
:102FE000A3EAF0A3E9F0900E6DE0FBA3E475F00115
:102FF000121403A9F0FA12138370EB900E6E74FF93
:10300000F5F012166A900E70E0FBA3E475F0011261
:103010001403A9F0FA121383FF900E6DE0FBA3E4F2
:1030200075F001121403A9F0FAEF12165870D69039
:0B3030000E73E0FBA3E0FAA3E0F9221E
:10149000E3F5F009E208B5F06D606B80F3E3F5F079
:1014A00009E608B5F060605E80F387F009E608B5EC
:1014B000F054605280F487F009E208B5F0486046C5
:1014C00080F488828C8387F009E0A3B5F038603619
:1014D00080F488828C8387F009E493A3B5F02760B9
:1014E0002580F388828C83E3F5F009E0A3B5F0163C
:1014F000601480F388828C83E3F5F009E493A3B54C
:10150000F004600280F20215BB808580E7808E8047
:10151000D2803C8015806C807E809B80B5808B80E3
:10152000A1804F8070803A0215C789828A83ECFAC5
:10153000E493F5F0A3C8C582C8CCC583CCE493A3DB
:10154000C8C582C8CCC583CCB5F070606E80E18917
:10155000828A83E493F5F0A3E208B5F05E605C80D4
:10156000F289828A83E0F5F0A3E608B5F04D604B7E
:1015700080F389828A83E0F5F0A3E208B5F03C604D
:101580003A80F389828A83E493F5F0A3E608B5F004
:101590002A602880F2805389828A83ECFAE493F5EA
:1015A000F0A3C8C582C8CCC583CCE0A3C8C582C897
:1015B000CCC583CCB5F004600280E27FFFB5F002B9
:1015C0000F2240027F012289828A83ECFAE0F5F043
:1015D000A3C8C582C8CCC583CCE0A3C8C582C8CC8B
:1015E000C583CCB5F0D560D380E389828A83ECFAD9
:1015F000E0F5F0A3C8C582C8CCC583CCE493A3C8EA
:10160000C582C8CCC583CCB5F0B160AF80E288F0AC
:10161000ED2402B4040050A3F582EB2402B40400CC
:0B162000509923234582239015097385
:10002600E4FFFE121383600C0FEF70010E09E970F6
:05003600F20A80EF2238
:102E6400020076E493A3F8E493A34003F68001F20E
:102E740008DFF48029E493A3F85407240CC8C3336F
:102E8400C4540F4420C8834004F456800146F6DF3E
:102E9400E4800B0102040810204080902C3BE47E67
:102EA400019360BCA3FF543F30E509541FFEE49333
:102EB400A360010ECF54C025E060A840B8E493A3FA
:102EC400FAE493A3F8E493A3C8C582C8CAC583CA25
:102ED400F0A3C8C582C8CAC583CADFE9DEE780BEDD
:012CF60000DD
:10162B00BB010CE58229F582E5833AF583E0225074
:10163B0006E92582F8E622BBFE06E92582F8E222BE
:0D164B00E58229F582E5833AF583E49322D8
:10165800BB010689828A83F0225002F722BBFE0171
:02166800F3226B
:10166A00C5F0F8A3E028F0C5F0F8E582158270020B
:06167A001583E038F022A8
:10168000F8E0FBA3A3E0F925F0F0E58215827002F3
:071690001583E0FA38F02297
:09169700EBF0A3EAF0A3E9F02254
:1016A000D083D082F8E4937012740193700DA3A3D9
:1016B00093F8740193F5828883E4737402936860ED
:0616C000EFA3A3A380DFED
:10325000EFB40A07740D12325B740A309811A89902
:10326000B8130CC2983098FDA899C298B811F630DE
:0732700099FDC299F59922B6
:00000001FF
