:100E9F006D313042006D313242006D313442006DA0
:100EAF00313642006D323042006D323442006D33C4
:100EBF003242006D3438006D3634004E4F4E0053C1
:100ECF00554E004D4F4E0054554500574544005464
:100EDF0048550046524900534154004A414E00467E
:100EEF004542004D415200415052004D4159004A78
:100EFF00554E004A554C0041554700534550004F41
:100F0F004354004E4F56004445430053455420442C
:100F1F0041544520414E442054494D452020202026
:100F2F0020200057524954494E4720444154412EE6
:100F3F002E2E205741495421202000444154412056
:100F4F005355434345535346554C4C5920534156E3
:100F5F004544004552524F5220202020202020206F
:100F6F002020202020202020202000532025732007
:100F7F0025730D00662025730D0074202225732222
:100F8F002025752025750D0078692025752025757C
:100F9F002025750D006D2025750D00257320004649
:100FAF0046464646460030303030303000256275B8
:100FBF0020202000323025303262750025634D200D
:100FCF002000534554204D4F4E5448200053455454
:100FDF002044415445202000534554205945415247
:100FEF0020200053455420484F5552202000534590
:100FFF0054204D494E5554450053455420414D2FD3
:10100F00504D2000505245535320444F4E45002D14
:10101F002D2D2D0025732025303262752C20323076
:10102F00253032627500303046463030002532624E
:10103F00753A25303262753A253032627520256354
:10104F004D20007A0D0073657421006366672100DF
:10105F007376632100252D3362754300252D33628E
:10106F0075460000000000000000000000000000B6
:10107F000000000000000000000000000000000061
:10108F000000000000000000000000000000000051
:10109F000000000000000000000000000000000041
:1010AF000000000000000000000000000000000031
:1010BF000000000000000000000000000000000021
:1010CF000000000000000000000000000000000011
:1010DF000000000000000000000000000000000001
:0B10EF000000000000000000000000F6
:10206D00C106C104C107C10FC10A5208310E9F0E2E
:10207D00A40EA90EAE0EB30EB80EBD0EC20EC6C185
:10208D00024100120041022F004108590050001476
:10209D000ECA0ECE0ED20ED60EDA0EDE0EE20EE603
:1020AD005A0D970ECA0EEA0EEE0EF20EF60EFA0E3F
:1020BD00FE0F020F060F0A0F0E0F120F1648095CC6
:1020CD000F1A0F320F4A0F62420004000042000641
:1020DD000000420008000041000B0041000C0041CF
:1020ED00000D0041000E0041000F004100100042A4
:0420FD0002260001B6
:1024BD00AF84E4900E02F0A3F075840F758A838FBC
:0124CD00848A
:0124CE0022EB
:10238200AF8475840F75E12F75E20175E3C475A4FE
:102392000175A50175A7CA759C0F759D04E4F59E8C
:1023A200759F807580FF7590FF75A0FF75B0FF75F2
:0F23B200C8FF75D8FF75E8FF75F8FFC2FF8F846D
:0123C10022F9
:0D250D0075A89243E70143E74043E60A2228
:1023F400AF84E4F584F5C875C90875CAF375CBFFD5
:1024040085CBCD85CACC75C804F584759850759173
:062414000575A8908F84FD
:01241A00229F
:07251A0075FFDE75FFAD2225
:0300230002131EA7
:0D131E00C0E0C0F0C083C082C0D075D01008
:10132B00900DB3E584F0E4FBFAA3120E1600000057
:10133B000075840020980302149AC298900011E55E
:10134B0099F0900D88E0FEA3E0FFC3EE94024003FA
:10135B00021459900011E0FD640D601D74312FF5DE
:10136B008274023EF583EDF0900D89E004F0700677
:10137B00900D88E004F002149A900231E0FF647B38
:10138B007026A3E06463701AA3E0B46D15A3E0B4F8
:10139B007010A3E0B4650BA3E0B47D06D206D204B3
:1013AB008079C206C2048073EF6478702EFAFBD387
:1013BB00900D89E09B900D88E09A405574312BF588
:1013CB008274023AF583E0FF74242BF58274003AA1
:1013DB00F583EFF00BBB00010A80D4900231E0647F
:1013EB00287034FAFBD3900D89E09B900D88E09A1E
:1013FB00401F74312BF58274023AF583E0FF74249D
:10140B002BF58274003AF583EFF00BBB00010A80D9
:10141B00D4C207D20F8004D207C20F7A007B00D34D
:10142B00900D89E09B900D88E09A401374312BF559
:10143B008274023AF583E4F00BBB00010A80E09062
:10144B000D8DE4F0A3F0900D88F0A3F08041900D8A
:10145B0088E0FEA3E0FF900D8DE0FCA3E0FDC39FB1
:10146B00EC9E501C74312DF58274023CF583E4F034
:10147B00900D8EE004F070D6900D8DE004F080CED0
:10148B00900D8DE4F0A3F0900D88F0A3F0C20F2027
:10149B00990302152DC299300C0302152B900D9058
:1014AB00E0FEA3E02431F58274043EF583E0F59968
:1014BB00900D91E004F07006900D90E004F02099EF
:1014CB0013900DB4120DE1E47B487A26F9F8D31290
:1014DB000DD050EAE47F487E26FDFC900DB4E0F879
:1014EB00A3E0F9A3E0FAA3E0FBC3120DD04002D2B4
:1014FB0099900DB4120E1600000000C3900D90E0F1
:10150B0094044004E4F0A3F0900D8BE0FEA3E0FF05
:10151B00900D90E0B5160BA3E0B51706D20C800228
:08152B00D205900DB3E0F58438
:0B153300D0D0D082D083D0F0D0E032C6
:06220A007B017A0E79C68B
:10221000900E90E584F0120D0D604E200C14900D80
:102220008BE0FEA3E0FF900D90E06E7003A3E06FE3
:10223000602E120D0DFF900D8BE475F001120DBA9A
:10224000FC743125F0F58274043CF583EFF0C39003
:102250000D8BE094044004E4F0A3F0300C02C20CB7
:10226000740129F9E43AFA80AD300507C205E4F5B6
:0922700084D299900E90E0F584EF
:012279002242
:101C7F00A3F0A37401F0A3E4F0A3F07493A3F07B9B
:051C8F00FF7A0F79AEA1
:0B1C9400900EB8EBF0A3EAF0A3E9F01B
:101C9F00900E9374FFF0A3740FF0A3747AF0900E6C
:101CAF00B8E0F9A3E0FAA3E0900E96C9F0A3EAF02A
:101CBF00A3E9F0900EBBE0F9A3E0FAA3E0900E9930
:101CCF00C9F0A3EAF0A3E9F07B017A0E79C61205F9
:101CDF00DA12220A900E9374FFF0A3740FF0A3741C
:101CEF0083F0900EBEE025E02431F582E43408F550
:101CFF0083E0FEA3E0AA06F9900E9674FFF0A3EA24
:101D0F00F0A3E9F07A0E79C61205DA12220A900EC4
:101D1F009374FFF0A3740FF0A37489F0900EBFE0DB
:101D2F00F9A3E0FAA3E0900E96C9F0A3EAF0A3E9B5
:101D3F00F0900EC2E0FFA3E0900E99CFF0A3EFF06A
:101D4F00900EC4E0FFA3E0900E9BCFF0A3EFF07ACC
:0F1D5F000E79C61205DA7B017A0E79C6022210C0
:0C233900900F46ECF0A3EDF0AD03AC02F9
:10234500900E9374FFF0A3740FF0A37497F0A3EEAF
:10235500F0A3EFF0900F46E0FFA3E0900E98CFF0CA
:10236500A3EFF0AF05A3ECF0A3EFF07B017A0F79B3
:0D237500481205DA7B017A0F794802221028
:052521007E00022442CF
:10244200900E9374FFF0A3740FF0A374A4F0A3EEA4
:10245200F0A3EFF07B017A0F79C81205DA7B017ADB
:062462000F79C8022210F0
:1019E200E4901152F0A3F0900013E06402705B9057
:1019F2000024E064287019A3E024CE600D14600D69
:101A020024026003021B0E021AC8021ACC021AD068
:101A1200E4901152F0A3F0901152E0FEA3E0FF24F3
:101A220024F58274003EF583E07003021B0E7424D9
:101A32002FF58274003EF583E4F0901153E004F038
:101A420070D5901152E004F080CD900013E0640351
:101A52007058900024E064287016A3E024CE600C35
:101A620014600B24026003021B0E805A805C805EAD
:101A7200E4901152F0A3F0901152E0FEA3E0FF2493
:101A820024F58274003EF583E07003021B0E742479
:101A92002FF58274003EF583E4F0901153E004F0D8
:101AA20070D5901152E004F080CD900013E06404F0
:101AB200705A900024E0B4281CA3E024CE600B14DA
:101AC200600C240270467F0280067F0380027F043E
:101AD2001225218037E4901152F0A3F0901152E0C8
:101AE200FEA3E0FF2424F58274003EF583E0601C2F
:101AF20074242FF58274003EF583E4F0901153E0D4
:101B020004F070D8901152E004F080D0E4901152A9
:101B1200F0A3F0901152E0FEA3E0FF2424F58274BA
:101B2200003EF583E0601C74242FF58274003EF5BC
:101B320083E4F0901153E004F070D8901152E00465
:031B4200F080D060
:011B4500227D
:101E5D00900E04120E1600000000900E08E584F09E
:101E6D00E4F584208675900E04120DE17BA07A8630
:101E7D0079017800D3120DD04061C287E4900E0233
:101E8D00F0A3F0900E03E004F07006900E02E00453
:101E9D00F0900E02E07003A3E0F470E7D287208784
:101EAD0014900E04120DE17BA07A8679017800D38F
:101EBD00120DD050E9E4900E02F0A3F0C3900E0382
:101ECD00E0940A900E02E0648094805096A3E004A2
:101EDD00F070E9900E02E004F080E175C00775CF57
:101EED009143C040900E08E0F584C202E49008577B
:101EFD00F090084AF0900849F0900855F0900D8642
:051F0D00F0900964F0F2
:011F120022AC
:10248900AF84758401E4F5C8F5C975CBE275CA7ADC
:0A24990085CBCD85CACCD2CA8F8452
:0124A3002216
:0300730002000385
:07000300C0D075D000C0075A
:10000A00AF8475840053C0BF43C0408F84C2CFC23F
:03001A00028F84CE
:05001D00D007D0D03235
:1024A40074DB2FF582E43408F583EDF0EFFD7C0056
:0924B4007B017A007F2002227AEC
:10246800900E02EFF0FD7C007B017A007F20121FA6
:10247800C2900E02E0245BF582E43408F583E0FFA5
:012488002231
:0F24E000AE05EFFD7C00EEFB7A007FD002227A82
:0F24EF00AE05EFFD7C00EEFB7A007FD0021FC22E
:101FC200900E03EFF0A3ECF0A3EDF0A3EAF0A3EB85
:011FD200F01E
:101FD300A3E584F0E4F58420C7FD2002FA900E08FF
:101FE300E0F584900E03E0FF245C600824D46004D1
:101FF30024B0700E900E04E0FCA3E0FDE4FBFA12A3
:10200300227AE4F58420C7FD2002FA900E03E090C3
:102013000845F0900E04E0FFA3E0900850CFF0A332
:10202300EFF0900E06E0FFA3E0900D94CFF0A3EF46
:10203300F0D202D210D2C520C7FD2002FA900E08BA
:10204300E0F584900E03E0245C601824D4600C2433
:10205300B0701690084AE0701080F8900964E07040
:092063000880F8900855E060FACD
:01206C002251
:02227A00A907B2
:10227C00E4900E09F0A3F0A3F0A3E584F0E4F58458
:10228C0020C7FD2002FA900845E9F0AF05900850F0
:10229C00ECF0A3EFF0E92455600824DB601A24B0BD
:1022AC00702C900224EAF0A3EBF0D202C210D2C53B
:1022BC00900857E0701880F8AF03900224EAF0A35E
:1022CC00EFF0D202C210D2C5900D86E060FA900EEB
:0422DC000CE0F58499
:0122E00022DB
:03003B000200764A
:0D007600C0E0C0F0C083C082C0D075D010C3
:10008300C214E5C1131313541F14B40B004003022D
:1000930005399000A375F003A4C58325F0C58373C8
:1000A3000200C40200C40200E90201260201C302E5
:1000B30002680205350202FA0203100203A70204D2
:1000C300A6900845E0F5C253C2FEA210E43342C233
:1000D300C2C5900002E4F0A3F0900000F0A3F090FA
:1000E300000AF002053B900845E0FFB4201E90088B
:1000F30050E0FCA3E0FD64AB4C7007D2C4C2020223
:10010300053B8DC2900857E4F002053BEF64D060D5
:100113000302053B900850A3E0F5C2900D86E4F07E
:1001230002053B900845E0FFB4202CC3900005E096
:10013300940A900004E094005011A3E004F07006C8
:10014300900004E004F0D2C502053B900004E4F003
:10015300A3F09008578065EFB4D02CC3900007E05C
:10016300940A900006E094005011A3E004F0700696
:10017300900006E004F0D2C502053B900006E4F0CF
:10018300A3F0900D868035900845E064A4600302D7
:10019300053BC3900009E0940A900008E0940050E6
:1001A30011A3E004F07006900008E004F0D2C50249
:1001B300053B900008E4F0A3F09008490402039D76
:1001C300900845E0F96420704A900224E0FEA3E021
:1001D300FF900000E0FCA3E0FDC39FEC9E502A903B
:1001E3000851E02DFF900850E03CFE74DB2FF582B0
:1001F30074083EF583E0F5C2900001E004F0705806
:10020300900000E004F002053BD2C4C202900857FC
:10021300020530E964D0600302053B900224E0FE4E
:10022300A3E0FF900000E0FCA3E0FDC39FEC9E5021
:100233002A900851E02DFF900850E03CFE74DB2F1C
:10024300F58274083EF583E0F5C2900001E004F006
:100253007006900000E004F002053BD2C4C2029095
:100263000D86020530900845E0FFB42029C39000B5
:1002730005E0940A900004E094005011A3E004F018
:100283007006900004E004F0D2C502053B90000420
:10029300E4F0A302039DEFB4D029C3900007E094D8
:1002A3000A900006E094005011A3E004F070069059
:1002B3000006E004F0D2C502053B900006E4F0A37B
:1002C30002039D900845E064A4600302053BC390CC
:1002D3000009E0940A900008E094005011A3E004A0
:1002E300F07006900008E004F0D2C502053B9000D0
:1002F30008E4F0A302039D900D94E07004A3E0646E
:10030300017005C2C202053BD2C202053B900845FB
:10031300E0FFB42028C3900005E0940A900004E0B5
:1003230094005011A3E004F07006900004E004F080
:10033300D2C502053B900004E4F0A3805DEFB4D086
:1003430028C3900007E0940A900006E0940050113F
:10035300A3E004F07006900006E004F0D2C50205A5
:100363003B900006E4F0A38031900845E064A4606C
:100373000302053BC3900009E0940A900008E0944F
:10038300005011A3E004F07006900008E004F0D2DE
:10039300C502053B900008E4F0A3F0D2C4C202D228
:1003A3001402053B900845E0F96420704F900D94CA
:1003B300E0FEA3E0FF900002E0FCA3E0FDC39FEC9E
:1003C3009E5031900851E02DFF900850E03CFE74A0
:1003D3005B2FF58274083EF583E5C2F0D2C290002C
:1003E30003E004F07006900002E004F090084AE491
:1003F300F002053BC2C290084A020530E964D0709E
:1004030052900D94E0FEA3E0FF900002E0FCA3E015
:10041300FDC39FEC9E5031900851E02DFF90085092
:10042300E03CFE745B2FF58274083EF583E5C2F071
:10043300900964E4F0D2C2900003E004F0700690E7
:100443000002E004F002053B9009647401F0C2C2AB
:1004530002053BE964A4600302053B900D94E0FEB2
:10046300A3E0FF900002E0FCA3E0FDC39FEC9E50DD
:100473002AAFC274652DF58274093CF583EFF090C1
:100483000847F0D2C2900003E004F0700690000227
:10049300E004F0900855E4F002053BC2C290085511
:1004A300020530900845E0FFB4202C900002E0FCE8
:1004B300A3E0FD900851E02DFD900850E03CFC7452
:1004C3005B2DF58274083CF583E5C2F0D2C4C20209
:1004D300D2C290084A8056EFB4D02F900002E0FEBB
:1004E300A3E0FF900851E02FFF900850E03EFE7418
:1004F3005B2FF58274083EF583E5C2F090096474BE
:1005030001F0D2C4C202D2C2802E900845E0B4A446
:1005130027900002E0FEA3E02465F58274093EF50E
:1005230083E5C2F0D2C4C202D2C29008557401F06E
:100533008006D2148002D21430142A53C0BF43C0A1
:1005430040C2C5C2C4C2C2C202C2149008577401D9
:10055300F090084AF0900D86F0900964F0900849F5
:07056300F0900855F0C2C33F
:0B056A00D0D0D082D083D0F0D0E0329F
:1024CF009008E97404F0A37430F07D027F0E0224AB
:0124DF00E01C
:10218E00900DB1E0FF1200269008DBEFF090022ACE
:10219E00E0FF1200269008DCEFF090085AE0FF12E4
:1021AE0000269008DEEFF0900848E0FF120026901F
:1021BE0008DFEFF090084BE0FF1200269008E0EFEA
:1021CE00F0900854E0FF1200269008E1EFF090081E
:1021DE0056E0FF120026EF4440FF90022DE0FEB4C1
:1021EE005006EF4460FF8008EEB44104EF545FFFE9
:0C21FE009008DDEFF07D07E4FF0224E014
:10153E00E4901154F0A3F07D07FF1224EF90085BA6
:10154E00E0FF1224FE900DB1EFF090085CE0FF1268
:10155E0024FE90022AEFF090085DE0FF30E617902F
:10156E0008587401F0EF90022D30E5057450F080AC
:10157E000A7441F08005E4900858F0EF541FFF12F2
:10158E0024FE900856EFF0BF0C1090022DE0B441EF
:10159E0003E48016900856E0801090022DE090082B
:1015AE0056B45005E0240C8001E0900843F09008FA
:1015BE005EE0FF1224FE90085AEFF090085FE0FF05
:1015CE001224FE900848EFF0900860E0FF1224FE0F
:1015DE0090084BEFF0900861E0FF1224FE90085443
:1015EE00EFF090000BE0FF90084BE0B5071890006D
:1015FE000CE0FF900848E0B5070C90000DE0FF905E
:10160E000854E06F6002D20390000EE0FF9008567F
:10161E00E0FEB5071890000FE0FF90022AE0B50734
:10162E000C900010E0FF900DB1E06F6002D21390AD
:10163E00022DE0FBB4501FEE240CFFE433FE7C00C1
:10164E007D3C120D5390022AE02FFFEC3E90115478
:10165E00F0A3EFF08028EBB44124900856E0B40CD0
:10166E0002E4F0900856E075F03CA4FF90022AE0E8
:10167E007C002FFEEC35F0901154F0A3CEF09011BB
:10168E0054E0FAA3E0FB7C007D3CFFAE02120D6538
:10169E0090022FEDF07C007D3CAF03AE02120D6583
:1016AE00900859EFF0900848E090000CF090084B2D
:1016BE00E090000BF0900854E090000DF09008566A
:1016CE00E090000EF090022AE090000FF0900DB125
:0516DE00E0900010F097
:0116E30022E4
:10186B0090084FE07043900D87E004F0D212E0D364
:10187B00940C40037401F0900E9374FFF0A3740F5B
:10188B00F0A374AAF0900D87E025E02497F582E48D
:10189B00340DF583E0FEA3E0AA06F9900E9674FFD3
:1018AB00F0A3EAF0A3E90219AB90084FE0640170D2
:1018BB0029900D85E004F0D211E0D3941F400374FE
:1018CB0001F0900E9374FFF0A3740FF0A374BCF0AF
:1018DB00900D85E0900E960219AB90084FE06402D4
:1018EB007029900D8AE004F0D200E0D3946340039A
:1018FB007463F0900E9374FFF0A3740FF0A374C392
:10190B00F0900D8AE0900E960219AB90084FE064B0
:10191B00037028900D8FE004F0D201E0D3940C40BB
:10192B00037401F0900E9374FFF0A3740FF0A37483
:10193B00BCF0900D8FE0900E96806590084FE064A0
:10194B000470279008DAE004F0D20DE0D3943B400A
:10195B0002E4F0900E9374FFF0A3740FF0A374BC29
:10196B00F09008DAE0900E96803690084FE0640510
:10197B00706490095AE0FFB450057441F0800AEF8F
:10198B00B4410690095A7450F0D20E900E9374FF26
:10199B00F0A3740FF0A374CBF090095AE0900E965D
:1019AB00F07B017A1079481205DA900EBB74FFF0C8
:1019BB00A3740FF0A374B5F0A37403F0A37401F038
:1019CB00A37410F0A37448F0A37401F0A3E4F0A384
:0619DB00F074D7121C8C11
:0119E10022E3
:1016E40090084FE07043900D87E014F0D212E0C3ED
:1016F40094015003740CF0900E9374FFF0A3740FD4
:10170400F0A374AAF0900D87E025E02497F582E415
:10171400340DF583E0FEA3E0AA06F9900E9674FF5B
:10172400F0A3EAF0A3E902183390084FE0640170D3
:1017340029900D85E014F0D211E0C3940150037494
:101744001FF0900E9374FFF0A3740FF0A374BCF019
:10175400900D85E0900E9602183390084FE06402D5
:10176400702D900D8AE0D394004005E014F08005BC
:10177400E4900D8AF0D200900E9374FFF0A3740FDE
:10178400F0A374C3F0900D8AE0900E960218339083
:10179400084FE06403702D900D8FE0D39400400552
:1017A400E014F08006900D8F740CF0D201900E932B
:1017B40074FFF0A3740FF0A374BCF0900D8FE0904D
:1017C4000E96806B90084FE06404702D9008DAE068
:1017D400D394004005E014F080069008DA743BF0DE
:1017E400D20D900E9374FFF0A3740FF0A374BCF0A9
:1017F4009008DAE0900E96803690084FE064057009
:101804006590095AE0FFB450057441F0800AEFB4C2
:10181400410690095A7450F0D20E900E9374FFF062
:10182400A3740FF0A374CBF090095AE0900E96F0D5
:101834007B017A1079881205DA900EBB74FFF0A34D
:10184400740FF0A374B5F0A37403F0A37401F0A3B0
:101854007410F0A37488F0A37401F0A3E4F0A3F06F
:06186400A374D7121C8DD5
:01186A00225B
:1010FA0090084FE004F0E0700302129590084FE068
:10110A0064017035D211900EBB74FFF0A3740FF016
:10111A00A374B5F0A37403F0A374FFF0A3740FF0E3
:10112A0074DC121C7F900E9374FFF0A3740FF0A36B
:10113A0074BCF0900D8502123890084FE06402707A
:10114A0035D200900EBB74FFF0A3740FF0A374B5F0
:10115A00F0A37403F0A374FFF0A3740FF074E71202
:10116A001C7F900E9374FFF0A3740FF0A374C3F066
:10117A00900D8A02123890084FE064037036D2014B
:10118A00900EBB74FFF0A3740FF0A374B5F0A374B0
:10119A0003F0A374FFF0A3740FF0A374F2121C807F
:1011AA00900E9374FFF0A3740FF0A374BCF0900D2B
:1011BA008F02123890084FE064047037D20DD20EB5
:1011CA00900EBB74FFF0A3740FF0A374B5F0A37470
:1011DA0003F0A374FFF0A3740FF0A374FD121C8034
:1011EA00900E9374FFF0A3740FF0A374BCF09008F0
:1011FA00DA803B90084FE06405703AD20E900EBB3D
:10120A0074FFF0A3740FF0A374B5F0A37403F0A3F2
:10121A0074FFF0A37410F0A37408121C80900E934C
:10122A0074FFF0A3740FF0A374CBF090095AE09006
:10123A000E960212E690084FE064067042D20E90B3
:10124A000EBB74FFF0A3740FF0A374B5F0A374037C
:10125A00F0A374FFF0A37410F0A37413121C80900F
:10126A000EBB74FFF0A3740FF0A374B5F0A374035C
:10127A00F0A374FFF0A37410F0A3741E02130D9070
:10128A00084FE06407600302131DF0D212900EBBF0
:10129A0074FFF0A3740FF0A374B5F0A37403F0A362
:1012AA0074FFF0A3740FF0A374D1121C80900E93F4
:1012BA0074FFF0A3740FF0A374AAF0900D87E025D1
:1012CA00E02497F582E4340DF583E0FEA3E0AA0654
:1012DA00F9900E9674FFF0A3EAF0A3E9F07B017A85
:1012EA001079C81205DA900EBB74FFF0A3740FF0E0
:1012FA00A374B5F0A37403F0A37401F0A37410F0FF
:10130A00A374C8F0A37401F0A3E4F0A3F0A374D704
:03131A00121C8D15
:01131D0022AD
:101F1300301216900D87E0FF1200269008E0EFF0D4
:101F23007D017F051224E0C212301116900D85E069
:101F3300FF1200269008DFEFF07D017F041224E0FA
:101F4300C211300016900D8AE0FF1200269008E1BE
:101F5300EFF07D017F061224E0C200200103300E62
:101F63003D900D8FE0FF120026300E2490095AE0B9
:101F7300FE90022DF0EF4440FFEEB45006EF4460B4
:101F8300FF800B90095AE0B44104EF545FFFC20E87
:101F93009008DDEFF07D017F021224E0C201300DD5
:101FA300169008DAE0FF1200269008DCEFF07D01BE
:0F1FB3007F011224E0C20DE490084FF002153EAA
:10003E00E4900DB1F090022AF0900856F090022D47
:10004E007450F090085A7401F0900848F090084BE4
:10005E00F0E4900854F090022EF090085804F0024C
:02006E00218EE1
:10002600EF75F00A84C454F0FEEF75F00A84E5F02B
:020036004EFF7B
:0100380022A5
:0E24FE00EFC4540F75F00AA4FEEF540F2EFF2A
:01250C0022AC
:101D6E0012153E900E9374FFF0A37410F0A374231B
:101D7E00F090084BE025E02497F582E4340DF583CE
:101D8E00E0FEA3E0AA06F9900E9674FFF0A3EAF027
:101D9E00A3E9F0900848E0900E99F0900854E09076
:101DAE000E9AF07B017A1179081205DA900EBB7447
:101DBE00FFF0A3740FF0A374B5F0A37402F0A31494
:101DCE00F0A37411F0A37408F0A3E4F0A37416F05A
:101DDE00A37401F0A37406F07BFF7A107935121C00
:101DEE0094C203900E9374FFF0A37410F0A3743C8E
:101DFE00F0900856E0900E96F090022AE0900E9722
:101E0E00F0900DB1E0900E98F090022DE0900E99AA
:101E1E00F07B017A1179081205DA900EBB74FFF08F
:101E2E00A3740FF0A374B5F0A37402F0A314F0A37F
:101E3E007411F0A37408F0A3E4F0A37416F0A37465
:0F1E4E0001F0A3741AF07BFF7A107935021C940F
:101B4600900E0574FFF0A3740FF0A374AEF0A374A7
:101B560008F0A37401F0A3740DF074C2A3F0A3E41B
:101B6600F0A374F0F0A3E4F0A3746EF07BFF7A0F99
:021B760079B53F
:0B1B7800900E02EBF0A3EAF0A3E9F0EE
:101B830078107C0E7D017BFF7A1079727E007F8056
:101B9300120CE7E4FFFE0FBF00010EBE27F8BF10D3
:101BA300F5900E9374FFF0A3740FF0A3747AF09082
:101BB3000E02E0F9A3E0FAA3E0900E96C9F0A3EABF
:101BC300F0A3E9F0900E05E0F9A3E0FAA3E0900E8C
:101BD30099C9F0A3EAF0A3E9F07B017A0E79101218
:101BE30005DA7B017A0E7910122210900E9374FF9E
:101BF300F0A3740FF0A37483F0900E08E025E024A3
:101C030031F582E43408F583E0FEA3E0AA06F990F7
:101C13000E9674FFF0A3EAF0A3E9F07A0E7910129E
:101C230005DA7B017A0E7910122210900E9374FF5D
:101C3300F0A3740FF0A37489F0900E09E0F9A3E008
:101C4300FAA3E0900E96C9F0A3EAF0A3E9F0900E90
:101C53000CE0FFA3E0900E99CFF0A3EFF0900E0EEF
:101C6300E0FFA3E0900E9BCFF0A3EFF07A0E791084
:0C1C73001205DA7B017A0E7910022210B3
:0822E100901148EEF0A3EFF0AC
:1022E900784A7C117D017BFF7A1079F27E007F08A4
:1022F900120CE7E4FFFE0FBF00010EBE27F8BF1066
:10230900F5900E9374FFF0A3740FF0A374A4F090EA
:102319001148E0FFA3E0900E96CFF0A3EFF07B0108
:102329007A11794A1205DA7B017A11794A02221067
:1023C200120D0DFF900025E06F7022900001120D9A
:1023D20026FF900026E0B50714900002120D26FF9A
:1023E200900027E0B507067E007F0180047E007F13
:0223F2000022C7
:1008DA00E4900DB8F0A3F0A3F0A3F0A3F0A3F0A363
:1008EA00F0A3F0A3F0A304F012251A1224BD1223D8
:1008FA008212250D1223F4121E5D122489D205E4F8
:10090A00900D8BF0A3F0900D90F0A3F0D20C900E06
:10091A009374FFF0A37410F0A37452F07B017A0D64
:10092A0079C21205DA7B017A0D79C212221090027D
:10093A0026E0FEA3E0FFEE6003020ACCEF24FD707E
:10094A0003020A4C1470030209D324026003020A48
:10095A00CC900DC0E07002A3E06026E4900DC0F0D8
:10096A00A3F0900E0574FFF0A3740FF0A374AEF019
:10097A00A37408F0A374FFF0A37410F07455121B4B
:10098A0062900025E0FFB4310DA3E0B43308A3E080
:10099A00B43103020BBAEFB4310F900026E0B4323F
:1009AA0008A3E0B43803020BD4900025E064316058
:1009BA0003020938A3E064336003020938A3E06440
:1009CA00326003020938020AC2900DC0E07002A325
:1009DA00E06027E4900DC0F0A3F0900E0574FFF0DC
:1009EA00A3740FF0A374AEF0A37408F0A374FFF01D
:1009FA00A37410F0A3745A121B63900025E0FFB48D
:100A0A00310DA3E0B43308A3E0B43103020BBAEF0B
:100A1A00B4310F900026E0B43208A3E0B4380302E0
:100A2A000BD4900025E064316003020938A3E06426
:100A3A00336003020938A3E0643260030209380212
:100A4A000AC2900DC0E07002A3E06027E4900DC0D6
:100A5A00F0A3F0900E0574FFF0A3740FF0A374AE28
:100A6A00F0A37408F0A374FFF0A37410F0A3745FEA
:100A7A00121B63900025E0FFB4310DA3E0B43308E4
:100A8A00A3E0B43103020BBAEFB4310F900026E0B1
:100A9A00B43208A3E0B43803020BD4900025E06412
:100AAA00316003020938A3E064336003020938A302
:100ABA00E064326003020938900226F0A37403024C
:100ACA000BDB7F36122468900229EFF0900DC0E00C
:100ADA007002A3E06029E4900DC0F0A3F0900E9399
:100AEA0074FFF0A37410F0A37464F0900229E090EC
:100AFA000E96F07B017A0D79C21205DA121B462096
:100B0A000F13900229E0FF900DBCE07003A3E06F81
:100B1A007003020938900229E0FFFD900DBCE4F051
:100B2A00A3EDF0900025E064317022A3E0643270F6
:100B3A001CA3E064397016900DBEF0A304F0900E69
:100B4A009374FFF0A37410F0A37464803E900025A0
:100B5A00E064317049A3E064337043A3E064307009
:100B6A003D900DBEF0A3F0900229E075F009A4FFB4
:100B7A00AEF07C007D05120D65EF2420FFF0900E8B
:100B8A009374FFF0A37410F0A3746BF0A3EFF07BDF
:100B9A00017A0D79C21205DA121B46020938900051
:100BAA0025E0FFB43114A3E0B4330FA3E0B4310A53
:100BBA00900226E4F0A374028017EFB4311F90006C
:100BCA0026E0B43218A3E0B43813900226E4F0A366
:100BDA0004F0900DC0E4F0A304F002093890002557
:100BEA00E064316003020938A3E064336003020958
:100BFA0038A3E064326003020938900226F0A37435
:0D0C0A0003F0900DC0E4F0A304F0020938DF
:03000000022102D8
:0C210200787FE4F6D8FD758123022149A6
:100C1700E709F608DFFA8046E709F208DFFA803EBF
:100C270088828C83E709F0A3DFFA8032E309F608AC
:100C3700DFFA8078E309F208DFFA807088828C8314
:100C4700E309F0A3DFFA806489828A83E0A3F608C8
:100C5700DFFA805889828A83E0A3F208DFFA804CA2
:100C670080D280FA80C680D4806980F28033801079
:100C770080A680EA809A80A880DA80E280CA8033E2
:100C870089828A83ECFAE493A3C8C582C8CCC5835A
:100C9700CCF0A3C8C582C8CCC583CCDFE9DEE7802A
:100CA7000D89828A83E493A3F608DFF9ECFAA9F0A9
:100CB700EDFB2289828A83ECFAE0A3C8C582C8CCFF
:100CC700C583CCF0A3C8C582C8CCC583CCDFEADE18
:100CD700E880DB89828A83E493A3F208DFF980CC7A
:100CE70088F0EF60010E4E60C388F0ED2402B40473
:100CF7000050B9F582EB2402B4040050AF2323451A
:060D07008223900C6773CB
:100D0D00BB010689828A83E0225002E722BBFE02E4
:090D1D00E32289828A83E4932217
:100D2600BB010CE58229F582E5833AF583E0225082
:100D360006E92582F8E622BBFE06E92582F8E222CC
:0D0D4600E58229F582E5833AF583E49322E6
:100D5300EF8DF0A4A8F0CF8CF0A428CE8DF0A42EB4
:020D6300FE226E
:100D6500BC000BBE0029EF8DF084FFADF022E4CC72
:100D7500F875F008EF2FFFEE33FEEC33FCEE9DEC3B
:100D8500984005FCEE9DFE0FD5F0E9E4CEFD22ED81
:100D9500F8F5F0EE8420D21CFEADF075F008EF2FCB
:100DA500FFED33FD4007985006D5F0F222C398FDBC
:050DB5000FD5F0EA2259
:100DBA00A3F8E0C5F025F0F0E582158270021583EC
:060DCA00E0C838F0E82249
:100DD000EB9FF5F0EA9E42F0E99D42F0E89C45F079
:010DE00022F0
:100DE1007401FF3395E0FEFDFCA3A3A3E0CF2FF038
:100DF100E582158270021583E0CE3EF0E582158210
:100E010070021583E0CD3DF0E582158270021583F5
:050E1100E0CC3CF022E2
:100E1600A8828583F0D083D082120E2D120E2D1259
:100E26000E2D120E2DE473E493A3C583C5F0C5837E
:100E3600C8C582C8F0A3C583C5F0C583C8C582C826
:010E46002289
:10057500E5082493F582E4340EF583E0050822901E
:100585000E90301C03900E93E475F001120E590283
:100595000D0D2015E97F2ED2158018EF540F2490EC
:1005A500D43440D4FF30190BEF24BFB41A005003E4
:1005B5002461FFE50960021509050CE50C700205CB
:1005C5000B301C0E900E90E475F001120E59EF02DF
:1005D5000E4702241B7403D21C8003E4C21CF508D9
:1005E500900E90120E70E4F509F50BF50CE5096017
:1005F500077F201205B880F5750AFFC216C215C21D
:1006050017C218C21AC21BC21D120584FF700D3015
:100615001C057F001205C9AF0CAE0B22B4255FC2C5
:10062500D5C219120584FF24D0B40A00501A75F0FA
:100635000A780930D50508B6FF0106C6A426F620B6
:10064500D5047002D21880D924CFB41A00EF500413
:10065500C2E5D2190207CAD21680C6D21580C0D209
:100665001780BCD2D580BAD21A80B47F201205B8C3
:100675002017077401B5090040F1120575FF120531
:10068500B80205F2D21DD21B8095120575FB120525
:1006950075FA120575F94A4B7006799B7A087BFF46
:1006A50020172EE509602A7E008E82758300120DC3
:1006B5002660060EEE650A70F0C2D5EBC0E0EAC012
:1006C500E0E9C0E0EE120811D0E0F9D0E0FAD0E0A0
:1006D500FB120D0DFF60AAEBC0E0EAC0E0E9C0E047
:1006E5001205B8D0E02401F9D0E03400FAD0E0FBDF
:1006F500E50A0460DCD50AD980877BFF7A08790D85
:10070500D217809C791080027908C21BC21D80080F
:10071500D2D5790A8004790AC2D5E50A047002F5B2
:100725000AE4FAFDFEFF120575FC7B08201613127C
:100735000575FD7B1030150A120575FE120575FF4E
:100745007B20EC3382D592D55013C3E43015069F38
:10075500FFE49EFEE42016039DFDE49CFCE4CBF83B
:10076500C216EC700CCFCECDCCE824F8F870F3802F
:1007750017C3EF33FFEE33FEED33FDEC33FCEB3304
:10078500FB994002FB0FD8E9EB301605F8D0E0C421
:1007950048B216C0E00AEC4D4E4F78207B0070C27F
:1007A500EAB50A0040BCC0E0120813D0F0D0E02042
:1007B5001604C4C0E0C4B216C0F01205A1D0F0D52D
:1007C500F0EB0205F2120E79068F53070958066001
:1007D5004C065C42070D4F0715440715490675433E
:0807E500071B5506FF4606FF45
:1007ED004506FF4708BB5006642D06682E068B2B69
:1007FD00066C2306892008A42A06244800000683D7
:10080D003F3F3F00790AA2D5201814301A09B910BC
:10081D00020404B9080104A2D5201B0250010420D2
:10082D0017689217B509005034C0E07F20301819B1
:10083D007F30A217721B721A500F12086AC217C2AC
:10084D001BC21AC21D7F30800F301A03E9C0E0129F
:10085D0005B8301A03D0E0F9D0E0B509CC301A173D
:10086D007F30B9100C1205B87F583019077F78808A
:10087D0003B908031205B83017057F2D0205B87F9F
:10088D0020201DF87F2B201BF322921780CF286E7E
:10089D00756C6C2900D2161205753016F8C21678D3
:1008AD000930D50108F60206242D5043495812058A
:1008BD00752403B405004001E49008B6931205A910
:0D08CD00743A1205A9D21875090402070932
:10210E000208DAE493A3F8E493A34003F68001F205
:10211E0008DFF48029E493A3F85407240CC8C333D2
:10212E00C4540F4420C8834004F456800146F6DFA1
:10213E00E4800B010204081020408090206DE47EA4
:10214E00019360BCA3FF543F30E509541FFEE49396
:10215E00A360010ECF54C025E060A840B8E493A35D
:10216E00FAE493A3F8E493A3C8C582C8CAC583CA88
:10217E00F0A3C8C582C8CAC583CADFE9DEE780BE40
:0121010000DD
:100E4700BB010689828A83F0225002F722BBFE018A
:020E5700F32284
:100E5900F8E0FBA3A3E0F925F0F0E5821582700222
:070E69001583E0FA38F022C6
:090E7000EBF0A3EAF0A3E9F02283
:100E7900D083D082F8E4937012740193700DA3A308
:100E890093F8740193F5828883E47374029368601C
:060E9900EFA3A3A380DF1C
:10241B00EFB40A07740D122426740A309811A89988
:10242B00B8130CC2983098FDA899C298B811F63021
:07243B0099FDC299F59922F9
:00000001FF
