:1011BA006D313042006D313242006D313442006D82
:1011CA00313642006D323042006D323442006D33A6
:1011DA003242006D3438006D3634005320257320B6
:1011EA0025730D00662025730D00742022257322B5
:1011FA002025752025750D0078692025752025750F
:10120A002025750D006D2025750D007A0D003030F2
:10121A0030303030004646464646460073657421F3
:10122A000063666721007376632100252D3362759A
:10123A004300252D336275460000000000000000BF
:10124A000000000000000000000000000000000094
:10125A000000000000000000000000000000000084
:10126A000000000000000000000000000000000074
:10127A000000000000000000000000000000000064
:10128A000000000000000000000000000000000054
:10129A000000000000000000000000000000000044
:1012AA000000000000000000000000000000000034
:1012BA000000000000000000000000000000000024
:0112CA000023
:10003E00C103C101C104C109C106420D4D000052E8
:10004E00080F11BA11BF11C411C911CE11D311D895
:10005E0011DD11E1C1004200040000420006000063
:10002600AF84E4900DAAF0A3F075840F758A838FD0
:010036008445
:0100370022A6
:1016C700AF8475840F75E12F75E20175E3C475A4C6
:1016D7000175A50175A7CA759C0F759D04E4F59E54
:1016E700759F807580FF7590FF75A0FF75B0FF75BA
:0F16F700C8FF75D8FF75E8FF75F8FFC2FF8F8435
:0117060022C0
:0D17D00075A89243E70143E74043E60A2273
:10170700AF84E4F584F5C875C90875CAF375CBFFCE
:1017170085CBCD85CACC75C804F58475985075916D
:061727000575A8908F84F7
:01172D002299
:0717DD0075FFDE75FFAD2270
:03002300020D06C5
:0D0D0600C0E0C0F0C083C082C0D075D01026
:100D1300900D5BE584F0E4FBFAA3120C5000000095
:100D230000758400209803020E82C298900009E5A2
:100D330099F0900D4FE0FEA3E0FFC3EE9402400351
:100D4300020E41900009E0FD640D601D740F2FF544
:100D53008274023EF583EDF0900D50E004F07006CE
:100D6300900D4FE004F0020E8290020FE0FF647BCF
:100D73007026A3E06463701AA3E0B46D15A3E0B416
:100D83007010A3E0B4650BA3E0B47D06D203D201D7
:100D93008079C203C2018073EF6478702EFAFBD3AB
:100DA300900D50E09B900D4FE09A4055740F2BF53A
:100DB3008274023AF583E0FF740B2BF58274003AD8
:100DC300F583EFF00BBB00010A80D490020FE064BF
:100DD300287034FAFBD3900D50E09B900D4FE09AAE
:100DE300401F740F2BF58274023AF583E0FF740BF6
:100DF3002BF58274003AF583EFF00BBB00010A80F8
:100E0300D4C204D2098004D204C2097A007B00D37D
:100E1300900D50E09B900D4FE09A4013740F2BF50B
:100E23008274023AF583E4F00BBB00010A80E09080
:100E33000D53E4F0A3F0900D4FF0A3F08041900D1B
:100E43004FE0FEA3E0FF900D53E0FCA3E0FDC39F42
:100E5300EC9E501C740F2DF58274023CF583E4F074
:100E6300900D54E004F070D6900D53E004F080CE62
:100E7300900D53E4F0A3F0900D4FF0A3F0C20920BE
:100E83009903020F15C299300803020F13900D55F1
:100E9300E0FEA3E0240FF58274043EF583E0F599A8
:100EA300900D56E004F07006900D55E004F0209983
:100EB30013900D5C120C1BE47B487A26F9F8D312CD
:100EC3000C0A50EAE47F487E26FDFC900D5CE0F8B6
:100ED300A3E0F9A3E0FAA3E0FBC3120C0A4002D299
:100EE30099900D5C120C5000000000C3900D55E06A
:100EF30094044004E4F0A3F0900D51E0FEA3E0FF5E
:100F0300900D55E0B5160BA3E0B51706D208800285
:080F1300D202900D5BE0F584B1
:0B0F1B00D0D0D082D083D0F0D0E032E4
:061569007B017A0E796E91
:10156F00900E38E584F0120B86604E200814900D13
:10157F0051E0FEA3E0FF900D55E06E7003A3E06F06
:10158F00602E120B86FF900D51E475F001120BF4D3
:10159F00FC740F25F0F58274043CF583EFF0C390D3
:1015AF000D51E094044004E4F0A3F0300802C208A7
:1015BF00740129F9E43AFA80AD300207C202E4F56A
:0915CF0084D299900E38E0F584F5
:0115D80022F0
:0B12CB00900E60EBF0A3EAF0A3E9F046
:1012D600900E3B74FFF0A37411F0A374E5F0900E2A
:1012E60060E0F9A3E0FAA3E0900E3EC9F0A3EAF0AD
:1012F600A3E9F0900E63E0F9A3E0FAA3E0900E41B3
:10130600C9F0A3EAF0A3E9F07B017A0E796E120424
:101316004C121569900E3B74FFF0A37411F0A37480
:10132600EEF0900E66E025E0240FF582E43408F531
:1013360083E0FEA3E0AA06F9900E3E74FFF0A3EA4E
:10134600F0A3E9F07A0E796E12044C121569900E2C
:101356003B74FFF0A37411F0A374F4F0900E67E0F1
:10136600F9A3E0FAA3E0900E3EC9F0A3EAF0A3E9E0
:10137600F0900E6AE0FFA3E0900E41CFF0A3EFF0ED
:10138600900E6CE0FFA3E0900E43CFF0A3EFF07A4F
:0F1396000E796E12044C7B017A0E796E02156F80
:0C167E00900EEEECF0A3EDF0AD03AC021A
:10168A00900E3B74FFF0A37412F0A37402F0A3EE61
:10169A00F0A3EFF0900EEEE0FFA3E0900E40CFF043
:1016AA00A3EFF0AF05A3ECF0A3EFF07B017A0E797C
:0D16BA00F012044C7B017A0E79F002156FDE
:0517E4007E0002175514
:10175500900E3B74FFF0A37412F0A3740FF0A3EE88
:10176500F0A3EFF07B017A0F797012044C7B017ABC
:061775000F797002156FF0
:100F2600E4900FF0F0A3F090000AE064027059A379
:100F3600E064287019A3E024CE600D14600D24022D
:100F4600600302104902100302100702100BE4901E
:100F56000FF0F0A3F0900FF0E0FEA3E0FF240BF5F6
:100F66008274003EF583E07003021049740B2FF57E
:100F76008274003EF583E4F0900FF1E004F070D542
:100F8600900FF0E004F080CD90000AE06403705307
:100F9600A3E064287016A3E024CE600C14600B2432
:100FA600026003021049805580578059E4900FF083
:100FB600F0A3F0900FF0E0FEA3E0FF240BF582749F
:100FC600003EF583E0607C740B2FF58274003EF5DD
:100FD60083E4F0900FF1E004F070D8900FF0E00495
:100FE600F080D090000AE064047058A3E0B4281C96
:100FF600A3E024CE600B14600C240270467F0280AE
:10100600067F0380027F041217E48037E4900FF016
:10101600F0A3F0900FF0E0FEA3E0FF240BF582743E
:10102600003EF583E0601C740B2FF58274003EF5DC
:1010360083E4F0900FF1E004F070D8900FF0E00434
:10104600F080D0E4900FF0F0A3F0900FF0E0FEA354
:10105600E0FF240BF58274003EF583E0601C740B00
:101066002FF58274003EF583E4F0900FF1E004F072
:0A10760070D8900FF0E004F080D075
:01108000224D
:1013A500900DAC120C5000000000900DB0E584F0DB
:1013B500E4F584208675900DAC120C1B7BA07A8613
:1013C50079017800D3120C0A4061C287E4900DAA16
:1013D500F0A3F0900DABE004F07006900DAAE004C8
:1013E500F0900DAAE07003A3E0F470E7D2872087A0
:1013F50014900DAC120C1B7BA07A8679017800D372
:10140500120C0A50E9E4900DAAF0A3F0C3900DABBD
:10141500E0940A900DAAE0648094805096A3E004BD
:10142500F070E9900DAAE004F080E175C00775CF72
:0C1435009143C040900DB0E0F584C2006F
:011441002288
:10179C00AF84758401E4F5C8F5C975CBE275CA7AD6
:0A17AC0085CBCD85CACCD2CA8F844C
:0117B6002210
:0300730002000385
:07000300C0D075D000C0075A
:10000A00AF8475840053C0BF43C0408F84C2CFC23F
:03001A00008F84D0
:05001D00D007D0D03235
:1017B70074AD2FF582E43408F583EDF0EFFD7C007E
:0917C7007B017A007F200216313B
:10177B00900DAAEFF0FD7C007B017A007F20121404
:10178B0042900DAAE0242EF582E43408F583E0FFA5
:01179B00222B
:10144200900DABEFF0A3ECF0A3EDF0A3EAF0A3EB69
:01145200F0A9
:10145300A3E584F0E4F58420C7FD2000FA900DB0E5
:10146300E0F584900DABE0FF245C60042484700EEF
:10147300900DACE0FCA3E0FDE4FBFA121631E4F5B9
:101483008420C7FD2000FA900DABE0900822F09075
:101493000DACE0FFA3E0900828CFF0A3EFF0900D90
:1014A300AEE0FFA3E0900D59CFF0A3EFF0D200D24E
:1014B3000AD2C520C7FD2000FA900DB0E0F5849054
:1014C3000DABE0245C600C2484700E900825E07062
:0914D3000880F890082CE060FA92
:0114DC0022ED
:02163100A90707
:10163300E4900DB1F0A3F0A3F0A3E584F0E4F58406
:1016430020C7FD2000FA900822E9F0AF0590082892
:10165300ECF0A3EFF0E924556004248B7016AF037C
:1016630090020BEAF0A3EFF0D200C20AD2C59008B1
:0A1673002DE060FA900DB4E0F5845C
:01167D00224A
:03003B000200764A
:0D007600C0E0C0F0C083C082C0D075D010C3
:10008300C20BE5C1131313541F14B40B0040030236
:1000930003BB9000A375F003A4C58325F0C5837348
:1000A3000200C40200C40200E90201120201840238
:1000B30001D90203B702023A0202500202B8020354
:1000C3005E900822E0F5C253C2FEA20AE43342C2A4
:1000D300C2C5900002E4F0A3F0900000F0A3F090FA
:1000E3000008F00203BD900822E0642060030203CD
:1000F300BD900828E0FEA3E0FF64AB4E7007D2C4B6
:10010300C2000203BD8FC290082DE4F00203BD902C
:100113000822E0FF64206004EFB4B02CC390000514
:10012300E0940A900004E094005011A3E004F070FE
:1001330006900004E004F0D2C50203BD900004E47D
:10014300F0A3F090082D8035900822E064A46003AA
:100153000203BDC3900007E0940A900006E09400F8
:100163005011A3E004F07006900006E004F0D2C53D
:100173000203BD900006E4F0A3F0900824040202F9
:10018300AE900822E0642060030203BD90020BE0FE
:10019300FEA3E0FF900000E0FCA3E0FDC39FEC9E04
:1001A300502A900829E02DFF900828E03CFE74AD0A
:1001B3002FF58274083EF583E0F5C2900001E00458
:1001C300F07006900000E004F00203BDD2C4C20048
:1001D30090082D0203B2900822E0FFB42029C390B7
:1001E3000005E0940A900004E094005011A3E00499
:1001F300F07006900004E004F0D2C50203BD900045
:1002030004E4F0A30202AEEF64A460030203BDC3DF
:10021300900007E0940A900006E094005011A3E0D8
:1002230004F07006900006E004F0D2C50203BD900E
:100233000006E4F0A38074900D59E07004A3E06419
:10024300017005C2C20203BDD2C20203BD900822DF
:10025300E0FFB42028C3900005E0940A900004E076
:1002630094005011A3E004F07006900004E004F041
:10027300D2C50203BD900004E4F0A3802EEF64A472
:1002830060030203BDC3900007E0940A900006E0F8
:1002930094005011A3E004F07006900006E004F00F
:1002A300D2C50203BD900006E4F0A3F0D2C4C2009D
:1002B300D20B0203BD900822E0F96420704F900D29
:1002C30059E0FEA3E0FF900002E0FCA3E0FDC39F22
:1002D300EC9E5031900829E02DFF900828E03CFE69
:1002E300742E2FF58274083EF583E5C2F0D2C290D6
:1002F3000003E004F07006900002E004F09008258B
:10030300E4F00203BDC2C29008250203B2E964A46B
:1003130060030203BD900D59E0FEA3E0FF900002CD
:10032300E0FCA3E0FDC39FEC9E5029AFC2742C2DCB
:10033300F58274093CF583EFF0900823F0D2C29064
:100343000003E004F07006900002E004F090082C33
:10035300E4F08066C2C290082C8054900822E0FF2B
:10036300B4202C900002E0FCA3E0FD900829E02DCE
:10037300FD900828E03CFC742E2DF58274083CF5B2
:1003830083E5C2F0D2C4C200D2C29008258020EF18
:10039300B4A427900002E0FEA3E0242CF5827409A4
:1003A3003EF583E5C2F0D2C4C200D2C290082C74D9
:1003B30001F08006D20B8002D20B300B1A53C0BF60
:1003C30043C040C2C5C2C4C2C2C200C20B90082D02
:0903D3007401F0900825F0C2C38A
:0B03DC00D0D0D082D083D0F0D0E0322F
:10108100900DAD74FFF0A37412F0A3741FF0A3745C
:1010910008F0A37401F0A3740DF0746AA3F0A3E443
:1010A100F0A374F0F0A3E4F0A3746EF07BFF7A1266
:0210B1007918AC
:0B10B300900DAAEBF0A3EAF0A3E9F017
:1010BE0078B87C0D7D017BFF7A1279437E007F80AC
:1010CE00120B60E4FFFE0FBF00010EBE27F8BF102B
:1010DE00F5900E3B74FFF0A37411F0A374E5F0903D
:1010EE000DAAE0F9A3E0FAA3E0900E3EC9F0A3EA40
:1010FE00F0A3E9F0900DADE0F9A3E0FAA3E0900EB5
:10110E0041C9F0A3EAF0A3E9F07B017A0D79B81298
:10111E00044C7B017A0D79B812156F900E3B74FF5B
:10112E00F0A37411F0A374EEF0900DB0E025E0245E
:10113E000FF582E43408F583E0FEA3E0AA06F990E9
:10114E000E3E74FFF0A3EAF0A3E9F07A0D79B8121F
:10115E00044C7B017A0D79B812156F900E3B74FF1B
:10116E00F0A37411F0A374F4F0900DB1E0F9A3E0C4
:10117E00FAA3E0900E3EC9F0A3EAF0A3E9F0900DB9
:10118E00B4E0FFA3E0900E41CFF0A3EFF0900DB6C8
:10119E00E0FFA3E0900E43CFF0A3EFF07A0D79B805
:0C11AE0012044C7B017A0D79B802156F19
:0815D900900DAAEEF0A3EFF063
:1015E10078AC7C0D7D017BFF7A1279C37E007F0888
:1015F100120B60E4FFFE0FBF00010EBE27F8BF1003
:10160100F5900E3B74FFF0A37412F0A3740FF090E9
:101611000DAAE0FFA3E0900E3ECFF0A3EFF07B0117
:101621007A0D79AC12044C7B017A0D79AC02156FFD
:10074C00E4900D60F0A3F0A3F0A3F0A3F0A3F0A34A
:10075C00F0A3F0A3F0A304F01217DD12002612167A
:10076C00C71217D01217071213A512179CD202E446
:10077C00900D51F0A3F0900D55F0A3F0D208900E0F
:10078C003B74FFF0A37412F0A37415F07B017A0D87
:10079C00796A12044C7B017A0D796A12156F7F0508
:1007AC007E001215D990020DE0FEA3E0FFEE60036F
:1007BC00020945EF24FD70030208C51470030208FA
:1007CC004C24026003020945900D68E07002A3E01E
:1007DC006026E4900D68F0A3F0900DAD74FFF0A3CB
:1007EC007412F0A3741FF0A37408F0A374FFF0A3A9
:1007FC007412F0742612109D90000CE0FFB4310DB1
:10080C00A3E0B43308A3E0B43103020A33EFB431EC
:10081C000F90000DE0B43208A3E0B43803020A4D87
:10082C0090000CE0643160030207B1A3E064336014
:10083C00030207B1A3E0643260030207B102093B73
:10084C00900D68E07002A3E06027E4900D68F0A3BF
:10085C00F0900DAD74FFF0A37412F0A3741FF0A30D
:10086C007408F0A374FFF0A37412F0A3742B12108D
:10087C009E90000CE0FFB4310DA3E0B43308A3E06C
:10088C00B43103020A33EFB4310F90000DE0B432EF
:10089C0008A3E0B43803020A4D90000CE064316008
:1008AC00030207B1A3E0643360030207B1A3E06461
:1008BC003260030207B102093B900D68E07002A39D
:1008CC00E06027E4900D68F0A3F0900DAD74FFF09C
:1008DC00A37412F0A3741FF0A37408F0A374FFF0B8
:1008EC00A37412F0A3743012109E90000CE0FFB4AD
:1008FC00310DA3E0B43308A3E0B43103020A33EFA3
:10090C00B4310F90000DE0B43208A3E0B438030208
:10091C000A4D90000CE0643160030207B1A3E0645F
:10092C003360030207B1A3E0643260030207B190A5
:10093C00020DF0A37403020A547F3612177B900B3E
:10094C002CEFF0900D68E07002A3E06029E4900DAC
:10095C0068F0A3F0900E3B74FFF0A37412F0A37434
:10096C0035F0900B2CE0900E3EF07B017A0D796AFD
:10097C0012044C121081200913900B2CE0FF900DE7
:10098C0064E07003A3E06F70030207B1900B2CE0DE
:10099C00FFFD900D64E4F0A3EDF090000CE06431E9
:1009AC007022A3E06432701CA3E064397016900DC1
:1009BC0066F0A304F0900E3B74FFF0A37412F0A346
:1009CC007435803E90000CE064317049A3E06433D0
:1009DC007043A3E06430703D900D66F0A3F0900B73
:1009EC002CE075F009A4FFAEF07C007D05120B9F86
:1009FC00EF2420FFF0900E3B74FFF0A37412F0A3D1
:100A0C00743CF0A3EFF07B017A0D796A12044C125E
:100A1C0010810207B190000CE0FFB43114A3E0B4D4
:100A2C00330FA3E0B4310A90020DE4F0A3740280FA
:100A3C0017EFB4311F90000DE0B43218A3E0B438B6
:100A4C001390020DE4F0A304F0900D68E4F0A304FD
:100A5C00F00207B190000CE0643160030207B1A30F
:100A6C00E0643360030207B1A3E064326003020761
:100A7C00B190020DF0A37403F0900D68E4F0A304A0
:040A8C00F00207B1BC
:030000000214DD0A
:0C14DD00787FE4F6D8FD7581220215240A
:100A9000E709F608DFFA8046E709F208DFFA803E48
:100AA00088828C83E709F0A3DFFA8032E309F60835
:100AB000DFFA8078E309F208DFFA807088828C839D
:100AC000E309F0A3DFFA806489828A83E0A3F60851
:100AD000DFFA805889828A83E0A3F208DFFA804C2B
:100AE00080D280FA80C680D4806980F28033801002
:100AF00080A680EA809A80A880DA80E280CA80336B
:100B000089828A83ECFAE493A3C8C582C8CCC583E2
:100B1000CCF0A3C8C582C8CCC583CCDFE9DEE780B2
:100B20000D89828A83E493A3F608DFF9ECFAA9F031
:100B3000EDFB2289828A83ECFAE0A3C8C582C8CC87
:100B4000C583CCF0A3C8C582C8CCC583CCDFEADEA0
:100B5000E880DB89828A83E493A3F208DFF980CC02
:100B600088F0EF60010E4E60C388F0ED2402B404FB
:100B70000050B9F582EB2402B4040050AF232345A2
:060B80008223900AE073DD
:100B8600BB010689828A83E0225002E722BBFE026D
:090B9600E32289828A83E49322A0
:100B9F00BC000BBE0029EF8DF084FFADF022E4CC3A
:100BAF00F875F008EF2FFFEE33FEEC33FCEE9DEC03
:100BBF00984005FCEE9DFE0FD5F0E9E4CEFD22ED49
:100BCF00F8F5F0EE8420D21CFEADF075F008EF2F93
:100BDF00FFED33FD4007985006D5F0F222C398FD84
:050BEF000FD5F0EA2221
:100BF400A3F8E0C5F025F0F0E582158270021583B4
:060C0400E0C838F0E82210
:100C0A00EB9FF5F0EA9E42F0E99D42F0E89C45F040
:010C1A0022B7
:100C1B007401FF3395E0FEFDFCA3A3A3E0CF2FF0FF
:100C2B00E582158270021583E0CE3EF0E5821582D7
:100C3B0070021583E0CD3DF0E582158270021583BD
:050C4B00E0CC3CF022AA
:100C5000A8828583F0D083D082120C67120C6712B1
:100C60000C67120C67E473E493A3C583C5F0C583D6
:100C7000C8C582C8F0A3C583C5F0C583C8C582C8EE
:010C80002251
:1003E700E508243BF582E4340EF583E00508229006
:1003F7000E38301303900E3BE475F001120CC00267
:100407000B86200CE97F2ED20C8018EF540F249016
:10041700D43440D4FF30100BEF24BFB41A0050037C
:100427002461FFE50960021509050CE50C7002055A
:100437000B30130E900E38E475F001120CC0EF026A
:100447000CAE02172E7403D2138003E4C213F5080F
:10045700900E38120CD7E4F509F50BF50CE5096099
:10046700077F2012042A80F5750AFFC20DC20CC24D
:100477000EC20FC211C212C2141203F6FF700D3062
:1004870013057F0012043BAF0CAE0B22B4255FC2ED
:10049700D5C2101203F6FF24D0B40A00501A75F023
:1004A7000A780930D50508B6FF0106C6A426F62046
:1004B700D5047002D20F80D924CFB41A00EF5004AC
:1004C700C2E5D21002063CD20D80C6D20C80C0D243
:1004D7000E80BCD2D580BAD21180B47F2012042AF4
:1004E700200E077401B5090040F11203E7FF12045B
:1004F7002A020464D214D21280951203E7FB120376
:10050700E7FA1203E7F94A4B7006790D7A077BFF82
:10051700200E2EE509602A7E008E82758300120C5C
:100527008160060EEE650A70F0C2D5EBC0E0EAC046
:10053700E0E9C0E0EE120683D0E0F9D0E0FAD0E0BF
:10054700FB120B86FF60AAEBC0E0EAC0E0E9C0E05F
:1005570012042AD0E02401F9D0E03400FAD0E0FBFD
:10056700E50A0460DCD50AD980877BFF7A06797FA4
:10057700D20E809C791080027908C212C2148008BA
:10058700D2D5790A8004790AC2D5E50A047002F542
:100597000AE4FAFDFEFF1203E7FC7B08200D1312A5
:1005A70003E7FD7B10300C0A1203E7FE1203E7FF97
:1005B7007B20EC3382D592D55013C3E4300C069FD1
:1005C700FFE49EFEE4200D039DFDE49CFCE4CBF8D4
:1005D700C20DEC700CCFCECDCCE824F8F870F380C8
:1005E70017C3EF33FFEE33FEED33FDEC33FCEB3394
:1005F700FB994002FB0FD8E9EB300D05F8D0E0C4BA
:1006070048B20DC0E00AEC4D4E4F78207B0070C217
:10061700EAB50A0040BCC0E0120685D0F0D0E02061
:100627000D04C4C0E0C4B20DC0F0120413D0F0D55D
:10063700F0EB020464120CE0050153057B5804D269
:100647004C04CE42057F4F05874405874904E7439D
:08065700058D55057146057182
:10065F0045057147072D5004D62D04DA2E04FD2BC6
:10066F0004DE2304FB2007162A049648000004F535
:10067F003F3F3F00790AA2D5200F14301109B9105E
:10068F00020404B9080104A2D5201202500104206B
:10069F000E68920EB509005034C0E07F20300F195C
:1006AF007F30A20E72127211500F1206DCC20EC2F0
:1006BF0012C211C2147F30800F301103E9C0E01253
:1006CF00042A301103D0E0F9D0E0B509CC3011176E
:1006DF007F30B9100C12042A7F583010077F7880B2
:1006EF0003B9080312042A300E057F2D02042A7F56
:1006FF00202014F87F2B2012F322920E80CF286E29
:10070F00756C6C2900D20D1203E7300DF8C20D780D
:10071F000930D50108F60204962D504349581203AB
:10072F00E72403B405004001E49007289312041B4B
:0D073F00743A12041BD20F75090402057BE9
:1014E90002074CE493A3F8E493A34003F68001F2C6
:1014F90008DFF48029E493A3F85407240CC8C33304
:10150900C4540F4420C8834004F456800146F6DFD2
:10151900E4800B010204081020408090003EE47E24
:10152900019360BCA3FF543F30E509541FFEE493C7
:10153900A360010ECF54C025E060A840B8E493A38E
:10154900FAE493A3F8E493A3C8C582C8CAC583CAB9
:10155900F0A3C8C582C8CAC583CADFE9DEE780BE71
:01006E000091
:100C8100BB010CE58229F582E5833AF583E0225028
:100C910006E92582F8E622BBFE06E92582F8E22272
:0D0CA100E58229F582E5833AF583E493228C
:100CAE00BB010689828A83F0225002F722BBFE0125
:020CBE00F3221F
:100CC000F8E0FBA3A3E0F925F0F0E58215827002BD
:070CD0001583E0FA38F02261
:090CD700EBF0A3EAF0A3E9F0221E
:100CE000D083D082F8E4937012740193700DA3A3A3
:100CF00093F8740193F5828883E4737402936860B7
:060D0000EFA3A3A380DFB6
:10172E00EFB40A07740D121739740A309811A8997C
:10173E00B8130CC2983098FDA899C298B811F6301B
:07174E0099FDC299F59922F3
:00000001FF
