:100F70006D313042006D313242006D313442006DCE
:100F8000313642006D323042006D323442006D33F2
:100F90003242006D343842006D3634420053202511
:100FA000732025730D00662025730D007420222503
:100FB00073222025752025750D0078692025752060
:100FC00025752025750D006D2025750D007A0D0005
:100FD0000000000000000000000000000000000011
:100FE0000000000000000000000000000000000001
:100FF00000000000000000000000000000000000F1
:1010000000000000000000000000000000000000E0
:1010100000000000000000000000000000000000D0
:1010200000000000000000000000000000000000C0
:1010300000000000000000000000000000000000B0
:1010400000000000000000000000000000000000A0
:101050000000000000000000000000000000000090
:101060000000000000000000000000000000000080
:101070000000000000000000000000000000000070
:101080000000000000000000000000000000000060
:101090000000000000000000000000000000000050
:1010A0000000000000000000000000000000000040
:1010B0000000000000000000000000000000000030
:1010C0000000000000000000000000000000000020
:1010D0000000000000000000000000000000000010
:1010E0000000000000000000000000000000000000
:0810F0000000000000000000F8
:1014AD00C10BC109C10CC110C10D5203010F700F49
:0F14BD00750F7A0F7F0F840F890F8E0F930F9883
:1014CD00AF84E490046EF0A3F075840F758A838F5A
:0114DD00848A
:0114DE0022EB
:10143300AF8475840F75E12F75E20175E3C475A45C
:10144300017580FF7590FF75A0FF75B0FF75C8FF2C
:0B14530075D8FF75E8FF75F8FF8F8467
:01145E00226B
:0414E60075A8922231
:10145F00AF84E4F584F5C875C90875CAF375CBFF79
:10146F0085CBCD85CACC75C804F584759850759118
:06147F000575A8908F84A2
:011485002244
:0714DF0075FFDE75FFAD2271
:03002300020D8645
:0D0D8600C0E0C0F0C083C082C0D075D010A6
:100D9300900429E584F0E4FBFAA3120CD0000000D0
:100DA30000758400209803020ECCC298900000E5E1
:100DB30099F0900313E0FEA3E0FFC3EE9401400318
:100DC300020E8B900000E0FD640D601D74012FF591
:100DD3008274013EF583EDF0900314E004F0700695
:100DE300900313E004F0020ECC900101E0FF647B5A
:100DF3007026A3E06463701AA3E0B46D15A3E0B496
:100E03007010A3E0B4650BA3E0B47D06D20BD20946
:100E13008043C20BC209803DEF64287034FAFBD3D0
:100E2300900314E09B900313E09A401F74012BF589
:100E33008274013AF583E0FF74012BF58274003A62
:100E4300F583EFF00BBB00010A80D4C20CD21080F3
:100E530004D20CC2107A007B00D3900314E09B9061
:100E63000313E09A401374012BF58274013AF5835E
:100E7300E4F00BBB00010A80E0900317E4F0A3F059
:100E8300900313F0A3F08041900313E0FEA3E0FF6F
:100E9300900317E0FCA3E0FDC39FEC9E501C74017C
:100EA3002DF58274013CF583E4F0900318E004F01F
:100EB3007006900317E004F080CE900317E4F0A3CC
:100EC300F0900313F0A3F0C210209903020F5FC246
:100ED30099300F03020F5D900319E0FEA3E0240194
:100EE300F58274023EF583E0F59990031AE004F06D
:100EF3007006900319E004F020991390042A120C51
:100F03009BE47B607A09F9F8D3120C8A50EAE47FF8
:100F1300607E09FDFC90042AE0F8A3E0F9A3E0FA5F
:100F2300A3E0FBC3120C8A4002D29990042A120C4C
:100F3300D000000000C3900319E094014004E4F0E2
:100F4300A3F0900315E0FEA3E0FF900319E0B516AC
:100F53000BA3E0B51706D20F8002D20A900429E052
:020F6300F58413
:0B0F6500D0D0D082D083D0F0D0E0329A
:061301007B017A0379294B
:10130700900478E584F0120C5B604E200F14900374
:1013170015E0FEA3E0FF900319E06E7003A3E06FF2
:10132700602E120C5BFF900315E475F001120C742C
:10133700FC740125F0F58274023CF583EFF0C3904D
:101347000315E094014004E4F0A3F0300F02C20F4C
:10135700740129F9E43AFA80AD300A07C20AE4F5C4
:0913670084D299900478E0F58429
:01137000225A
:0B10F80090031BEBF0A3EAF0A3E9F06B
:1011030078297C037D017BFF7A0F79D07E017F00F4
:10111300120C35E4FFFE0FBF00010EBE27F8BF100F
:10112300F590047B74FFF0A3740FF0A3749DF0900B
:10113300031BE0F9A3E0FAA3E090047EC9F0A3EA5D
:10114300F0A3E9F090031EE0F9A3E0FAA3E0900412
:1011530081C9F0A3EAF0A3E9F07B017A03792912AC
:10116300086512130190047B74FFF0A3740FF0A3BE
:1011730074A6F0900321E025E02401F582E4340312
:10118300F583E0FEA3E0AA06F990047E74FFF0A3C2
:10119300EAF0A3E9F07A03792912086512130190A2
:1011A300047B74FFF0A3740FF0A374ACF0900322DC
:1011B300E0F9A3E0FAA3E090047EC9F0A3EAF0A368
:1011C300E9F0900325E0FFA3E0900481CFF0A3EFC3
:1011D300F0900327E0FFA3E0900483CFF0A3EFF0A8
:1011E3007A0379291208657B017A037929021307A7
:10127F009004A0EEF0A3EFF0A3ECF0A3EDF0A3EA3F
:04128F00F0A3EBF0ED
:1012930078A67C047D017BFF7A1079D07E007F20C5
:1012A300120C35E4FFFE0FBF00010EBE27F8BF107E
:1012B300F590047B74FFF0A3740FF0A374BAF0905D
:1012C30004A0E0FFA3E090047ECFF0A3EFF090042E
:1012D300A2E0FFA3E0900480CFF0A3EFF09004A47A
:1012E300E0FFA3E0900482CFF0A3EFF07B017A0448
:0E12F30079A61208657B017A0479A60213071A
:0813DB0090046EEEF0A3EFF0A8
:1013E30078707C047D017BFF7A1079F07E007F08A2
:1013F300120C35E4FFFE0FBF00010EBE27F8BF102D
:10140300F590047B74FFF0A3740FF0A374C7F090FE
:10141300046EE0FFA3E090047ECFF0A3EFF07B0126
:101423007A0479701208657B017A047970021307D4
:10137100E4FDFC1214CD1214331214E612145FD2E0
:101381000AE4900315F0A3F0900319F0A3F0D20F33
:1013910090047B74FFF0A3740FF0A374CDF07B0174
:1013A1007A04792E1208657B017A04792E121307CB
:1013B100E4FCFD0DBD00010CBC27F8BD10F57F025A
:1013C1007E001213DBE4FCFDC3ED9410EC64809409
:0A13D100A750BD0DBD00010C80EE19
:030000000211F3F7
:0C11F300787FE4F6D8FD75812202123AE4
:100B6500E709F608DFFA8046E709F208DFFA803E72
:100B750088828C83E709F0A3DFFA8032E309F6085F
:100B8500DFFA8078E309F208DFFA807088828C83C7
:100B9500E309F0A3DFFA806489828A83E0A3F6087B
:100BA500DFFA805889828A83E0A3F208DFFA804C55
:100BB50080D280FA80C680D4806980F2803380102C
:100BC50080A680EA809A80A880DA80E280CA803395
:100BD50089828A83ECFAE493A3C8C582C8CCC5830D
:100BE500CCF0A3C8C582C8CCC583CCDFE9DEE780DD
:100BF5000D89828A83E493A3F608DFF9ECFAA9F05C
:100C0500EDFB2289828A83ECFAE0A3C8C582C8CCB1
:100C1500C583CCF0A3C8C582C8CCC583CCDFEADECA
:100C2500E880DB89828A83E493A3F208DFF980CC2C
:100C350088F0EF60010E4E60C388F0ED2402B40425
:100C45000050B9F582EB2402B4040050AF232345CC
:060C55008223900BB57331
:100C5B00BB010689828A83E0225002E722BBFE0297
:090C6B00E32289828A83E49322CA
:100C7400A3F8E0C5F025F0F0E58215827002158333
:060C8400E0C838F0E82290
:100C8A00EB9FF5F0EA9E42F0E99D42F0E89C45F0C0
:010C9A002237
:100C9B007401FF3395E0FEFDFCA3A3A3E0CF2FF07F
:100CAB00E582158270021583E0CE3EF0E582158257
:100CBB0070021583E0CD3DF0E5821582700215833D
:050CCB00E0CC3CF0222A
:100CD000A8828583F0D083D082120CE7120CE71231
:100CE0000CE7120CE7E473E493A3C583C5F0C58356
:100CF000C8C582C8F0A3C583C5F0C583C8C582C86E
:010D000022D0
:10080000E508247BF582E43404F583E005082290B2
:10081000047830070390047BE475F001120D400268
:100820000C5B2000E97F2ED2008018EF540F24903B
:10083000D43440D4FF30040BEF24BFB41A0050036B
:100840002461FFE50960021509050CE50C7002053D
:100850000B30070E900478E475F001120D40EF02A2
:100860000D2E0214867403D2078003E4C207F50834
:10087000900478120D57E4F509F50BF50CE50960C5
:10088000077F2012084380F5750AFFC201C200C22B
:1008900002C203C205C206C20812080FFF700D3063
:1008A00007057F00120854AF0CAE0B22B4255FC2BF
:1008B000D5C20412080FFF24D0B40A00501A75F0F4
:1008C0000A780930D50508B6FF0106C6A426F62029
:1008D000D5047002D20380D924CFB41A00EF50049B
:1008E000C2E5D204020A55D20180C6D20080C0D22D
:1008F0000280BCD2D580BAD20580B47F20120843D2
:100900002002077401B5090040F1120800FF120827
:100910004302087DD208D2068095120800FB120817
:1009200000FA120800F94A4B700679267A0B7BFF11
:1009300020022EE509602A7E008E82758300120D4A
:100940000160060EEE650A70F0C2D5EBC0E0EAC0A9
:10095000E0E9C0E0EE120A9CD0E0F9D0E0FAD0E085
:10096000FB120C5BFF60AAEBC0E0EAC0E0E9C0E06C
:10097000120843D0E02401F9D0E03400FAD0E0FBC3
:10098000E50A0460DCD50AD980877BFF7A0A79986A
:10099000D202809C791080027908C206C2088008C1
:1009A000D2D5790A8004790AC2D5E50A047002F525
:1009B0000AE4FAFDFEFF120800FC7B082001131276
:1009C0000800FD7B1030000A120800FE120800FF2C
:1009D0007B20EC3382D592D55013C3E43000069FC0
:1009E000FFE49EFEE42001039DFDE49CFCE4CBF8C3
:1009F000C201EC700CCFCECDCCE824F8F870F380B7
:100A000017C3EF33FFEE33FEED33FDEC33FCEB3376
:100A1000FB994002FB0FD8E9EB300105F8D0E0C4A8
:100A200048B201C0E00AEC4D4E4F78207B0070C206
:100A3000EAB50A0040BCC0E0120A9ED0F0D0E02027
:100A40000104C4C0E0C4B201C0F012082CD0F0D53B
:100A5000F0EB02087D120D60091A5309945808EB57
:100A60004C08E74209984F09A04409A049090043EE
:080A700009A655098A46098A0E
:100A780045098A470B465008EF2D08F32E09162B17
:100A880008F7230914200B2F2A08AF480000090E85
:100A98003F3F3F00790AA2D5200314300509B91059
:100AA800020404B9080104A2D5200602500104205A
:100AB80002689202B509005034C0E07F2030031963
:100AC8007F30A20272067205500F120AF5C202C2E6
:100AD80006C205C2087F30800F300503E9C0E01266
:100AE8000843300503D0E0F9D0E0B509CC3005174C
:100AF8007F30B9100C1208437F583004077F788084
:100B080003B908031208433002057F2D0208437F0A
:100B1800202008F87F2B2006F322920280CF286E2F
:100B2800756C6C2900D2011208003001F8C20178F6
:100B38000930D50108F60208AF2D5043495812086C
:100B4800002403B405004001E4900B4193120834DB
:0D0B5800743A120834D2037509040209949E
:1011FF00021371E493A3F8E493A34003F68001F282
:10120F0008DFF48029E493A3F85407240CC8C333F0
:10121F00C4540F4420C8834004F456800146F6DFBF
:10122F00E4800B01020408102040809014ADE47E8E
:10123F00019360BCA3FF543F30E509541FFEE493B4
:10124F00A360010ECF54C025E060A840B8E493A37B
:10125F00FAE493A3F8E493A3C8C582C8CAC583CAA6
:10126F00F0A3C8C582C8CAC583CADFE9DEE780BE5E
:0114CC00001F
:100D0100BB010CE58229F582E5833AF583E02250A7
:100D110006E92582F8E622BBFE06E92582F8E222F1
:0D0D2100E58229F582E5833AF583E493220B
:100D2E00BB010689828A83F0225002F722BBFE01A4
:020D3E00F3229E
:100D4000F8E0FBA3A3E0F925F0F0E582158270023C
:070D50001583E0FA38F022E0
:090D5700EBF0A3EAF0A3E9F0229D
:100D6000D083D082F8E4937012740193700DA3A322
:100D700093F8740193F5828883E473740293686036
:060D8000EFA3A3A380DF36
:10148600EFB40A07740D121491740A309811A899D2
:10149600B8130CC2983098FDA899C298B811F630C6
:0714A60099FDC299F599229E
:00000001FF
