:100F9F006D313042006D313242006D313442006D9F
:100FAF00313642006D323042006D323442006D33C3
:100FBF003242006D3438006D3634005320257320D3
:100FCF0025730D00662025730D00742022257322D2
:100FDF002025752025750D0078692025752025752C
:100FEF002025750D006D2025750D007A0D00252D1E
:100FFF00336275430030303030303000464646465D
:10100F00464600252D3362754600000000000000A3
:10101F0000000000000000000000000000000000C1
:10102F0000000000000000000000000000000000B1
:10103F0000000000000000000000000000000000A1
:10104F000000000000000000000000000000000091
:10105F000000000000000000000000000000000081
:10106F000000000000000000000000000000000071
:10107F000000000000000000000000000000000061
:10108F000000000000000000000000000000000051
:02109F0000004F
:10003E00C103C101C104C109C10652080F0F9F0FB0
:10004E00A40FA90FAE0FB30FB80FBD0FC20FC6C1CD
:0B005E00004200040000420006000009
:10002600AF84E4900DA8F0A3F075840F758A838FD2
:02003600842222
:10155400AF8475840F75E12F75E20175E3C475A43A
:101564000175A50175A7CA759C0F759D04E4F59EC8
:10157400759F807580FF7590FF75A0FF75B0FF752E
:10158400C8FF75D8FF75E8FF75F8FFC2FF8F842286
:0D165F0075A89243E70143E74043E60A22E5
:10159400AF84E4F584F5C875C90875CAF375CBFF43
:1015A40085CBCD85CACC75C804F5847598507591E2
:0715B4000575A8908F842249
:07006A0075FFDE75FFAD22FA
:03002300020C0EBE
:100C0E00C0E0C0F0C083C082C0D075D010900D5926
:100C1E00E584F0E4FBFAA3120927000000007584B6
:100C2E0000209803020D88C298900009E599F09073
:100C3E000D4DE0FEA3E0FFC3EE94024003020D4C07
:100C4E00900009E0FD640D6019740F2FF582740297
:100C5E003EF583EDF0900D4DE475F0011208A902FA
:100C6E000D8890020FE0FF647B7027A3E064637031
:100C7E001BA3E0B46D16A3E0B47011A3E0B4650C31
:100C8E00A3E0B47D07D203D201020D19C203C20143
:100C9E008079EF64787034FAFBD3900D4EE09B9020
:100CAE000D4DE09A401F740F2BF58274023AF583B6
:100CBE00E0FF740B2BF58274003AF583EFF00BBB5B
:100CCE0000010A80D4C204D209804090020FE06471
:100CDE00287034FAFBD3900D4EE09B900D4DE09AA8
:100CEE00401F740F2BF58274023AF583E0FF740BEC
:100CFE002BF58274003AF583EFF00BBB00010A80EE
:100D0E00D4C204D2098004D204C2097A007B00D373
:100D1E00900D4EE09B900D4DE09A4013740F2BF505
:100D2E008274023AF583E4F00BBB00010A80E09076
:100D3E000D51E4F0A3F0900D4DF0A3F0803C900D1A
:100D4E004DE0FEA3E0FF900D51E0FCA3E0FDC39F3C
:100D5E00EC9E5017740F2DF58274023CF583E4F06F
:100D6E00900D5175F0011208A980D3900D51E4F049
:100D7E00A3F0900D4DF0A3F0C209209903020E0CC2
:100D8E00C299200877900D53E0FEA3E0240FF58260
:100D9E0074043EF583E0F599900D53E475F001125D
:100DAE0008A9209913900D5A1208F2E47B487A266E
:100DBE00F9F8D31208D550EAE47F487E26FDFC9060
:100DCE000D5A1208E6C31208D54002D299900D5A58
:100DDE0012092700000000C3900D53E09404400454
:100DEE00E4F0A3F0900D4FE0FEA3E0FF900D53E072
:100DFE00B5160BA3E0B51706D2088002D202900DED
:0F0E0E0059E0F584D0D0D082D083D0F0D0E0323C
:1013FC00900E36E584F012083B604E200814900DD8
:10140C004FE0FEA3E0FF900D53E06E7003A3E06F7E
:10141C00602E12083BFF900D4FE475F0011208BFCF
:10142C00FC740F25F0F58274043CF583EFF0C39047
:10143C000D4FE094044004E4F0A3F0300802C2081D
:10144C00740129F9E43AFA80AD300207C202E4F5DE
:0A145C0084D299900E36E0F5842248
:10118100900E5E1209617BFF7A0F79CA900E3912B7
:101191000961900E5E120958900E3C120961900E81
:1011A10061120958900E3F1209617B017A0E796C28
:1011B1001204457B017A0E796C1213FC7BFF7A0FC6
:1011C10079D3900E39120961900E64E025E0240F65
:1011D100F582E43408F583E0FEA3E0AA06F9900E57
:1011E1003C1209617B017A0E796C1204457B017A0C
:1011F1000E796C1213FC7BFF7A0F79D9900E39129C
:101201000961900E65120958900E3C120961900E09
:1012110068E0FFA3E0900E3FCFF0A3EFF0900E6ADD
:10122100E0FFA3E0900E41CFF0A3EFF07B017A0E37
:0F123100796C1204457B017A0E796C1213FC2242
:10150A00900EECECF0A3EDF0AD03AC027BFF7A0F8A
:10151A0079E7900E39120961900E3CEEF0A3EFF0D4
:10152A00900EECE0FFA3E0900E3ECFF0A3EFF0AFF9
:10153A0005A3ECF0A3EFF07B017A0E79EE120445D5
:0A154A007B017A0E79EE1213FC22E9
:06166C007E001215BB22F6
:1015BB007BFF7A0F79F4900E39120961900E3CEE95
:1015CB00F0A3EFF07B017A0F796E1204457B017A61
:0715DB000F796E1213FC22D0
:100E1D00E4900FEEF0A3F090000AE06402706CA372
:100E2D00E064287031A3E024CE6012146017240210
:100E3D006003020F6C7F0212166C020F6C7F03129F
:100E4D00166C020F6C7F0412166C020F6C020F6C85
:100E5D00020F6C020F6CE4900FEEF0A3F0900FEE0A
:100E6D00E0FEA3E0FF240BF58274003EF583E070F5
:100E7D0003020F6C740B2FF58274003EF583E4F0C2
:100E8D00900FEE75F0011208A980D290000AE0646F
:100E9D00037069A3E064287031A3E024CE601214BE
:100EAD00601724026003020F6C7F0212166C020F92
:100EBD006C7F0312166C020F6C7F0412166C020FFE
:100ECD006C020F6C020F6C020F6CE4900FEEF0A32E
:100EDD00F0900FEEE0FEA3E0FF240BF58274003ED0
:100EED00F583E0607A740B2FF58274003EF583E490
:100EFD00F0900FEE75F0011208A980D590000AE070
:100F0D006404705BA3E0B42824A3E024CE600E1427
:100F1D006012240270497F0212166C80427F031208
:100F2D00166C803B7F0412166C80348032E4900F77
:100F3D00EEF0A3F0900FEEE0FEA3E0FF240BF582A0
:100F4D0074003EF583E06017740B2FF58274003E3C
:100F5D00F583E4F0900FEE75F0011208A980D5E449
:100F6D00900FEEF0A3F0900FEEE0FEA3E0FF240B48
:100F7D00F58274003EF583E06017740B2FF58274D3
:100F8D00003EF583E4F0900FEE75F0011208A98094
:020F9D00D5225B
:1012DC00900DAA12092700000000900DAEE584F0D5
:1012EC00E4F58420866C900DAA1208F27BA07A8615
:1012FC0079017800D31208D54058C287E4900DA824
:10130C00F0A3F0900DA8E475F0011208A9900DA8B7
:10131C00E07003A3E0F470EBD287208714900DAA41
:10132C001208F27BA07A8679017800D31208D55086
:10133C00E9E4900DA8F0A3F0C3900DA9E0940A90F5
:10134C000DA8E064809480509AE475F0011208A90D
:10135C0080E675C00775CF9143C040900DAEE0F5A7
:04136C0084C2002215
:10162A00AF84758401E4F5C8F5C975CBE275CA7A49
:0B163A0085CBCD85CACCD2CA8F84229C
:0300730002000385
:10000300C0D075D000C007AF8475840053C0BF4310
:0F001300C0408F84C2CFC2008F84D007D0D032BC
:1016450074AD2FF582E43408F583EDF0EFFD7C00F1
:0A1655007B017A007F201214BD22F1
:10160900900DA8EFF0FD7C007B017A007F2012127B
:1016190040900DA8E0242EF582E43408F583E0FF1C
:01162900229E
:10124000900DA9EFF0A3ECF0A3EDF0A3EAF0A3EB6F
:10125000F0A3E584F0E4F58420C7FD2000FA900DAA
:10126000AEE0F584900DA9E0FF245C600424847056
:101270000E900DAAE0FCA3E0FDE4FBFA1214BDE41D
:10128000F58420C7FD2000FA900DA9E0900822F017
:10129000900DAAE0FFA3E0900828CFF0A3EFF09014
:1012A0000DACE0FFA3E0900D57CFF0A3EFF0D2001C
:1012B000D20AD2C520C7FD2000FA900DAEE0F58419
:1012C000900DA9E0245C600D2484700F900825E047
:0C12D000700980F82290082CE060FA22DF
:1014BD00A907E4900DAFF0A3F0A3F0A3E584F0E449
:1014CD00F58420C7FD2000FA900822E9F0AF0590C1
:1014DD000828ECF0A3EFF0E924556004248B701676
:1014ED00AF0390020BEAF0A3EFF0D200C20AD2C50F
:0D14FD0090082DE060FA900DB2E0F5842219
:03003B000200764A
:10007600C0E0C0F0C083C082C0D075D010C20BE50E
:10008600C1131313541F12096A00B40100B402000D
:10009600D903010204017A0501CE0603B007023432
:1000A60008024A0902B00A03540B000003B4900880
:1000B60022E0F5C253C2FEA20AE43342C2C2C59090
:1000C6000002E4F0A3F0900000F0A3F0900008F026
:1000D6000203B6900822E0642060030203B690088B
:1000E60028E0FEA3E0FF64AB4E7007D2C4C2000254
:1000F60003B68FC290082DE4F00203B6900822E002
:10010600FF64206004EFB4B030C3900005E0940AA9
:10011600900004E09400500CE475F0011208A9D296
:10012600C50203B6900004E4F0A3F090082D04F095
:10013600D2C4C200D20B0203B6900822E064A460C7
:10014600030203B6C3900007E0940A900006E09409
:1001560000500CE475F0011208A9D2C50203B6904E
:100166000006E4F0A3F090082404F0D2C4C200D242
:100176000B0203B6900822E0642060030203B690E7
:10018600020BE0FEA3E0FF900000E0FCA3E0FDC34D
:100196009FEC9E5026900829E02DFF900828E03C11
:1001A600FE74AD2FF58274083EF583E0F5C290002B
:1001B60000E475F0011208A90203B6D2C4C2009089
:1001C600082D7401F00203B6900822E0FFB4202B3C
:1001D600C3900005E0940A900004E09400500CE4FB
:1001E60075F0011208A9D2C50203B6900004E4F026
:1001F600A3F0D2C4C200D20B0203B6EF64A460031C
:100206000203B6C3900007E0940A900006E094004B
:10021600500CE475F0011208A9D2C50203B690008D
:1002260006E4F0A3F0D2C4C200D20B0203B6900DCE
:1002360057E07004A3E064017005C2C20203B6D29F
:10024600C20203B6900822E0FFB4202BC39000053B
:10025600E0940A900004E09400500CE475F001125A
:1002660008A9D2C50203B6900004E4F0A3F0D2C4F4
:10027600C200D20B0203B6EF64A460030203B6C346
:10028600900007E0940A900006E09400500CE47594
:10029600F0011208A9D2C50203B6900006E4F0A345
:1002A600F0D2C4C200D20B0203B6900822E0F96471
:1002B60020704E900D57E0FEA3E0FF900002E0FC98
:1002C600A3E0FDC39FEC9E502D900829E02DFF90E2
:1002D6000828E03CFE742E2FF58274083EF583E56F
:1002E600C2F0D2C2900002E475F0011208A990088B
:1002F60025E4F00203B6C2C29008257401F0020399
:10030600B6E964A460030203B6900D57E0FEA3E0CD
:10031600FF900002E0FCA3E0FDC39FEC9E5025AFDA
:10032600C2742C2DF58274093CF583EFF0900823F6
:10033600F0D2C2900002E475F0011208A990082CD0
:10034600E4F0806CC2C290082C7401F080629008C0
:1003560022E0FFB4202F900002E0FCA3E0FD90080D
:1003660029E02DFD900828E03CFC742E2DF58274C2
:10037600083CF583E5C2F0D2C4C200D2C29008257B
:100386007401F0802BEFB4A427900002E0FEA3E0F6
:10039600242CF58274093EF583E5C2F0D2C4C2006E
:1003A600D2C290082C7401F08006D20B8002D20BC8
:1003B600300B1A53C0BF43C040C2C5C2C4C2C2C27A
:1003C60000C20B90082D7401F0900825F0C2C3D02E
:0A03D600D0D082D083D0F0D0E03206
:1010A100900DA812096178B67C0D7D017BFF7A1045
:1010B10079197E007F80120815E4FFFE0FBF000141
:1010C1000EBE27F8BF10F57BFF7A0F79CA900E3953
:1010D100120961900DA8120958900E3C12096190F5
:1010E1000DAB120958900E3F1209617B017A0D79FF
:1010F100B61204457B017A0D79B61213FC7BFF7A97
:101101000F79D3900E39120961900DAEE025E024DC
:101111000FF582E43408F583E0FEA3E0AA06F99016
:101121000E3C1209617B017A0D79B61204457B01EF
:101131007A0D79B61213FC7BFF7A0F79D9900E39AB
:10114100120961900DAF120958900E3C120961907D
:101151000DB2E0FFA3E0900E3FCFF0A3EFF0900DB2
:10116100B4E0FFA3E0900E41CFF0A3EFF07B017A52
:101171000D79B61204457B017A0D79B61213FC2262
:10146600900DA8EEF0A3EFF078AA7C0D7D017BFF2E
:101476007A1079997E007F08120815E4FFFE0FBFE7
:1014860000010EBE27F8BF10F57BFF7A0F79F490A6
:101496000E39120961900DA8E0FFA3E0900E3CCF33
:1014A600F0A3EFF07B017A0D79AA1204457B017A4D
:0714B6000D79AA1213FC22BC
:1009E600E4900D5EF0A3F0A3F0A3F0A3F0A3F0A3B0
:1009F600F0A3F0A3F0A304F012006A120026121569
:100A06005412165F1215941212DC12162AD202E440
:100A1600900D4FF0A3F0900D53F0A3F0D2087BFF9A
:100A26007A0F79FA900E391209617B017A0D79688D
:100A36001204457B017A0D79681213FC7F047E004F
:100A460012146690020DE0FEA3E0FFEE700BEF2499
:100A5600FE24FD50EE800280EA7F36121609900BC6
:100A66002CEFF0200918E0FF900D62E0B4000FA310
:100A7600E0B5070A900D66E07002A3E060C5900D30
:100A860066E07002A3E06056E4900D66F0A3F07B8A
:100A9600FF7A0F79FD900E39120961E4900E3CF051
:100AA6007B017A0D79681204457BFF7A10790B90E9
:100AB6000DAB120961900DAE7408F07B017A0D79C9
:100AC60068A3120961900DB2E4F0A374F0F0A3E4F8
:100AD600F0A3746EF07BFF7A1079041210A1900BCC
:100AE6002CE0FFFD900D62E4F0A3EDF090000CE029
:100AF60064317065A3E06432705FA3E064397059B5
:100B0600900D64F0A304F07BFF7A0F79FD900E3907
:100B1600120961900E3CEFF07B017A0D79681204A0
:100B2600457BFF7A10790B900DAB120961900DAEE3
:100B36007408F07B017A0D7968A3120961900DB2F1
:100B4600E4F0A374F0F0A3E4F0A3746EF07BFF7AF4
:100B56001079041210A1020A4990000CE064317069
:100B66007BA3E064337075A3E06430706F900D640E
:100B7600F0A3F0900B2CE075F009A4FFAEF07C001A
:100B86007D05120854EF2420FFF07BFF7A107912BE
:100B9600900E39120961900E3CEFF07B017A0D79C7
:100BA600681204457BFF7A10790B900DAB12096130
:100BB600900DAE7408F07B017A0D7968A312096175
:100BC600900DB2E4F0A374F0F0A3E4F0A3746EF019
:100BD6007BFF7A1079041210A1020A4990000CE0FA
:100BE60064316003020A49A3E064336003020A49E0
:100BF600A3E064316003020A4990020DF0A3740277
:080C0600F0020A49020A49222A
:0300000002137078
:0C137000787FE4F6D8FD7581220213B7E7
:10074500E709F608DFFA8046E709F208DFFA803E96
:1007550088828C83E709F0A3DFFA8032E309F60883
:10076500DFFA8078E309F208DFFA807088828C83EB
:10077500E309F0A3DFFA806489828A83E0A3F6089F
:10078500DFFA805889828A83E0A3F208DFFA804C79
:1007950080D280FA80C680D4806980F28033801050
:1007A50080A680EA809A80A880DA80E280CA8033B9
:1007B50089828A83ECFAE493A3C8C582C8CCC58331
:1007C500CCF0A3C8C582C8CCC583CCDFE9DEE78001
:1007D5000D89828A83E493A3F608DFF9ECFAA9F080
:1007E500EDFB2289828A83ECFAE0A3C8C582C8CCD6
:1007F500C583CCF0A3C8C582C8CCC583CCDFEADEEF
:10080500E880DB89828A83E493A3F208DFF980CC50
:1008150088F0EF60010E4E60C388F0ED2402B40449
:100825000050B9F582EB2402B4040050AF232345F0
:0608350082239007957379
:10083B00BB010689828A83E0225002E722BBFE02BB
:09084B00E32289828A83E49322EE
:10085400BC000BBE0029EF8DF084FFADF022E4CC88
:10086400F875F008EF2FFFEE33FEEC33FCEE9DEC51
:10087400984005FCEE9DFE0FD5F0E9E4CEFD22ED97
:10088400F8F5F0EE8420D21CFEADF075F008EF2FE1
:10089400FFED33FD4007985006D5F0F222C398FDD2
:0508A4000FD5F0EA226F
:1008A900C5F0F8A3E028F0C5F0F8E58215827002DA
:0608B9001583E038F02277
:1008BF00A3F8E0C5F025F0F0E582158270021583EC
:0608CF00E0C838F0E82249
:1008D500EB9FF5F0EA9E42F0E99D42F0E89C45F079
:0108E50022F0
:0C08E600E0F8A3E0F9A3E0FAA3E0FB2295
:1008F2007401FF3395E0FEFDFCA3A3A3E0CF2FF02C
:10090200E582158270021583E0CE3EF0E582158203
:1009120070021583E0CD3DF0E582158270021583E9
:05092200E0CC3CF022D6
:10092700A8828583F0D083D08212093E12093E1235
:10093700093E12093EE473E493A3C583C5F0C5835A
:10094700C8C582C8F0A3C583C5F0C583C8C582C81A
:01095700227D
:09095800E0FBA3E0FAA3E0F922A0
:09096100EBF0A3EAF0A3E9F02297
:10096A00D083D082F8E4937012740193700DA3A31C
:10097A0093F8740193F5828883E473740293686030
:06098A00EFA3A3A380DF30
:1003E000E5082439F582E4340EF583E0050822900F
:1003F0000E36301303900E39E475F0011209CF0266
:10040000083B200CE97F2ED20C8018EF540F24906B
:10041000D43440D4FF30100BEF24BFB41A00500383
:100420002461FFE50960021509050CE50C70020561
:100430000B30130E900E36E475F0011209CFEF0267
:1004400009BD0215E27403D2138003E4C213F50858
:10045000900E36120961E4F509F50BF50CE509601B
:10046000077F2012042380F5750AFFC20DC20CC25B
:100470000EC20FC211C212C2141203EFFF700D3070
:1004800013057F00120434AF0CAE0B22B4255FC2FB
:10049000D5C2101203EFFF24D0B40A00501A75F031
:1004A0000A780930D50508B6FF0106C6A426F6204D
:1004B000D5047002D20F80D924CFB41A00EF5004B3
:1004C000C2E5D210020635D20D80C6D20C80C0D251
:1004D0000E80BCD2D580BAD21180B47F2012042302
:1004E000200E077401B5090040F11203E0FF120469
:1004F0002302045DD214D21280951203E0FB120392
:10050000E0FA1203E0F94A4B700679067A077BFF9E
:10051000200E2EE509602A7E008E82758300120966
:100520009060060EEE650A70F0C2D5EBC0E0EAC03E
:10053000E0E9C0E0EE12067CD0E0F9D0E0FAD0E0CD
:10054000FB12083BFF60AAEBC0E0EAC0E0E9C0E0B4
:10055000120423D0E02401F9D0E03400FAD0E0FB0B
:10056000E50A0460DCD50AD980877BFF7A067978B2
:10057000D20E809C791080027908C212C2148008C1
:10058000D2D5790A8004790AC2D5E50A047002F549
:100590000AE4FAFDFEFF1203E0FC7B08200D1312B3
:1005A00003E0FD7B10300C0A1203E0FE1203E0FFB3
:1005B0007B20EC3382D592D55013C3E4300C069FD8
:1005C000FFE49EFEE4200D039DFDE49CFCE4CBF8DB
:1005D000C20DEC700CCFCECDCCE824F8F870F380CF
:1005E00017C3EF33FFEE33FEED33FDEC33FCEB339B
:1005F000FB994002FB0FD8E9EB300D05F8D0E0C4C1
:1006000048B20DC0E00AEC4D4E4F78207B0070C21E
:10061000EAB50A0040BCC0E012067ED0F0D0E0206F
:100620000D04C4C0E0C4B20DC0F012040CD0F0D56B
:10063000F0EB02045D12096A04FA5305745804CB06
:100640004C04C74205784F05804405804904E043C7
:08065000058655056A46056A9E
:1006580045056A4707265004CF2D04D32E04F62BF0
:1006680004D72304F420070F2A048F48000004EE5F
:100678003F3F3F00790AA2D5200F14301109B91065
:10068800020404B9080104A2D52012025001042072
:100698000E68920EB509005034C0E07F20300F1963
:1006A8007F30A20E72127211500F1206D5C20EC2FE
:1006B80012C211C2147F30800F301103E9C0E0125A
:1006C8000423301103D0E0F9D0E0B509CC3011177C
:1006D8007F30B9100C1204237F583010077F7880C0
:1006E80003B90803120423300E057F2D0204237F6B
:1006F800202014F87F2B2012F322920E80CF286E30
:10070800756C6C2900D20D1203E0300DF8C20D781B
:100718000930D50108F602048F2D504349581203B9
:10072800E02403B405004001E49007219312041467
:0D073800743A120414D20F750904020574FE
:10137C000209E6E493A3F8E493A34003F68001F298
:10138C0008DFF48029E493A3F85407240CC8C33372
:10139C00C4540F4420C8834004F456800146F6DF41
:1013AC00E4800B010204081020408090003EE47E93
:1013BC00019360BCA3FF543F30E509541FFEE49336
:1013CC00A360010ECF54C025E060A840B8E493A3FD
:1013DC00FAE493A3F8E493A3C8C582C8CAC583CA28
:1013EC00F0A3C8C582C8CAC583CADFE9DEE780BEE0
:010069000096
:10099000BB010CE58229F582E5833AF583E022501C
:1009A00006E92582F8E622BBFE06E92582F8E22266
:0D09B000E58229F582E5833AF583E4932280
:1009BD00BB010689828A83F0225002F722BBFE0119
:0209CD00F32213
:1009CF00F8E0FBA3A3E0F925F0F0E58215827002B1
:0709DF001583E0FA38F02255
:1015E200EFB40A07740D1215ED740A309811A89918
:1015F200B8130CC2983098FDA899C298B811F63069
:0716020099FDC299F5992240
:00000001FF
