:10136F003134353700534554205345434F4E445382
:10137F0000534554204D494E555445530053455441
:10138F0020484F5552530053455420414D2F504D37
:10139F0000534554204441544500534554204D4F6C
:1013AF004E5448005345542059454152006D313039
:1013BF0042006D313242006D313442006D313642A0
:1013CF00006D323042006D323442006D33324200D4
:1013DF006D3438006D3634004E4F4E0053554E006D
:1013EF004D4F4E0054554500574544005448550045
:1013FF0046524900534154004A414E00464542006F
:10140F004D415200415052004D4159004A554E0036
:10141F004A554C0041554700534550004F43540027
:10142F004E4F5600444543005345542044415445C4
:10143F0020414E442054494D45202020202020009B
:10144F0057524954494E4720444154412E2E2E2085
:10145F0057414954212020004441544120535543C2
:10146F004345535346554C4C592053415645440020
:10147F004552524F52202020202020202020202073
:10148F002020202020202000532025732025730D9D
:10149F0000662025730D00742022257322202575E8
:1014AF002025750D00786920257520257520257557
:1014BF000D006D2025750D002573202530326275C6
:1014CF002C203230253032627500303046463030B5
:1014DF000030303030303000253262753A253032EE
:1014EF0062753A25303262752025634D20007420D5
:1014FF0022253373222025752025750D0074202297
:10150F0025313173222025752025750D00736C2030
:10151F0025752025752025752025752025752025F5
:10152F0075202575202575203120257520257500FE
:10153F007862622025730D0062762025730D00738B
:10154F00762025752025750D0072202575202575AF
:10155F00202575202575202575203030303030300E
:10156F000D00257300202020202000310032003391
:10157F000034003500360037003800390030002ABB
:10158F000023007A0D0054656D70004646464646AE
:10159F0046005365727669636500436F6E666967CF
:1015AF00004D61696E74656E616E636500455252E0
:1015BF004F52004272696768746E6573733A200008
:1015CF00257500566F6C756D653A2000252D3362B9
:1015DF0075430054656D7065726174757265002591
:1015EF002D3362754600000000000000000000006F
:1015FF0000000000000000000000000000000000DC
:10160F0000000000000000000000000000000000CB
:10161F0000000000000000000000000000000000BB
:10162F0000000000000000000000000000000000AB
:02188F00000057
:10352E00420DA3000041096E0043085CFF136F4E6D
:10353E000D9313741380138C139613A013A913B346
:10354E00C113C106C104C107C10FC10A520833130A
:10355E00BC13C113C613CB13D013D513DA13DF1359
:10356E00E3C102410014004102310041085B0050EA
:10357E00001613E713EB13EF13F313F713FB13FFFD
:10358E0014035A0DB513E71407140B140F14131468
:10359E0017141B141F14231427142B142F14334821
:1035AE0009641437144F1467147F4200040000425C
:1035BE0000060000420008000041000B0041000C14
:1035CE000041000D0041000E0041000F00410010AF
:0B35DE00004202280001420D91000095
:103D0400AF84E4900E4DF0A3F075840F758A838F11
:013D1400842A
:013D1500228B
:103BD400AF8475840F75E12F75E20175E3C475A494
:103BE4000175A50175A7CA759C0F759D04E4F59E22
:103BF400759F807580FF7590FF75A0FF75B0FF7588
:0F3C0400C8FF75D8FF75E8FF75F8FFC2FF8F8402
:013C1300228E
:0D3D630075A89243E70143E74043E60A22BA
:103C1400AF84E4F584F5C875C90875CAF375CBFF9C
:103C240085CBCD85CACC75C804F58475985075913B
:063C34000575A8908F84C5
:013C3A002267
:073D700075FFDE75FFAD22B7
:030023000225347F
:0D253400C0E0C0F0C083C082C0D075D010E0
:10254100900DD2E584F0E4FBFAA3121F68000000AD
:10255100007584002098030226F8C298900011E5C6
:1025610099F0900DA5E0FEA3E0FFC3EE94024003B5
:102571000226B7900011E0FD640D601D74332FF544
:102581008274023EF583EDF0900DA6E004F0700632
:10259100900DA5E004F00226F8900233E0FF647B81
:1025A1007028A3E06463701BA3E0B46D16A3E0B4CC
:1025B1007011A3E0B4650CA3E0B47D07D206D20488
:1025C100022684C206C204022684EF64787030FABF
:1025D100FBD3900DA6E09B900DA5E09A401F7433AC
:1025E1002BF58274023AF583E0FF74262BF5827491
:1025F100003AF583EFF00BBB00010A80D4807A909A
:102601000233E0F9646C703EFAFBD3900DA6E09BB7
:10261100900DA5E09A401F74332BF58274023AF5B0
:1026210083E0FF74262BF58274003AF583EFF00BFB
:10263100BB00010A80D474262BF58274003AF5831D
:10264100E4F0D213803DE964287034FAFBD3900D95
:10265100A6E09B900DA5E09A401F74332BF5827480
:10266100023AF583E0FF74262BF58274003AF58374
:10267100EFF00BBB00010A80D4C207D20F8004D255
:1026810007C20F7A007B00D3900DA6E09B900DA5A9
:10269100E09A401374332BF58274023AF583E4F027
:1026A1000BBB00010A80E0900DABE4F0A3F0900DAC
:1026B100A5F0A3F08041900DA5E0FEA3E0FF900DF1
:1026C100ABE0FCA3E0FDC39FEC9E501C74332DF5E1
:1026D1008274023CF583E4F0900DACE004F070D616
:1026E100900DABE004F080CE900DABE4F0A3F09040
:1026F1000DA5F0A3F0C20F20990302278BC29930D8
:102701000C03022789900DAEE0FEA3E02433F5828D
:1027110074043EF583E0F599900DAFE004F0700686
:10272100900DAEE004F0209913900DD3121F33E405
:102731007B487A26F9F8D3121F2250EAE47F487EBB
:1027410026FDFC900DD3E0F8A3E0F9A3E0FAA3E0A5
:10275100FBC3121F224002D299900DD3121F6800B1
:10276100000000C3900DAEE094044004E4F0A3F037
:10277100900DA9E0FEA3E0FF900DAEE0B5160BA30E
:10278100E0B51706D20C8002D205900DD2E0F58497
:0B279100D0D0D082D083D0F0D0E03256
:0638E5007B017A0E79A1BF
:1038EB00900F21E584F0121E8C604E200C14900D6D
:1038FB00A9E0FEA3E0FF900DAEE06E7003A3E06FB6
:10390B00602E121E8CFF900DA9E475F001121F0C96
:10391B00FC743325F0F58274043CF583EFF0C3900F
:10392B000DA9E094044004E4F0A3F0300C02C20CA7
:10393B00740129F9E43AFA80AD300507C205E4F5C4
:09394B0084D299900F21E0F5846B
:013954002250
:102E4600900E9674FFF0A37414F0A374E0F0A374CC
:102E560002F0900E4DE0F9A3E0FAA3E0900E9AC9B5
:102E6600F0A3EAF0A3E9F0A37401F0A3746DF0A354
:0C2E7600E4F074FAA3F07BFF7A1479D921
:0B2E8200900E93EBF0A3EAF0A3E9F040
:102E8D0078A17C0E7D017BFF7A1579F57E007F8020
:102E9D00121E66900F2474FFF0A37414F0A37497A0
:102EAD00F0900E93E0F9A3E0FAA3E0900F27C9F09C
:102EBD00A3EAF0A3E9F0900E96E0F9A3E0FAA3E0FF
:102ECD00900F2AC9F0A3EAF0A3E9F07B017A0E79FD
:102EDD00A11222341238E5900F2474FFF0A374145C
:102EED00F0A374A0F0900E99E025E02433F582E470
:102EFD003408F583E0FEA3E0AA06F9900F2774FFCE
:102F0D00F0A3EAF0A3E9F07A0E79A1122234123877
:102F1D00E5900F2474FFF0A37414F0A374A6F09041
:102F2D000E9AE0F9A3E0FAA3E0900F27C9F0A3EA07
:102F3D00F0A3E9F0900E9DE0FFA3E0900F2ACFF0F3
:102F4D00A3EFF0900E9FE0FFA3E0900F2CCFF0A326
:102F5D00EFF07A0E79A11222347B017A0E79A1025B
:022F6D0038EB3F
:0C3B8B00900F49ECF0A3EDF0AD03AC028C
:103B9700900F2474FFF0A37414F0A374B4F0A3EE91
:103BA700F0A3EFF0900F49E0FFA3E0900F29CFF0CB
:103BB700A3EFF0AF05A3ECF0A3EFF07B017A0F7949
:0D3BC7004B1222347B017A0F794B0238EB50
:053D77007E00023C6229
:103C6200900F2474FFF0A37414F0A374C1F0A3EEB8
:103C7200F0A3EFF07B017A0F79CB1222347B017A29
:063C82000F79CB0238EBC4
:102BA900E49010DAF0A3F0900015E06402705B90F5
:102BB9000026E064287019A3E024CE600D14600D8E
:102BC90024026003022CD5022C8F022C93022C972D
:102BD900E49010DAF0A3F09010DAE0FEA3E0FF240D
:102BE90026F58274003EF583E07003022CD5742625
:102BF9002FF58274003EF583E4F09010DBE004F0D9
:102C090070D59010DAE004F080CD900015E06403EF
:102C19007058900026E064287016A3E024CE600C5A
:102C290014600B24026003022CD5805A805C805EFC
:102C3900E49010DAF0A3F09010DAE0FEA3E0FF24AC
:102C490026F58274003EF583E07003022CD57426C4
:102C59002FF58274003EF583E4F09010DBE004F078
:102C690070D59010DAE004F080CD900015E064048E
:102C7900705A900026E0B4281CA3E024CE600B14FF
:102C8900600C240270467F0280067F0380027F0465
:102C9900123D778037E49010DAF0A3F09010DAE073
:102CA900FEA3E0FF2426F58274003EF583E0601C54
:102CB90074262FF58274003EF583E4F09010DBE072
:102CC90004F070D89010DAE004F080D0E49010DAC3
:102CD900F0A3F09010DAE0FEA3E0FF2426F5827459
:102CE900003EF583E0601C74262FF58274003EF5E2
:102CF90083E4F09010DBE004F070D89010DAE0047F
:032D0900F080D087
:012D0C0022A4
:1035EA00900E4F121F6800000000900E53E584F001
:1035FA00E4F584208675900E4F121F337BA07A86DD
:10360A0079017800D3121F224061C287E4900E4DDF
:10361A00F0A3F0900E4EE004F07006900E4DE00418
:10362A00F0900E4DE07003A3E0F470E7D287208794
:10363A0014900E4F121F337BA07A8679017800D33B
:10364A00121F2250E9E4900E4DF0A3F0C3900E4EE3
:10365A00E0940A900E4DE0648094805096A3E004B2
:10366A00F070E9900E4DE004F080E175C00775CF67
:10367A009143C040900E53E0F584C202E490085989
:10368A00F090084CF090084BF0900857F0900DA17C
:05369A00F090096CF046
:01369F002208
:103CA900AF84758401E4F5C8F5C975CBE275CA7AA4
:0A3CB90085CBCD85CACCD2CA8F841A
:013CC30022DE
:0300730002000385
:07000300C0D075D000C0075A
:10000A00AF8475840053C0BF43C0408F84C2CFC23F
:03001A00028F84CE
:05001D00D007D0D03235
:103CC40074E12FF582E43408F583EDF0EFFD7C0018
:093CD4007B017A007F200239C057
:103C8800900E4DEFF0FD7C007B017A007F2012360C
:103C9800A0900E4DE02461F582E43408F583E0FF3E
:013CA80022F9
:0F3D2700AE05EFFD7C00EEFB7A007FD00239C0C5
:0F3D3600AE05EFFD7C00EEFB7A007FD00236A0D9
:1036A000900E54EFF0A3ECF0A3EDF0A3EAF0A3EB3F
:0136B000F029
:1036B100A3E584F0E4F58420C7FD2002FA900E59B9
:1036C100E0F584900E54E0FF245C600824D460048B
:1036D10024B0700E900E55E0FCA3E0FDE4FBFA125D
:1036E10039C0E4F58420C7FD2002FA900E54E09021
:1036F1000847F0900E55E0FFA3E0900852CFF0A3E9
:10370100EFF0900E57E0FFA3E0900DB2CFF0A3EFE2
:10371100F0D202D210D2C520C7FD2002FA900E5974
:10372100E0F584900E54E0245C601824D4600C24ED
:10373100B0701690084CE0701080F890096CE07041
:093741000880F8900857E060FAD6
:01374A00225C
:0239C000A90755
:1039C200E4900E5AF0A3F0A3F0A3E584F0E4F584AA
:1039D20020C7FD2002FA900847E9F0AF059008528F
:1039E200ECF0A3EFF0E92455600824DB601A24B060
:1039F200702C900226EAF0A3EBF0D202C210D2C5DC
:103A0200900859E0701880F8AF03900226EAF0A3FC
:103A1200EFF0D202C210D2C5900DA1E060FA900E72
:043A22005DE0F584EA
:013A2600227D
:03003B0002189117
:0D189100C0E0C0F0C083C082C0D075D01090
:10189E00C215E5C1131313541F14B40B00400302F9
:1018AE001D5A9018BE75F003A4C58325F0C5837329
:1018BE000218DF0218DF0219040219410219E402AC
:1018CE001A89021D56021B1B021B31021BC8021C69
:1018DE00C7900847E0F5C253C2FEA210E43342C2DD
:1018EE00C2C5900002E4F0A3F0900000F0A3F090C7
:1018FE00000AF0021D5C900847E0FFB4201E90081D
:10190E0052E0FCA3E0FD64AB4C7007D2C4C20202ED
:10191E001D5C8DC2900859E4F0021D5CEF64D0602E
:10192E0003021D5C900852A3E0F5C2900DA1E4F0F5
:10193E00021D5C900847E0FF64206004EFB4B02CF9
:10194E00C3900005E0940A900004E094005011A3A7
:10195E00E004F07006900004E004F0D2C5021D5CB5
:10196E00900004E4F0A3F09008598066900847E0D8
:10197E00FFB4D02CC3900007E0940A900006E094C8
:10198E00005011A3E004F07006900006E004F0D2BF
:10199E00C5021D5C900006E4F0A3F0900DA180320C
:1019AE00EF64A46003021D5CC3900009E0940A90EA
:1019BE000008E094005011A3E004F07006900008B7
:1019CE00E004F0D2C5021D5C900008E4F0A3F09094
:1019DE00084B04021BBE900847E0F96420704A9041
:1019EE000226E0FEA3E0FF900000E0FCA3E0FDC3B2
:1019FE009FEC9E502A900853E02DFF900852E03C39
:101A0E00FE74E12FF58274083EF583E0F5C2900076
:101A1E0001E004F07058900000E004F0021D5CD26A
:101A2E00C4C202900859021D51E964D06003021D20
:101A3E005C900226E0FEA3E0FF900000E0FCA3E035
:101A4E00FDC39FEC9E502A900853E02DFF90085244
:101A5E00E03CFE74E12FF58274083EF583E0F5C29A
:101A6E00900001E004F07006900000E004F0021D0A
:101A7E005CD2C4C202900DA1021D51900847E0FF36
:101A8E00B42029C3900005E0940A900004E094006D
:101A9E005011A3E004F07006900004E004F0D2C5EB
:101AAE00021D5C900004E4F0A3021BBEEFB4D0292B
:101ABE00C3900007E0940A900006E094005011A332
:101ACE00E004F07006900006E004F0D2C5021D5C42
:101ADE00900006E4F0A3021BBE900847E064A460E9
:101AEE0003021D5CC3900009E0940A900008E09484
:101AFE00005011A3E004F07006900008E004F0D24C
:101B0E00C5021D5C900008E4F0A3021BBE900DB24E
:101B1E00E07004A3E064017005C2C2021D5CD2C273
:101B2E00021D5C900847E0FFB42028C3900005E03A
:101B3E00940A900004E094005011A3E004F07006A3
:101B4E00900004E004F0D2C5021D5C900004E4F0A5
:101B5E00A3805DEFB4D028C3900007E0940A9000F4
:101B6E0006E094005011A3E004F07006900006E029
:101B7E0004F0D2C5021D5C900006E4F0A380319003
:101B8E000847E064A46003021D5CC3900009E09462
:101B9E000A900008E094005011A3E004F070069043
:101BAE000008E004F0D2C5021D5C900008E4F0A32A
:101BBE00F0D2C4C202D215021D5C900847E0F9644F
:101BCE0020704F900DB2E0FEA3E0FF900002E0FC0B
:101BDE00A3E0FDC39FEC9E5031900853E02DFF9083
:101BEE000852E03CFE74612FF58274083EF583E5E1
:101BFE00C2F0D2C2900003E004F07006900002E042
:101C0E0004F090084CE4F0021D5CC2C290084C0235
:101C1E001D51E964D07052900DB2E0FEA3E0FF902A
:101C2E000002E0FCA3E0FDC39FEC9E5031900853F0
:101C3E00E02DFF900852E03CFE74612FF58274088F
:101C4E003EF583E5C2F090096CE4F0D2C290000339
:101C5E00E004F07006900002E004F0021D5C9009B2
:101C6E006C7401F0C2C2021D5CE964A46003021D23
:101C7E005C900DB2E0FEA3E0FF900002E0FCA3E05A
:101C8E00FDC39FEC9E502AAFC2746F2DF58274096E
:101C9E003CF583EFF0900849F0D2C2900003E004C7
:101CAE00F07006900002E004F0900857E4F0021D78
:101CBE005CC2C2900857021D51900847E0FFB42045
:101CCE002C900002E0FCA3E0FD900853E02DFD9067
:101CDE000852E03CFC74612DF58274083CF583E5F6
:101CEE00C2F0D2C4C202D2C290084C8056EFB4D019
:101CFE002F900002E0FEA3E0FF900853E02FFF902C
:101D0E000852E03EFE74612FF58274083EF583E5BD
:101D1E00C2F090096C7401F0D2C4C202D2C2802EFD
:101D2E00900847E0B4A427900002E0FEA3E0246FE1
:101D3E00F58274093EF583E5C2F0D2C4C202D2C266
:101D4E009008577401F08006D2158002D215301516
:101D5E002A53C0BF43C040C2C5C2C4C2C2C202C21F
:101D6E00159008597401F090084CF0900DA1F09068
:0D1D7E00096CF090084BF0900857F0C2C3BC
:0B1D8B00D0D0D082D083D0F0D0E03266
:103D16009008EF7404F0A37430F07D027F0E023D2C
:013D26002775
:10386900900DCFE0FF123CF19008E1EFF090022CAF
:10387900E0FF123CF19008E2EFF090085FE0FF12E0
:103889003CF19008E4EFF090084AE0FF123CF19017
:1038990008E5EFF090084DE0FF123CF19008E6EFE3
:1038A900F0900856E0FF123CF19008E7EFF090081D
:1038B90058E0FF123CF1EF4440FF90022FE0FEB4C4
:1038C9005006EF4460FF8008EEB44104EF545FFFF7
:0C38D9009008E3EFF07D07E4FF023D27BC
:102A0300E4900E52F0A3F07D07FF123D369008616B
:102A1300E0FF123D45900DCFEFF0900862E0FF120A
:102A23003D4590022CEFF0900863E0FF30E61790ED
:102A3300085A7401F0EF90022F30E5057450F080CE
:102A43000A7441F08005E490085AF0EF541FFF1216
:102A53003D45900858EFF0BF0C1090022FE0B441B1
:102A630003E48016900858E0801090022FE090084D
:102A730058B45005E0240C8001E0900845F090081C
:102A830064E0FF123D4590085FEFF0900865E0FFBA
:102A9300123D4590084AEFF0900866E0FF123D456D
:102AA30090084DEFF0900867E0FF123D45900856FF
:102AB300EFF090000BE0FF90084DE0B50718900091
:102AC3000CE0FF90084AE0B5070C90000DE0FF9082
:102AD3000856E06F6002D20390000EE0FF900858A2
:102AE300E0FEB5071890000FE0FF90022CE0B50759
:102AF3000C900010E0FF900DCFE06F6002D21490B5
:102B0300022FE0FBB4501FEE240CFFE433FE7C00E5
:102B13007D3C121EA590022CE02FFFEC3E900E523E
:102B2300F0A3EFF08028EBB44124900858E0B40CF4
:102B330002E4F0900858E075F03CA4FF90022CE00A
:102B43007C002FFEEC35F0900E52F0A3CEF0900EE9
:102B530052E0FAA3E0FB7C007D3CFFAE02121EB7FD
:102B6300900231EDF07C007D3CAF03AE02121EB744
:102B730090085BEFF090084AE090000CF090084D4D
:102B8300E090000BF0900856E090000DF09008588C
:102B9300E090000EF090022CE090000FF0900DCF2B
:052BA300E0900010F0BD
:012BA800220A
:10003E00E4900DCFF090022CF0900858F090022F23
:10004E007450F090085F7401F090084AF090084DDB
:10005E00F0E4900856F0900230F090085A04F00246
:02006E003869EF
:103CF100EF75F00A84C454F0FEEF75F00A84E5F024
:023D01004EFF73
:013D0300229D
:0E3D4500EFC4540F75F00AA4FEEF540F2EFFCA
:013D5300224D
:10329600122A03900F2474FFF0A37414F0A374C7CA
:1032A600F090084DE025E024B5F582E4340DF58371
:1032B600E0FEA3E0AA06F9900F2774FFF0A3EAF058
:1032C600A3E9F090084AE0900F2AF0900856E090A3
:1032D6000F2BF07B017A107990122234900E96749F
:1032E600FFF0A37414F0A374E0F0A37402F0A31427
:1032F600F0A37410F0A37490F0A3E4F0A37416F096
:10330600A37401F07406122E7AC203900F2474FF80
:10331600F0A37414F0A374E7F0900858E0900F2718
:10332600F090022CE0900F28F0900DCFE0900F293E
:10333600F090022FE0900F2AF07B017A107990121C
:103346002234900E9674FFF0A37414F0A374E0F088
:10335600A37402F0A314F0A37410F0A37490F0A366
:10336600E4F0A37416F0A37401F0A3741AF07BFFC3
:073376007A1479D9022E82BE
:102D0D00900E5574FFF0A37414F0A374E0F0A37447
:102D1D0002F0A314F0A3740EF0A37425F0A37401B4
:102D2D00F0740EA3F0A3E4F0A3741EF07BFF7A15EC
:022D3D00799A81
:0B2D3F00900E52EBF0A3EAF0A3E9F0C5
:102D4A0078607C0E7D017BFF7A1679757E007F8024
:102D5A00121E66E4FFFE0FBF00010EBE27F8BF1069
:102D6A00F5900F2474FFF0A37414F0A37497F090F5
:102D7A000E52E0F9A3E0FAA3E0900F27C9F0A3EA04
:102D8A00F0A3E9F0900E55E0F9A3E0FAA3E0900F62
:102D9A002AC9F0A3EAF0A3E9F07B017A0E7960125E
:102DAA0022347B017A0E79601238EB900F2474FF7B
:102DBA00F0A37414F0A374A0F0900E58E025E02458
:102DCA0033F582E43408F583E0FEA3E0AA06F9901D
:102DDA000F2774FFF0A3EAF0A3E9F07A0E796012E4
:102DEA0022347B017A0E79601238EB900F2474FF3B
:102DFA00F0A37414F0A374A6F0900E59E0F9A3E0BE
:102E0A00FAA3E0900F27C9F0A3EAF0A3E9F0900E25
:102E1A005CE0FFA3E0900F2ACFF0A3EFF0900E5EE4
:102E2A00E0FFA3E0900F2CCFF0A3EFF07A0E7960C9
:0C2E3A001222347B017A0E79600238EB22
:0F2F6F00A3F0A3E4F0A374E1F07BFF7A1479E000
:0B2F7E00900E4DEBF0A3EAF0A3E9F089
:102F8900785B7C0E7D017BFF7A1679F57E007F8068
:102F9900121E66E4FFFE0FBF00010EBE27F8BF1028
:102FA900F5900F2474FFF0A37414F0A37497F090B4
:102FB9000E4DE0F9A3E0FAA3E0900F27C9F0A3EAC8
:102FC900F0A3E9F0900E50E0F9A3E0FAA3E0900F26
:102FD9002AC9F0A3EAF0A3E9F07B017A0E795B1222
:102FE90022347B017A0E795B1238EB900F2474FF3F
:102FF900F0A37414F0A374A0F0900E53E025E0241C
:1030090033F582E43408F583E0FEA3E0AA06F990DB
:103019000F2774FFF0A3EAF0A3E9F07A0E795B12A7
:1030290022347B017A0E795B1238EB900F2474FFFE
:10303900F0A37414F0A374FDF0900E54E0F9A3E02A
:10304900FAA3E0900F27C9F0A3EAF0A3E9F0900EE4
:1030590057E0FFA3E0900F2ACFF0A3EFF0900E59AD
:10306900E0FFA3E0900F2CCFF0A3EFF07A0E795B8D
:0C3079001222347B017A0E795B0238EBE6
:0B318F00900E52EBF0A3EAF0A3E9F071
:10319A0078607C0E7D017BFF7A1779757E007F80CF
:1031AA00121E66E4FFFE0FBF00010EBE27F8BF1015
:1031BA00F5900F2474FFF0A37414F0A37497F090A1
:1031CA000E52E0F9A3E0FAA3E0900F27C9F0A3EAB0
:1031DA00F0A3E9F0900E55E0F9A3E0FAA3E0900F0E
:1031EA002AC9F0A3EAF0A3E9F07B017A0E7960120A
:1031FA0022347B017A0E79601238EB900F2474FF27
:10320A00F0A37414F0A374A0F0900E58E025E02403
:10321A0033F582E43408F583E0FEA3E0AA06F990C8
:10322A000F2774FFF0A3EAF0A3E9F07A0E7960128F
:10323A0022347B017A0E79601238EB900F2474FFE6
:10324A00F0A37415F0A3740CF0900E59E0F9A3E002
:10325A00FAA3E0900F27C9F0A3EAF0A3E9F0900ED1
:10326A005CE0FFA3E0900F2ACFF0A3EFF0900E5E90
:10327A00E0FFA3E0900F2CCFF0A3EFF07A0E796075
:0C328A001222347B017A0E79600238EBCE
:083A8D00900E4DEEF0A3EFF0E6
:103A9500784F7C0E7D017BFF7A1779F57E007F08D4
:103AA500121E66E4FFFE0FBF00010EBE27F8BF1011
:103AB500F5900F2474FFF0A37414F0A374C1F09073
:103AC5000E4DE0FFA3E0900F27CFF0A3EFF07B01B1
:103AD5007A0E794F1222347B017A0E794F0238EB38
:1034580090104BEEF0A3EFF0A3ECF0A3EDF0A3EA8D
:04346800F0A3EBF0F2
:10346C00785E7C107D017BFF7A1779FD7E007F32C0
:10347C00121E66900F2474FFF0A37415F0A3741C35
:10348C00F090104BE0FFA3E0900F27CFF0A3EFF0EC
:10349C0090104DE0FFA3E0900F29CFF0A3EFF09038
:1034AC00104FE0FFA3E0900F2BCFF0A3EFF09010A4
:1034BC0051E0FFA3E0900F2DCFF0A3EFF09010534D
:1034CC00E0FFA3E0900F2FCFF0A3EFF0901055E0AA
:1034DC00FFA3E0900F31CFF0A3EFF0901057E090E6
:1034EC000F33F0901058E0FFA3E0900F34CFF0A30F
:1034FC00EFF090105AE0FFA3E0900F36CFF0A3EF5F
:10350C00F090105CE0FFA3E0900F38CFF0A3EFF049
:10351C007B017A10795E1222347B017A10795E027B
:02352C0038EB7A
:0B3AE500900E4DEBF0A3EAF0A3E9F017
:103AF00078507C0E7D017BFF7A18792F7E007F0A3B
:103B0000121E66900F2474FFF0A37415F0A3743F87
:103B1000F0900E4DE0F9A3E0FAA3E0900F27C9F072
:103B2000A3EAF0A3E9F07B017A0E79501222347BEC
:083B3000017A0E79500238EB16
:0B3B3800900E4DEBF0A3EAF0A3E9F0C3
:103B430078507C0E7D017BFF7A1879397E007F0ADD
:103B5300121E66900F2474FFF0A37415F0A374472C
:103B6300F0900E4DE0F9A3E0FAA3E0900F27C9F01F
:103B7300A3EAF0A3E9F07B017A0E79501222347B99
:083B8300017A0E79500238EBC3
:073A2700E0FCA3E0FD7E00BE
:0E3A2E00900E4DEEF0A3EFF0A3ECF0A3EDF040
:103A3C0078517C0E7D017BFF7A1879437E007F0ADA
:103A4C00121E66900F2474FFF0A37415F0A3744E2D
:103A5C00F0900E4DE0FFA3E0900F27CFF0A3EFF016
:103A6C00900E4FE0FFA3E0900F29CFF0A3EFF07B77
:103A7C00017A0E79511222347B017A0E7951023877
:013A8C00EB4E
:10374B00900E4DEEF0A3EFF0A3ECF0A3EDF0A3EA97
:04375B00F0A3EBF0FC
:10375F0078577C0E7D017BFF7A18794D7E007F3282
:10376F00121E66900F2474FFF0A37415F0A3745803
:10377F00F0900E4DE0FFA3E0900F27CFF0A3EFF0F6
:10378F00900E4FE0FFA3E0900F29CFF0A3EFF09042
:10379F000E51E0FFA3E0900F2BCFF0A3EFF0900EB0
:1037AF0053E0FFA3E0900F2DCFF0A3EFF0900E5555
:1037BF00E0FFA3E0900F2FCFF0A3EFF07B017A0E85
:0E37CF0079571222347B017A0E79570238EBBB
:08279C00900E4DEEF0A3EFF0EA
:1027A400E4A3F0A3F0A3F0A3F0900F2474FFF0A32C
:1027B4007415F0A37471F0A374FFF0A37415F0A35F
:1027C4007474F07B017A0E7953122234900E4DE02A
:1027D4007002A3E0700490096EF0900027E0B43119
:1027E4001AA3E0B43415A3E0B43110900E9674FF2C
:1027F400F0A37415F0A3747A022963900027E0B45F
:10280400311AA3E0B43415A3E0B43210900E9674D8
:10281400FFF0A37415F0A3747C022963900027E0F1
:10282400B4311AA3E0B43415A3E0B43310900E9677
:1028340074FFF0A37415F0A3747E0229639000273B
:10284400E0B4311AA3E0B43415A3E0B43410900E0C
:102854009674FFF0A37415F0A374800229639000AA
:1028640027E0B4311AA3E0B43415A3E0B4351090D2
:102874000E9674FFF0A37415F0A37482022963907A
:102884000027E0B4311AA3E0B43415A3E0B4361041
:10289400900E9674FFF0A37415F0A3748402296358
:1028A400900027E0B4311AA3E0B43415A3E0B437A0
:1028B40010900E9674FFF0A37415F0A37486022989
:1028C40063900027E0B43119A3E0B43414A3E0B456
:1028D400380F900E9674FFF0A37415F0A3748880DB
:1028E4007E900027E0B43119A3E0B43414A3E0B41B
:1028F400390F900E9674FFF0A37415F0A3748A80B8
:102904005E900027E0B43119A3E0B43414A3E0B41A
:10291400300F900E9674FFF0A37415F0A3748C809E
:102924003E900027E0B43119A3E0B43514A3E0B419
:10293400300F900E9674FFF0A37415F0A3748E807C
:102944001E900027E0B43129A3E0B43524A3E0B4F9
:10295400311F900E9674FFF0A37415F0A37490F0D9
:102964007B017A09796E123955900E4FE4F0A30475
:10297400F0900E4FE07002A3E0604DE4900E53F02F
:10298400900E51F0A3F0900E4DE0FEA3E0FFD39023
:102994000E52E09FEE6480F8900E51E064809850EF
:1029A40027900E9674FFF0A37415F0A3748EF07B39
:1029B400017A0E7953123955900E52E004F070C624
:1029C400900E51E004F080BE900E9674FFF0A37454
:1029D40014F0A374E0F0A37402F0A314F0A3740E33
:1029E400F0A37453F0A37401F0A37427F0A3E4F0EC
:0E29F400A37469122E7B900E4FE0FEA3E0FF4D
:012A020022B1
:0B3085009010D0EFF0A3EDF0A3EBF0F3
:10309000900F2474FFF0A37414F0A374C7F0901081
:1030A000D5E025E024B5F582E4340DF583E0FEA3F8
:1030B000E0AA06F9900F2774FFF0A3EAF0A3E9F065
:1030C0009010D4E0900F2AF09010D6E0900F2BF0E3
:1030D0009010D7E0FBA3E0FAA3E0F9122234900E9F
:1030E0009674FFF0A37414F0A374E0F0A37402F0DC
:1030F0009010D7E0F9A3E0FAA3E0900E9AC9F0A3EC
:10310000EAF0A3E9F0A3E4F0A37437F0A3E4F0A39A
:1031100074BE122E7B900F2474FFF0A37414F0A3DE
:1031200074E7F09010D2E0900F27F09010D1E0906B
:103130000F28F09010D0E0900F29F09010D3E0907D
:103140000F2AF09010D7E0FBA3E0FAA3E0F91222D7
:1031500034900E9674FFF0A37414F0A374E0F0A3FF
:103160007402F09010D7E0F9A3E0FAA3E0900E9A71
:10317000C9F0A3EAF0A3E9F0A3E4F0A37437F0A345
:0F318000E4F0A374F0F07BFF7A1479D9022E8269
:100D0700900E50E4F0A37404F0122A03900DCFE084
:100D1700900860F090022CE090096DF0900858E080
:100D2700900013F090022FE0900B8FF090084AE0AC
:100D3700900DA7F090084DE0900DD0F0900856E088
:100D4700900012F0E4900963F090096204F09009B2
:100D570063E06003021366900E5574FFF0A37414EA
:100D6700F0A374E0F0A37402F0900962E025E02498
:100D770093F582E4340DF583E0FEA3E0AA06F9902B
:100D87000E5974FFF0A3EAF0A3E9F0A37401F0A3EE
:100D97007472F0A3E4F0A374B4F07BFF7A1479D9EA
:100DA70012318F900962E0C39404900F2474FF50AE
:100DB7002AF0A37414F0A374E7F0900013E0900FE7
:100DC70027F090096DE0900F28F0900860E0900FF1
:100DD70029F0900B8FE0900F2A803AF0A37414F05B
:100DE700A374C7F0900DD0E025E024B5F582E43474
:100DF7000DF583E0FEA3E0AA06F9900F2774FFF034
:100E0700A3EAF0A3E9F0900DA7E0900F2AF0900075
:100E170012E0900F2BF0900E4DE0FBA3E0FAA3E059
:100E2700F9122234122E46300FFD900962E0704C01
:100E3700900027E0FFB4311FA3E0B4351AA3E0B454
:100E47003815900860E0B43B05E4F0020F6D900898
:100E570060E004F0020F6DEFB4311E900028E0B49B
:100E67003517A3E0B43712900860E07006743BF0C2
:100E7700020F6D900860E014F0020F6D900962E0B8
:100E870064017049900027E0FFB4311DA3E0B43539
:100E970018A3E0B4381390096DE0B43B04E4F08084
:100EA7002990096DE004F08021EFB4311D900028EE
:100EB700E0B43516A3E0B4371190096DE0700574FE
:100EC7003BF0800690096DE014F0020F6D90096207
:100ED700E06402704A900027E0FFB4311EA3E0B43B
:100EE7003519A3E0B43814900013E0B40C0574016D
:100EF700F0802A900013E004F08022EFB4311E90B6
:100F07000028E0B43517A3E0B43712900013E0B41B
:100F17000105740CF08006900013E014F0804790F0
:100F27000962E06403706F900027E0FFB43115A3F6
:100F3700E0B43510A3E0B4380B900B8FE0B4500247
:100F47008019801CEFB4311E900028E0B43517A338
:100F5700E0B43712900B8FE0B450057441F080066F
:100F6700900B8F7450F0900F2474FFF0A37414F05B
:100F7700A374E7F0900013E0900F27F090096DE05D
:100F8700900F28F0900860E0900F29F0900B8FE009
:100F9700900F2A02114E900962E064046003021068
:100FA70040900027E0FFB43120A3E0B4351BA3E055
:100FB700B43816900DA7E0B41F067401F002116053
:100FC700900DA7E004F0021160EF64316003021195
:100FD70060900028E064356003021160A3E0643785
:100FE7006003021160900DA7E0B40105741FF08043
:100FF70006900DA7E014F0900F2474FFF0A374146B
:10100700F0A374C7F0900DD0E025E024B5F582E495
:10101700340DF583E0FEA3E0AA06F9900F2774FFCD
:10102700F0A3EAF0A3E9F0900DA7E0900F2AF09063
:101037000012E0900F2B02114E900962E0640560E8
:10104700030210D4900027E0FFB4311EA3E0B435AB
:1010570019A3E0B43814900DD0E0B40C057401F076
:10106700802A900DD0E004F08022EFB4311E90006A
:1010770028E0B43517A3E0B43712900DD0E0B401DF
:1010870005740CF08006900DD0E014F0900F2474D6
:10109700FFF0A37414F0A374C7F0900DD0E025E01F
:1010A70024B5F582E4340DF583E0FEA3E0AA06F942
:1010B700900F2774FFF0A3EAF0A3E9F0900DA7E0E3
:1010C700900F2AF0900012E0900F2B807A9009621F
:1010D700E064066003021160900027E0FFB431125C
:1010E700A3E0B4350DA3E0B43808900012E004F093
:1010F7008016EFB43112900028E0B4350BA3E0B4AA
:101107003706900012E014F0900F2474FFF0A374D8
:1011170014F0A374C7F0900DD0E025E024B5F58254
:10112700E4340DF583E0FEA3E0AA06F9900F2774D7
:10113700FFF0A3EAF0A3E9F0900DA7E0900F2AF0E3
:10114700900012E0900F2BF0900E4DE0FBA3E0FA19
:10115700A3E0F9122234122E46900027E0FFB431A3
:101167001BA3E0B43516A3E0B43411900962E07014
:10117700057406F08006900962E014F0EFB4311DA3
:10118700900028E0B43516A3E0B43511900962E069
:10119700B40604E4F08006900962E004F0900027AA
:1011A700E064317055A3E06435704FA3E064367096
:1011B70049900860E0900DCFF090096DE090022C07
:1011C700F0900013E0900858F0900B8FE090022FFA
:1011D700F0900DA7E090084AF0900DD0E090084DF0
:1011E700F0900012E0900856F09009637401F01235
:1011F7003869900E50E4F0A304F0900027E0FFB4A4
:101207003118A3E0B43313A3E0B4310E900E50E4C9
:10121700F0A37402F090096314F0EFB43118900052
:1012270028E0B43211A3E0B4380C900E50E4F0A3D8
:1012370004F0900963F0900027E0B43119A3E0B4FB
:101247003314A3E0B4320F900E50E4F0A37403F00C
:101257009009637401F0900F2474FFF0A37414F0E5
:10126700A374E7F0900858E0900F27F090022CE065
:10127700900F28F0900DCFE0900F29F090022FE00B
:10128700900F2AF0900E4DE0FBA3E0FAA3E0F912CD
:101297002234900E5574FFF0A37414F0A374E0F099
:1012A700A37402F0900E4DE0F9A3E0FAA3E0900ECC
:1012B70059C9F0A3EAF0A3E9F0A3E4F0A37437F067
:1012C700A3E4F0A374BEF07BFF7A1479D9122D3F03
:1012D700900F2474FFF0A37414F0A374C7F0900860
:1012E7004DE025E024B5F582E4340DF583E0FEA357
:1012F700E0AA06F9900F2774FFF0A3EAF0A3E9F03C
:1013070090084AE0900F2AF0900856E0900F2BF0D3
:10131700900E4DE0FBA3E0FAA3E0F9122234900E01
:101327005574FFF0A37414F0A374E0F0A37402F0F3
:10133700900E4DE0F9A3E0FAA3E0900E59C9F0A38F
:10134700EAF0A3E9F0A3E4F0A37437F0A3E4F0A371
:1013570074F0F07BFF7A1479D9122D3F020D559066
:071367000E50E0FEA3E0FFC1
:01136E00225C
:10007600E4900DD7F0A3F0A3F0A3F0A3F0A3F0A3B0
:10008600F0A3F0A3F0A304F0E4900E21F0A3F0A3F4
:10009600F0A3F078257C0E7D017BFF7A18797FFE30
:1000A6007F0A121E66123D70123D04123BD4123DA9
:1000B60063123C141235EA123CA9D205E4900DA94C
:1000C600F0A3F0900DAEF0A3F0D20C900F2474FFC5
:1000D600F0A37415F0A37492F07B017A0D79E11206
:1000E60022347B017A0D79E11238EB7F047E00120F
:1000F6003A8D3006FD900228E0FEA3E0FFEE600395
:10010600020984EF24FE700302021714700302052D
:10011600481470030204D1146003020984900DDFB1
:10012600E07002A3E070030201CCE4900DDFF0A3BF
:10013600F0900F2474FFF0A37415F0A37495F07B70
:10014600017A0E7925122234122D0D900F2474FF98
:10015600F0A37415F0A374A1F07B017A0E79251231
:100166002234900E5574FFF0A37414F0A374E0F0DB
:10017600A37402F0A314F0A3740EF0A37425F0A3E5
:100186007401F0748A122D30900F2474FFF0A3745A
:1001960015F0A374A9F07B017A0E7925122234900A
:1001A6000E5574FFF0A37414F0A374E0F0A3740268
:1001B600F0A314F0A3740EF0A37425F0A37402F058
:1001C600A37408122D31900027E0FFB4310DA3E08F
:1001D600B43308A3E0B431030204FAEFB4310F904C
:1001E6000028E0B43208A3E0B438030205159000F5
:1001F60027E0643160030200FBA3E064336003027E
:1002060000FBA3E0643260030200FB9002280205B3
:1002160034900DDFE07002A3E0700302031AE4904D
:100226000DDFF0A3F07F01FE123A8DE490096EF027
:10023600900E53F0A37481F0A3E4F0A304F07B8640
:10024600FA7D617C007FF47E0012374B900E557468
:10025600FFF0A37415F0A3749AF0A37404F0A374CA
:10026600FFF0A37415F0A374B0F0E4A3F0A3F0A319
:10027600F0A3741EF07BFF7A1479E0122D3F900FE5
:100286002474FFF0A37415F0A37495F07B017A0E25
:100296007925122234122D0D900F2474FFF0A374C9
:1002A60015F0A374A1F07B017A0E79251222349001
:1002B6000E5574FFF0A37414F0A374E0F0A3740257
:1002C600F0A314F0A3740EF0A37425F0A37401F048
:1002D600A3748A122D31900F2474FFF0A37415F0C5
:1002E600A374A9F07B017A0E7925122234900E555B
:1002F60074FFF0A37414F0A374E0F0A37402F0A3E7
:1003060014F0A3740EF0A37425F0A37402F0A37482
:1003160008122D31900027E0FFB4310CA3E0B4336E
:1003260007A3E0B43102805BEFB4310F900028E000
:10033600B43208A3E0B43803020515900027E0B4F0
:100346003111A3E0B4330CA3E0B43207900228E4E1
:10035600020534E4900DA3F0A3F0C3900DA4E0943D
:1003660004900DA3E06480948040030200FB300FEC
:10037600FD900027E0FFB43111A3E0B4330CA3E0F5
:10038600B43107900228E4020454EFB4310F900010
:1003960028E0B43208A3E0B438030205159000271C
:1003A600E0B43111A3E0B4330CA3E0B432079002F9
:1003B60028E4020534900027E06431600302045B00
:1003C600A3E06435600302045BA3E06433600302C8
:1003D600045B786E7C097D0190085CE0FBA3E0FA83
:1003E600A3E0F9122117EF700A900228F0A3740413
:1003F600020CA9900F2474FFF0A37415F0A3747176
:10040600F0A374FFF0A37415F0A374BCF07B017A1B
:100416000D79E1122234900E9674FFF0A37414F055
:10042600A374E0F0A37402F0A314F0A3740DF0A378
:1004360074E1F0A37401F0A37418F0A3E4F0A374BC
:1004460069122E7BE4900DA3F0A3F0900228F0A38E
:100456007402020CCC900027E064317038A3E0648B
:08046600357032A3E0B4322D21
:10046E007B017A09796E120026900E2FEEF0A3EF23
:10047E00F0D39400EE9400403E900E2FE0FEA3E0E9
:0B048E00246DF58274093EF583E4F054
:10049900802A900DA3E0FEA3E0FFC39404EE6480DC
:1004A9009480400302036012279CEF4E600E900D6A
:1004B900A4E004F07006900DA3E004F0900228E493
:1004C900F0A37402F0020360900DDFE07002A3E074
:1004D900600DE4900DDFF0A3F07F05FE123A8D90D8
:1004E9000027E0FFB43115A3E0B43310A3E0B43121
:1004F9000B900228E4F0A37402020CA9EFB43116A0
:10050900900028E0B4320FA3E0B4380A900228E43E
:10051900F0A304020CA9900027E0B43115A3E0B4BC
:100529003310A3E0B4320B900228E4F0A374030261
:100539000CA9120D07900228EEF0A3EF020CA99066
:0C0549000DDFE07002A3E0700302075D0C
:10055500E4900DDFF0A3F07F02FE123A8D900E5568
:1005650074FFF0A37415F0A3749AF0A37404F0A3B8
:1005750074FFF0A37415F0A374A9F0E4A3F0A3F03D
:10058500A3F0A3741EF07BFF7A1479E0122D3F903F
:100595000E5574FFF0A37415F0A3749AF0A37403B9
:1005A500F0A374FFF0A37415F0A374C2F0A3E4F0F4
:1005B500A37487F0A3E4F0A374E1F07BFF7A1479C8
:1005C500E0122D3F900F2474FFF0A37415F0A3746F
:1005D500CFF0900E21E0FFA3E0900F27CFF0A3EF1F
:1005E500F07B017A0E792F122234900E5574FFF0AC
:1005F500A37415F0A3749AF0A37403F0A37401F027
:10060500A3740EF0A3742FF0A37401F0A3741DF06E
:10061500A3E4F0A374E1F07BFF7A1479E0122D3F97
:10062500900E5574FFF0A37415F0A3749AF0A3749B
:1006350003F0A374FFF0A37415F0A374D2F0A374B0
:1006450001F0A37468F0A3E4F0A374E1F07BFF7AF2
:100655001479E0122D3F900F2474FFF0A37415F068
:10066500A374CFF0900E23E0FFA3E0900F27CFF007
:10067500A3EFF07B017A0E792F122234900E557478
:10068500FFF0A37415F0A3749AF0A37403F0A37498
:1006950001F0A3740EF0A3742FF0A37401F0A374FA
:1006A500C7F0A3E4F0A374E1F07BFF7A1479E012BC
:1006B5002D3F900E217FC8123A27900E237FC91235
:1006C5003A27900F2474FFF0A37415F0A37495F0E6
:1006D5007B017A0E7925122234122D0D900F247488
:1006E500FFF0A37415F0A374A1F07B017A0E7925B0
:1006F500122234900E5574FFF0A37414F0A374E025
:10070500F0A37402F0A314F0A3740EF0A37425F003
:10071500A37401F0A3748A122D31900F2474FFF095
:10072500A37415F0A374A9F07B017A0E7925122222
:1007350034900E5574FFF0A37414F0A374E0F0A385
:100745007402F0A314F0A3740EF0A37425F0A3743F
:0807550002F0A37408122D311B
:10075D00900027E0FFB43114A3E0B4330FA3E0B44D
:10076D00310A900228E4F0A374028017EFB4311E11
:10077D00900028E0B43217A3E0B43812900228E4B8
:10078D00F0A304F0900DDFE4F0A304F080219000BD
:10079D0027E0B4311AA3E0B43315A3E0B4321090BE
:1007AD000228E4F0A37403F0E4900DDFF0A3F02031
:1007BD0013030200FB900027E0643260030208A2DD
:1007CD00A3E0643060030208A2A3E064306003027A
:0207DD0008A270
:1007DF00900E2FF0A3F078317C0E7D017BFF7A18FD
:1007EF007989FE7F04121E66E4900E2FF0A3F0901D
:1007FF000E2FE0FEA3E0FFC39403EE6480948050BD
:10080F0049742B2FF58274003EF583E0FF640D6071
:10081F0014900E2FE0FCA3E02431F582740E3CF50A
:10082F0083EFF08015900E2FE0FEA3E02431F582C8
:10083F00740E3EF583740DF08010900E30E004F0CE
:10084F0070AD900E2FE004F080A5E4900E34F07B95
:10085F00017A0E793112337D900E21EEF0A3EFF075
:10086F00900E5074FFF0A37415F0A3749AF0A37454
:10087F0003F0A37401F0A3740EF0A37431F0A3740A
:10088F0001F0741D122F6F7B017A0E7931123AE548
:10089F0002097F900027E06432600302097FA3E022
:1008AF006430600302097FA3E06431600302097FB3
:1008BF00900E2FF0A3F078317C0E7D017BFF7A181C
:1008CF00798DFE7F04121E66E4900E2FF0A3F09038
:1008DF000E2FE0FEA3E0FFC39403EE6480948050DC
:1008EF0049742B2FF58274003EF583E0FF640D6091
:1008FF0014900E2FE0FCA3E02431F582740E3CF52A
:10090F0083EFF08015900E2FE0FEA3E02431F582E7
:10091F00740E3EF583740DF08010900E30E004F0ED
:10092F0070AD900E2FE004F080A5E4900E34F07BB4
:10093F00017A0E793112337D900E23EEF0A3EFF092
:10094F00900E5074FFF0A37415F0A3749AF0A37473
:10095F0003F0A37401F0A3740EF0A37431F0A37429
:10096F0001F074C7122F6F7B017A0E7931123B3869
:10097F00C2130200FB7F36123C8890022BEFF090DF
:10098F000DDFE07002A3E07003020BBEE4900DDFF9
:10099F00F0A3F0C3900D92E09488900D91E06480E5
:1009AF009493500EA3E004F070E9900D91E004F0E1
:1009BF0080E1900F2474FFF0A37415F0A374DBF0A3
:1009CF0090022BE0900F27F07B017A0D79E1122234
:1009DF00347F037E00123A8D900E5574FFF0A3748E
:1009EF0015F0A3749AF0A37404F0A374FFF0A3742A
:1009FF0015F0A374E2F0E4A3F0A3F0A3F0A3741E28
:100A0F00F07BFF7A1479E0122D3F900E5574FFF0B2
:100A1F00A37415F0A3749AF0A37406F0A37401F0F5
:100A2F00A3740DF0A374E1F0A3E4F0A374F0F0A3AA
:100A3F00E4F0A3746EF07BFF7A1479E0122D3F90EF
:100A4F000F2474FFF0A37415F0A37495F07B017A53
:100A5F000E7925122234122D0D900F2474FFF0A35E
:100A6F007415F0A374A1F07B017A0E79251222344C
:100A7F00900E5574FFF0A37414F0A374E0F0A374F8
:100A8F0002F0A314F0A3740EF0A37425F0A3740165
:100A9F00F0A3748A122D31900F2474FFF0A37415F4
:100AAF00F0A374A9F07B017A0E7925122234900EEF
:100ABF005574FFF0A37414F0A374E0F0A37402F064
:100ACF00A314F0A3740EF0A37425F0A37402F0A383
:100ADF007408122D31900F2474FFF0A37414F0A337
:100AEF0074E7F0900858E0900F27F090022CE090F8
:100AFF000F28F0900DCFE0900F29F090022FE0908B
:100B0F000F2AF07B017A0D79E1122234900E967440
:100B1F00FFF0A37414F0A374E0F0A37402F0A31415
:100B2F00F0A3740DF0A374E1F0A3E4F0A374E6F066
:100B3F00A3E4F0A374B4122E7B900F2474FFF0A3E0
:100B4F007414F0A374C7F090084DE025E024B5F5B8
:100B5F0082E4340DF583E0FEA3E0AA06F9900F2797
:100B6F0074FFF0A3EAF0A3E9F090084AE0900F2A8F
:100B7F00F0900856E0900F2BF07B017A0D79E1127F
:100B8F002234900E9674FFF0A37414F0A374E0F067
:100B9F00A37402F0A314F0A3740DF0A374E1F0A3F7
:100BAF00E4F0A374E6F0A3E4F0A374E6122E7B2026
:100BBF000F1390022BE0FF900DDBE07003A3E06FAB
:100BCF0070030200FB90022BE0FFFD900DDBE4F0C1
:100BDF00A3EDF0900027E064317022A3E06432703F
:100BEF001CA3E064397016900DDDF0A304F0900F94
:100BFF002474FFF0A37415F0A374DB803E900027DC
:100C0F00E06431707BA3E064337075A3E0643070EF
:100C1F006F900DDDF0A3F090022BE075F009A4FFAB
:100C2F00AEF07C007D05121EB7EF2420FFF0900F71
:100C3F002474FFF0A37415F0A374EEF0A3EFF07B10
:100C4F00017A0D79E1122234900E5574FFF0A374DE
:100C5F0015F0A3749AF0A37406F0A37401F0A374B3
:100C6F000DF0A374E1F0A3E4F0A374F0F0A3E4F0AB
:100C7F00A3746EF07BFF7A1479E0122D3F0200FB14
:100C8F00900027E0FFB4311EA3E0B43319A3E0B402
:100C9F003114900228E4F0A37402F0900DDFE4F019
:100CAF00A304F00200FBEFB4311E900028E0B43231
:100CBF0017A3E0B43812900228E4F0A304F0E490F4
:100CCF000DDFF0A3F00200FB900027E0643160031A
:100CDF000200FBA3E0643360030200FBA3E0643275
:100CEF0060030200FB900228F0A37403F0900DDF65
:080CFF00E4F0A304F00200FB85
:030000000237DDE7
:0C37DD00787FE4F6D8FD758123023824C3
:101D9600E709F608DFFA8046E709F208DFFA803E2F
:101DA60088828C83E709F0A3DFFA8032E309F6081C
:101DB600DFFA8078E309F208DFFA807088828C8384
:101DC600E309F0A3DFFA806489828A83E0A3F60838
:101DD600DFFA805889828A83E0A3F208DFFA804C12
:101DE60080D280FA80C680D4806980F280338010E9
:101DF60080A680EA809A80A880DA80E280CA803352
:101E060089828A83ECFAE493A3C8C582C8CCC583C9
:101E1600CCF0A3C8C582C8CCC583CCDFE9DEE78099
:101E26000D89828A83E493A3F608DFF9ECFAA9F018
:101E3600EDFB2289828A83ECFAE0A3C8C582C8CC6E
:101E4600C583CCF0A3C8C582C8CCC583CCDFEADE87
:101E5600E880DB89828A83E493A3F208DFF980CCE9
:101E660088F0EF60010E4E60C388F0ED2402B404E2
:101E76000050B9F582EB2402B4040050AF23234589
:061E86008223901DE673AB
:101E8C00BB010689828A83E0225002E722BBFE0254
:091E9C00E32289828A83E4932287
:101EA500EF8DF0A4A8F0CF8CF0A428CE8DF0A42E51
:021EB500FE220B
:101EB700BC000BBE0029EF8DF084FFADF022E4CC0F
:101EC700F875F008EF2FFFEE33FEEC33FCEE9DECD8
:101ED700984005FCEE9DFE0FD5F0E9E4CEFD22ED1E
:101EE700F8F5F0EE8420D21CFEADF075F008EF2F68
:101EF700FFED33FD4007985006D5F0F222C398FD59
:051F07000FD5F0EA22F5
:101F0C00A3F8E0C5F025F0F0E58215827002158388
:061F1C00E0C838F0E822E5
:101F2200EB9FF5F0EA9E42F0E99D42F0E89C45F015
:011F3200228C
:101F33007401FF3395E0FEFDFCA3A3A3E0CF2FF0D4
:101F4300E582158270021583E0CE3EF0E5821582AC
:101F530070021583E0CD3DF0E58215827002158392
:051F6300E0CC3CF0227F
:101F6800A8828583F0D083D082121F7F121F7F1230
:101F78001F7F121F7FE473E493A3C583C5F0C58355
:101F8800C8C582C8F0A3C583C5F0C583C8C582C8C3
:011F98002226
:1021CF00E5082424F582E4340FF583E00508229016
:1021DF000F21301D03900F24E475F00112218902A5
:1021EF001E8C2016E97F2ED2168018EF540F2490E4
:1021FF00D43440D4FF301A0BEF24BFB41A0050036D
:10220F002461FFE50960021509050CE50C70020554
:10221F000B301D0E900F21E475F001122189EF0292
:10222F002161023C3B7403D21D8003E4C21DF508FB
:10223F00900F211221A0E4F509F50BF50CE50960CB
:10224F00077F2012221280F5750AFFC217C216C22D
:10225F0018C219C21BC21CC21E1221DEFF700D3024
:10226F001D057F00122223AF0CAE0B22B4255FC2D7
:10227F00D5C21A1221DEFF24D0B40A00501A75F00D
:10228F000A780930D50508B6FF0106C6A426F62040
:10229F00D5047002D21980D924CFB41A00EF50049C
:1022AF00C2E5D21A022424D21780C6D21680C0D219
:1022BF001880BCD2D580BAD21B80B47F20122212D4
:1022CF002018077401B5090040F11221CFFF122227
:1022DF001202224CD21ED21C80951221CFFB12214A
:1022EF00CFFA1221CFF94A4B700679F57A247BFF8A
:1022FF0020182EE509602A7E008E82758300122138
:10230F003460060EEE650A70F0C2D5EBC0E0EAC08D
:10231F00E0E9C0E0EE12246BD0E0F9D0E0FAD0E0B3
:10232F00FB121E8CFF60AAEBC0E0EAC0E0E9C0E040
:10233F00122212D0E02401F9D0E03400FAD0E0FBF1
:10234F00E50A0460DCD50AD980877BFF7A24796798
:10235F00D218809C791080027908C21CC21E800896
:10236F00D2D5790A8004790AC2D5E50A047002F53C
:10237F000AE4FAFDFEFF1221CFFC7B08201713128F
:10238F0021CFFD7B1030160A1221CFFE1221CFFF75
:10239F007B20EC3382D592D55013C3E43016069FC1
:1023AF00FFE49EFEE42017039DFDE49CFCE4CBF8C4
:1023BF00C217EC700CCFCECDCCE824F8F870F380B8
:1023CF0017C3EF33FFEE33FEED33FDEC33FCEB338E
:1023DF00FB994002FB0FD8E9EB301705F8D0E0C4AA
:1023EF0048B217C0E00AEC4D4E4F78207B0070C208
:1023FF00EAB50A0040BCC0E012246DD0F0D0E02056
:10240F001704C4C0E0C4B217C0F01221FBD0F0D53E
:10241F00F0EB02224C1221A922E95323635822BA6E
:10242F004C22B64223674F236F44236F4922CF4379
:08243F0023755523594623596A
:102447004523594725155022BE2D22C22E22E52BA2
:1024570022C62322E32024FE2A227E48000022DD12
:102467003F3F3F00790AA2D5201914301B09B91044
:10247700020404B9080104A2D5201C02500104205B
:1024870018689218B509005034C0E07F2030191938
:102497007F30A218721C721B500F1224C4C218C2BC
:1024A7001CC21BC21E7F30800F301B03E9C0E01225
:1024B7002212301B03D0E0F9D0E0B509CC301B174E
:1024C7007F30B9100C1222127F58301A077F78809C
:1024D70003B908031222123018057F2D0222127F3A
:1024E70020201EF87F2B201CF322921880CF286E05
:1024F700756C6C2900D2171221CF3017F8C21778E4
:102507000930D50108F602227E2D50434958122181
:10251700CF2403B405004001E49025109312220351
:0D252700743A122203D219750904022363CD
:10395500900E93EBF0A3EAF0A3E9F0900E99EBF04B
:10396500A3EAF0A3E9F0900E93E0FBA3E475F00160
:10397500121F0CA9F0FA121E8C70EB900E9474FFB6
:10398500F5F0122173900E96E0FBA3E475F0011299
:103995001F0CA9F0FA121E8CFF900E93E0FBA3E416
:1039A50075F001121F0CA9F0FAEF12216170D69083
:0B39B5000E99E0FBA3E0FAA3E0F9226A
:101F9900E3F5F009E208B5F06D606B80F3E3F5F065
:101FA90009E608B5F060605E80F387F009E608B5D8
:101FB900F054605280F487F009E208B5F0486046B1
:101FC90080F488828C8387F009E0A3B5F038603605
:101FD90080F488828C8387F009E493A3B5F02760A5
:101FE9002580F388828C83E3F5F009E0A3B5F01628
:101FF900601480F388828C83E3F5F009E493A3B538
:10200900F004600280F20220C4808580E7808E801F
:10201900D2803C8015806C807E809B80B5808B80CF
:10202900A1804F8070803A0220D089828A83ECFA9D
:10203900E493F5F0A3C8C582C8CCC583CCE493A3C7
:10204900C8C582C8CCC583CCB5F070606E80E18903
:10205900828A83E493F5F0A3E208B5F05E605C80C0
:10206900F289828A83E0F5F0A3E608B5F04D604B6A
:1020790080F389828A83E0F5F0A3E208B5F03C6039
:102089003A80F389828A83E493F5F0A3E608B5F0F0
:102099002A602880F2805389828A83ECFAE493F5D6
:1020A900F0A3C8C582C8CCC583CCE0A3C8C582C883
:1020B900CCC583CCB5F004600280E27FFFB5F002A5
:1020C9000F2240027F012289828A83ECFAE0F5F02F
:1020D900A3C8C582C8CCC583CCE0A3C8C582C8CC77
:1020E900C583CCB5F0D560D380E389828A83ECFAC5
:1020F900E0F5F0A3C8C582C8CCC583CCE493A3C8D6
:10210900C582C8CCC583CCB5F0B160AF80E288F098
:10211900ED2402B4040050A3F582EB2402B40400B8
:0B21290050992323458223902012735D
:10002600E4FFFE121E8C600C0FEF70010E09E970E2
:05003600F20A80EF2238
:10337D00900E4DEBF0A3EAF0A3E9F0900E4DE0FBBB
:10338D00A3E0FAA3E0F9121E8CFF123CDD500C9065
:10339D000E4EE475F00112217380E0D216900E4DA1
:1033AD00E0FBA3E0FAA3E0F9121E8CFF642B60048E
:1033BD00EFB42D1D900E4DE0FBA3E475F001121F2F
:1033CD000CA9F0FA121E8C642D6003D38001C392F8
:1033DD0016E4900E50F0A3F0900E4DE0FBA3E0FA32
:1033ED00A3E0F9121E8CFF123D545042900E4DE099
:1033FD00FBA3E0FAA3E0F9121E8CFF3395E0FEEF7C
:10340D0024D0FBEE34FFFA900E50E0FEA3E0FF7CDB
:10341D00007D0A121EA5EF2BFFEE3A900E50F0A381
:10342D00EFF0900E4EE475F00112217380AA301664
:10343D000A900E50E0FEA3E0FF800F900E50E0FECC
:0B344D00A3E0FFC3E49FFFE49EFE220B
:1037E900020076E493A3F8E493A34003F68001F280
:1037F90008DFF48029E493A3F85407240CC8C333E1
:10380900C4540F4420C8834004F456800146F6DFAF
:10381900E4800B010204081020408090352EE47EDC
:10382900019360BCA3FF543F30E509541FFEE493A4
:10383900A360010ECF54C025E060A840B8E493A36B
:10384900FAE493A3F8E493A3C8C582C8CAC583CA96
:10385900F0A3C8C582C8CAC583CADFE9DEE780BE4E
:0135E90000E1
:10213400BB010CE58229F582E5833AF583E0225060
:1021440006E92582F8E622BBFE06E92582F8E222AA
:0D215400E58229F582E5833AF583E49322C4
:10216100BB010689828A83F0225002F722BBFE015D
:02217100F32257
:10217300C5F0F8A3E028F0C5F0F8E58215827002F7
:062183001583E038F02294
:10218900F8E0FBA3A3E0F925F0F0E58215827002DF
:072199001583E0FA38F02283
:0921A000EBF0A3EAF0A3E9F02240
:1021A900D083D082F8E4937012740193700DA3A3C5
:1021B90093F8740193F5828883E4737402936860D9
:0621C900EFA3A3A380DFD9
:103C3B00EFB40A07740D123C46740A309811A89918
:103C4B00B8130CC2983098FDA899C298B811F630E9
:073C5B0099FDC299F59922C1
:0F3D5400EFC394304007EF943A50028001C3222E
:103CDD00EFC394094005EF940E4004EFB42003D3D5
:043CED008001C3226D
:00000001FF
