:1017B8003134353700534554205345434F4E445335
:1017C80000534554204D494E5554455300534554F4
:1017D80020484F5552530053455420414D2F504DEA
:1017E80000534554204441544500534554204D4F1F
:1017F8004E5448005345542059454152006D3130EC
:1018080042006D313242006D313442006D31364252
:10181800006D323042006D323442006D3332420086
:101828006D3438006D3634004E4F4E0053554E001F
:101838004D4F4E00545545005745440054485500F7
:1018480046524900534154004A414E004645420021
:101858004D415200415052004D4159004A554E00E9
:101868004A554C0041554700534550004F435400DA
:101878004E4F560044454300534554204441544577
:1018880020414E442054494D45202020202020004E
:1018980057524954494E4720444154412E2E2E2038
:1018A8005741495421202000444154412053554375
:1018B8004345535346554C4C5920534156454400D3
:1018C8004552524F52202020202020202020202026
:1018D8002020202020202000532025732025730D50
:1018E80000662025730D007420222573222025759B
:1018F8002025750D0078692025752025752025750A
:101908000D006D2025750D00257320253032627578
:101918002C20323025303262750030304646303067
:101928000030303030303000253262753A253032A0
:1019380062753A25303262752025634D2000257383
:101948000020202020004646464646460031003208
:1019580000330034003500360037003800390030D5
:10196800002A0023007A0D002564006366672100C1
:101978007376632100252D3362754300252D33626C
:101988007546000000000000000000000000000094
:10199800000000000000000000000000000000003F
:1019A800000000000000000000000000000000002F
:1019B800000000000000000000000000000000001F
:1019C800000000000000000000000000000000000F
:1019D80000000000000000000000000000000000FF
:1019E80000000000000000000000000000000000EF
:1019F80000000000000000000000000000000000DF
:101A080000000000000000000000000000000000CE
:101A180000000000000000000000000000000000BE
:101A280000000000000000000000000000000000AE
:101A3800000000000000000000000000000000009E
:101A4800000000000000000000000000000000008E
:101A5800000000000000000000000000000000007E
:101A6800000000000000000000000000000000006E
:101A7800000000000000000000000000000000005E
:0B1A8800000000000000000000000053
:10275E00420DA1000041096E0043085CFF17B84E00
:10276E000D9117BD17C917D517DF17E917F217FC0B
:10277E00C106C104C107C10FC10A5208331805189A
:10278E000A180F18141819181E18231828182CC1F7
:10279E0002410014004102310041085B0050001656
:1027AE00183018341838183C184018441848184C6B
:1027BE005A0DB31830185018541858185C18601861
:1027CE00641868186C187018741878187C480964A6
:1027DE001880189818B018C842000400004200066D
:1027EE000000420008000041000B0041000C0041B7
:1027FE00000D0041000E0041000F0041001000428C
:04280E00022800019B
:102CC500AF84E4900E21F0A3F075840F758A838F8D
:012CD500847A
:012CD60022DB
:102BA900AF8475840F75E12F75E20175E3C475A4CF
:102BB9000175A50175A7CA759C0F759D04E4F59E5D
:102BC900759F807580FF7590FF75A0FF75B0FF75C3
:0F2BD900C8FF75D8FF75E8FF75F8FFC2FF8F843E
:012BE80022CA
:0D2D150075A89243E70143E74043E60A2218
:102BE900AF84E4F584F5C875C90875CAF375CBFFD8
:102BF90085CBCD85CACC75C804F584759850759177
:062C09000575A8908F8400
:012C0F0022A2
:072D220075FFDE75FFAD2215
:03002300021D2794
:0D1D2700C0E0C0F0C083C082C0D075D010F5
:101D3400900DD0E584F0E4FBFAA31211EC0000004E
:101D440000758400209803021EA3C298900011E538
:101D540099F0900DA3E0FEA3E0FFC3EE94024003CC
:101D6400021E62900011E0FD640D601D74332FF5B6
:101D74008274023EF583EDF0900DA4E004F0700649
:101D8400900DA3E004F0021EA3900233E0FF647BF5
:101D94007026A3E06463701AA3E0B46D15A3E0B4E5
:101DA4007010A3E0B4650BA3E0B47D06D206D204A0
:101DB4008079C206C2048073EF6478702EFAFBD374
:101DC400900DA4E09B900DA3E09A405574332BF53D
:101DD4008274023AF583E0FF74262BF58274003A8C
:101DE400F583EFF00BBB00010A80D4900233E0646A
:101DF400287034FAFBD3900DA4E09B900DA3E09AD5
:101E0400401F74332BF58274023AF583E0FF742685
:101E14002BF58274003AF583EFF00BBB00010A80C6
:101E2400D4C207D20F8004D207C20F7A007B00D33A
:101E3400900DA4E09B900DA3E09A401374332BF50E
:101E44008274023AF583E4F00BBB00010A80E0904F
:101E54000DA9E4F0A3F0900DA3F0A3F08041900D40
:101E6400A3E0FEA3E0FF900DA9E0FCA3E0FDC39F67
:101E7400EC9E501C74332DF58274023CF583E4F01F
:101E8400900DAAE004F070D6900DA9E004F080CE85
:101E9400900DA9E4F0A3F0900DA3F0A3F0C20F20DD
:101EA4009903021F36C299300C03021F34900DAC03
:101EB400E0FEA3E02433F58274043EF583E0F59953
:101EC400900DADE004F07006900DACE004F02099A4
:101ED40013900DD11211B7E47B487A26F9F8D31286
:101EE40011A650EAE47F487E26FDFC900DD1E0F86F
:101EF400A3E0F9A3E0FAA3E0FBC31211A64002D2C7
:101F040099900DD11211EC00000000C3900DACE0CB
:101F140094044004E4F0A3F0900DA7E0FEA3E0FFD6
:101F2400900DACE0B5160BA3E0B51706D20C8002F9
:081F3400D205900DD0E0F58408
:0B1F3C00D0D0D082D083D0F0D0E032B3
:0629C6007B017A0E793E50
:1029CC00900EF5E584F0121110604E200C14900D51
:1029DC00A7E0FEA3E0FF900DACE06E7003A3E06FE8
:1029EC00602E121110FF900DA7E475F001121190DA
:1029FC00FC743325F0F58274043CF583EFF0C3903E
:102A0C000DA7E094044004E4F0A3F0300C02C20CD7
:102A1C00740129F9E43AFA80AD300507C205E4F5F2
:092A2C0084D299900EF5E0F584C6
:012A3500227E
:10238A00900E3374FFF0A37419F0A37429F0A374A8
:10239A0002F0900E21E0F9A3E0FAA3E0900E37C90B
:1023AA00F0A3EAF0A3E9F0A37401F0A3746DF0A31B
:0C23BA00E4F074FAA3F07BFF7A1979229A
:0B23C600900E30EBF0A3EAF0A3E9F06A
:1023D100783E7C0E7D017BFF7A19798B7E007F80B0
:1023E1001210EA900EF874FFF0A37418F0A374E0D1
:1023F100F0900E30E0F9A3E0FAA3E0900EFBC9F0F3
:10240100A3EAF0A3E9F0900E33E0F9A3E0FAA3E028
:10241100900EFEC9F0A3EAF0A3E9F07B017A0E79F0
:102421003E1214B81229C6900EF874FFF0A3741866
:10243100F0A374E9F0900E36E025E02433F582E450
:102441003408F583E0FEA3E0AA06F9900EFB74FFC1
:10245100F0A3EAF0A3E9F07A0E793E1214B812293A
:10246100C6900EF874FFF0A37418F0A374EFF09007
:102471000E37E0F9A3E0FAA3E0900EFBC9F0A3EA5E
:10248100F0A3E9F0900E3AE0FFA3E0900EFECFF04A
:10249100A3EFF0900E3CE0FFA3E0900F00CFF0A37C
:1024A100EFF07A0E793E1214B87B017A0E793E0272
:0224B10029CC34
:0C2B6000900F1DECF0A3EDF0AD03AC02F3
:102B6C00900EF874FFF0A37418F0A374FDF0A3EEAC
:102B7C00F0A3EFF0900F1DE0FFA3E0900EFDCFF05F
:102B8C00A3EFF0AF05A3ECF0A3EFF07B017A0F7984
:0D2B9C001F1214B87B017A0F791F0229CC9B
:052D29007E00022C37C2
:102C3700900EF874FFF0A37419F0A3740AF0A3EED2
:102C4700F0A3EFF07B017A0F799F1214B87B017A1A
:062C57000F799F0229CC59
:1020ED00E490105FF0A3F0900015E06402705B9037
:1020FD000026E064287019A3E024CE600D14600D55
:10210D00240260030222190221D30221D70221DB0E
:10211D00E490105FF0A3F090105FE0FEA3E0FF24C9
:10212D0026F58274003EF583E070030222197426B1
:10213D002FF58274003EF583E4F0901060E004F01A
:10214D0070D590105FE004F080CD900015E0640331
:10215D007058900026E064287016A3E024CE600C21
:10216D0014600B24026003022219805A805C805E89
:10217D00E490105FF0A3F090105FE0FEA3E0FF2469
:10218D0026F58274003EF583E07003022219742651
:10219D002FF58274003EF583E4F0901060E004F0BA
:1021AD0070D590105FE004F080CD900015E06404D0
:1021BD00705A900026E0B4281CA3E024CE600B14C6
:1021CD00600C240270467F0280067F0380027F042C
:1021DD00122D298037E490105FF0A3F090105FE08E
:1021ED00FEA3E0FF2426F58274003EF583E0601C1B
:1021FD0074262FF58274003EF583E4F0901060E0B4
:10220D0004F070D890105FE004F080D0E490105F7F
:10221D00F0A3F090105FE0FEA3E0FF2426F582749A
:10222D00003EF583E0601C74262FF58274003EF5A8
:10223D0083E4F0901060E004F070D890105FE0043B
:03224D00F080D04E
:01225000226B
:1026A800900E231211EC00000000900E27E584F034
:1026B800E4F584208675900E231211B77BA07A86E4
:1026C80079017800D31211A64061C287E4900E21E7
:1026D800F0A3F0900E22E004F07006900E21E004C2
:1026E800F0900E21E07003A3E0F470E7D287208712
:1026F80014900E231211B77BA07A8679017800D343
:102708001211A650E9E4900E21F0A3F0C3900E2216
:10271800E0940A900E21E0648094805096A3E0042F
:10272800F070E9900E21E004F080E175C00775CFE4
:102738009143C040900E27E0F584C202E490085906
:10274800F090084CF090084BF0900857F0900D9FCF
:05275800F090096CF097
:01275D002259
:102C7E00AF84758401E4F5C8F5C975CBE275CA7ADF
:0A2C8E0085CBCD85CACCD2CA8F8455
:012C98002219
:0300730002000385
:07000300C0D075D000C0075A
:10000A00AF8475840053C0BF43C0408F84C2CFC23F
:03001A00028F84CE
:05001D00D007D0D03235
:102C990074E12FF582E43408F583EDF0EFFD7C0053
:092CA9007B017A007F20022AA1C0
:102C5D00900E21EFF0FD7C007B017A007F20122881
:102C6D0013900E21E02461F582E43408F583E0FF32
:012C7D002234
:0F2CE800AE05EFFD7C00EEFB7A007FD0022AA143
:0F2CF700AE05EFFD7C00EEFB7A007FD0022813C4
:10281300900E28EFF0A3ECF0A3EDF0A3EAF0A3EB06
:01282300F0C4
:10282400A3E584F0E4F58420C7FD2002FA900E2D80
:10283400E0F584900E28E0FF245C600824D4600452
:1028440024B0700E900E29E0FCA3E0FDE4FBFA1224
:102854002AA1E4F58420C7FD2002FA900E28E09016
:102864000847F0900E29E0FFA3E0900852CFF0A3B0
:10287400EFF0900E2BE0FFA3E0900DB0CFF0A3EFAC
:10288400F0D202D210D2C520C7FD2002FA900E2D3C
:10289400E0F584900E28E0245C601824D4600C24B5
:1028A400B0701690084CE0701080F890096CE070DD
:0928B4000880F8900857E060FA72
:0128BD0022F8
:022AA100A90783
:102AA300E4900E2EF0A3F0A3F0A3E584F0E4F58404
:102AB30020C7FD2002FA900847E9F0AF05900852BD
:102AC300ECF0A3EFF0E92455600824DB601A24B08E
:102AD300702C900226EAF0A3EBF0D202C210D2C50A
:102AE300900859E0701880F8AF03900226EAF0A32B
:102AF300EFF0D202C210D2C5900D9FE060FA900EA3
:042B030031E0F58444
:012B070022AB
:03003B00020B15A0
:0D0B1500C0E0C0F0C083C082C0D075D01019
:100B2200C214E5C1131313541F14B40B0040030283
:100B32000FDE900B4275F003A4C58325F0C58373C5
:100B4200020B63020B63020B88020BC5020C6802E4
:100B52000D0D020FDA020D9F020DB5020E4C020FAF
:100B62004B900847E0F5C253C2FEA210E43342C2E2
:100B7200C2C5900002E4F0A3F0900000F0A3F09050
:100B8200000AF0020FE0900847E0FFB4201E900830
:100B920052E0FCA3E0FD64AB4C7007D2C4C2020277
:100BA2000FE08DC2900859E4F0020FE0EF64D060CC
:100BB20003020FE0900852A3E0F5C2900D9FE4F00B
:100BC200020FE0900847E0FF64206004EFB4B02C0D
:100BD200C3900005E0940A900004E094005011A331
:100BE200E004F07006900004E004F0D2C5020FE0C9
:100BF200900004E4F0A3F09008598066900847E062
:100C0200FFB4D02CC3900007E0940A900006E09451
:100C1200005011A3E004F07006900006E004F0D248
:100C2200C5020FE0900006E4F0A3F0900D9F803221
:100C3200EF64A46003020FE0C3900009E0940A90FD
:100C42000008E094005011A3E004F0700690000840
:100C5200E004F0D2C5020FE0900008E4F0A3F090A7
:100C6200084B04020E42900847E0F96420704A9053
:100C72000226E0FEA3E0FF900000E0FCA3E0FDC33B
:100C82009FEC9E502A900853E02DFF900852E03CC2
:100C9200FE74E12FF58274083EF583E0F5C2900000
:100CA20001E004F07058900000E004F0020FE0D27E
:100CB200C4C202900859020FD5E964D06003020F42
:100CC200E0900226E0FEA3E0FF900000E0FCA3E03B
:100CD200FDC39FEC9E502A900853E02DFF900852CE
:100CE200E03CFE74E12FF58274083EF583E0F5C224
:100CF200900001E004F07006900000E004F0020FA2
:100D0200E0D2C4C202900D9F020FD5900847E0FFC7
:100D1200B42029C3900005E0940A900004E09400F6
:100D22005011A3E004F07006900004E004F0D2C574
:100D3200020FE0900004E4F0A3020E42EFB4D029C7
:100D4200C3900007E0940A900006E094005011A3BB
:100D5200E004F07006900006E004F0D2C5020FE055
:100D6200900006E4F0A3020E42900847E064A460FB
:100D720003020FE0C3900009E0940A900008E09497
:100D8200005011A3E004F07006900008E004F0D2D5
:100D9200C5020FE0900008E4F0A3020E42900DB0ED
:100DA200E07004A3E064017005C2C2020FE0D2C287
:100DB200020FE0900847E0FFB42028C3900005E04E
:100DC200940A900004E094005011A3E004F070062D
:100DD200900004E004F0D2C5020FE0900004E4F0B9
:100DE200A3805DEFB4D028C3900007E0940A90007E
:100DF20006E094005011A3E004F07006900006E0B3
:100E020004F0D2C5020FE0900006E4F0A380319016
:100E12000847E064A46003020FE0C3900009E09475
:100E22000A900008E094005011A3E004F0700690CC
:100E32000008E004F0D2C5020FE0900008E4F0A33D
:100E4200F0D2C4C202D214020FE0900847E0F96463
:100E520020704F900DB0E0FEA3E0FF900002E0FC96
:100E6200A3E0FDC39FEC9E5031900853E02DFF900C
:100E72000852E03CFE74612FF58274083EF583E56A
:100E8200C2F0D2C2900003E004F07006900002E0CB
:100E920004F090084CE4F0020FE0C2C290084C0249
:100EA2000FD5E964D07052900DB0E0FEA3E0FF9040
:100EB2000002E0FCA3E0FDC39FEC9E50319008537A
:100EC200E02DFF900852E03CFE74612FF582740819
:100ED2003EF583E5C2F090096CE4F0D2C2900003C3
:100EE200E004F07006900002E004F0020FE09009C6
:100EF2006C7401F0C2C2020FE0E964A46003020F45
:100F0200E0900DB0E0FEA3E0FF900002E0FCA3E061
:100F1200FDC39FEC9E502AAFC2746F2DF5827409F7
:100F22003CF583EFF0900849F0D2C2900003E00450
:100F3200F07006900002E004F0900857E4F0020F0F
:100F4200E0C2C2900857020FD5900847E0FFB420D4
:100F52002C900002E0FCA3E0FD900853E02DFD90F0
:100F62000852E03CFC74612DF58274083CF583E57F
:100F7200C2F0D2C4C202D2C290084C8056EFB4D0A2
:100F82002F900002E0FEA3E0FF900853E02FFF90B5
:100F92000852E03EFE74612FF58274083EF583E547
:100FA200C2F090096C7401F0D2C4C202D2C2802E87
:100FB200900847E0B4A427900002E0FEA3E0246F6B
:100FC200F58274093EF583E5C2F0D2C4C202D2C2F0
:100FD2009008577401F08006D2148002D2143014A3
:100FE2002A53C0BF43C040C2C5C2C4C2C2C202C2A9
:100FF200149008597401F090084CF0900D9FF090F5
:0D100200096CF090084BF0900857F0C2C345
:0B100F00D0D0D082D083D0F0D0E032EF
:102CD7009008EF7404F0A37430F07D027F0E022C8D
:012CE700E804
:10294A00900DCDE0FF122CB29008E1EFF090022C2E
:10295A00E0FF122CB29008E2EFF090085FE0FF125D
:10296A002CB29008E4EFF090084AE0FF122CB290E3
:10297A0008E5EFF090084DE0FF122CB29008E6EF60
:10298A00F0900856E0FF122CB29008E7EFF090089A
:10299A0058E0FF122CB2EF4440FF90022FE0FEB441
:1029AA005006EF4460FF8008EEB44104EF545FFF25
:0C29BA009008E3EFF07D07E4FF022CE83A
:101F4700E4900E26F0A3F07D07FF122CF7900861AE
:101F5700E0FF122D06900DCDEFF0900862E0FF1222
:101F67002D0690022CEFF0900863E0FF30E6179003
:101F7700085A7401F0EF90022F30E5057450F08095
:101F87000A7441F08005E490085AF0EF541FFF12DD
:101F97002D06900858EFF0BF0C1090022FE0B441C7
:101FA70003E48016900858E0801090022FE0900814
:101FB70058B45005E0240C8001E0900845F09008E3
:101FC70064E0FF122D0690085FEFF0900865E0FFD0
:101FD700122D0690084AEFF0900866E0FF122D06D2
:101FE70090084DEFF0900867E0FF122D0690085615
:101FF700EFF090000BE0FF90084DE0B50718900058
:102007000CE0FF90084AE0B5070C90000DE0FF9048
:102017000856E06F6002D20390000EE0FF90085868
:10202700E0FEB5071890000FE0FF90022CE0B5071F
:102037000C900010E0FF900DCDE06F6002D213907E
:10204700022FE0FBB4501FEE240CFFE433FE7C00AC
:102057007D3C12112990022CE02FFFEC3E900E26BA
:10206700F0A3EFF08028EBB44124900858E0B40CBB
:1020770002E4F0900858E075F03CA4FF90022CE0D1
:102087007C002FFEEC35F0900E26F0A3CEF0900EDC
:1020970026E0FAA3E0FB7C007D3CFFAE0212113B79
:1020A700900231EDF07C007D3CAF03AE0212113B94
:1020B70090085BEFF090084AE090000CF090084D14
:1020C700E090000BF0900856E090000DF090085853
:1020D700E090000EF090022CE090000FF0900DCDF4
:0520E700E0900010F084
:0120EC0022D1
:10003E00E4900DCDF090022CF0900858F090022F25
:10004E007450F090085F7401F090084AF090084DDB
:10005E00F0E4900856F0900230F090085A04F00246
:02006E00294A1D
:102CB200EF75F00A84C454F0FEEF75F00A84E5F073
:022CC2004EFFC3
:012CC40022ED
:0E2D0600EFC4540F75F00AA4FEEF540F2EFF19
:012D1400229C
:1025C100121F47900EF874FFF0A37419F0A3741052
:1025D100F090084DE025E024B3F582E4340DF58355
:1025E100E0FEA3E0AA06F9900EFB74FFF0A3EAF067
:1025F100A3E9F090084AE0900EFEF0900856E090B2
:102601000EFFF07B017A10791F1214B8900E33740B
:10261100FFF0A37419F0A37429F0A37402F0A314BA
:10262100F0A37410F0A3741FF0A3E4F0A37416F0E8
:10263100A37401F074061223BEC203900EF874FF56
:10264100F0A37419F0A37430F0900858E0900EFBD9
:10265100F090022CE0900EFCF0900DCDE0900EFD7C
:10266100F090022FE0900EFEF07B017A10791F129C
:1026710014B8900E3374FFF0A37419F0A37429F009
:10268100A37402F0A314F0A37410F0A3741FF0A3B9
:10269100E4F0A37416F0A37401F0A3741AF07BFFA5
:0726A1007A1979220223C619
:10225100900E6A74FFF0A37419F0A3744EF0A37486
:1022610008F0A374FFF0A37419F07478A3F0A3E449
:10227100F0A374F0F0A3E4F0746EA3F07BFF7A197D
:022281007929B9
:0B228300900E67EBF0A3EAF0A3E9F077
:10228E0078757C0E7D017BFF7A1A790B7E007F803C
:10229E001210EAE4FFFE0FBF00010EBE27F8BF10BA
:1022AE00F5900EF874FFF0A37418F0A374E0F0909C
:1022BE000E67E0F9A3E0FAA3E0900EFBC9F0A3EAE3
:1022CE00F0A3E9F0900E6AE0F9A3E0FAA3E0900E15
:1022DE00FEC9F0A3EAF0A3E9F07B017A0E7975123C
:1022EE0014B87B017A0E79751229CC900EF874FF12
:1022FE00F0A37418F0A374E9F0900E6DE025E024BD
:10230E0033F582E43408F583E0FEA3E0AA06F990E3
:10231E000EFB74FFF0A3EAF0A3E9F07A0E797512C2
:10232E0014B87B017A0E79751229CC900EF874FFD1
:10233E00F0A37418F0A374EFF0900E6EE0F9A3E022
:10234E00FAA3E0900EFBC9F0A3EAF0A3E9F0900E19
:10235E0071E0FFA3E0900EFECFF0A3EFF0900E73AE
:10236E00E0FFA3E0900F00CFF0A3EFF07A0E7975A7
:0C237E001214B87B017A0E79750229CC8C
:082B0800900E21EEF0A3EFF0A6
:102B100078237C0E7D017BFF7A1A798B7E007F08FB
:102B20001210EAE4FFFE0FBF00010EBE27F8BF102F
:102B3000F5900EF874FFF0A37419F0A3740AF090E6
:102B40000E21E0FFA3E0900EFBCFF0A3EFF07B019E
:102B50007A0E79231214B87B017A0E79230229CCDC
:081A9300900E21EEF0A3EFF02C
:101A9B00E4A3F0A3F0A3F0A3F0900EF874FFF0A36F
:101AAB007419F0A37446F0A374FFF0A37419F0A398
:101ABB007449F07B017A0E79271214B8900E6A7470
:101ACB00FFF0A37419F0A3744EF0A37408F0A37481
:101ADB0001F0A3740EF0A37427F0A3E4F0A374F049
:101AEB00F0A3E4F0742812227B900E21E07002A385
:101AFB00E0700490096EF0900027E0B4311AA3E077
:101B0B00B43415A3E0B43110900E6A74FFF0A374D3
:101B1B0019F0A37455021C87900027E0B4311AA367
:101B2B00E0B43415A3E0B43210900E6A74FFF0A346
:101B3B007419F0A37457021C87900027E0B4311A74
:101B4B00A3E0B43415A3E0B43310900E6A74FFF025
:101B5B00A37419F0A37459021C87900027E0B431C9
:101B6B001AA3E0B43415A3E0B43410900E6A74FFDA
:101B7B00F0A37419F0A3745B021C87900027E0B4E8
:101B8B00311AA3E0B43415A3E0B43510900E6A7487
:101B9B00FFF0A37419F0A3745D021C87900027E07B
:101BAB00B4311AA3E0B43415A3E0B43610900E6A26
:101BBB0074FFF0A37419F0A3745F021C87900027C5
:101BCB00E0B4311AA3E0B43415A3E0B43710900E8F
:101BDB006A74FFF0A37419F0A37461021C87900060
:101BEB0027E0B43119A3E0B43414A3E0B4380F9058
:101BFB000E6A74FFF0A37419F0A37463807E9000D7
:101C0B0027E0B43119A3E0B43414A3E0B4390F9036
:101C1B000E6A74FFF0A37419F0A37465805E9000D4
:101C2B0027E0B43119A3E0B43414A3E0B4300F901F
:101C3B000E6A74FFF0A37419F0A37467803E9000D2
:101C4B0027E0B43119A3E0B43514A3E0B4300F90FE
:101C5B000E6A74FFF0A37419F0A37469801E9000D0
:101C6B0027E0B43129A3E0B43524A3E0B4311F90AD
:101C7B000E6A74FFF0A37419F0A3746BF07B017AF6
:101C8B0009796E122A36900E23E4F0A304F0900E1D
:101C9B0023E07002A3E0604DE4900E27F0900E2538
:101CAB00F0A3F0900E21E0FEA3E0FFD3900E26E010
:101CBB009FEE6480F8900E25E06480985027900E7C
:101CCB006A74FFF0A37419F0A37469F07B017A0EA8
:101CDB007927122A36900E26E004F070C6900E2556
:101CEB00E004F080BE900E6A74FFF0A37419F0A3A9
:101CFB00744EF0A37406F0A37401F0A3740EF0A35A
:101D0B007427F0A3E4F0A374F0F0A3E4F0A37450F1
:0B1D1B0012227C900E23E0FEA3E0FFEC
:011D2600229A
:0B24B300900E26EFF0A3EDF0A3EBF07D
:1024BE00900EF874FFF0A37419F0A37410F0900E40
:1024CE002BE025E024B3F582E4340DF583E0FEA382
:1024DE00E0AA06F9900EFB74FFF0A3EAF0A3E9F070
:1024EE00900E2AE0900EFEF0900E2CE0900EFFF073
:1024FE00900E2DE0FBA3E0FAA3E0F91214B8900EB3
:10250E003374FFF0A37419F0A37429F0A37402F0CE
:10251E00900E2DE0F9A3E0FAA3E0900E37C9F0A3D8
:10252E00EAF0A3E9F0A3E4F0A37416F0A37401F0AB
:10253E00A374061223BFC203900EF874FFF0A374A7
:10254E0019F0A37430F0900E28E0900EFBF0900E70
:10255E0027E0900EFCF0900E26E0900EFDF0900E0F
:10256E0029E0900EFEF0900E2DE0FBA3E0FAA3E022
:10257E00F91214B8900E3374FFF0A37419F0A3740B
:10258E0029F0A37402F0900E2DE0F9A3E0FAA3E077
:10259E00900E37C9F0A3EAF0A3E9F0A3E4F0A37418
:1025AE0016F0A37401F0A3741AF07BFF7A19792246
:0325BE000223C62F
:10060E00900E24E4F0A37402F0121F47900DCDE07B
:10061E00900860F090022CE090096DF0900858E080
:10062E00900013F090022FE0900B8FF090084AE0AC
:10063E00900DA5F090084DE0900DCEF0900856E08C
:10064E00900012F0E4900963F0900962F090096353
:10065E00E06003020B0C900E6A74FFF0A37419F0A5
:10066E00A37429F0A37402F0900962E025E02491AE
:10067E00F582E4340DF583E0FEA3E0AA06F9900EB0
:10068E006E74FFF0A3EAF0A3E9F0A37401F0A37473
:10069E0072F0A3E4F0A374B4F07BFF7A19792212FE
:1006AE002283900962E0C39404900EF874FF502ADE
:1006BE00F0A37419F0A37430F0900013E0900EFBC9
:1006CE00F090096DE0900EFCF0900860E0900EFD49
:1006DE00F0900B8FE0900EFE803AF0A37419F0A309
:1006EE007410F0900DCEE025E024B3F582E4340DC5
:1006FE00F583E0FEA3E0AA06F9900EFB74FFF0A3CB
:10070E00EAF0A3E9F0900DA5E0900EFEF090001235
:10071E00E0900EFFF0900E21E0FBA3E0FAA3E0F9CB
:10072E001214B812238A300FFD900027E064316056
:10073E0003020802A3E064356003020802A3E0642A
:10074E00386003020802900962E0B4070040030219
:10075E00065B900767F828287302077C0207910250
:10076E0007A50207BA0207CF0207E50207FA9008AB
:10077E0060E0B43B05E4F0020892900860E004F0FB
:10078E0002089290096DE0B43B04E4F080069009F3
:10079E006DE004F0020892900013E0B40C057401B1
:1007AE00F08006900013E004F0020892900B8FE0A8
:1007BE00B450057441F08006900B8F7450F002080F
:1007CE0092900DA5E0B41F067401F00208D4900DAE
:1007DE00A5E004F00208D4900DCEE0B40C0574012F
:1007EE00F08006900DCEE004F00208D4900012E0E6
:1007FE000402096E900027E0643160030209C3A36E
:10080E00E0643560030209C3A3E0643760030209A4
:10081E00C3900962E0B40700400302065B90083201
:10082E00F828287302084702085A02086D02088049
:10083E000208C2020916020969900860E070057488
:10084E003BF08006900860E014F0803890096DE06F
:10085E007005743BF0800690096DE014F0802590D1
:10086E000013E07005740CF08006900013E014F095
:10087E008012900B8FE0B450057441F08006900BFF
:10088E008F7450F0900EF874FFF0A37419F0A374E7
:10089E0030F0900013E0900EFBF090096DE0900E9A
:1008AE00FCF0900860E0900EFDF0900B8FE0900E43
:1008BE00FE0209AE900DA5E0B40105741FF080068E
:1008CE00900DA5E014F0900EF874FFF0A37419F0DB
:1008DE00A37410F0900DCEE025E024B3F582E4343D
:1008EE000DF583E0FEA3E0AA06F9900EFB74FFF06F
:1008FE00A3EAF0A3E9F0900DA5E0900EFEF09000B3
:10090E0012E0900EFF0209AE900DCEE0B401057418
:10091E000CF08006900DCEE014F0900EF874FFF0FF
:10092E00A37419F0A37410F0900DCEE025E024B35B
:10093E00F582E4340DF583E0FEA3E0AA06F9900EED
:10094E00FB74FFF0A3EAF0A3E9F0900DA5E0900E82
:10095E00FEF0900012E0900EFF8045900012E01421
:10096E00F0900EF874FFF0A37419F0A37410F090C9
:10097E000DCEE025E024B3F582E4340DF583E0FEE0
:10098E00A3E0AA06F9900EFB74FFF0A3EAF0A3E928
:10099E00F0900DA5E0900EFEF0900012E0900EFF8C
:1009AE00F0900E21E0FBA3E0FAA3E0F91214B812C6
:1009BE00238A02065B900027E06431701FA3E06477
:1009CE00357019A3E064347013900962E0700574F9
:1009DE0006F0802D900962E014F08025900027E04B
:1009EE0064317052A3E06435704CA3E064357046F8
:1009FE00900962E0B40604E4F08006900962E00417
:100A0E00F0900860E0FF90096DE0FD900013E0FBB0
:100A1E00900B8FE0900E29F0900DA5E0900E2AF02D
:100A2E00900DCEE0900E2BF0900012E0900E2CF078
:100A3E001224B302065B900027E064317050A3E0ED
:100A4E006435704AA3E064367044900860E0900DFF
:100A5E00CDF090096DE090022CF0900013E090081C
:100A6E0058F0900B8FE090022FF0900DA5E09008BB
:100A7E004AF0900DCEE090084DF0900012E09008F4
:100A8E0056F09009637401F012294A02065B900039
:100A9E0027E0B4311BA3E0B43316A3E0B4311190B8
:100AAE000E24E4F0A37402F090096314F002065BC6
:100ABE00900027E0FFB43119A3E0B43214A3E0B4E0
:100ACE00380F900E24E4F0A304F0900963F00206B0
:100ADE005BEF6431600302065B900028E0643360D4
:100AEE000302065BA3E06432600302065B900E24F1
:100AFE00F0A37403F09009637401F002065B900E8C
:060B0E0024E0FEA3E0FF5D
:010B140022BE
:10007600E4900DD5F0A3F0A3F0A3F0A3F0A3F0A3B2
:10008600F0A3F0A3F0A304F0122D22122CC5122B1C
:10009600A9122D15122BE91226A8122C7ED205E4E0
:1000A600900DA7F0A3F0900DACF0A3F0D20C900E3B
:1000B600F874FFF0A37419F0A3746DF07B017A0D48
:1000C60079DF1214B87B017A0D79DF1229CC7F040F
:1000D6007E00122B08C3900DD6E09458900DD5E003
:1000E600648094825067A3E004F07006900DD5E01A
:1000F60004F0900DD5E0FEA3E0FFBE02D8BF57D5B1
:10010600900EF874FFF0A37419F0A37470F0A3EEC8
:10011600F0A3EFF07B017A0D79DF1214B8900E6A26
:1001260074FFF0A37419F0A3744EF0A37406F0A341
:100136007401F0A3740DF0A374DFF0A3E4F0A374CC
:10014600F0F0A3E4F0A3742812227C8088E4900DDA
:10015600D50205D8900228E0FEA3E0FFEE60030278
:100166000479EF24FE60651470030203F81470032B
:10017600020377146003020479900DDDE07002A398
:10018600E06007E4900DDDF0A3F0900027E0FFB4F7
:10019600310DA3E0B43308A3E0B43103020428EF21
:1001A600B4310F900028E0B43208A3E0B43803025B
:1001B6000443900027E06431709AA3E0643370949E
:1001C600A3E06432708E9002280203E4900DDDE015
:1001D6007002A3E06012E4900DDDF0A3F07F01FE53
:1001E600122B08E490096EF0900027E0FFB4311A54
:1001F600A3E0B43315A3E0B43110900228E4F0A3D1
:100206007402F0E4900DDD0205D8EFB4310F9000D2
:1002160028E0B43208A3E0B4380302044390002770
:10022600E0B43111A3E0B4330CA3E0B4320790027A
:1002360028E40203E4E4900DA1F0A3F0C3900DA21C
:10024600E09404900DA1E064809480400302015A7A
:10025600300FFD900027E0FFB4311AA3E0B4331548
:10026600A3E0B43110900228E4F0A37402F0E49005
:100276000DDD0205D8EFB4310F900028E0B4320846
:10028600A3E0B43803020443900027E0B43111A37D
:10029600E0B4330CA3E0B43207900228E40203E48E
:1002A600900027E064317053A3E06435704DA3E0FD
:1002B60064337047786E7C097D0190085CE0FBA38F
:1002C600E0FAA3E0F912139BEF701A900228F0A34C
:1002D6007404F0900DDDE4F0A304F07F057E0012B7
:1002E6002B0802015AE4900DA1F0A3F0900228F029
:1002F600A37402F0E4900DDD0205D8900027E064B7
:0E030600317038A3E064357032A3E0B4322DBC
:100314007B017A09796E120026900E1FEEF0A3EF8E
:10032400F0D39400EE9400403E900E1FE0FEA3E054
:0B033400246DF58274093EF583E4F0AF
:10033F00802A900DA1E0FEA3E0FFC39404EE648039
:10034F0094804003020242121A93EF4E600E900DFA
:10035F00A2E004F07006900DA1E004F0900228E4F2
:10036F00F0A37402F0020242900DDDE07002A3E0F0
:10037F006026E4900DDDF0A3F0900E6A74FFF0A3F9
:10038F007419F0A3744EF0A37408F0A374FFF0A3D4
:10039F007419F0747312226D900027E0FFB4310DC1
:1003AF00A3E0B43308A3E0B43103020428EFB4315F
:1003BF000F900028E0B43208A3E0B43803020443DE
:1003CF00900027E0B43115A3E0B43310A3E0B432AA
:1003DF000B900228E4F0A374030205B012060E90EE
:1003EF000228EEF0A3EF0205B0122251900DDDE0CE
:1003FF007002A3E06011E4900DDDF0A3F012225122
:10040F007F027E00122B08900027E0FFB43115A366
:10041F00E0B43310A3E0B4310B900228E4F0A374DE
:10042F00020205B0EFB43116900028E0B4320FA3EA
:10043F00E0B4380A900228E4F0A3040205B090005B
:10044F0027E06431600302015AA3E06433600302C2
:10045F00015AA3E06432600302015A900228F0A30C
:10046F007403F0E4900DDD0205D87F36122C5D90F9
:10047F00022BEFF0900DDDE07002A3E0604DE490F1
:10048F000DDDF0A3F0900EF874FFF0A37419F0A334
:10049F00747DF090022BE0900EFBF07B017A0D79CA
:1004AF00DF1214B8900E6A74FFF0A37419F0A374DE
:1004BF004EF0A37406F0A37401F0A3740DF0A374AF
:1004CF00DF12226E7F037E00122B08200F13900283
:1004DF002BE0FF900DD9E07003A3E06F70030201D2
:1004EF005A90022BE0FFFD900DD9E4F0A3EDF090B0
:1004FF000027E064317022A3E06432701CA3E06433
:10050F00397016900DDBF0A304F0900EF874FFF025
:10051F00A37419F0A3747D803E900027E0643170BE
:10052F0066A3E064337060A3E06430705A900DDB13
:10053F00F0A3F090022BE075F009A4FFAEF07C0061
:10054F007D0512113BEF2420FFF0900EF874FFF0A1
:10055F00A37419F0A37484F0A3EFF07B017A0D79E3
:10056F00DF1214B8900E6A74FFF0A37419F0A3741D
:10057F004EF0A37406F0A37401F0A3740DF0A374EE
:10058F00DF12226E02015A900027E0FFB4311EA342
:10059F00E0B43319A3E0B43114900228E4F0A3744B
:1005AF0002F0900DDDE4F0A304F002015AEFB43134
:1005BF001E900028E0B43217A3E0B438129002283E
:1005CF00E4F0A304F0E4900DDDF0A3F002015A90E3
:1005DF000027E06431600302015AA3E06433600333
:1005EF0002015AA3E06432600302015A900228F01C
:0F05FF00A37403F0900DDDE4F0A304F002015AA1
:030000000228BE15
:0C28BE00787FE4F6D8FD7581230229051F
:10101A00E709F608DFFA8046E709F208DFFA803EB8
:10102A0088828C83E709F0A3DFFA8032E309F608A5
:10103A00DFFA8078E309F208DFFA807088828C830D
:10104A00E309F0A3DFFA806489828A83E0A3F608C1
:10105A00DFFA805889828A83E0A3F208DFFA804C9B
:10106A0080D280FA80C680D4806980F28033801072
:10107A0080A680EA809A80A880DA80E280CA8033DB
:10108A0089828A83ECFAE493A3C8C582C8CCC58353
:10109A00CCF0A3C8C582C8CCC583CCDFE9DEE78023
:1010AA000D89828A83E493A3F608DFF9ECFAA9F0A2
:1010BA00EDFB2289828A83ECFAE0A3C8C582C8CCF8
:1010CA00C583CCF0A3C8C582C8CCC583CCDFEADE11
:1010DA00E880DB89828A83E493A3F208DFF980CC73
:1010EA0088F0EF60010E4E60C388F0ED2402B4046C
:1010FA000050B9F582EB2402B4040050AF23234513
:06110A00822390106A73BD
:10111000BB010689828A83E0225002E722BBFE02DD
:09112000E32289828A83E4932210
:10112900EF8DF0A4A8F0CF8CF0A428CE8DF0A42EDA
:02113900FE2294
:10113B00BC000BBE0029EF8DF084FFADF022E4CC98
:10114B00F875F008EF2FFFEE33FEEC33FCEE9DEC61
:10115B00984005FCEE9DFE0FD5F0E9E4CEFD22EDA7
:10116B00F8F5F0EE8420D21CFEADF075F008EF2FF1
:10117B00FFED33FD4007985006D5F0F222C398FDE2
:05118B000FD5F0EA227F
:10119000A3F8E0C5F025F0F0E58215827002158312
:0611A000E0C838F0E8226F
:1011A600EB9FF5F0EA9E42F0E99D42F0E89C45F09F
:0111B6002216
:1011B7007401FF3395E0FEFDFCA3A3A3E0CF2FF05E
:1011C700E582158270021583E0CE3EF0E582158236
:1011D70070021583E0CD3DF0E5821582700215831C
:0511E700E0CC3CF02209
:1011EC00A8828583F0D083D08212120312120312CC
:1011FC001203121203E473E493A3C583C5F0C583F1
:10120C00C8C582C8F0A3C583C5F0C583C8C582C84C
:01121C0022AF
:10145300E50824F8F582E4340EF583E005082290CC
:101463000EF5301C03900EF8E475F00112140D0212
:1014730011102015E97F2ED2158018EF540F2490F8
:10148300D43440D4FF30190BEF24BFB41A005003F7
:101493002461FFE50960021509050CE50C700205DE
:1014A3000B301C0E900EF5E475F00112140DEF02D3
:1014B30013E5022C107403D21C8003E4C21CF5084C
:1014C300900EF5121424E4F509F50BF50CE509600B
:1014D300077F2012149680F5750AFFC216C215C243
:1014E30017C218C21AC21BC21D121462FF700D303C
:1014F3001C057F001214A7AF0CAE0B22B4255FC2EC
:10150300D5C219121462FF24D0B40A00501A75F020
:101513000A780930D50508B6FF0106C6A426F620C9
:10152300D5047002D21880D924CFB41A00EF500426
:10153300C2E5D2190216A8D21680C6D21580C0D22F
:101543001780BCD2D580BAD21A80B47F20121496E9
:101553002017077401B5090040F1121453FF121448
:10156300960214D0D21DD21B8095121453FB121471
:1015730053FA121453F94A4B700679797A177BFFA1
:1015830020172EE509602A7E008E827583001213D0
:10159300B860060EEE650A70F0C2D5EBC0E0EAC093
:1015A300E0E9C0E0EE1216EFD0E0F9D0E0FAD0E0C7
:1015B300FB121110FF60AAEBC0E0EAC0E0E9C0E053
:1015C300121496D0E02401F9D0E03400FAD0E0FB05
:1015D300E50A0460DCD50AD980877BFF7A1679EBAC
:1015E300D217809C791080027908C21BC21D800823
:1015F300D2D5790A8004790AC2D5E50A047002F5C6
:101603000AE4FAFDFEFF121453FC7B0820161312A2
:101613001453FD7B1030150A121453FE121453FF9A
:101623007B20EC3382D592D55013C3E43015069F4B
:10163300FFE49EFEE42016039DFDE49CFCE4CBF84E
:10164300C216EC700CCFCECDCCE824F8F870F38042
:1016530017C3EF33FFEE33FEED33FDEC33FCEB3317
:10166300FB994002FB0FD8E9EB301605F8D0E0C434
:1016730048B216C0E00AEC4D4E4F78207B0070C292
:10168300EAB50A0040BCC0E01216F1D0F0D0E02069
:101693001604C4C0E0C4B216C0F012147FD0F0D553
:1016A300F0EB0214D012142D156D5315E758153EA7
:1016B3004C153A4215EB4F15F34415F349155343B3
:0816C30015F95515DD4615DD92
:1016CB004515DD4717995015422D15462E15692BDB
:1016DB00154A2315672017822A1502480000156149
:1016EB003F3F3F00790AA2D5201814301A09B910D0
:1016FB00020404B9080104A2D5201B0250010420E6
:10170B0017689217B509005034C0E07F20301819C4
:10171B007F30A217721B721A500F121748C217C2D2
:10172B001BC21AC21D7F30800F301A03E9C0E012B2
:10173B001496301A03D0E0F9D0E0B509CC301A1763
:10174B007F30B9100C1214967F583019077F7880B0
:10175B0003B908031214963017057F2D0214967FD8
:10176B0020201DF87F2B201BF322921780CF286E91
:10177B00756C6C2900D2161214533016F8C21678F9
:10178B000930D50108F60215022D504349581214A1
:10179B00532403B405004001E4901794931214876B
:0D17AB00743A121487D2187509040215E76C
:102A3600900E67EBF0A3EAF0A3E9F0900E6DEBF0D1
:102A4600A3EAF0A3E9F0900E67E0FBA3E475F001BA
:102A5600121190A9F0FA12111070EB900E6874FF23
:102A6600F5F01213F7900E6AE0FBA3E475F001127D
:102A76001190A9F0FA121110FF900E67E0FBA3E483
:102A860075F001121190A9F0FAEF1213E570D690C5
:0B2A96000E6DE0FBA3E0FAA3E0F922C4
:10121D00E3F5F009E208B5F06D606B80F3E3F5F0EE
:10122D0009E608B5F060605E80F387F009E608B561
:10123D00F054605280F487F009E208B5F04860463A
:10124D0080F488828C8387F009E0A3B5F03860368E
:10125D0080F488828C8387F009E493A3B5F027602E
:10126D002580F388828C83E3F5F009E0A3B5F016B1
:10127D00601480F388828C83E3F5F009E493A3B5C1
:10128D00F004600280F2021348808580E7808E8032
:10129D00D2803C8015806C807E809B80B5808B8059
:1012AD00A1804F8070803A02135489828A83ECFAB0
:1012BD00E493F5F0A3C8C582C8CCC583CCE493A351
:1012CD00C8C582C8CCC583CCB5F070606E80E1898D
:1012DD00828A83E493F5F0A3E208B5F05E605C804A
:1012ED00F289828A83E0F5F0A3E608B5F04D604BF4
:1012FD0080F389828A83E0F5F0A3E208B5F03C60C3
:10130D003A80F389828A83E493F5F0A3E608B5F079
:10131D002A602880F2805389828A83ECFAE493F55F
:10132D00F0A3C8C582C8CCC583CCE0A3C8C582C80C
:10133D00CCC583CCB5F004600280E27FFFB5F0022E
:10134D000F2240027F012289828A83ECFAE0F5F0B8
:10135D00A3C8C582C8CCC583CCE0A3C8C582C8CC00
:10136D00C583CCB5F0D560D380E389828A83ECFA4E
:10137D00E0F5F0A3C8C582C8CCC583CCE493A3C85F
:10138D00C582C8CCC583CCB5F0B160AF80E288F022
:10139D00ED2402B4040050A3F582EB2402B4040042
:0B13AD00509923234582239012967371
:10002600E4FFFE121110600C0FEF70010E09E9706B
:05003600F20A80EF2238
:1028CA00020076E493A3F8E493A34003F68001F2AE
:1028DA0008DFF48029E493A3F85407240CC8C3330F
:1028EA00C4540F4420C8834004F456800146F6DFDE
:1028FA00E4800B010204081020408090275EE47EE9
:10290A00019360BCA3FF543F30E509541FFEE493D2
:10291A00A360010ECF54C025E060A840B8E493A399
:10292A00FAE493A3F8E493A3C8C582C8CAC583CAC4
:10293A00F0A3C8C582C8CAC583CADFE9DEE780BE7C
:0128120000C5
:1013B800BB010CE58229F582E5833AF583E02250EA
:1013C80006E92582F8E622BBFE06E92582F8E22234
:0D13D800E58229F582E5833AF583E493224E
:1013E500BB010689828A83F0225002F722BBFE01E7
:0213F500F322E1
:1013F700C5F0F8A3E028F0C5F0F8E5821582700281
:061407001583E038F0221D
:10140D00F8E0FBA3A3E0F925F0F0E5821582700268
:07141D001583E0FA38F0220C
:09142400EBF0A3EAF0A3E9F022C9
:10142D00D083D082F8E4937012740193700DA3A34E
:10143D0093F8740193F5828883E473740293686062
:06144D00EFA3A3A380DF62
:102C1000EFB40A07740D122C1B740A309811A8998E
:102C2000B8130CC2983098FDA899C298B811F63024
:072C300099FDC299F59922FC
:00000001FF
