:100FBB006D313042006D313242006D313442006D83
:100FCB00313642006D323042006D323442006D33A7
:100FDB003242006D343842006D3634005320257395
:100FEB002025730D00662025730D007420222573B8
:100FFB00222025752025750D007869202575202563
:10100B00752025750D006D2025750D007A0D004698
:10101B00464646464600303030303030003332469C
:10102B00003332430000000000000000000000000D
:10103B0000000000000000000000000000000000A5
:10104B000000000000000000000000000000000095
:10105B000000000000000000000000000000000085
:10106B000000000000000000000000000000000075
:10107B000000000000000000000000000000000065
:10108B000000000000000000000000000000000055
:10109B000000000000000000000000000000000045
:1010AB000000000000000000000000000000000035
:1010BB000000000000000000000000000000000025
:0D10CB000000000000000000000000000018
:1014DB00C10BC109C10CC110C10D5203010FBB0FD0
:0F14EB00C00FC50FCA0FCF0FD40FD90FDE0FE3FD
:1014FB00AF84E4900362F0A3F075840F758A838F39
:02150B00842238
:10146100AF8475840F75E12F75E20175E3C475A42E
:10147100017580FF7590FF75A0FF75B0FF75C8FFFE
:0C14810075D8FF75E8FF75F8FF8F842216
:0415140075A8922202
:10148D00AF84E4F584F5C875C90875CAF375CBFF4B
:10149D0085CBCD85CACC75C804F5847598507591EA
:0714AD000575A8908F842251
:07150D0075FFDE75FFAD2242
:03002300020DB11A
:100DB100C0E0C0F0C083C082C0D075D01090031BCA
:100DC100E584F0E4FBFAA3120CF200000000758444
:100DD10000209802E127C298900000E599F0900365
:100DE10013E0FEA3E0FFC3EE94014002C1EB9000CB
:100DF10000E0FD640D601874012FF58274013EF569
:100E010083EDF0900313E475F001120C74E1279067
:100E11000101E0FF647B7026A3E06463701AA3E024
:100E2100B46D15A3E0B47010A3E0B4650BA3E0B4F6
:100E31007D06D20BD209807FC20BC2098079EF6493
:100E4100787034FAFBD3900314E09B900313E09A7B
:100E5100401F74012BF58274013AF583E0FF7401A0
:100E61002BF58274003AF583EFF00BBB00010A8089
:100E7100D4C20CD2108040900101E064287034FA91
:100E8100FBD3900314E09B900313E09A401F74017D
:100E91002BF58274013AF583E0FF74012BF582741E
:100EA100003AF583EFF00BBB00010A80D4C20CD2EB
:100EB100108004D20CC2107A007B00D3900314E09E
:100EC1009B900313E09A401374012BF58274013A4D
:100ED100F583E4F00BBB00010A80E0900317E4F016
:100EE100A3F0900313F0A3F0803C900313E0FEA362
:100EF100E0FF900317E0FCA3E0FDC39FEC9E5017B9
:100F010074012DF58274013CF583E4F090031775AB
:100F1100F001120C7480D3900317E4F0A3F0900356
:100F210013F0A3F0C210209902E1AAC299200F7711
:100F3100900319E0FEA3E02401F58274023EF583DB
:100F4100E0F599900319E475F001120C74209913DE
:100F510090031C120CBDE47B607A09F9F8D3120CE2
:100F6100A050EAE47F607E09FDFC90031C120CB1E5
:100F7100C3120CA04002D29990031C120CF2000083
:100F81000000C3900319E094014004E4F0A3F09041
:100F91000315E0FEA3E0FF900319E0B5160BA3E0F3
:100FA100B51706D20F8002D20A90031BE0F584D058
:0A0FB100D0D082D083D0F0D0E0321F
:1013A0009003F0E584F0120C5B604E200F14900364
:1013B00015E0FEA3E0FF900319E06E7003A3E06F59
:1013C000602E120C5BFF900315E475F001120C8A7D
:1013D000FC740125F0F58274023CF583EFF0C390B4
:1013E0000315E094014004E4F0A3F0300F02C20FB3
:1013F000740129F9E43AFA80AD300A07C20AE4F52B
:0A14000084D2999003F0E0F58422F5
:1010D800900362120D2C78707C037D017BFF7A10DF
:1010E80079307E007F80120C35E4FFFE0FBF0001CF
:1010F8000EBE27F8BF10F57BFF7A0F79E79003F350
:10110800120D2C900362120D239003F6120D2C90F1
:101118000365120D239003F9120D2C7B017A0379D4
:10112800701208657B017A0379701213A07BFF7A2D
:101138000F79F09003F3120D2C900368E025E0245A
:1011480001F582E43403F583E0FEA3E0AA06F990F2
:1011580003F6120D2C7B017A0379701208657B0166
:101168007A0379701213A07BFF7A0F79F69003F354
:10117800120D2C900369120D239003F6120D2C907A
:10118800036CE0FFA3E09003F9CFF0A3EFF0900326
:101198006EE0FFA3E09003FBCFF0A3EFF07B017AB2
:1011A8000379701208657B017A0379701213A02203
:10131F00900418EEF0A3EFF0A3ECF0A3EDF0A3EA26
:10132F00F0A3EBF0781E7C047D017BFF7A1079B07F
:10133F007E007F20120C35E4FFFE0FBF00010EBEB2
:10134F0027F8BF10F57BFF7A1079049003F3120D85
:10135F002C900418E0FFA3E09003F6CFF0A3EFF07A
:10136F0090041AE0FFA3E09003F8CFF0A3EFF09002
:10137F00041CE0FFA3E09003FACFF0A3EFF07B0192
:10138F007A04791E1208657B017A04791E1213A064
:01139F00222B
:10140A00900362EEF0A3EFF078647C037D017BFF2A
:10141A007A1079D07E007F08120C35E4FFFE0FBFE8
:10142A0000010EBE27F8BF10F57BFF7A10791190E4
:10143A0003F3120D2C900362E0FFA3E09003F6CFB2
:10144A00F0A3EFF07B017A0379641208657B017AD5
:07145A000379641213A022C4
:1011B800E4900320F0A3F012150D1214FB12146131
:1011C80012151412148DD20AE4900315F0A3F090AE
:1011D8000319F0A3F0D20F7BFF7A1079179003F36D
:1011E800120D2C7B017A0379221208657B017A03A0
:1011F80079221213A07F037E0012140A3010FD908A
:101208000002E06431703EA3E064327038A3E0B4B9
:1012180039337BFF7A107921900365120D2C9003E6
:10122800687408F07A107928A3120D2C90036CE4E6
:10123800F0A374F0F0A3E4F0A3746EF07A10791AB6
:101248001210D880B7900002E0B431B0A3E0B433F4
:10125800ABA3E0643070A57BFF7A10792190036519
:10126800120D2C9003687408F07A10792CA3120DD3
:101278002C90036CE4F0A374F0F0A3E4F0A3746E74
:0B128800F07A10791A1210D8410422ED
:0300000002129356
:0C129300787FE4F6D8FD7581220212DAA3
:100B6500E709F608DFFA8046E709F208DFFA803E72
:100B750088828C83E709F0A3DFFA8032E309F6085F
:100B8500DFFA8078E309F208DFFA807088828C83C7
:100B9500E309F0A3DFFA806489828A83E0A3F6087B
:100BA500DFFA805889828A83E0A3F208DFFA804C55
:100BB50080D280FA80C680D4806980F2803380102C
:100BC50080A680EA809A80A880DA80E280CA803395
:100BD50089828A83ECFAE493A3C8C582C8CCC5830D
:100BE500CCF0A3C8C582C8CCC583CCDFE9DEE780DD
:100BF5000D89828A83E493A3F608DFF9ECFAA9F05C
:100C0500EDFB2289828A83ECFAE0A3C8C582C8CCB1
:100C1500C583CCF0A3C8C582C8CCC583CCDFEADECA
:100C2500E880DB89828A83E493A3F208DFF980CC2C
:100C350088F0EF60010E4E60C388F0ED2402B40425
:100C45000050B9F582EB2402B4040050AF232345CC
:060C55008223900BB57331
:100C5B00BB010689828A83E0225002E722BBFE0297
:090C6B00E32289828A83E49322CA
:100C7400C5F0F8A3E028F0C5F0F8E582158270020B
:060C84001583E038F022A8
:100C8A00A3F8E0C5F025F0F0E5821582700215831D
:060C9A00E0C838F0E8227A
:100CA000EB9FF5F0EA9E42F0E99D42F0E89C45F0AA
:010CB0002221
:0C0CB100E0F8A3E0F9A3E0FAA3E0FB22C6
:100CBD007401FF3395E0FEFDFCA3A3A3E0CF2FF05D
:100CCD00E582158270021583E0CE3EF0E582158235
:100CDD0070021583E0CD3DF0E5821582700215831B
:050CED00E0CC3CF02208
:100CF200A8828583F0D083D082120D09120D0912C9
:100D02000D09120D09E473E493A3C583C5F0C583ED
:100D1200C8C582C8F0A3C583C5F0C583C8C582C84B
:010D220022AE
:090D2300E0FBA3E0FAA3E0F922D1
:090D2C00EBF0A3EAF0A3E9F022C8
:10080000E50824F3F582E43403F583E0050822903B
:1008100003F03007039003F3E475F001120D740246
:100820000C5B2000E97F2ED2008018EF540F24903B
:10083000D43440D4FF30040BEF24BFB41A0050036B
:100840002461FFE50960021509050CE50C7002053D
:100850000B30070E9003F0E475F001120D74EF02F7
:100860000D620214B47403D2078003E4C207F508D2
:100870009003F0120D2CE4F509F50BF50CE5096079
:10088000077F2012084380F5750AFFC201C200C22B
:1008900002C203C205C206C20812080FFF700D3063
:1008A00007057F00120854AF0CAE0B22B4255FC2BF
:1008B000D5C20412080FFF24D0B40A00501A75F0F4
:1008C0000A780930D50508B6FF0106C6A426F62029
:1008D000D5047002D20380D924CFB41A00EF50049B
:1008E000C2E5D204020A55D20180C6D20080C0D22D
:1008F0000280BCD2D580BAD20580B47F20120843D2
:100900002002077401B5090040F1120800FF120827
:100910004302087DD208D2068095120800FB120817
:1009200000FA120800F94A4B700679267A0B7BFF11
:1009300020022EE509602A7E008E82758300120D4A
:100940003560060EEE650A70F0C2D5EBC0E0EAC075
:10095000E0E9C0E0EE120A9CD0E0F9D0E0FAD0E085
:10096000FB120C5BFF60AAEBC0E0EAC0E0E9C0E06C
:10097000120843D0E02401F9D0E03400FAD0E0FBC3
:10098000E50A0460DCD50AD980877BFF7A0A79986A
:10099000D202809C791080027908C206C2088008C1
:1009A000D2D5790A8004790AC2D5E50A047002F525
:1009B0000AE4FAFDFEFF120800FC7B082001131276
:1009C0000800FD7B1030000A120800FE120800FF2C
:1009D0007B20EC3382D592D55013C3E43000069FC0
:1009E000FFE49EFEE42001039DFDE49CFCE4CBF8C3
:1009F000C201EC700CCFCECDCCE824F8F870F380B7
:100A000017C3EF33FFEE33FEED33FDEC33FCEB3376
:100A1000FB994002FB0FD8E9EB300105F8D0E0C4A8
:100A200048B201C0E00AEC4D4E4F78207B0070C206
:100A3000EAB50A0040BCC0E0120A9ED0F0D0E02027
:100A40000104C4C0E0C4B201C0F012082CD0F0D53B
:100A5000F0EB02087D120D8B091A5309945808EB2C
:100A60004C08E74209984F09A04409A049090043EE
:080A700009A655098A46098A0E
:100A780045098A470B465008EF2D08F32E09162B17
:100A880008F7230914200B2F2A08AF480000090E85
:100A98003F3F3F00790AA2D5200314300509B91059
:100AA800020404B9080104A2D5200602500104205A
:100AB80002689202B509005034C0E07F2030031963
:100AC8007F30A20272067205500F120AF5C202C2E6
:100AD80006C205C2087F30800F300503E9C0E01266
:100AE8000843300503D0E0F9D0E0B509CC3005174C
:100AF8007F30B9100C1208437F583004077F788084
:100B080003B908031208433002057F2D0208437F0A
:100B1800202008F87F2B2006F322920280CF286E2F
:100B2800756C6C2900D2011208003001F8C20178F6
:100B38000930D50108F60208AF2D5043495812086C
:100B4800002403B405004001E4900B4193120834DB
:0D0B5800743A120834D2037509040209949E
:10129F000211B8E493A3F8E493A34003F68001F29C
:1012AF0008DFF48029E493A3F85407240CC8C33350
:1012BF00C4540F4420C8834004F456800146F6DF1F
:1012CF00E4800B01020408102040809014DBE47EC0
:1012DF00019360BCA3FF543F30E509541FFEE49314
:1012EF00A360010ECF54C025E060A840B8E493A3DB
:1012FF00FAE493A3F8E493A3C8C582C8CAC583CA06
:10130F00F0A3C8C582C8CAC583CADFE9DEE780BEBD
:0114FA0000F1
:100D3500BB010CE58229F582E5833AF583E0225073
:100D450006E92582F8E622BBFE06E92582F8E222BD
:0D0D5500E58229F582E5833AF583E49322D7
:100D6200BB010689828A83F0225002F722BBFE0170
:020D7200F3226A
:100D7400F8E0FBA3A3E0F925F0F0E5821582700208
:070D84001583E0FA38F022AC
:100D8B00D083D082F8E4937012740193700DA3A3F7
:100D9B0093F8740193F5828883E47374029368600B
:060DAB00EFA3A3A380DF0B
:1014B400EFB40A07740D1214BF740A309811A89976
:1014C400B8130CC2983098FDA899C298B811F63098
:0714D40099FDC299F5992270
:00000001FF
